{
	"contracts/agroChain.sol": {
		"AgroChain": {
			"abi": [
				{
					"inputs": [
						{
							"internalType": "uint256",
							"name": "_id",
							"type": "uint256"
						}
					],
					"name": "confirmarEntrega",
					"outputs": [],
					"stateMutability": "nonpayable",
					"type": "function"
				},
				{
					"inputs": [],
					"name": "contador",
					"outputs": [
						{
							"internalType": "uint256",
							"name": "",
							"type": "uint256"
						}
					],
					"stateMutability": "view",
					"type": "function"
				},
				{
					"inputs": [
						{
							"internalType": "uint256",
							"name": "_id",
							"type": "uint256"
						}
					],
					"name": "financiarCompra",
					"outputs": [],
					"stateMutability": "payable",
					"type": "function"
				},
				{
					"inputs": [
						{
							"internalType": "uint256",
							"name": "",
							"type": "uint256"
						}
					],
					"name": "productos",
					"outputs": [
						{
							"internalType": "string",
							"name": "nombre",
							"type": "string"
						},
						{
							"internalType": "uint256",
							"name": "precio",
							"type": "uint256"
						},
						{
							"internalType": "address payable",
							"name": "agricultor",
							"type": "address"
						},
						{
							"internalType": "address",
							"name": "comprador",
							"type": "address"
						},
						{
							"internalType": "enum AgroChain.Estado",
							"name": "estado",
							"type": "uint8"
						}
					],
					"stateMutability": "view",
					"type": "function"
				},
				{
					"inputs": [
						{
							"internalType": "string",
							"name": "_nombre",
							"type": "string"
						},
						{
							"internalType": "uint256",
							"name": "_precio",
							"type": "uint256"
						}
					],
					"name": "publicarProducto",
					"outputs": [],
					"stateMutability": "nonpayable",
					"type": "function"
				}
			],
			"devdoc": {
				"kind": "dev",
				"methods": {
					"confirmarEntrega(uint256)": {
						"params": {
							"_id": "ID del producto recibido"
						}
					},
					"financiarCompra(uint256)": {
						"params": {
							"_id": "ID del producto a financiar"
						}
					},
					"publicarProducto(string,uint256)": {
						"params": {
							"_nombre": "Nombre del producto",
							"_precio": "Precio en wei (ej: 1 ETH = 1e18 wei)"
						}
					}
				},
				"title": "AgroChain - Comercio justo para agricultores usando blockchain",
				"version": 1
			},
			"evm": {
				"assembly": "    /* \"contracts/agroChain.sol\":226:2895  contract AgroChain {... */\n  mstore(0x40, 0x80)\n    /* \"contracts/agroChain.sol\":1276:1277  0 */\n  0x00\n    /* \"contracts/agroChain.sol\":1253:1277  uint public contador = 0 */\n  0x01\n  sstore\n    /* \"contracts/agroChain.sol\":226:2895  contract AgroChain {... */\n  callvalue\n  dup1\n  iszero\n  tag_1\n  jumpi\n  revert(0x00, 0x00)\ntag_1:\n  pop\n  dataSize(sub_0)\n  dup1\n  dataOffset(sub_0)\n  0x00\n  codecopy\n  0x00\n  return\nstop\n\nsub_0: assembly {\n        /* \"contracts/agroChain.sol\":226:2895  contract AgroChain {... */\n      mstore(0x40, 0x80)\n      jumpi(tag_1, lt(calldatasize, 0x04))\n      shr(0xe0, calldataload(0x00))\n      dup1\n      0x53d27cc2\n      eq\n      tag_2\n      jumpi\n      dup1\n      0x99553636\n      eq\n      tag_3\n      jumpi\n      dup1\n      0x9acde9ea\n      eq\n      tag_4\n      jumpi\n      dup1\n      0xeea7f824\n      eq\n      tag_5\n      jumpi\n      dup1\n      0xfecc7c93\n      eq\n      tag_6\n      jumpi\n    tag_1:\n      revert(0x00, 0x00)\n        /* \"contracts/agroChain.sol\":1253:1277  uint public contador = 0 */\n    tag_2:\n      callvalue\n      dup1\n      iszero\n      tag_7\n      jumpi\n      revert(0x00, 0x00)\n    tag_7:\n      pop\n      tag_8\n      tag_9\n      jump\t// in\n    tag_8:\n      mload(0x40)\n      tag_10\n      swap2\n      swap1\n      tag_11\n      jump\t// in\n    tag_10:\n      mload(0x40)\n      dup1\n      swap2\n      sub\n      swap1\n      return\n        /* \"contracts/agroChain.sol\":1131:1173  mapping(uint => Producto) public productos */\n    tag_3:\n      callvalue\n      dup1\n      iszero\n      tag_12\n      jumpi\n      revert(0x00, 0x00)\n    tag_12:\n      pop\n      tag_13\n      0x04\n      dup1\n      calldatasize\n      sub\n      dup2\n      add\n      swap1\n      tag_14\n      swap2\n      swap1\n      tag_15\n      jump\t// in\n    tag_14:\n      tag_16\n      jump\t// in\n    tag_13:\n      mload(0x40)\n      tag_17\n      swap6\n      swap5\n      swap4\n      swap3\n      swap2\n      swap1\n      tag_18\n      jump\t// in\n    tag_17:\n      mload(0x40)\n      dup1\n      swap2\n      sub\n      swap1\n      return\n        /* \"contracts/agroChain.sol\":1454:1899  function publicarProducto(string memory _nombre, uint _precio) public {... */\n    tag_4:\n      callvalue\n      dup1\n      iszero\n      tag_19\n      jumpi\n      revert(0x00, 0x00)\n    tag_19:\n      pop\n      tag_20\n      0x04\n      dup1\n      calldatasize\n      sub\n      dup2\n      add\n      swap1\n      tag_21\n      swap2\n      swap1\n      tag_22\n      jump\t// in\n    tag_21:\n      tag_23\n      jump\t// in\n    tag_20:\n      stop\n        /* \"contracts/agroChain.sol\":2500:2885  function confirmarEntrega(uint _id) public {... */\n    tag_5:\n      callvalue\n      dup1\n      iszero\n      tag_24\n      jumpi\n      revert(0x00, 0x00)\n    tag_24:\n      pop\n      tag_25\n      0x04\n      dup1\n      calldatasize\n      sub\n      dup2\n      add\n      swap1\n      tag_26\n      swap2\n      swap1\n      tag_15\n      jump\t// in\n    tag_26:\n      tag_27\n      jump\t// in\n    tag_25:\n      stop\n        /* \"contracts/agroChain.sol\":2024:2378  function financiarCompra(uint _id) public payable {... */\n    tag_6:\n      tag_28\n      0x04\n      dup1\n      calldatasize\n      sub\n      dup2\n      add\n      swap1\n      tag_29\n      swap2\n      swap1\n      tag_15\n      jump\t// in\n    tag_29:\n      tag_30\n      jump\t// in\n    tag_28:\n      stop\n        /* \"contracts/agroChain.sol\":1253:1277  uint public contador = 0 */\n    tag_9:\n      sload(0x01)\n      dup2\n      jump\t// out\n        /* \"contracts/agroChain.sol\":1131:1173  mapping(uint => Producto) public productos */\n    tag_16:\n      mstore(0x20, 0x00)\n      dup1\n      0x00\n      mstore\n      keccak256(0x00, 0x40)\n      0x00\n      swap2\n      pop\n      swap1\n      pop\n      dup1\n      0x00\n      add\n      dup1\n      sload\n      tag_31\n      swap1\n      tag_32\n      jump\t// in\n    tag_31:\n      dup1\n      0x1f\n      add\n      0x20\n      dup1\n      swap2\n      div\n      mul\n      0x20\n      add\n      mload(0x40)\n      swap1\n      dup2\n      add\n      0x40\n      mstore\n      dup1\n      swap3\n      swap2\n      swap1\n      dup2\n      dup2\n      mstore\n      0x20\n      add\n      dup3\n      dup1\n      sload\n      tag_33\n      swap1\n      tag_32\n      jump\t// in\n    tag_33:\n      dup1\n      iszero\n      tag_34\n      jumpi\n      dup1\n      0x1f\n      lt\n      tag_35\n      jumpi\n      0x0100\n      dup1\n      dup4\n      sload\n      div\n      mul\n      dup4\n      mstore\n      swap2\n      0x20\n      add\n      swap2\n      jump(tag_34)\n    tag_35:\n      dup3\n      add\n      swap2\n      swap1\n      0x00\n      mstore\n      keccak256(0x00, 0x20)\n      swap1\n    tag_36:\n      dup2\n      sload\n      dup2\n      mstore\n      swap1\n      0x01\n      add\n      swap1\n      0x20\n      add\n      dup1\n      dup4\n      gt\n      tag_36\n      jumpi\n      dup3\n      swap1\n      sub\n      0x1f\n      and\n      dup3\n      add\n      swap2\n    tag_34:\n      pop\n      pop\n      pop\n      pop\n      pop\n      swap1\n      dup1\n      0x01\n      add\n      sload\n      swap1\n      dup1\n      0x02\n      add\n      0x00\n      swap1\n      sload\n      swap1\n      0x0100\n      exp\n      swap1\n      div\n      0xffffffffffffffffffffffffffffffffffffffff\n      and\n      swap1\n      dup1\n      0x03\n      add\n      0x00\n      swap1\n      sload\n      swap1\n      0x0100\n      exp\n      swap1\n      div\n      0xffffffffffffffffffffffffffffffffffffffff\n      and\n      swap1\n      dup1\n      0x03\n      add\n      0x14\n      swap1\n      sload\n      swap1\n      0x0100\n      exp\n      swap1\n      div\n      0xff\n      and\n      swap1\n      pop\n      dup6\n      jump\t// out\n        /* \"contracts/agroChain.sol\":1454:1899  function publicarProducto(string memory _nombre, uint _precio) public {... */\n    tag_23:\n        /* \"contracts/agroChain.sol\":1556:1832  Producto({... */\n      mload(0x40)\n      dup1\n      0xa0\n      add\n      0x40\n      mstore\n      dup1\n        /* \"contracts/agroChain.sol\":1587:1594  _nombre */\n      dup4\n        /* \"contracts/agroChain.sol\":1556:1832  Producto({... */\n      dup2\n      mstore\n      0x20\n      add\n        /* \"contracts/agroChain.sol\":1616:1623  _precio */\n      dup3\n        /* \"contracts/agroChain.sol\":1556:1832  Producto({... */\n      dup2\n      mstore\n      0x20\n      add\n        /* \"contracts/agroChain.sol\":1657:1667  msg.sender */\n      caller\n        /* \"contracts/agroChain.sol\":1556:1832  Producto({... */\n      0xffffffffffffffffffffffffffffffffffffffff\n      and\n      dup2\n      mstore\n      0x20\n      add\n        /* \"contracts/agroChain.sol\":1748:1749  0 */\n      0x00\n        /* \"contracts/agroChain.sol\":1556:1832  Producto({... */\n      0xffffffffffffffffffffffffffffffffffffffff\n      and\n      dup2\n      mstore\n      0x20\n      add\n        /* \"contracts/agroChain.sol\":1805:1821  Estado.Publicado */\n      0x00\n        /* \"contracts/agroChain.sol\":1556:1832  Producto({... */\n      0x03\n      dup2\n      gt\n      iszero\n      tag_38\n      jumpi\n      tag_39\n      tag_40\n      jump\t// in\n    tag_39:\n    tag_38:\n      dup2\n      mstore\n      pop\n        /* \"contracts/agroChain.sol\":1534:1543  productos */\n      0x00\n        /* \"contracts/agroChain.sol\":1534:1553  productos[contador] */\n      0x00\n        /* \"contracts/agroChain.sol\":1544:1552  contador */\n      sload(0x01)\n        /* \"contracts/agroChain.sol\":1534:1553  productos[contador] */\n      dup2\n      mstore\n      0x20\n      add\n      swap1\n      dup2\n      mstore\n      0x20\n      add\n      0x00\n      keccak256\n        /* \"contracts/agroChain.sol\":1534:1832  productos[contador] = Producto({... */\n      0x00\n      dup3\n      add\n      mload\n      dup2\n      0x00\n      add\n      swap1\n      dup2\n      tag_41\n      swap2\n      swap1\n      tag_42\n      jump\t// in\n    tag_41:\n      pop\n      0x20\n      dup3\n      add\n      mload\n      dup2\n      0x01\n      add\n      sstore\n      0x40\n      dup3\n      add\n      mload\n      dup2\n      0x02\n      add\n      exp(0x0100, 0x00)\n      dup2\n      sload\n      dup2\n      0xffffffffffffffffffffffffffffffffffffffff\n      mul\n      not\n      and\n      swap1\n      dup4\n      0xffffffffffffffffffffffffffffffffffffffff\n      and\n      mul\n      or\n      swap1\n      sstore\n      pop\n      0x60\n      dup3\n      add\n      mload\n      dup2\n      0x03\n      add\n      exp(0x0100, 0x00)\n      dup2\n      sload\n      dup2\n      0xffffffffffffffffffffffffffffffffffffffff\n      mul\n      not\n      and\n      swap1\n      dup4\n      0xffffffffffffffffffffffffffffffffffffffff\n      and\n      mul\n      or\n      swap1\n      sstore\n      pop\n      0x80\n      dup3\n      add\n      mload\n      dup2\n      0x03\n      add\n      exp(0x0100, 0x14)\n      dup2\n      sload\n      dup2\n      0xff\n      mul\n      not\n      and\n      swap1\n      dup4\n      0x03\n      dup2\n      gt\n      iszero\n      tag_43\n      jumpi\n      tag_44\n      tag_40\n      jump\t// in\n    tag_44:\n    tag_43:\n      mul\n      or\n      swap1\n      sstore\n      pop\n      swap1\n      pop\n      pop\n        /* \"contracts/agroChain.sol\":1843:1851  contador */\n      0x01\n      0x00\n        /* \"contracts/agroChain.sol\":1843:1853  contador++ */\n      dup2\n      sload\n      dup1\n      swap3\n      swap2\n      swap1\n      tag_45\n      swap1\n      tag_46\n      jump\t// in\n    tag_45:\n      swap2\n      swap1\n      pop\n      sstore\n      pop\n        /* \"contracts/agroChain.sol\":1454:1899  function publicarProducto(string memory _nombre, uint _precio) public {... */\n      pop\n      pop\n      jump\t// out\n        /* \"contracts/agroChain.sol\":2500:2885  function confirmarEntrega(uint _id) public {... */\n    tag_27:\n        /* \"contracts/agroChain.sol\":2553:2571  Producto storage p */\n      0x00\n        /* \"contracts/agroChain.sol\":2574:2583  productos */\n      0x00\n        /* \"contracts/agroChain.sol\":2574:2588  productos[_id] */\n      0x00\n        /* \"contracts/agroChain.sol\":2584:2587  _id */\n      dup4\n        /* \"contracts/agroChain.sol\":2574:2588  productos[_id] */\n      dup2\n      mstore\n      0x20\n      add\n      swap1\n      dup2\n      mstore\n      0x20\n      add\n      0x00\n      keccak256\n        /* \"contracts/agroChain.sol\":2553:2588  Producto storage p = productos[_id] */\n      swap1\n      pop\n        /* \"contracts/agroChain.sol\":2621:2622  p */\n      dup1\n        /* \"contracts/agroChain.sol\":2621:2632  p.comprador */\n      0x03\n      add\n      0x00\n      swap1\n      sload\n      swap1\n      0x0100\n      exp\n      swap1\n      div\n      0xffffffffffffffffffffffffffffffffffffffff\n      and\n        /* \"contracts/agroChain.sol\":2607:2632  msg.sender == p.comprador */\n      0xffffffffffffffffffffffffffffffffffffffff\n      and\n        /* \"contracts/agroChain.sol\":2607:2617  msg.sender */\n      caller\n        /* \"contracts/agroChain.sol\":2607:2632  msg.sender == p.comprador */\n      0xffffffffffffffffffffffffffffffffffffffff\n      and\n      eq\n        /* \"contracts/agroChain.sol\":2599:2670  require(msg.sender == p.comprador, \"Solo el comprador puede confirmar\") */\n      tag_48\n      jumpi\n      mload(0x40)\n      0x08c379a000000000000000000000000000000000000000000000000000000000\n      dup2\n      mstore\n      0x04\n      add\n      tag_49\n      swap1\n      tag_50\n      jump\t// in\n    tag_49:\n      mload(0x40)\n      dup1\n      swap2\n      sub\n      swap1\n      revert\n    tag_48:\n        /* \"contracts/agroChain.sol\":2700:2717  Estado.Financiado */\n      0x01\n        /* \"contracts/agroChain.sol\":2688:2717  p.estado == Estado.Financiado */\n      0x03\n      dup2\n      gt\n      iszero\n      tag_51\n      jumpi\n      tag_52\n      tag_40\n      jump\t// in\n    tag_52:\n    tag_51:\n        /* \"contracts/agroChain.sol\":2688:2689  p */\n      dup2\n        /* \"contracts/agroChain.sol\":2688:2696  p.estado */\n      0x03\n      add\n      0x14\n      swap1\n      sload\n      swap1\n      0x0100\n      exp\n      swap1\n      div\n      0xff\n      and\n        /* \"contracts/agroChain.sol\":2688:2717  p.estado == Estado.Financiado */\n      0x03\n      dup2\n      gt\n      iszero\n      tag_53\n      jumpi\n      tag_54\n      tag_40\n      jump\t// in\n    tag_54:\n    tag_53:\n      eq\n        /* \"contracts/agroChain.sol\":2680:2755  require(p.estado == Estado.Financiado, \"El producto no ha sido financiado\") */\n      tag_55\n      jumpi\n      mload(0x40)\n      0x08c379a000000000000000000000000000000000000000000000000000000000\n      dup2\n      mstore\n      0x04\n      add\n      tag_56\n      swap1\n      tag_57\n      jump\t// in\n    tag_56:\n      mload(0x40)\n      dup1\n      swap2\n      sub\n      swap1\n      revert\n    tag_55:\n        /* \"contracts/agroChain.sol\":2777:2792  Estado.Recibido */\n      0x03\n        /* \"contracts/agroChain.sol\":2766:2767  p */\n      dup2\n        /* \"contracts/agroChain.sol\":2766:2774  p.estado */\n      0x03\n      add\n      0x14\n        /* \"contracts/agroChain.sol\":2766:2792  p.estado = Estado.Recibido */\n      0x0100\n      exp\n      dup2\n      sload\n      dup2\n      0xff\n      mul\n      not\n      and\n      swap1\n      dup4\n      0x03\n      dup2\n      gt\n      iszero\n      tag_58\n      jumpi\n      tag_59\n      tag_40\n      jump\t// in\n    tag_59:\n    tag_58:\n      mul\n      or\n      swap1\n      sstore\n      pop\n        /* \"contracts/agroChain.sol\":2847:2848  p */\n      dup1\n        /* \"contracts/agroChain.sol\":2847:2859  p.agricultor */\n      0x02\n      add\n      0x00\n      swap1\n      sload\n      swap1\n      0x0100\n      exp\n      swap1\n      div\n      0xffffffffffffffffffffffffffffffffffffffff\n      and\n        /* \"contracts/agroChain.sol\":2847:2868  p.agricultor.transfer */\n      0xffffffffffffffffffffffffffffffffffffffff\n      and\n        /* \"contracts/agroChain.sol\":2847:2878  p.agricultor.transfer(p.precio) */\n      0x08fc\n        /* \"contracts/agroChain.sol\":2869:2870  p */\n      dup3\n        /* \"contracts/agroChain.sol\":2869:2877  p.precio */\n      0x01\n      add\n      sload\n        /* \"contracts/agroChain.sol\":2847:2878  p.agricultor.transfer(p.precio) */\n      swap1\n      dup2\n      iszero\n      mul\n      swap1\n      mload(0x40)\n      0x00\n      mload(0x40)\n      dup1\n      dup4\n      sub\n      dup2\n      dup6\n      dup9\n      dup9\n      call\n      swap4\n      pop\n      pop\n      pop\n      pop\n      iszero\n      dup1\n      iszero\n      tag_61\n      jumpi\n      returndatacopy(0x00, 0x00, returndatasize)\n      revert(0x00, returndatasize)\n    tag_61:\n      pop\n        /* \"contracts/agroChain.sol\":2543:2885  {... */\n      pop\n        /* \"contracts/agroChain.sol\":2500:2885  function confirmarEntrega(uint _id) public {... */\n      pop\n      jump\t// out\n        /* \"contracts/agroChain.sol\":2024:2378  function financiarCompra(uint _id) public payable {... */\n    tag_30:\n        /* \"contracts/agroChain.sol\":2084:2102  Producto storage p */\n      0x00\n        /* \"contracts/agroChain.sol\":2105:2114  productos */\n      0x00\n        /* \"contracts/agroChain.sol\":2105:2119  productos[_id] */\n      0x00\n        /* \"contracts/agroChain.sol\":2115:2118  _id */\n      dup4\n        /* \"contracts/agroChain.sol\":2105:2119  productos[_id] */\n      dup2\n      mstore\n      0x20\n      add\n      swap1\n      dup2\n      mstore\n      0x20\n      add\n      0x00\n      keccak256\n        /* \"contracts/agroChain.sol\":2084:2119  Producto storage p = productos[_id] */\n      swap1\n      pop\n        /* \"contracts/agroChain.sol\":2150:2166  Estado.Publicado */\n      0x00\n        /* \"contracts/agroChain.sol\":2138:2166  p.estado == Estado.Publicado */\n      0x03\n      dup2\n      gt\n      iszero\n      tag_63\n      jumpi\n      tag_64\n      tag_40\n      jump\t// in\n    tag_64:\n    tag_63:\n        /* \"contracts/agroChain.sol\":2138:2139  p */\n      dup2\n        /* \"contracts/agroChain.sol\":2138:2146  p.estado */\n      0x03\n      add\n      0x14\n      swap1\n      sload\n      swap1\n      0x0100\n      exp\n      swap1\n      div\n      0xff\n      and\n        /* \"contracts/agroChain.sol\":2138:2166  p.estado == Estado.Publicado */\n      0x03\n      dup2\n      gt\n      iszero\n      tag_65\n      jumpi\n      tag_66\n      tag_40\n      jump\t// in\n    tag_66:\n    tag_65:\n      eq\n        /* \"contracts/agroChain.sol\":2130:2212  require(p.estado == Estado.Publicado, \"El producto ya fue financiado o entregado\") */\n      tag_67\n      jumpi\n      mload(0x40)\n      0x08c379a000000000000000000000000000000000000000000000000000000000\n      dup2\n      mstore\n      0x04\n      add\n      tag_68\n      swap1\n      tag_69\n      jump\t// in\n    tag_68:\n      mload(0x40)\n      dup1\n      swap2\n      sub\n      swap1\n      revert\n    tag_67:\n        /* \"contracts/agroChain.sol\":2243:2244  p */\n      dup1\n        /* \"contracts/agroChain.sol\":2243:2251  p.precio */\n      0x01\n      add\n      sload\n        /* \"contracts/agroChain.sol\":2230:2239  msg.value */\n      callvalue\n        /* \"contracts/agroChain.sol\":2230:2251  msg.value == p.precio */\n      eq\n        /* \"contracts/agroChain.sol\":2222:2298  require(msg.value == p.precio, \"El valor enviado no coincide con el precio\") */\n      tag_70\n      jumpi\n      mload(0x40)\n      0x08c379a000000000000000000000000000000000000000000000000000000000\n      dup2\n      mstore\n      0x04\n      add\n      tag_71\n      swap1\n      tag_72\n      jump\t// in\n    tag_71:\n      mload(0x40)\n      dup1\n      swap2\n      sub\n      swap1\n      revert\n    tag_70:\n        /* \"contracts/agroChain.sol\":2323:2333  msg.sender */\n      caller\n        /* \"contracts/agroChain.sol\":2309:2310  p */\n      dup2\n        /* \"contracts/agroChain.sol\":2309:2320  p.comprador */\n      0x03\n      add\n      0x00\n        /* \"contracts/agroChain.sol\":2309:2333  p.comprador = msg.sender */\n      0x0100\n      exp\n      dup2\n      sload\n      dup2\n      0xffffffffffffffffffffffffffffffffffffffff\n      mul\n      not\n      and\n      swap1\n      dup4\n      0xffffffffffffffffffffffffffffffffffffffff\n      and\n      mul\n      or\n      swap1\n      sstore\n      pop\n        /* \"contracts/agroChain.sol\":2354:2371  Estado.Financiado */\n      0x01\n        /* \"contracts/agroChain.sol\":2343:2344  p */\n      dup2\n        /* \"contracts/agroChain.sol\":2343:2351  p.estado */\n      0x03\n      add\n      0x14\n        /* \"contracts/agroChain.sol\":2343:2371  p.estado = Estado.Financiado */\n      0x0100\n      exp\n      dup2\n      sload\n      dup2\n      0xff\n      mul\n      not\n      and\n      swap1\n      dup4\n      0x03\n      dup2\n      gt\n      iszero\n      tag_73\n      jumpi\n      tag_74\n      tag_40\n      jump\t// in\n    tag_74:\n    tag_73:\n      mul\n      or\n      swap1\n      sstore\n      pop\n        /* \"contracts/agroChain.sol\":2074:2378  {... */\n      pop\n        /* \"contracts/agroChain.sol\":2024:2378  function financiarCompra(uint _id) public payable {... */\n      pop\n      jump\t// out\n        /* \"#utility.yul\":7:84   */\n    tag_75:\n        /* \"#utility.yul\":44:51   */\n      0x00\n        /* \"#utility.yul\":73:78   */\n      dup2\n        /* \"#utility.yul\":62:78   */\n      swap1\n      pop\n        /* \"#utility.yul\":7:84   */\n      swap2\n      swap1\n      pop\n      jump\t// out\n        /* \"#utility.yul\":90:208   */\n    tag_76:\n        /* \"#utility.yul\":177:201   */\n      tag_133\n        /* \"#utility.yul\":195:200   */\n      dup2\n        /* \"#utility.yul\":177:201   */\n      tag_75\n      jump\t// in\n    tag_133:\n        /* \"#utility.yul\":172:175   */\n      dup3\n        /* \"#utility.yul\":165:202   */\n      mstore\n        /* \"#utility.yul\":90:208   */\n      pop\n      pop\n      jump\t// out\n        /* \"#utility.yul\":214:436   */\n    tag_11:\n        /* \"#utility.yul\":307:311   */\n      0x00\n        /* \"#utility.yul\":345:347   */\n      0x20\n        /* \"#utility.yul\":334:343   */\n      dup3\n        /* \"#utility.yul\":330:348   */\n      add\n        /* \"#utility.yul\":322:348   */\n      swap1\n      pop\n        /* \"#utility.yul\":358:429   */\n      tag_135\n        /* \"#utility.yul\":426:427   */\n      0x00\n        /* \"#utility.yul\":415:424   */\n      dup4\n        /* \"#utility.yul\":411:428   */\n      add\n        /* \"#utility.yul\":402:408   */\n      dup5\n        /* \"#utility.yul\":358:429   */\n      tag_76\n      jump\t// in\n    tag_135:\n        /* \"#utility.yul\":214:436   */\n      swap3\n      swap2\n      pop\n      pop\n      jump\t// out\n        /* \"#utility.yul\":442:517   */\n    tag_77:\n        /* \"#utility.yul\":475:481   */\n      0x00\n        /* \"#utility.yul\":508:510   */\n      0x40\n        /* \"#utility.yul\":502:511   */\n      mload\n        /* \"#utility.yul\":492:511   */\n      swap1\n      pop\n        /* \"#utility.yul\":442:517   */\n      swap1\n      jump\t// out\n        /* \"#utility.yul\":523:640   */\n    tag_78:\n        /* \"#utility.yul\":632:633   */\n      0x00\n        /* \"#utility.yul\":629:630   */\n      0x00\n        /* \"#utility.yul\":622:634   */\n      revert\n        /* \"#utility.yul\":646:763   */\n    tag_79:\n        /* \"#utility.yul\":755:756   */\n      0x00\n        /* \"#utility.yul\":752:753   */\n      0x00\n        /* \"#utility.yul\":745:757   */\n      revert\n        /* \"#utility.yul\":769:891   */\n    tag_80:\n        /* \"#utility.yul\":842:866   */\n      tag_140\n        /* \"#utility.yul\":860:865   */\n      dup2\n        /* \"#utility.yul\":842:866   */\n      tag_75\n      jump\t// in\n    tag_140:\n        /* \"#utility.yul\":835:840   */\n      dup2\n        /* \"#utility.yul\":832:867   */\n      eq\n        /* \"#utility.yul\":822:885   */\n      tag_141\n      jumpi\n        /* \"#utility.yul\":881:882   */\n      0x00\n        /* \"#utility.yul\":878:879   */\n      0x00\n        /* \"#utility.yul\":871:883   */\n      revert\n        /* \"#utility.yul\":822:885   */\n    tag_141:\n        /* \"#utility.yul\":769:891   */\n      pop\n      jump\t// out\n        /* \"#utility.yul\":897:1036   */\n    tag_81:\n        /* \"#utility.yul\":943:948   */\n      0x00\n        /* \"#utility.yul\":981:987   */\n      dup2\n        /* \"#utility.yul\":968:988   */\n      calldataload\n        /* \"#utility.yul\":959:988   */\n      swap1\n      pop\n        /* \"#utility.yul\":997:1030   */\n      tag_143\n        /* \"#utility.yul\":1024:1029   */\n      dup2\n        /* \"#utility.yul\":997:1030   */\n      tag_80\n      jump\t// in\n    tag_143:\n        /* \"#utility.yul\":897:1036   */\n      swap3\n      swap2\n      pop\n      pop\n      jump\t// out\n        /* \"#utility.yul\":1042:1371   */\n    tag_15:\n        /* \"#utility.yul\":1101:1107   */\n      0x00\n        /* \"#utility.yul\":1150:1152   */\n      0x20\n        /* \"#utility.yul\":1138:1147   */\n      dup3\n        /* \"#utility.yul\":1129:1136   */\n      dup5\n        /* \"#utility.yul\":1125:1148   */\n      sub\n        /* \"#utility.yul\":1121:1153   */\n      slt\n        /* \"#utility.yul\":1118:1237   */\n      iszero\n      tag_145\n      jumpi\n        /* \"#utility.yul\":1156:1235   */\n      tag_146\n      tag_78\n      jump\t// in\n    tag_146:\n        /* \"#utility.yul\":1118:1237   */\n    tag_145:\n        /* \"#utility.yul\":1276:1277   */\n      0x00\n        /* \"#utility.yul\":1301:1354   */\n      tag_147\n        /* \"#utility.yul\":1346:1353   */\n      dup5\n        /* \"#utility.yul\":1337:1343   */\n      dup3\n        /* \"#utility.yul\":1326:1335   */\n      dup6\n        /* \"#utility.yul\":1322:1344   */\n      add\n        /* \"#utility.yul\":1301:1354   */\n      tag_81\n      jump\t// in\n    tag_147:\n        /* \"#utility.yul\":1291:1354   */\n      swap2\n      pop\n        /* \"#utility.yul\":1247:1364   */\n      pop\n        /* \"#utility.yul\":1042:1371   */\n      swap3\n      swap2\n      pop\n      pop\n      jump\t// out\n        /* \"#utility.yul\":1377:1476   */\n    tag_82:\n        /* \"#utility.yul\":1429:1435   */\n      0x00\n        /* \"#utility.yul\":1463:1468   */\n      dup2\n        /* \"#utility.yul\":1457:1469   */\n      mload\n        /* \"#utility.yul\":1447:1469   */\n      swap1\n      pop\n        /* \"#utility.yul\":1377:1476   */\n      swap2\n      swap1\n      pop\n      jump\t// out\n        /* \"#utility.yul\":1482:1651   */\n    tag_83:\n        /* \"#utility.yul\":1566:1577   */\n      0x00\n        /* \"#utility.yul\":1600:1606   */\n      dup3\n        /* \"#utility.yul\":1595:1598   */\n      dup3\n        /* \"#utility.yul\":1588:1607   */\n      mstore\n        /* \"#utility.yul\":1640:1644   */\n      0x20\n        /* \"#utility.yul\":1635:1638   */\n      dup3\n        /* \"#utility.yul\":1631:1645   */\n      add\n        /* \"#utility.yul\":1616:1645   */\n      swap1\n      pop\n        /* \"#utility.yul\":1482:1651   */\n      swap3\n      swap2\n      pop\n      pop\n      jump\t// out\n        /* \"#utility.yul\":1657:1796   */\n    tag_84:\n        /* \"#utility.yul\":1746:1752   */\n      dup3\n        /* \"#utility.yul\":1741:1744   */\n      dup2\n        /* \"#utility.yul\":1736:1739   */\n      dup4\n        /* \"#utility.yul\":1730:1753   */\n      mcopy\n        /* \"#utility.yul\":1787:1788   */\n      0x00\n        /* \"#utility.yul\":1778:1784   */\n      dup4\n        /* \"#utility.yul\":1773:1776   */\n      dup4\n        /* \"#utility.yul\":1769:1785   */\n      add\n        /* \"#utility.yul\":1762:1789   */\n      mstore\n        /* \"#utility.yul\":1657:1796   */\n      pop\n      pop\n      pop\n      jump\t// out\n        /* \"#utility.yul\":1802:1904   */\n    tag_85:\n        /* \"#utility.yul\":1843:1849   */\n      0x00\n        /* \"#utility.yul\":1894:1896   */\n      0x1f\n        /* \"#utility.yul\":1890:1897   */\n      not\n        /* \"#utility.yul\":1885:1887   */\n      0x1f\n        /* \"#utility.yul\":1878:1883   */\n      dup4\n        /* \"#utility.yul\":1874:1888   */\n      add\n        /* \"#utility.yul\":1870:1898   */\n      and\n        /* \"#utility.yul\":1860:1898   */\n      swap1\n      pop\n        /* \"#utility.yul\":1802:1904   */\n      swap2\n      swap1\n      pop\n      jump\t// out\n        /* \"#utility.yul\":1910:2287   */\n    tag_86:\n        /* \"#utility.yul\":1998:2001   */\n      0x00\n        /* \"#utility.yul\":2026:2065   */\n      tag_153\n        /* \"#utility.yul\":2059:2064   */\n      dup3\n        /* \"#utility.yul\":2026:2065   */\n      tag_82\n      jump\t// in\n    tag_153:\n        /* \"#utility.yul\":2081:2152   */\n      tag_154\n        /* \"#utility.yul\":2145:2151   */\n      dup2\n        /* \"#utility.yul\":2140:2143   */\n      dup6\n        /* \"#utility.yul\":2081:2152   */\n      tag_83\n      jump\t// in\n    tag_154:\n        /* \"#utility.yul\":2074:2152   */\n      swap4\n      pop\n        /* \"#utility.yul\":2161:2226   */\n      tag_155\n        /* \"#utility.yul\":2219:2225   */\n      dup2\n        /* \"#utility.yul\":2214:2217   */\n      dup6\n        /* \"#utility.yul\":2207:2211   */\n      0x20\n        /* \"#utility.yul\":2200:2205   */\n      dup7\n        /* \"#utility.yul\":2196:2212   */\n      add\n        /* \"#utility.yul\":2161:2226   */\n      tag_84\n      jump\t// in\n    tag_155:\n        /* \"#utility.yul\":2251:2280   */\n      tag_156\n        /* \"#utility.yul\":2273:2279   */\n      dup2\n        /* \"#utility.yul\":2251:2280   */\n      tag_85\n      jump\t// in\n    tag_156:\n        /* \"#utility.yul\":2246:2249   */\n      dup5\n        /* \"#utility.yul\":2242:2281   */\n      add\n        /* \"#utility.yul\":2235:2281   */\n      swap2\n      pop\n        /* \"#utility.yul\":2002:2287   */\n      pop\n        /* \"#utility.yul\":1910:2287   */\n      swap3\n      swap2\n      pop\n      pop\n      jump\t// out\n        /* \"#utility.yul\":2293:2419   */\n    tag_87:\n        /* \"#utility.yul\":2330:2337   */\n      0x00\n        /* \"#utility.yul\":2370:2412   */\n      0xffffffffffffffffffffffffffffffffffffffff\n        /* \"#utility.yul\":2363:2368   */\n      dup3\n        /* \"#utility.yul\":2359:2413   */\n      and\n        /* \"#utility.yul\":2348:2413   */\n      swap1\n      pop\n        /* \"#utility.yul\":2293:2419   */\n      swap2\n      swap1\n      pop\n      jump\t// out\n        /* \"#utility.yul\":2425:2529   */\n    tag_88:\n        /* \"#utility.yul\":2470:2477   */\n      0x00\n        /* \"#utility.yul\":2499:2523   */\n      tag_159\n        /* \"#utility.yul\":2517:2522   */\n      dup3\n        /* \"#utility.yul\":2499:2523   */\n      tag_87\n      jump\t// in\n    tag_159:\n        /* \"#utility.yul\":2488:2523   */\n      swap1\n      pop\n        /* \"#utility.yul\":2425:2529   */\n      swap2\n      swap1\n      pop\n      jump\t// out\n        /* \"#utility.yul\":2535:2677   */\n    tag_89:\n        /* \"#utility.yul\":2638:2670   */\n      tag_161\n        /* \"#utility.yul\":2664:2669   */\n      dup2\n        /* \"#utility.yul\":2638:2670   */\n      tag_88\n      jump\t// in\n    tag_161:\n        /* \"#utility.yul\":2633:2636   */\n      dup3\n        /* \"#utility.yul\":2626:2671   */\n      mstore\n        /* \"#utility.yul\":2535:2677   */\n      pop\n      pop\n      jump\t// out\n        /* \"#utility.yul\":2683:2779   */\n    tag_90:\n        /* \"#utility.yul\":2720:2727   */\n      0x00\n        /* \"#utility.yul\":2749:2773   */\n      tag_163\n        /* \"#utility.yul\":2767:2772   */\n      dup3\n        /* \"#utility.yul\":2749:2773   */\n      tag_87\n      jump\t// in\n    tag_163:\n        /* \"#utility.yul\":2738:2773   */\n      swap1\n      pop\n        /* \"#utility.yul\":2683:2779   */\n      swap2\n      swap1\n      pop\n      jump\t// out\n        /* \"#utility.yul\":2785:2903   */\n    tag_91:\n        /* \"#utility.yul\":2872:2896   */\n      tag_165\n        /* \"#utility.yul\":2890:2895   */\n      dup2\n        /* \"#utility.yul\":2872:2896   */\n      tag_90\n      jump\t// in\n    tag_165:\n        /* \"#utility.yul\":2867:2870   */\n      dup3\n        /* \"#utility.yul\":2860:2897   */\n      mstore\n        /* \"#utility.yul\":2785:2903   */\n      pop\n      pop\n      jump\t// out\n        /* \"#utility.yul\":2909:3089   */\n    tag_40:\n        /* \"#utility.yul\":2957:3034   */\n      0x4e487b7100000000000000000000000000000000000000000000000000000000\n        /* \"#utility.yul\":2954:2955   */\n      0x00\n        /* \"#utility.yul\":2947:3035   */\n      mstore\n        /* \"#utility.yul\":3054:3058   */\n      0x21\n        /* \"#utility.yul\":3051:3052   */\n      0x04\n        /* \"#utility.yul\":3044:3059   */\n      mstore\n        /* \"#utility.yul\":3078:3082   */\n      0x24\n        /* \"#utility.yul\":3075:3076   */\n      0x00\n        /* \"#utility.yul\":3068:3083   */\n      revert\n        /* \"#utility.yul\":3095:3208   */\n    tag_92:\n        /* \"#utility.yul\":3176:3177   */\n      0x04\n        /* \"#utility.yul\":3169:3174   */\n      dup2\n        /* \"#utility.yul\":3166:3178   */\n      lt\n        /* \"#utility.yul\":3156:3202   */\n      tag_168\n      jumpi\n        /* \"#utility.yul\":3182:3200   */\n      tag_169\n      tag_40\n      jump\t// in\n    tag_169:\n        /* \"#utility.yul\":3156:3202   */\n    tag_168:\n        /* \"#utility.yul\":3095:3208   */\n      pop\n      jump\t// out\n        /* \"#utility.yul\":3214:3341   */\n    tag_93:\n        /* \"#utility.yul\":3259:3266   */\n      0x00\n        /* \"#utility.yul\":3288:3293   */\n      dup2\n        /* \"#utility.yul\":3277:3293   */\n      swap1\n      pop\n        /* \"#utility.yul\":3294:3335   */\n      tag_171\n        /* \"#utility.yul\":3329:3334   */\n      dup3\n        /* \"#utility.yul\":3294:3335   */\n      tag_92\n      jump\t// in\n    tag_171:\n        /* \"#utility.yul\":3214:3341   */\n      swap2\n      swap1\n      pop\n      jump\t// out\n        /* \"#utility.yul\":3347:3474   */\n    tag_94:\n        /* \"#utility.yul\":3403:3412   */\n      0x00\n        /* \"#utility.yul\":3436:3468   */\n      tag_173\n        /* \"#utility.yul\":3462:3467   */\n      dup3\n        /* \"#utility.yul\":3436:3468   */\n      tag_93\n      jump\t// in\n    tag_173:\n        /* \"#utility.yul\":3423:3468   */\n      swap1\n      pop\n        /* \"#utility.yul\":3347:3474   */\n      swap2\n      swap1\n      pop\n      jump\t// out\n        /* \"#utility.yul\":3480:3623   */\n    tag_95:\n        /* \"#utility.yul\":3573:3616   */\n      tag_175\n        /* \"#utility.yul\":3610:3615   */\n      dup2\n        /* \"#utility.yul\":3573:3616   */\n      tag_94\n      jump\t// in\n    tag_175:\n        /* \"#utility.yul\":3568:3571   */\n      dup3\n        /* \"#utility.yul\":3561:3617   */\n      mstore\n        /* \"#utility.yul\":3480:3623   */\n      pop\n      pop\n      jump\t// out\n        /* \"#utility.yul\":3629:4428   */\n    tag_18:\n        /* \"#utility.yul\":3876:3880   */\n      0x00\n        /* \"#utility.yul\":3914:3917   */\n      0xa0\n        /* \"#utility.yul\":3903:3912   */\n      dup3\n        /* \"#utility.yul\":3899:3918   */\n      add\n        /* \"#utility.yul\":3891:3918   */\n      swap1\n      pop\n        /* \"#utility.yul\":3964:3973   */\n      dup2\n        /* \"#utility.yul\":3958:3962   */\n      dup2\n        /* \"#utility.yul\":3954:3974   */\n      sub\n        /* \"#utility.yul\":3950:3951   */\n      0x00\n        /* \"#utility.yul\":3939:3948   */\n      dup4\n        /* \"#utility.yul\":3935:3952   */\n      add\n        /* \"#utility.yul\":3928:3975   */\n      mstore\n        /* \"#utility.yul\":3992:4070   */\n      tag_177\n        /* \"#utility.yul\":4065:4069   */\n      dup2\n        /* \"#utility.yul\":4056:4062   */\n      dup9\n        /* \"#utility.yul\":3992:4070   */\n      tag_86\n      jump\t// in\n    tag_177:\n        /* \"#utility.yul\":3984:4070   */\n      swap1\n      pop\n        /* \"#utility.yul\":4080:4152   */\n      tag_178\n        /* \"#utility.yul\":4148:4150   */\n      0x20\n        /* \"#utility.yul\":4137:4146   */\n      dup4\n        /* \"#utility.yul\":4133:4151   */\n      add\n        /* \"#utility.yul\":4124:4130   */\n      dup8\n        /* \"#utility.yul\":4080:4152   */\n      tag_76\n      jump\t// in\n    tag_178:\n        /* \"#utility.yul\":4162:4250   */\n      tag_179\n        /* \"#utility.yul\":4246:4248   */\n      0x40\n        /* \"#utility.yul\":4235:4244   */\n      dup4\n        /* \"#utility.yul\":4231:4249   */\n      add\n        /* \"#utility.yul\":4222:4228   */\n      dup7\n        /* \"#utility.yul\":4162:4250   */\n      tag_89\n      jump\t// in\n    tag_179:\n        /* \"#utility.yul\":4260:4332   */\n      tag_180\n        /* \"#utility.yul\":4328:4330   */\n      0x60\n        /* \"#utility.yul\":4317:4326   */\n      dup4\n        /* \"#utility.yul\":4313:4331   */\n      add\n        /* \"#utility.yul\":4304:4310   */\n      dup6\n        /* \"#utility.yul\":4260:4332   */\n      tag_91\n      jump\t// in\n    tag_180:\n        /* \"#utility.yul\":4342:4421   */\n      tag_181\n        /* \"#utility.yul\":4416:4419   */\n      0x80\n        /* \"#utility.yul\":4405:4414   */\n      dup4\n        /* \"#utility.yul\":4401:4420   */\n      add\n        /* \"#utility.yul\":4392:4398   */\n      dup5\n        /* \"#utility.yul\":4342:4421   */\n      tag_95\n      jump\t// in\n    tag_181:\n        /* \"#utility.yul\":3629:4428   */\n      swap7\n      swap6\n      pop\n      pop\n      pop\n      pop\n      pop\n      pop\n      jump\t// out\n        /* \"#utility.yul\":4434:4551   */\n    tag_96:\n        /* \"#utility.yul\":4543:4544   */\n      0x00\n        /* \"#utility.yul\":4540:4541   */\n      0x00\n        /* \"#utility.yul\":4533:4545   */\n      revert\n        /* \"#utility.yul\":4557:4674   */\n    tag_97:\n        /* \"#utility.yul\":4666:4667   */\n      0x00\n        /* \"#utility.yul\":4663:4664   */\n      0x00\n        /* \"#utility.yul\":4656:4668   */\n      revert\n        /* \"#utility.yul\":4680:4860   */\n    tag_98:\n        /* \"#utility.yul\":4728:4805   */\n      0x4e487b7100000000000000000000000000000000000000000000000000000000\n        /* \"#utility.yul\":4725:4726   */\n      0x00\n        /* \"#utility.yul\":4718:4806   */\n      mstore\n        /* \"#utility.yul\":4825:4829   */\n      0x41\n        /* \"#utility.yul\":4822:4823   */\n      0x04\n        /* \"#utility.yul\":4815:4830   */\n      mstore\n        /* \"#utility.yul\":4849:4853   */\n      0x24\n        /* \"#utility.yul\":4846:4847   */\n      0x00\n        /* \"#utility.yul\":4839:4854   */\n      revert\n        /* \"#utility.yul\":4866:5147   */\n    tag_99:\n        /* \"#utility.yul\":4949:4976   */\n      tag_186\n        /* \"#utility.yul\":4971:4975   */\n      dup3\n        /* \"#utility.yul\":4949:4976   */\n      tag_85\n      jump\t// in\n    tag_186:\n        /* \"#utility.yul\":4941:4947   */\n      dup2\n        /* \"#utility.yul\":4937:4977   */\n      add\n        /* \"#utility.yul\":5079:5085   */\n      dup2\n        /* \"#utility.yul\":5067:5077   */\n      dup2\n        /* \"#utility.yul\":5064:5086   */\n      lt\n        /* \"#utility.yul\":5043:5061   */\n      0xffffffffffffffff\n        /* \"#utility.yul\":5031:5041   */\n      dup3\n        /* \"#utility.yul\":5028:5062   */\n      gt\n        /* \"#utility.yul\":5025:5087   */\n      or\n        /* \"#utility.yul\":5022:5110   */\n      iszero\n      tag_187\n      jumpi\n        /* \"#utility.yul\":5090:5108   */\n      tag_188\n      tag_98\n      jump\t// in\n    tag_188:\n        /* \"#utility.yul\":5022:5110   */\n    tag_187:\n        /* \"#utility.yul\":5130:5140   */\n      dup1\n        /* \"#utility.yul\":5126:5128   */\n      0x40\n        /* \"#utility.yul\":5119:5141   */\n      mstore\n        /* \"#utility.yul\":4909:5147   */\n      pop\n        /* \"#utility.yul\":4866:5147   */\n      pop\n      pop\n      jump\t// out\n        /* \"#utility.yul\":5153:5282   */\n    tag_100:\n        /* \"#utility.yul\":5187:5193   */\n      0x00\n        /* \"#utility.yul\":5214:5234   */\n      tag_190\n      tag_77\n      jump\t// in\n    tag_190:\n        /* \"#utility.yul\":5204:5234   */\n      swap1\n      pop\n        /* \"#utility.yul\":5243:5276   */\n      tag_191\n        /* \"#utility.yul\":5271:5275   */\n      dup3\n        /* \"#utility.yul\":5263:5269   */\n      dup3\n        /* \"#utility.yul\":5243:5276   */\n      tag_99\n      jump\t// in\n    tag_191:\n        /* \"#utility.yul\":5153:5282   */\n      swap2\n      swap1\n      pop\n      jump\t// out\n        /* \"#utility.yul\":5288:5596   */\n    tag_101:\n        /* \"#utility.yul\":5350:5354   */\n      0x00\n        /* \"#utility.yul\":5440:5458   */\n      0xffffffffffffffff\n        /* \"#utility.yul\":5432:5438   */\n      dup3\n        /* \"#utility.yul\":5429:5459   */\n      gt\n        /* \"#utility.yul\":5426:5482   */\n      iszero\n      tag_193\n      jumpi\n        /* \"#utility.yul\":5462:5480   */\n      tag_194\n      tag_98\n      jump\t// in\n    tag_194:\n        /* \"#utility.yul\":5426:5482   */\n    tag_193:\n        /* \"#utility.yul\":5500:5529   */\n      tag_195\n        /* \"#utility.yul\":5522:5528   */\n      dup3\n        /* \"#utility.yul\":5500:5529   */\n      tag_85\n      jump\t// in\n    tag_195:\n        /* \"#utility.yul\":5492:5529   */\n      swap1\n      pop\n        /* \"#utility.yul\":5584:5588   */\n      0x20\n        /* \"#utility.yul\":5578:5582   */\n      dup2\n        /* \"#utility.yul\":5574:5589   */\n      add\n        /* \"#utility.yul\":5566:5589   */\n      swap1\n      pop\n        /* \"#utility.yul\":5288:5596   */\n      swap2\n      swap1\n      pop\n      jump\t// out\n        /* \"#utility.yul\":5602:5750   */\n    tag_102:\n        /* \"#utility.yul\":5700:5706   */\n      dup3\n        /* \"#utility.yul\":5695:5698   */\n      dup2\n        /* \"#utility.yul\":5690:5693   */\n      dup4\n        /* \"#utility.yul\":5677:5707   */\n      calldatacopy\n        /* \"#utility.yul\":5741:5742   */\n      0x00\n        /* \"#utility.yul\":5732:5738   */\n      dup4\n        /* \"#utility.yul\":5727:5730   */\n      dup4\n        /* \"#utility.yul\":5723:5739   */\n      add\n        /* \"#utility.yul\":5716:5743   */\n      mstore\n        /* \"#utility.yul\":5602:5750   */\n      pop\n      pop\n      pop\n      jump\t// out\n        /* \"#utility.yul\":5756:6181   */\n    tag_103:\n        /* \"#utility.yul\":5834:5839   */\n      0x00\n        /* \"#utility.yul\":5859:5925   */\n      tag_198\n        /* \"#utility.yul\":5875:5924   */\n      tag_199\n        /* \"#utility.yul\":5917:5923   */\n      dup5\n        /* \"#utility.yul\":5875:5924   */\n      tag_101\n      jump\t// in\n    tag_199:\n        /* \"#utility.yul\":5859:5925   */\n      tag_100\n      jump\t// in\n    tag_198:\n        /* \"#utility.yul\":5850:5925   */\n      swap1\n      pop\n        /* \"#utility.yul\":5948:5954   */\n      dup3\n        /* \"#utility.yul\":5941:5946   */\n      dup2\n        /* \"#utility.yul\":5934:5955   */\n      mstore\n        /* \"#utility.yul\":5986:5990   */\n      0x20\n        /* \"#utility.yul\":5979:5984   */\n      dup2\n        /* \"#utility.yul\":5975:5991   */\n      add\n        /* \"#utility.yul\":6024:6027   */\n      dup5\n        /* \"#utility.yul\":6015:6021   */\n      dup5\n        /* \"#utility.yul\":6010:6013   */\n      dup5\n        /* \"#utility.yul\":6006:6022   */\n      add\n        /* \"#utility.yul\":6003:6028   */\n      gt\n        /* \"#utility.yul\":6000:6112   */\n      iszero\n      tag_200\n      jumpi\n        /* \"#utility.yul\":6031:6110   */\n      tag_201\n      tag_97\n      jump\t// in\n    tag_201:\n        /* \"#utility.yul\":6000:6112   */\n    tag_200:\n        /* \"#utility.yul\":6121:6175   */\n      tag_202\n        /* \"#utility.yul\":6168:6174   */\n      dup5\n        /* \"#utility.yul\":6163:6166   */\n      dup3\n        /* \"#utility.yul\":6158:6161   */\n      dup6\n        /* \"#utility.yul\":6121:6175   */\n      tag_102\n      jump\t// in\n    tag_202:\n        /* \"#utility.yul\":5840:6181   */\n      pop\n        /* \"#utility.yul\":5756:6181   */\n      swap4\n      swap3\n      pop\n      pop\n      pop\n      jump\t// out\n        /* \"#utility.yul\":6201:6541   */\n    tag_104:\n        /* \"#utility.yul\":6257:6262   */\n      0x00\n        /* \"#utility.yul\":6306:6309   */\n      dup3\n        /* \"#utility.yul\":6299:6303   */\n      0x1f\n        /* \"#utility.yul\":6291:6297   */\n      dup4\n        /* \"#utility.yul\":6287:6304   */\n      add\n        /* \"#utility.yul\":6283:6310   */\n      slt\n        /* \"#utility.yul\":6273:6395   */\n      tag_204\n      jumpi\n        /* \"#utility.yul\":6314:6393   */\n      tag_205\n      tag_96\n      jump\t// in\n    tag_205:\n        /* \"#utility.yul\":6273:6395   */\n    tag_204:\n        /* \"#utility.yul\":6431:6437   */\n      dup2\n        /* \"#utility.yul\":6418:6438   */\n      calldataload\n        /* \"#utility.yul\":6456:6535   */\n      tag_206\n        /* \"#utility.yul\":6531:6534   */\n      dup5\n        /* \"#utility.yul\":6523:6529   */\n      dup3\n        /* \"#utility.yul\":6516:6520   */\n      0x20\n        /* \"#utility.yul\":6508:6514   */\n      dup7\n        /* \"#utility.yul\":6504:6521   */\n      add\n        /* \"#utility.yul\":6456:6535   */\n      tag_103\n      jump\t// in\n    tag_206:\n        /* \"#utility.yul\":6447:6535   */\n      swap2\n      pop\n        /* \"#utility.yul\":6263:6541   */\n      pop\n        /* \"#utility.yul\":6201:6541   */\n      swap3\n      swap2\n      pop\n      pop\n      jump\t// out\n        /* \"#utility.yul\":6547:7201   */\n    tag_22:\n        /* \"#utility.yul\":6625:6631   */\n      0x00\n        /* \"#utility.yul\":6633:6639   */\n      0x00\n        /* \"#utility.yul\":6682:6684   */\n      0x40\n        /* \"#utility.yul\":6670:6679   */\n      dup4\n        /* \"#utility.yul\":6661:6668   */\n      dup6\n        /* \"#utility.yul\":6657:6680   */\n      sub\n        /* \"#utility.yul\":6653:6685   */\n      slt\n        /* \"#utility.yul\":6650:6769   */\n      iszero\n      tag_208\n      jumpi\n        /* \"#utility.yul\":6688:6767   */\n      tag_209\n      tag_78\n      jump\t// in\n    tag_209:\n        /* \"#utility.yul\":6650:6769   */\n    tag_208:\n        /* \"#utility.yul\":6836:6837   */\n      0x00\n        /* \"#utility.yul\":6825:6834   */\n      dup4\n        /* \"#utility.yul\":6821:6838   */\n      add\n        /* \"#utility.yul\":6808:6839   */\n      calldataload\n        /* \"#utility.yul\":6866:6884   */\n      0xffffffffffffffff\n        /* \"#utility.yul\":6858:6864   */\n      dup2\n        /* \"#utility.yul\":6855:6885   */\n      gt\n        /* \"#utility.yul\":6852:6969   */\n      iszero\n      tag_210\n      jumpi\n        /* \"#utility.yul\":6888:6967   */\n      tag_211\n      tag_79\n      jump\t// in\n    tag_211:\n        /* \"#utility.yul\":6852:6969   */\n    tag_210:\n        /* \"#utility.yul\":6993:7056   */\n      tag_212\n        /* \"#utility.yul\":7048:7055   */\n      dup6\n        /* \"#utility.yul\":7039:7045   */\n      dup3\n        /* \"#utility.yul\":7028:7037   */\n      dup7\n        /* \"#utility.yul\":7024:7046   */\n      add\n        /* \"#utility.yul\":6993:7056   */\n      tag_104\n      jump\t// in\n    tag_212:\n        /* \"#utility.yul\":6983:7056   */\n      swap3\n      pop\n        /* \"#utility.yul\":6779:7066   */\n      pop\n        /* \"#utility.yul\":7105:7107   */\n      0x20\n        /* \"#utility.yul\":7131:7184   */\n      tag_213\n        /* \"#utility.yul\":7176:7183   */\n      dup6\n        /* \"#utility.yul\":7167:7173   */\n      dup3\n        /* \"#utility.yul\":7156:7165   */\n      dup7\n        /* \"#utility.yul\":7152:7174   */\n      add\n        /* \"#utility.yul\":7131:7184   */\n      tag_81\n      jump\t// in\n    tag_213:\n        /* \"#utility.yul\":7121:7184   */\n      swap2\n      pop\n        /* \"#utility.yul\":7076:7194   */\n      pop\n        /* \"#utility.yul\":6547:7201   */\n      swap3\n      pop\n      swap3\n      swap1\n      pop\n      jump\t// out\n        /* \"#utility.yul\":7207:7387   */\n    tag_105:\n        /* \"#utility.yul\":7255:7332   */\n      0x4e487b7100000000000000000000000000000000000000000000000000000000\n        /* \"#utility.yul\":7252:7253   */\n      0x00\n        /* \"#utility.yul\":7245:7333   */\n      mstore\n        /* \"#utility.yul\":7352:7356   */\n      0x22\n        /* \"#utility.yul\":7349:7350   */\n      0x04\n        /* \"#utility.yul\":7342:7357   */\n      mstore\n        /* \"#utility.yul\":7376:7380   */\n      0x24\n        /* \"#utility.yul\":7373:7374   */\n      0x00\n        /* \"#utility.yul\":7366:7381   */\n      revert\n        /* \"#utility.yul\":7393:7713   */\n    tag_32:\n        /* \"#utility.yul\":7437:7443   */\n      0x00\n        /* \"#utility.yul\":7474:7475   */\n      0x02\n        /* \"#utility.yul\":7468:7472   */\n      dup3\n        /* \"#utility.yul\":7464:7476   */\n      div\n        /* \"#utility.yul\":7454:7476   */\n      swap1\n      pop\n        /* \"#utility.yul\":7521:7522   */\n      0x01\n        /* \"#utility.yul\":7515:7519   */\n      dup3\n        /* \"#utility.yul\":7511:7523   */\n      and\n        /* \"#utility.yul\":7542:7560   */\n      dup1\n        /* \"#utility.yul\":7532:7613   */\n      tag_216\n      jumpi\n        /* \"#utility.yul\":7598:7602   */\n      0x7f\n        /* \"#utility.yul\":7590:7596   */\n      dup3\n        /* \"#utility.yul\":7586:7603   */\n      and\n        /* \"#utility.yul\":7576:7603   */\n      swap2\n      pop\n        /* \"#utility.yul\":7532:7613   */\n    tag_216:\n        /* \"#utility.yul\":7660:7662   */\n      0x20\n        /* \"#utility.yul\":7652:7658   */\n      dup3\n        /* \"#utility.yul\":7649:7663   */\n      lt\n        /* \"#utility.yul\":7629:7647   */\n      dup2\n        /* \"#utility.yul\":7626:7664   */\n      sub\n        /* \"#utility.yul\":7623:7707   */\n      tag_217\n      jumpi\n        /* \"#utility.yul\":7679:7697   */\n      tag_218\n      tag_105\n      jump\t// in\n    tag_218:\n        /* \"#utility.yul\":7623:7707   */\n    tag_217:\n        /* \"#utility.yul\":7444:7713   */\n      pop\n        /* \"#utility.yul\":7393:7713   */\n      swap2\n      swap1\n      pop\n      jump\t// out\n        /* \"#utility.yul\":7719:7860   */\n    tag_106:\n        /* \"#utility.yul\":7768:7772   */\n      0x00\n        /* \"#utility.yul\":7791:7794   */\n      dup2\n        /* \"#utility.yul\":7783:7794   */\n      swap1\n      pop\n        /* \"#utility.yul\":7814:7817   */\n      dup2\n        /* \"#utility.yul\":7811:7812   */\n      0x00\n        /* \"#utility.yul\":7804:7818   */\n      mstore\n        /* \"#utility.yul\":7848:7852   */\n      0x20\n        /* \"#utility.yul\":7845:7846   */\n      0x00\n        /* \"#utility.yul\":7835:7853   */\n      keccak256\n        /* \"#utility.yul\":7827:7853   */\n      swap1\n      pop\n        /* \"#utility.yul\":7719:7860   */\n      swap2\n      swap1\n      pop\n      jump\t// out\n        /* \"#utility.yul\":7866:7959   */\n    tag_107:\n        /* \"#utility.yul\":7903:7909   */\n      0x00\n        /* \"#utility.yul\":7950:7952   */\n      0x20\n        /* \"#utility.yul\":7945:7947   */\n      0x1f\n        /* \"#utility.yul\":7938:7943   */\n      dup4\n        /* \"#utility.yul\":7934:7948   */\n      add\n        /* \"#utility.yul\":7930:7953   */\n      div\n        /* \"#utility.yul\":7920:7953   */\n      swap1\n      pop\n        /* \"#utility.yul\":7866:7959   */\n      swap2\n      swap1\n      pop\n      jump\t// out\n        /* \"#utility.yul\":7965:8072   */\n    tag_108:\n        /* \"#utility.yul\":8009:8017   */\n      0x00\n        /* \"#utility.yul\":8059:8064   */\n      dup3\n        /* \"#utility.yul\":8053:8057   */\n      dup3\n        /* \"#utility.yul\":8049:8065   */\n      shl\n        /* \"#utility.yul\":8028:8065   */\n      swap1\n      pop\n        /* \"#utility.yul\":7965:8072   */\n      swap3\n      swap2\n      pop\n      pop\n      jump\t// out\n        /* \"#utility.yul\":8078:8471   */\n    tag_109:\n        /* \"#utility.yul\":8147:8153   */\n      0x00\n        /* \"#utility.yul\":8197:8198   */\n      0x08\n        /* \"#utility.yul\":8185:8195   */\n      dup4\n        /* \"#utility.yul\":8181:8199   */\n      mul\n        /* \"#utility.yul\":8220:8317   */\n      tag_223\n        /* \"#utility.yul\":8250:8316   */\n      0xffffffffffffffffffffffffffffffffffffffffffffffffffffffffffffffff\n        /* \"#utility.yul\":8239:8248   */\n      dup3\n        /* \"#utility.yul\":8220:8317   */\n      tag_108\n      jump\t// in\n    tag_223:\n        /* \"#utility.yul\":8338:8377   */\n      tag_224\n        /* \"#utility.yul\":8368:8376   */\n      dup7\n        /* \"#utility.yul\":8357:8366   */\n      dup4\n        /* \"#utility.yul\":8338:8377   */\n      tag_108\n      jump\t// in\n    tag_224:\n        /* \"#utility.yul\":8326:8377   */\n      swap6\n      pop\n        /* \"#utility.yul\":8410:8414   */\n      dup1\n        /* \"#utility.yul\":8406:8415   */\n      not\n        /* \"#utility.yul\":8399:8404   */\n      dup5\n        /* \"#utility.yul\":8395:8416   */\n      and\n        /* \"#utility.yul\":8386:8416   */\n      swap4\n      pop\n        /* \"#utility.yul\":8459:8463   */\n      dup1\n        /* \"#utility.yul\":8449:8457   */\n      dup7\n        /* \"#utility.yul\":8445:8464   */\n      and\n        /* \"#utility.yul\":8438:8443   */\n      dup5\n        /* \"#utility.yul\":8435:8465   */\n      or\n        /* \"#utility.yul\":8425:8465   */\n      swap3\n      pop\n        /* \"#utility.yul\":8154:8471   */\n      pop\n      pop\n        /* \"#utility.yul\":8078:8471   */\n      swap4\n      swap3\n      pop\n      pop\n      pop\n      jump\t// out\n        /* \"#utility.yul\":8477:8537   */\n    tag_110:\n        /* \"#utility.yul\":8505:8508   */\n      0x00\n        /* \"#utility.yul\":8526:8531   */\n      dup2\n        /* \"#utility.yul\":8519:8531   */\n      swap1\n      pop\n        /* \"#utility.yul\":8477:8537   */\n      swap2\n      swap1\n      pop\n      jump\t// out\n        /* \"#utility.yul\":8543:8685   */\n    tag_111:\n        /* \"#utility.yul\":8593:8602   */\n      0x00\n        /* \"#utility.yul\":8626:8679   */\n      tag_227\n        /* \"#utility.yul\":8644:8678   */\n      tag_228\n        /* \"#utility.yul\":8653:8677   */\n      tag_229\n        /* \"#utility.yul\":8671:8676   */\n      dup5\n        /* \"#utility.yul\":8653:8677   */\n      tag_75\n      jump\t// in\n    tag_229:\n        /* \"#utility.yul\":8644:8678   */\n      tag_110\n      jump\t// in\n    tag_228:\n        /* \"#utility.yul\":8626:8679   */\n      tag_75\n      jump\t// in\n    tag_227:\n        /* \"#utility.yul\":8613:8679   */\n      swap1\n      pop\n        /* \"#utility.yul\":8543:8685   */\n      swap2\n      swap1\n      pop\n      jump\t// out\n        /* \"#utility.yul\":8691:8766   */\n    tag_112:\n        /* \"#utility.yul\":8734:8737   */\n      0x00\n        /* \"#utility.yul\":8755:8760   */\n      dup2\n        /* \"#utility.yul\":8748:8760   */\n      swap1\n      pop\n        /* \"#utility.yul\":8691:8766   */\n      swap2\n      swap1\n      pop\n      jump\t// out\n        /* \"#utility.yul\":8772:9041   */\n    tag_113:\n        /* \"#utility.yul\":8882:8921   */\n      tag_232\n        /* \"#utility.yul\":8913:8920   */\n      dup4\n        /* \"#utility.yul\":8882:8921   */\n      tag_111\n      jump\t// in\n    tag_232:\n        /* \"#utility.yul\":8943:9034   */\n      tag_233\n        /* \"#utility.yul\":8992:9033   */\n      tag_234\n        /* \"#utility.yul\":9016:9032   */\n      dup3\n        /* \"#utility.yul\":8992:9033   */\n      tag_112\n      jump\t// in\n    tag_234:\n        /* \"#utility.yul\":8984:8990   */\n      dup5\n        /* \"#utility.yul\":8977:8981   */\n      dup5\n        /* \"#utility.yul\":8971:8982   */\n      sload\n        /* \"#utility.yul\":8943:9034   */\n      tag_109\n      jump\t// in\n    tag_233:\n        /* \"#utility.yul\":8937:8941   */\n      dup3\n        /* \"#utility.yul\":8930:9035   */\n      sstore\n        /* \"#utility.yul\":8848:9041   */\n      pop\n        /* \"#utility.yul\":8772:9041   */\n      pop\n      pop\n      pop\n      jump\t// out\n        /* \"#utility.yul\":9047:9120   */\n    tag_114:\n        /* \"#utility.yul\":9092:9095   */\n      0x00\n        /* \"#utility.yul\":9113:9114   */\n      0x00\n        /* \"#utility.yul\":9106:9114   */\n      swap1\n      pop\n        /* \"#utility.yul\":9047:9120   */\n      swap1\n      jump\t// out\n        /* \"#utility.yul\":9126:9315   */\n    tag_115:\n        /* \"#utility.yul\":9203:9235   */\n      tag_237\n      tag_114\n      jump\t// in\n    tag_237:\n        /* \"#utility.yul\":9244:9309   */\n      tag_238\n        /* \"#utility.yul\":9302:9308   */\n      dup2\n        /* \"#utility.yul\":9294:9300   */\n      dup5\n        /* \"#utility.yul\":9288:9292   */\n      dup5\n        /* \"#utility.yul\":9244:9309   */\n      tag_113\n      jump\t// in\n    tag_238:\n        /* \"#utility.yul\":9179:9315   */\n      pop\n        /* \"#utility.yul\":9126:9315   */\n      pop\n      pop\n      jump\t// out\n        /* \"#utility.yul\":9321:9507   */\n    tag_116:\n        /* \"#utility.yul\":9381:9501   */\n    tag_240:\n        /* \"#utility.yul\":9398:9401   */\n      dup2\n        /* \"#utility.yul\":9391:9396   */\n      dup2\n        /* \"#utility.yul\":9388:9402   */\n      lt\n        /* \"#utility.yul\":9381:9501   */\n      iszero\n      tag_242\n      jumpi\n        /* \"#utility.yul\":9452:9491   */\n      tag_243\n        /* \"#utility.yul\":9489:9490   */\n      0x00\n        /* \"#utility.yul\":9482:9487   */\n      dup3\n        /* \"#utility.yul\":9452:9491   */\n      tag_115\n      jump\t// in\n    tag_243:\n        /* \"#utility.yul\":9425:9426   */\n      0x01\n        /* \"#utility.yul\":9418:9423   */\n      dup2\n        /* \"#utility.yul\":9414:9427   */\n      add\n        /* \"#utility.yul\":9405:9427   */\n      swap1\n      pop\n        /* \"#utility.yul\":9381:9501   */\n      jump(tag_240)\n    tag_242:\n        /* \"#utility.yul\":9321:9507   */\n      pop\n      pop\n      jump\t// out\n        /* \"#utility.yul\":9513:10056   */\n    tag_117:\n        /* \"#utility.yul\":9614:9616   */\n      0x1f\n        /* \"#utility.yul\":9609:9612   */\n      dup3\n        /* \"#utility.yul\":9606:9617   */\n      gt\n        /* \"#utility.yul\":9603:10049   */\n      iszero\n      tag_245\n      jumpi\n        /* \"#utility.yul\":9648:9686   */\n      tag_246\n        /* \"#utility.yul\":9680:9685   */\n      dup2\n        /* \"#utility.yul\":9648:9686   */\n      tag_106\n      jump\t// in\n    tag_246:\n        /* \"#utility.yul\":9732:9761   */\n      tag_247\n        /* \"#utility.yul\":9750:9760   */\n      dup5\n        /* \"#utility.yul\":9732:9761   */\n      tag_107\n      jump\t// in\n    tag_247:\n        /* \"#utility.yul\":9722:9730   */\n      dup2\n        /* \"#utility.yul\":9718:9762   */\n      add\n        /* \"#utility.yul\":9915:9917   */\n      0x20\n        /* \"#utility.yul\":9903:9913   */\n      dup6\n        /* \"#utility.yul\":9900:9918   */\n      lt\n        /* \"#utility.yul\":9897:9946   */\n      iszero\n      tag_248\n      jumpi\n        /* \"#utility.yul\":9936:9944   */\n      dup2\n        /* \"#utility.yul\":9921:9944   */\n      swap1\n      pop\n        /* \"#utility.yul\":9897:9946   */\n    tag_248:\n        /* \"#utility.yul\":9959:10039   */\n      tag_249\n        /* \"#utility.yul\":10015:10037   */\n      tag_250\n        /* \"#utility.yul\":10033:10036   */\n      dup6\n        /* \"#utility.yul\":10015:10037   */\n      tag_107\n      jump\t// in\n    tag_250:\n        /* \"#utility.yul\":10005:10013   */\n      dup4\n        /* \"#utility.yul\":10001:10038   */\n      add\n        /* \"#utility.yul\":9988:9999   */\n      dup3\n        /* \"#utility.yul\":9959:10039   */\n      tag_116\n      jump\t// in\n    tag_249:\n        /* \"#utility.yul\":9618:10049   */\n      pop\n      pop\n        /* \"#utility.yul\":9603:10049   */\n    tag_245:\n        /* \"#utility.yul\":9513:10056   */\n      pop\n      pop\n      pop\n      jump\t// out\n        /* \"#utility.yul\":10062:10179   */\n    tag_118:\n        /* \"#utility.yul\":10116:10124   */\n      0x00\n        /* \"#utility.yul\":10166:10171   */\n      dup3\n        /* \"#utility.yul\":10160:10164   */\n      dup3\n        /* \"#utility.yul\":10156:10172   */\n      shr\n        /* \"#utility.yul\":10135:10172   */\n      swap1\n      pop\n        /* \"#utility.yul\":10062:10179   */\n      swap3\n      swap2\n      pop\n      pop\n      jump\t// out\n        /* \"#utility.yul\":10185:10354   */\n    tag_119:\n        /* \"#utility.yul\":10229:10235   */\n      0x00\n        /* \"#utility.yul\":10262:10313   */\n      tag_253\n        /* \"#utility.yul\":10310:10311   */\n      0x00\n        /* \"#utility.yul\":10306:10312   */\n      not\n        /* \"#utility.yul\":10298:10303   */\n      dup5\n        /* \"#utility.yul\":10295:10296   */\n      0x08\n        /* \"#utility.yul\":10291:10304   */\n      mul\n        /* \"#utility.yul\":10262:10313   */\n      tag_118\n      jump\t// in\n    tag_253:\n        /* \"#utility.yul\":10258:10314   */\n      not\n        /* \"#utility.yul\":10343:10347   */\n      dup1\n        /* \"#utility.yul\":10337:10341   */\n      dup4\n        /* \"#utility.yul\":10333:10348   */\n      and\n        /* \"#utility.yul\":10323:10348   */\n      swap2\n      pop\n        /* \"#utility.yul\":10236:10354   */\n      pop\n        /* \"#utility.yul\":10185:10354   */\n      swap3\n      swap2\n      pop\n      pop\n      jump\t// out\n        /* \"#utility.yul\":10359:10654   */\n    tag_120:\n        /* \"#utility.yul\":10435:10439   */\n      0x00\n        /* \"#utility.yul\":10581:10610   */\n      tag_255\n        /* \"#utility.yul\":10606:10609   */\n      dup4\n        /* \"#utility.yul\":10600:10604   */\n      dup4\n        /* \"#utility.yul\":10581:10610   */\n      tag_119\n      jump\t// in\n    tag_255:\n        /* \"#utility.yul\":10573:10610   */\n      swap2\n      pop\n        /* \"#utility.yul\":10643:10646   */\n      dup3\n        /* \"#utility.yul\":10640:10641   */\n      0x02\n        /* \"#utility.yul\":10636:10647   */\n      mul\n        /* \"#utility.yul\":10630:10634   */\n      dup3\n        /* \"#utility.yul\":10627:10648   */\n      or\n        /* \"#utility.yul\":10619:10648   */\n      swap1\n      pop\n        /* \"#utility.yul\":10359:10654   */\n      swap3\n      swap2\n      pop\n      pop\n      jump\t// out\n        /* \"#utility.yul\":10659:12054   */\n    tag_42:\n        /* \"#utility.yul\":10776:10813   */\n      tag_257\n        /* \"#utility.yul\":10809:10812   */\n      dup3\n        /* \"#utility.yul\":10776:10813   */\n      tag_82\n      jump\t// in\n    tag_257:\n        /* \"#utility.yul\":10878:10896   */\n      0xffffffffffffffff\n        /* \"#utility.yul\":10870:10876   */\n      dup2\n        /* \"#utility.yul\":10867:10897   */\n      gt\n        /* \"#utility.yul\":10864:10920   */\n      iszero\n      tag_258\n      jumpi\n        /* \"#utility.yul\":10900:10918   */\n      tag_259\n      tag_98\n      jump\t// in\n    tag_259:\n        /* \"#utility.yul\":10864:10920   */\n    tag_258:\n        /* \"#utility.yul\":10944:10982   */\n      tag_260\n        /* \"#utility.yul\":10976:10980   */\n      dup3\n        /* \"#utility.yul\":10970:10981   */\n      sload\n        /* \"#utility.yul\":10944:10982   */\n      tag_32\n      jump\t// in\n    tag_260:\n        /* \"#utility.yul\":11029:11096   */\n      tag_261\n        /* \"#utility.yul\":11089:11095   */\n      dup3\n        /* \"#utility.yul\":11081:11087   */\n      dup3\n        /* \"#utility.yul\":11075:11079   */\n      dup6\n        /* \"#utility.yul\":11029:11096   */\n      tag_117\n      jump\t// in\n    tag_261:\n        /* \"#utility.yul\":11123:11124   */\n      0x00\n        /* \"#utility.yul\":11147:11151   */\n      0x20\n        /* \"#utility.yul\":11134:11151   */\n      swap1\n      pop\n        /* \"#utility.yul\":11179:11181   */\n      0x1f\n        /* \"#utility.yul\":11171:11177   */\n      dup4\n        /* \"#utility.yul\":11168:11182   */\n      gt\n        /* \"#utility.yul\":11196:11197   */\n      0x01\n        /* \"#utility.yul\":11191:11809   */\n      dup2\n      eq\n      tag_263\n      jumpi\n        /* \"#utility.yul\":11853:11854   */\n      0x00\n        /* \"#utility.yul\":11870:11876   */\n      dup5\n        /* \"#utility.yul\":11867:11944   */\n      iszero\n      tag_264\n      jumpi\n        /* \"#utility.yul\":11919:11928   */\n      dup3\n        /* \"#utility.yul\":11914:11917   */\n      dup8\n        /* \"#utility.yul\":11910:11929   */\n      add\n        /* \"#utility.yul\":11904:11930   */\n      mload\n        /* \"#utility.yul\":11895:11930   */\n      swap1\n      pop\n        /* \"#utility.yul\":11867:11944   */\n    tag_264:\n        /* \"#utility.yul\":11970:12037   */\n      tag_265\n        /* \"#utility.yul\":12030:12036   */\n      dup6\n        /* \"#utility.yul\":12023:12028   */\n      dup3\n        /* \"#utility.yul\":11970:12037   */\n      tag_120\n      jump\t// in\n    tag_265:\n        /* \"#utility.yul\":11964:11968   */\n      dup7\n        /* \"#utility.yul\":11957:12038   */\n      sstore\n        /* \"#utility.yul\":11826:12048   */\n      pop\n        /* \"#utility.yul\":11161:12048   */\n      jump(tag_262)\n        /* \"#utility.yul\":11191:11809   */\n    tag_263:\n        /* \"#utility.yul\":11243:11247   */\n      0x1f\n        /* \"#utility.yul\":11239:11248   */\n      not\n        /* \"#utility.yul\":11231:11237   */\n      dup5\n        /* \"#utility.yul\":11227:11249   */\n      and\n        /* \"#utility.yul\":11277:11314   */\n      tag_266\n        /* \"#utility.yul\":11309:11313   */\n      dup7\n        /* \"#utility.yul\":11277:11314   */\n      tag_106\n      jump\t// in\n    tag_266:\n        /* \"#utility.yul\":11336:11337   */\n      0x00\n        /* \"#utility.yul\":11350:11558   */\n    tag_267:\n        /* \"#utility.yul\":11364:11371   */\n      dup3\n        /* \"#utility.yul\":11361:11362   */\n      dup2\n        /* \"#utility.yul\":11358:11372   */\n      lt\n        /* \"#utility.yul\":11350:11558   */\n      iszero\n      tag_269\n      jumpi\n        /* \"#utility.yul\":11443:11452   */\n      dup5\n        /* \"#utility.yul\":11438:11441   */\n      dup10\n        /* \"#utility.yul\":11434:11453   */\n      add\n        /* \"#utility.yul\":11428:11454   */\n      mload\n        /* \"#utility.yul\":11420:11426   */\n      dup3\n        /* \"#utility.yul\":11413:11455   */\n      sstore\n        /* \"#utility.yul\":11494:11495   */\n      0x01\n        /* \"#utility.yul\":11486:11492   */\n      dup3\n        /* \"#utility.yul\":11482:11496   */\n      add\n        /* \"#utility.yul\":11472:11496   */\n      swap2\n      pop\n        /* \"#utility.yul\":11541:11543   */\n      0x20\n        /* \"#utility.yul\":11530:11539   */\n      dup6\n        /* \"#utility.yul\":11526:11544   */\n      add\n        /* \"#utility.yul\":11513:11544   */\n      swap5\n      pop\n        /* \"#utility.yul\":11387:11391   */\n      0x20\n        /* \"#utility.yul\":11384:11385   */\n      dup2\n        /* \"#utility.yul\":11380:11392   */\n      add\n        /* \"#utility.yul\":11375:11392   */\n      swap1\n      pop\n        /* \"#utility.yul\":11350:11558   */\n      jump(tag_267)\n    tag_269:\n        /* \"#utility.yul\":11586:11592   */\n      dup7\n        /* \"#utility.yul\":11577:11584   */\n      dup4\n        /* \"#utility.yul\":11574:11593   */\n      lt\n        /* \"#utility.yul\":11571:11750   */\n      iszero\n      tag_270\n      jumpi\n        /* \"#utility.yul\":11644:11653   */\n      dup5\n        /* \"#utility.yul\":11639:11642   */\n      dup10\n        /* \"#utility.yul\":11635:11654   */\n      add\n        /* \"#utility.yul\":11629:11655   */\n      mload\n        /* \"#utility.yul\":11687:11735   */\n      tag_271\n        /* \"#utility.yul\":11729:11733   */\n      0x1f\n        /* \"#utility.yul\":11721:11727   */\n      dup10\n        /* \"#utility.yul\":11717:11734   */\n      and\n        /* \"#utility.yul\":11706:11715   */\n      dup3\n        /* \"#utility.yul\":11687:11735   */\n      tag_119\n      jump\t// in\n    tag_271:\n        /* \"#utility.yul\":11679:11685   */\n      dup4\n        /* \"#utility.yul\":11672:11736   */\n      sstore\n        /* \"#utility.yul\":11594:11750   */\n      pop\n        /* \"#utility.yul\":11571:11750   */\n    tag_270:\n        /* \"#utility.yul\":11796:11797   */\n      0x01\n        /* \"#utility.yul\":11792:11793   */\n      0x02\n        /* \"#utility.yul\":11784:11790   */\n      dup9\n        /* \"#utility.yul\":11780:11794   */\n      mul\n        /* \"#utility.yul\":11776:11798   */\n      add\n        /* \"#utility.yul\":11770:11774   */\n      dup9\n        /* \"#utility.yul\":11763:11799   */\n      sstore\n        /* \"#utility.yul\":11198:11809   */\n      pop\n      pop\n      pop\n        /* \"#utility.yul\":11161:12048   */\n    tag_262:\n      pop\n        /* \"#utility.yul\":10751:12054   */\n      pop\n      pop\n      pop\n        /* \"#utility.yul\":10659:12054   */\n      pop\n      pop\n      jump\t// out\n        /* \"#utility.yul\":12060:12240   */\n    tag_121:\n        /* \"#utility.yul\":12108:12185   */\n      0x4e487b7100000000000000000000000000000000000000000000000000000000\n        /* \"#utility.yul\":12105:12106   */\n      0x00\n        /* \"#utility.yul\":12098:12186   */\n      mstore\n        /* \"#utility.yul\":12205:12209   */\n      0x11\n        /* \"#utility.yul\":12202:12203   */\n      0x04\n        /* \"#utility.yul\":12195:12210   */\n      mstore\n        /* \"#utility.yul\":12229:12233   */\n      0x24\n        /* \"#utility.yul\":12226:12227   */\n      0x00\n        /* \"#utility.yul\":12219:12234   */\n      revert\n        /* \"#utility.yul\":12246:12479   */\n    tag_46:\n        /* \"#utility.yul\":12285:12288   */\n      0x00\n        /* \"#utility.yul\":12308:12332   */\n      tag_274\n        /* \"#utility.yul\":12326:12331   */\n      dup3\n        /* \"#utility.yul\":12308:12332   */\n      tag_75\n      jump\t// in\n    tag_274:\n        /* \"#utility.yul\":12299:12332   */\n      swap2\n      pop\n        /* \"#utility.yul\":12354:12420   */\n      0xffffffffffffffffffffffffffffffffffffffffffffffffffffffffffffffff\n        /* \"#utility.yul\":12347:12352   */\n      dup3\n        /* \"#utility.yul\":12344:12421   */\n      sub\n        /* \"#utility.yul\":12341:12444   */\n      tag_275\n      jumpi\n        /* \"#utility.yul\":12424:12442   */\n      tag_276\n      tag_121\n      jump\t// in\n    tag_276:\n        /* \"#utility.yul\":12341:12444   */\n    tag_275:\n        /* \"#utility.yul\":12471:12472   */\n      0x01\n        /* \"#utility.yul\":12464:12469   */\n      dup3\n        /* \"#utility.yul\":12460:12473   */\n      add\n        /* \"#utility.yul\":12453:12473   */\n      swap1\n      pop\n        /* \"#utility.yul\":12246:12479   */\n      swap2\n      swap1\n      pop\n      jump\t// out\n        /* \"#utility.yul\":12485:12705   */\n    tag_122:\n        /* \"#utility.yul\":12625:12659   */\n      0x536f6c6f20656c20636f6d707261646f7220707565646520636f6e6669726d61\n        /* \"#utility.yul\":12621:12622   */\n      0x00\n        /* \"#utility.yul\":12613:12619   */\n      dup3\n        /* \"#utility.yul\":12609:12623   */\n      add\n        /* \"#utility.yul\":12602:12660   */\n      mstore\n        /* \"#utility.yul\":12694:12697   */\n      0x7200000000000000000000000000000000000000000000000000000000000000\n        /* \"#utility.yul\":12689:12691   */\n      0x20\n        /* \"#utility.yul\":12681:12687   */\n      dup3\n        /* \"#utility.yul\":12677:12692   */\n      add\n        /* \"#utility.yul\":12670:12698   */\n      mstore\n        /* \"#utility.yul\":12485:12705   */\n      pop\n      jump\t// out\n        /* \"#utility.yul\":12711:13077   */\n    tag_123:\n        /* \"#utility.yul\":12853:12856   */\n      0x00\n        /* \"#utility.yul\":12874:12941   */\n      tag_279\n        /* \"#utility.yul\":12938:12940   */\n      0x21\n        /* \"#utility.yul\":12933:12936   */\n      dup4\n        /* \"#utility.yul\":12874:12941   */\n      tag_83\n      jump\t// in\n    tag_279:\n        /* \"#utility.yul\":12867:12941   */\n      swap2\n      pop\n        /* \"#utility.yul\":12950:13043   */\n      tag_280\n        /* \"#utility.yul\":13039:13042   */\n      dup3\n        /* \"#utility.yul\":12950:13043   */\n      tag_122\n      jump\t// in\n    tag_280:\n        /* \"#utility.yul\":13068:13070   */\n      0x40\n        /* \"#utility.yul\":13063:13066   */\n      dup3\n        /* \"#utility.yul\":13059:13071   */\n      add\n        /* \"#utility.yul\":13052:13071   */\n      swap1\n      pop\n        /* \"#utility.yul\":12711:13077   */\n      swap2\n      swap1\n      pop\n      jump\t// out\n        /* \"#utility.yul\":13083:13502   */\n    tag_50:\n        /* \"#utility.yul\":13249:13253   */\n      0x00\n        /* \"#utility.yul\":13287:13289   */\n      0x20\n        /* \"#utility.yul\":13276:13285   */\n      dup3\n        /* \"#utility.yul\":13272:13290   */\n      add\n        /* \"#utility.yul\":13264:13290   */\n      swap1\n      pop\n        /* \"#utility.yul\":13336:13345   */\n      dup2\n        /* \"#utility.yul\":13330:13334   */\n      dup2\n        /* \"#utility.yul\":13326:13346   */\n      sub\n        /* \"#utility.yul\":13322:13323   */\n      0x00\n        /* \"#utility.yul\":13311:13320   */\n      dup4\n        /* \"#utility.yul\":13307:13324   */\n      add\n        /* \"#utility.yul\":13300:13347   */\n      mstore\n        /* \"#utility.yul\":13364:13495   */\n      tag_282\n        /* \"#utility.yul\":13490:13494   */\n      dup2\n        /* \"#utility.yul\":13364:13495   */\n      tag_123\n      jump\t// in\n    tag_282:\n        /* \"#utility.yul\":13356:13495   */\n      swap1\n      pop\n        /* \"#utility.yul\":13083:13502   */\n      swap2\n      swap1\n      pop\n      jump\t// out\n        /* \"#utility.yul\":13508:13728   */\n    tag_124:\n        /* \"#utility.yul\":13648:13682   */\n      0x456c2070726f647563746f206e6f206861207369646f2066696e616e63696164\n        /* \"#utility.yul\":13644:13645   */\n      0x00\n        /* \"#utility.yul\":13636:13642   */\n      dup3\n        /* \"#utility.yul\":13632:13646   */\n      add\n        /* \"#utility.yul\":13625:13683   */\n      mstore\n        /* \"#utility.yul\":13717:13720   */\n      0x6f00000000000000000000000000000000000000000000000000000000000000\n        /* \"#utility.yul\":13712:13714   */\n      0x20\n        /* \"#utility.yul\":13704:13710   */\n      dup3\n        /* \"#utility.yul\":13700:13715   */\n      add\n        /* \"#utility.yul\":13693:13721   */\n      mstore\n        /* \"#utility.yul\":13508:13728   */\n      pop\n      jump\t// out\n        /* \"#utility.yul\":13734:14100   */\n    tag_125:\n        /* \"#utility.yul\":13876:13879   */\n      0x00\n        /* \"#utility.yul\":13897:13964   */\n      tag_285\n        /* \"#utility.yul\":13961:13963   */\n      0x21\n        /* \"#utility.yul\":13956:13959   */\n      dup4\n        /* \"#utility.yul\":13897:13964   */\n      tag_83\n      jump\t// in\n    tag_285:\n        /* \"#utility.yul\":13890:13964   */\n      swap2\n      pop\n        /* \"#utility.yul\":13973:14066   */\n      tag_286\n        /* \"#utility.yul\":14062:14065   */\n      dup3\n        /* \"#utility.yul\":13973:14066   */\n      tag_124\n      jump\t// in\n    tag_286:\n        /* \"#utility.yul\":14091:14093   */\n      0x40\n        /* \"#utility.yul\":14086:14089   */\n      dup3\n        /* \"#utility.yul\":14082:14094   */\n      add\n        /* \"#utility.yul\":14075:14094   */\n      swap1\n      pop\n        /* \"#utility.yul\":13734:14100   */\n      swap2\n      swap1\n      pop\n      jump\t// out\n        /* \"#utility.yul\":14106:14525   */\n    tag_57:\n        /* \"#utility.yul\":14272:14276   */\n      0x00\n        /* \"#utility.yul\":14310:14312   */\n      0x20\n        /* \"#utility.yul\":14299:14308   */\n      dup3\n        /* \"#utility.yul\":14295:14313   */\n      add\n        /* \"#utility.yul\":14287:14313   */\n      swap1\n      pop\n        /* \"#utility.yul\":14359:14368   */\n      dup2\n        /* \"#utility.yul\":14353:14357   */\n      dup2\n        /* \"#utility.yul\":14349:14369   */\n      sub\n        /* \"#utility.yul\":14345:14346   */\n      0x00\n        /* \"#utility.yul\":14334:14343   */\n      dup4\n        /* \"#utility.yul\":14330:14347   */\n      add\n        /* \"#utility.yul\":14323:14370   */\n      mstore\n        /* \"#utility.yul\":14387:14518   */\n      tag_288\n        /* \"#utility.yul\":14513:14517   */\n      dup2\n        /* \"#utility.yul\":14387:14518   */\n      tag_125\n      jump\t// in\n    tag_288:\n        /* \"#utility.yul\":14379:14518   */\n      swap1\n      pop\n        /* \"#utility.yul\":14106:14525   */\n      swap2\n      swap1\n      pop\n      jump\t// out\n        /* \"#utility.yul\":14531:14759   */\n    tag_126:\n        /* \"#utility.yul\":14671:14705   */\n      0x456c2070726f647563746f207961206675652066696e616e636961646f206f20\n        /* \"#utility.yul\":14667:14668   */\n      0x00\n        /* \"#utility.yul\":14659:14665   */\n      dup3\n        /* \"#utility.yul\":14655:14669   */\n      add\n        /* \"#utility.yul\":14648:14706   */\n      mstore\n        /* \"#utility.yul\":14740:14751   */\n      0x656e7472656761646f0000000000000000000000000000000000000000000000\n        /* \"#utility.yul\":14735:14737   */\n      0x20\n        /* \"#utility.yul\":14727:14733   */\n      dup3\n        /* \"#utility.yul\":14723:14738   */\n      add\n        /* \"#utility.yul\":14716:14752   */\n      mstore\n        /* \"#utility.yul\":14531:14759   */\n      pop\n      jump\t// out\n        /* \"#utility.yul\":14765:15131   */\n    tag_127:\n        /* \"#utility.yul\":14907:14910   */\n      0x00\n        /* \"#utility.yul\":14928:14995   */\n      tag_291\n        /* \"#utility.yul\":14992:14994   */\n      0x29\n        /* \"#utility.yul\":14987:14990   */\n      dup4\n        /* \"#utility.yul\":14928:14995   */\n      tag_83\n      jump\t// in\n    tag_291:\n        /* \"#utility.yul\":14921:14995   */\n      swap2\n      pop\n        /* \"#utility.yul\":15004:15097   */\n      tag_292\n        /* \"#utility.yul\":15093:15096   */\n      dup3\n        /* \"#utility.yul\":15004:15097   */\n      tag_126\n      jump\t// in\n    tag_292:\n        /* \"#utility.yul\":15122:15124   */\n      0x40\n        /* \"#utility.yul\":15117:15120   */\n      dup3\n        /* \"#utility.yul\":15113:15125   */\n      add\n        /* \"#utility.yul\":15106:15125   */\n      swap1\n      pop\n        /* \"#utility.yul\":14765:15131   */\n      swap2\n      swap1\n      pop\n      jump\t// out\n        /* \"#utility.yul\":15137:15556   */\n    tag_69:\n        /* \"#utility.yul\":15303:15307   */\n      0x00\n        /* \"#utility.yul\":15341:15343   */\n      0x20\n        /* \"#utility.yul\":15330:15339   */\n      dup3\n        /* \"#utility.yul\":15326:15344   */\n      add\n        /* \"#utility.yul\":15318:15344   */\n      swap1\n      pop\n        /* \"#utility.yul\":15390:15399   */\n      dup2\n        /* \"#utility.yul\":15384:15388   */\n      dup2\n        /* \"#utility.yul\":15380:15400   */\n      sub\n        /* \"#utility.yul\":15376:15377   */\n      0x00\n        /* \"#utility.yul\":15365:15374   */\n      dup4\n        /* \"#utility.yul\":15361:15378   */\n      add\n        /* \"#utility.yul\":15354:15401   */\n      mstore\n        /* \"#utility.yul\":15418:15549   */\n      tag_294\n        /* \"#utility.yul\":15544:15548   */\n      dup2\n        /* \"#utility.yul\":15418:15549   */\n      tag_127\n      jump\t// in\n    tag_294:\n        /* \"#utility.yul\":15410:15549   */\n      swap1\n      pop\n        /* \"#utility.yul\":15137:15556   */\n      swap2\n      swap1\n      pop\n      jump\t// out\n        /* \"#utility.yul\":15562:15791   */\n    tag_128:\n        /* \"#utility.yul\":15702:15736   */\n      0x456c2076616c6f7220656e766961646f206e6f20636f696e6369646520636f6e\n        /* \"#utility.yul\":15698:15699   */\n      0x00\n        /* \"#utility.yul\":15690:15696   */\n      dup3\n        /* \"#utility.yul\":15686:15700   */\n      add\n        /* \"#utility.yul\":15679:15737   */\n      mstore\n        /* \"#utility.yul\":15771:15783   */\n      0x20656c2070726563696f00000000000000000000000000000000000000000000\n        /* \"#utility.yul\":15766:15768   */\n      0x20\n        /* \"#utility.yul\":15758:15764   */\n      dup3\n        /* \"#utility.yul\":15754:15769   */\n      add\n        /* \"#utility.yul\":15747:15784   */\n      mstore\n        /* \"#utility.yul\":15562:15791   */\n      pop\n      jump\t// out\n        /* \"#utility.yul\":15797:16163   */\n    tag_129:\n        /* \"#utility.yul\":15939:15942   */\n      0x00\n        /* \"#utility.yul\":15960:16027   */\n      tag_297\n        /* \"#utility.yul\":16024:16026   */\n      0x2a\n        /* \"#utility.yul\":16019:16022   */\n      dup4\n        /* \"#utility.yul\":15960:16027   */\n      tag_83\n      jump\t// in\n    tag_297:\n        /* \"#utility.yul\":15953:16027   */\n      swap2\n      pop\n        /* \"#utility.yul\":16036:16129   */\n      tag_298\n        /* \"#utility.yul\":16125:16128   */\n      dup3\n        /* \"#utility.yul\":16036:16129   */\n      tag_128\n      jump\t// in\n    tag_298:\n        /* \"#utility.yul\":16154:16156   */\n      0x40\n        /* \"#utility.yul\":16149:16152   */\n      dup3\n        /* \"#utility.yul\":16145:16157   */\n      add\n        /* \"#utility.yul\":16138:16157   */\n      swap1\n      pop\n        /* \"#utility.yul\":15797:16163   */\n      swap2\n      swap1\n      pop\n      jump\t// out\n        /* \"#utility.yul\":16169:16588   */\n    tag_72:\n        /* \"#utility.yul\":16335:16339   */\n      0x00\n        /* \"#utility.yul\":16373:16375   */\n      0x20\n        /* \"#utility.yul\":16362:16371   */\n      dup3\n        /* \"#utility.yul\":16358:16376   */\n      add\n        /* \"#utility.yul\":16350:16376   */\n      swap1\n      pop\n        /* \"#utility.yul\":16422:16431   */\n      dup2\n        /* \"#utility.yul\":16416:16420   */\n      dup2\n        /* \"#utility.yul\":16412:16432   */\n      sub\n        /* \"#utility.yul\":16408:16409   */\n      0x00\n        /* \"#utility.yul\":16397:16406   */\n      dup4\n        /* \"#utility.yul\":16393:16410   */\n      add\n        /* \"#utility.yul\":16386:16433   */\n      mstore\n        /* \"#utility.yul\":16450:16581   */\n      tag_300\n        /* \"#utility.yul\":16576:16580   */\n      dup2\n        /* \"#utility.yul\":16450:16581   */\n      tag_129\n      jump\t// in\n    tag_300:\n        /* \"#utility.yul\":16442:16581   */\n      swap1\n      pop\n        /* \"#utility.yul\":16169:16588   */\n      swap2\n      swap1\n      pop\n      jump\t// out\n\n    auxdata: 0xa2646970667358221220ebe03659755374c296d8329f63ac0747befc72e3e8a713825542e1ba8ba71e1364736f6c634300081e0033\n}\n",
				"bytecode": {
					"linkReferences": {},
					"object": "60806040525f6001553480156012575f5ffd5b50610ffa806100205f395ff3fe608060405260043610610049575f3560e01c806353d27cc21461004d57806399553636146100775780639acde9ea146100b7578063eea7f824146100df578063fecc7c9314610107575b5f5ffd5b348015610058575f5ffd5b50610061610123565b60405161006e91906106ad565b60405180910390f35b348015610082575f5ffd5b5061009d60048036038101906100989190610701565b610129565b6040516100ae95949392919061086e565b60405180910390f35b3480156100c2575f5ffd5b506100dd60048036038101906100d891906109f2565b61022b565b005b3480156100ea575f5ffd5b5061010560048036038101906101009190610701565b61039a565b005b610121600480360381019061011c9190610701565b610552565b005b60015481565b5f602052805f5260405f205f91509050805f01805461014790610a79565b80601f016020809104026020016040519081016040528092919081815260200182805461017390610a79565b80156101be5780601f10610195576101008083540402835291602001916101be565b820191905f5260205f20905b8154815290600101906020018083116101a157829003601f168201915b505050505090806001015490806002015f9054906101000a900473ffffffffffffffffffffffffffffffffffffffff1690806003015f9054906101000a900473ffffffffffffffffffffffffffffffffffffffff16908060030160149054906101000a900460ff16905085565b6040518060a001604052808381526020018281526020013373ffffffffffffffffffffffffffffffffffffffff1681526020015f73ffffffffffffffffffffffffffffffffffffffff1681526020015f600381111561028d5761028c6107fb565b5b8152505f5f60015481526020019081526020015f205f820151815f0190816102b59190610c49565b50602082015181600101556040820151816002015f6101000a81548173ffffffffffffffffffffffffffffffffffffffff021916908373ffffffffffffffffffffffffffffffffffffffff1602179055506060820151816003015f6101000a81548173ffffffffffffffffffffffffffffffffffffffff021916908373ffffffffffffffffffffffffffffffffffffffff16021790555060808201518160030160146101000a81548160ff02191690836003811115610377576103766107fb565b5b021790555090505060015f81548092919061039190610d45565b91905055505050565b5f5f5f8381526020019081526020015f209050806003015f9054906101000a900473ffffffffffffffffffffffffffffffffffffffff1673ffffffffffffffffffffffffffffffffffffffff163373ffffffffffffffffffffffffffffffffffffffff161461043e576040517f08c379a000000000000000000000000000000000000000000000000000000000815260040161043590610dfc565b60405180910390fd5b60016003811115610452576104516107fb565b5b8160030160149054906101000a900460ff166003811115610476576104756107fb565b5b146104b6576040517f08c379a00000000000000000000000000000000000000000000000000000000081526004016104ad90610e8a565b60405180910390fd5b60038160030160146101000a81548160ff021916908360038111156104de576104dd6107fb565b5b0217905550806002015f9054906101000a900473ffffffffffffffffffffffffffffffffffffffff1673ffffffffffffffffffffffffffffffffffffffff166108fc826001015490811502906040515f60405180830381858888f1935050505015801561054d573d5f5f3e3d5ffd5b505050565b5f5f5f8381526020019081526020015f2090505f6003811115610578576105776107fb565b5b8160030160149054906101000a900460ff16600381111561059c5761059b6107fb565b5b146105dc576040517f08c379a00000000000000000000000000000000000000000000000000000000081526004016105d390610f18565b60405180910390fd5b80600101543414610622576040517f08c379a000000000000000000000000000000000000000000000000000000000815260040161061990610fa6565b60405180910390fd5b33816003015f6101000a81548173ffffffffffffffffffffffffffffffffffffffff021916908373ffffffffffffffffffffffffffffffffffffffff16021790555060018160030160146101000a81548160ff0219169083600381111561068c5761068b6107fb565b5b02179055505050565b5f819050919050565b6106a781610695565b82525050565b5f6020820190506106c05f83018461069e565b92915050565b5f604051905090565b5f5ffd5b5f5ffd5b6106e081610695565b81146106ea575f5ffd5b50565b5f813590506106fb816106d7565b92915050565b5f60208284031215610716576107156106cf565b5b5f610723848285016106ed565b91505092915050565b5f81519050919050565b5f82825260208201905092915050565b8281835e5f83830152505050565b5f601f19601f8301169050919050565b5f61076e8261072c565b6107788185610736565b9350610788818560208601610746565b61079181610754565b840191505092915050565b5f73ffffffffffffffffffffffffffffffffffffffff82169050919050565b5f6107c58261079c565b9050919050565b6107d5816107bb565b82525050565b5f6107e58261079c565b9050919050565b6107f5816107db565b82525050565b7f4e487b71000000000000000000000000000000000000000000000000000000005f52602160045260245ffd5b60048110610839576108386107fb565b5b50565b5f81905061084982610828565b919050565b5f6108588261083c565b9050919050565b6108688161084e565b82525050565b5f60a0820190508181035f8301526108868188610764565b9050610895602083018761069e565b6108a260408301866107cc565b6108af60608301856107ec565b6108bc608083018461085f565b9695505050505050565b5f5ffd5b5f5ffd5b7f4e487b71000000000000000000000000000000000000000000000000000000005f52604160045260245ffd5b61090482610754565b810181811067ffffffffffffffff82111715610923576109226108ce565b5b80604052505050565b5f6109356106c6565b905061094182826108fb565b919050565b5f67ffffffffffffffff8211156109605761095f6108ce565b5b61096982610754565b9050602081019050919050565b828183375f83830152505050565b5f61099661099184610946565b61092c565b9050828152602081018484840111156109b2576109b16108ca565b5b6109bd848285610976565b509392505050565b5f82601f8301126109d9576109d86108c6565b5b81356109e9848260208601610984565b91505092915050565b5f5f60408385031215610a0857610a076106cf565b5b5f83013567ffffffffffffffff811115610a2557610a246106d3565b5b610a31858286016109c5565b9250506020610a42858286016106ed565b9150509250929050565b7f4e487b71000000000000000000000000000000000000000000000000000000005f52602260045260245ffd5b5f6002820490506001821680610a9057607f821691505b602082108103610aa357610aa2610a4c565b5b50919050565b5f819050815f5260205f209050919050565b5f6020601f8301049050919050565b5f82821b905092915050565b5f60088302610b057fffffffffffffffffffffffffffffffffffffffffffffffffffffffffffffffff82610aca565b610b0f8683610aca565b95508019841693508086168417925050509392505050565b5f819050919050565b5f610b4a610b45610b4084610695565b610b27565b610695565b9050919050565b5f819050919050565b610b6383610b30565b610b77610b6f82610b51565b848454610ad6565b825550505050565b5f5f905090565b610b8e610b7f565b610b99818484610b5a565b505050565b5b81811015610bbc57610bb15f82610b86565b600181019050610b9f565b5050565b601f821115610c0157610bd281610aa9565b610bdb84610abb565b81016020851015610bea578190505b610bfe610bf685610abb565b830182610b9e565b50505b505050565b5f82821c905092915050565b5f610c215f1984600802610c06565b1980831691505092915050565b5f610c398383610c12565b9150826002028217905092915050565b610c528261072c565b67ffffffffffffffff811115610c6b57610c6a6108ce565b5b610c758254610a79565b610c80828285610bc0565b5f60209050601f831160018114610cb1575f8415610c9f578287015190505b610ca98582610c2e565b865550610d10565b601f198416610cbf86610aa9565b5f5b82811015610ce657848901518255600182019150602085019450602081019050610cc1565b86831015610d035784890151610cff601f891682610c12565b8355505b6001600288020188555050505b505050505050565b7f4e487b71000000000000000000000000000000000000000000000000000000005f52601160045260245ffd5b5f610d4f82610695565b91507fffffffffffffffffffffffffffffffffffffffffffffffffffffffffffffffff8203610d8157610d80610d18565b5b600182019050919050565b7f536f6c6f20656c20636f6d707261646f7220707565646520636f6e6669726d615f8201527f7200000000000000000000000000000000000000000000000000000000000000602082015250565b5f610de6602183610736565b9150610df182610d8c565b604082019050919050565b5f6020820190508181035f830152610e1381610dda565b9050919050565b7f456c2070726f647563746f206e6f206861207369646f2066696e616e636961645f8201527f6f00000000000000000000000000000000000000000000000000000000000000602082015250565b5f610e74602183610736565b9150610e7f82610e1a565b604082019050919050565b5f6020820190508181035f830152610ea181610e68565b9050919050565b7f456c2070726f647563746f207961206675652066696e616e636961646f206f205f8201527f656e7472656761646f0000000000000000000000000000000000000000000000602082015250565b5f610f02602983610736565b9150610f0d82610ea8565b604082019050919050565b5f6020820190508181035f830152610f2f81610ef6565b9050919050565b7f456c2076616c6f7220656e766961646f206e6f20636f696e6369646520636f6e5f8201527f20656c2070726563696f00000000000000000000000000000000000000000000602082015250565b5f610f90602a83610736565b9150610f9b82610f36565b604082019050919050565b5f6020820190508181035f830152610fbd81610f84565b905091905056fea2646970667358221220ebe03659755374c296d8329f63ac0747befc72e3e8a713825542e1ba8ba71e1364736f6c634300081e0033",
					"opcodes": "PUSH1 0x80 PUSH1 0x40 MSTORE PUSH0 PUSH1 0x1 SSTORE CALLVALUE DUP1 ISZERO PUSH1 0x12 JUMPI PUSH0 PUSH0 REVERT JUMPDEST POP PUSH2 0xFFA DUP1 PUSH2 0x20 PUSH0 CODECOPY PUSH0 RETURN INVALID PUSH1 0x80 PUSH1 0x40 MSTORE PUSH1 0x4 CALLDATASIZE LT PUSH2 0x49 JUMPI PUSH0 CALLDATALOAD PUSH1 0xE0 SHR DUP1 PUSH4 0x53D27CC2 EQ PUSH2 0x4D JUMPI DUP1 PUSH4 0x99553636 EQ PUSH2 0x77 JUMPI DUP1 PUSH4 0x9ACDE9EA EQ PUSH2 0xB7 JUMPI DUP1 PUSH4 0xEEA7F824 EQ PUSH2 0xDF JUMPI DUP1 PUSH4 0xFECC7C93 EQ PUSH2 0x107 JUMPI JUMPDEST PUSH0 PUSH0 REVERT JUMPDEST CALLVALUE DUP1 ISZERO PUSH2 0x58 JUMPI PUSH0 PUSH0 REVERT JUMPDEST POP PUSH2 0x61 PUSH2 0x123 JUMP JUMPDEST PUSH1 0x40 MLOAD PUSH2 0x6E SWAP2 SWAP1 PUSH2 0x6AD JUMP JUMPDEST PUSH1 0x40 MLOAD DUP1 SWAP2 SUB SWAP1 RETURN JUMPDEST CALLVALUE DUP1 ISZERO PUSH2 0x82 JUMPI PUSH0 PUSH0 REVERT JUMPDEST POP PUSH2 0x9D PUSH1 0x4 DUP1 CALLDATASIZE SUB DUP2 ADD SWAP1 PUSH2 0x98 SWAP2 SWAP1 PUSH2 0x701 JUMP JUMPDEST PUSH2 0x129 JUMP JUMPDEST PUSH1 0x40 MLOAD PUSH2 0xAE SWAP6 SWAP5 SWAP4 SWAP3 SWAP2 SWAP1 PUSH2 0x86E JUMP JUMPDEST PUSH1 0x40 MLOAD DUP1 SWAP2 SUB SWAP1 RETURN JUMPDEST CALLVALUE DUP1 ISZERO PUSH2 0xC2 JUMPI PUSH0 PUSH0 REVERT JUMPDEST POP PUSH2 0xDD PUSH1 0x4 DUP1 CALLDATASIZE SUB DUP2 ADD SWAP1 PUSH2 0xD8 SWAP2 SWAP1 PUSH2 0x9F2 JUMP JUMPDEST PUSH2 0x22B JUMP JUMPDEST STOP JUMPDEST CALLVALUE DUP1 ISZERO PUSH2 0xEA JUMPI PUSH0 PUSH0 REVERT JUMPDEST POP PUSH2 0x105 PUSH1 0x4 DUP1 CALLDATASIZE SUB DUP2 ADD SWAP1 PUSH2 0x100 SWAP2 SWAP1 PUSH2 0x701 JUMP JUMPDEST PUSH2 0x39A JUMP JUMPDEST STOP JUMPDEST PUSH2 0x121 PUSH1 0x4 DUP1 CALLDATASIZE SUB DUP2 ADD SWAP1 PUSH2 0x11C SWAP2 SWAP1 PUSH2 0x701 JUMP JUMPDEST PUSH2 0x552 JUMP JUMPDEST STOP JUMPDEST PUSH1 0x1 SLOAD DUP2 JUMP JUMPDEST PUSH0 PUSH1 0x20 MSTORE DUP1 PUSH0 MSTORE PUSH1 0x40 PUSH0 KECCAK256 PUSH0 SWAP2 POP SWAP1 POP DUP1 PUSH0 ADD DUP1 SLOAD PUSH2 0x147 SWAP1 PUSH2 0xA79 JUMP JUMPDEST DUP1 PUSH1 0x1F ADD PUSH1 0x20 DUP1 SWAP2 DIV MUL PUSH1 0x20 ADD PUSH1 0x40 MLOAD SWAP1 DUP2 ADD PUSH1 0x40 MSTORE DUP1 SWAP3 SWAP2 SWAP1 DUP2 DUP2 MSTORE PUSH1 0x20 ADD DUP3 DUP1 SLOAD PUSH2 0x173 SWAP1 PUSH2 0xA79 JUMP JUMPDEST DUP1 ISZERO PUSH2 0x1BE JUMPI DUP1 PUSH1 0x1F LT PUSH2 0x195 JUMPI PUSH2 0x100 DUP1 DUP4 SLOAD DIV MUL DUP4 MSTORE SWAP2 PUSH1 0x20 ADD SWAP2 PUSH2 0x1BE JUMP JUMPDEST DUP3 ADD SWAP2 SWAP1 PUSH0 MSTORE PUSH1 0x20 PUSH0 KECCAK256 SWAP1 JUMPDEST DUP2 SLOAD DUP2 MSTORE SWAP1 PUSH1 0x1 ADD SWAP1 PUSH1 0x20 ADD DUP1 DUP4 GT PUSH2 0x1A1 JUMPI DUP3 SWAP1 SUB PUSH1 0x1F AND DUP3 ADD SWAP2 JUMPDEST POP POP POP POP POP SWAP1 DUP1 PUSH1 0x1 ADD SLOAD SWAP1 DUP1 PUSH1 0x2 ADD PUSH0 SWAP1 SLOAD SWAP1 PUSH2 0x100 EXP SWAP1 DIV PUSH20 0xFFFFFFFFFFFFFFFFFFFFFFFFFFFFFFFFFFFFFFFF AND SWAP1 DUP1 PUSH1 0x3 ADD PUSH0 SWAP1 SLOAD SWAP1 PUSH2 0x100 EXP SWAP1 DIV PUSH20 0xFFFFFFFFFFFFFFFFFFFFFFFFFFFFFFFFFFFFFFFF AND SWAP1 DUP1 PUSH1 0x3 ADD PUSH1 0x14 SWAP1 SLOAD SWAP1 PUSH2 0x100 EXP SWAP1 DIV PUSH1 0xFF AND SWAP1 POP DUP6 JUMP JUMPDEST PUSH1 0x40 MLOAD DUP1 PUSH1 0xA0 ADD PUSH1 0x40 MSTORE DUP1 DUP4 DUP2 MSTORE PUSH1 0x20 ADD DUP3 DUP2 MSTORE PUSH1 0x20 ADD CALLER PUSH20 0xFFFFFFFFFFFFFFFFFFFFFFFFFFFFFFFFFFFFFFFF AND DUP2 MSTORE PUSH1 0x20 ADD PUSH0 PUSH20 0xFFFFFFFFFFFFFFFFFFFFFFFFFFFFFFFFFFFFFFFF AND DUP2 MSTORE PUSH1 0x20 ADD PUSH0 PUSH1 0x3 DUP2 GT ISZERO PUSH2 0x28D JUMPI PUSH2 0x28C PUSH2 0x7FB JUMP JUMPDEST JUMPDEST DUP2 MSTORE POP PUSH0 PUSH0 PUSH1 0x1 SLOAD DUP2 MSTORE PUSH1 0x20 ADD SWAP1 DUP2 MSTORE PUSH1 0x20 ADD PUSH0 KECCAK256 PUSH0 DUP3 ADD MLOAD DUP2 PUSH0 ADD SWAP1 DUP2 PUSH2 0x2B5 SWAP2 SWAP1 PUSH2 0xC49 JUMP JUMPDEST POP PUSH1 0x20 DUP3 ADD MLOAD DUP2 PUSH1 0x1 ADD SSTORE PUSH1 0x40 DUP3 ADD MLOAD DUP2 PUSH1 0x2 ADD PUSH0 PUSH2 0x100 EXP DUP2 SLOAD DUP2 PUSH20 0xFFFFFFFFFFFFFFFFFFFFFFFFFFFFFFFFFFFFFFFF MUL NOT AND SWAP1 DUP4 PUSH20 0xFFFFFFFFFFFFFFFFFFFFFFFFFFFFFFFFFFFFFFFF AND MUL OR SWAP1 SSTORE POP PUSH1 0x60 DUP3 ADD MLOAD DUP2 PUSH1 0x3 ADD PUSH0 PUSH2 0x100 EXP DUP2 SLOAD DUP2 PUSH20 0xFFFFFFFFFFFFFFFFFFFFFFFFFFFFFFFFFFFFFFFF MUL NOT AND SWAP1 DUP4 PUSH20 0xFFFFFFFFFFFFFFFFFFFFFFFFFFFFFFFFFFFFFFFF AND MUL OR SWAP1 SSTORE POP PUSH1 0x80 DUP3 ADD MLOAD DUP2 PUSH1 0x3 ADD PUSH1 0x14 PUSH2 0x100 EXP DUP2 SLOAD DUP2 PUSH1 0xFF MUL NOT AND SWAP1 DUP4 PUSH1 0x3 DUP2 GT ISZERO PUSH2 0x377 JUMPI PUSH2 0x376 PUSH2 0x7FB JUMP JUMPDEST JUMPDEST MUL OR SWAP1 SSTORE POP SWAP1 POP POP PUSH1 0x1 PUSH0 DUP2 SLOAD DUP1 SWAP3 SWAP2 SWAP1 PUSH2 0x391 SWAP1 PUSH2 0xD45 JUMP JUMPDEST SWAP2 SWAP1 POP SSTORE POP POP POP JUMP JUMPDEST PUSH0 PUSH0 PUSH0 DUP4 DUP2 MSTORE PUSH1 0x20 ADD SWAP1 DUP2 MSTORE PUSH1 0x20 ADD PUSH0 KECCAK256 SWAP1 POP DUP1 PUSH1 0x3 ADD PUSH0 SWAP1 SLOAD SWAP1 PUSH2 0x100 EXP SWAP1 DIV PUSH20 0xFFFFFFFFFFFFFFFFFFFFFFFFFFFFFFFFFFFFFFFF AND PUSH20 0xFFFFFFFFFFFFFFFFFFFFFFFFFFFFFFFFFFFFFFFF AND CALLER PUSH20 0xFFFFFFFFFFFFFFFFFFFFFFFFFFFFFFFFFFFFFFFF AND EQ PUSH2 0x43E JUMPI PUSH1 0x40 MLOAD PUSH32 0x8C379A000000000000000000000000000000000000000000000000000000000 DUP2 MSTORE PUSH1 0x4 ADD PUSH2 0x435 SWAP1 PUSH2 0xDFC JUMP JUMPDEST PUSH1 0x40 MLOAD DUP1 SWAP2 SUB SWAP1 REVERT JUMPDEST PUSH1 0x1 PUSH1 0x3 DUP2 GT ISZERO PUSH2 0x452 JUMPI PUSH2 0x451 PUSH2 0x7FB JUMP JUMPDEST JUMPDEST DUP2 PUSH1 0x3 ADD PUSH1 0x14 SWAP1 SLOAD SWAP1 PUSH2 0x100 EXP SWAP1 DIV PUSH1 0xFF AND PUSH1 0x3 DUP2 GT ISZERO PUSH2 0x476 JUMPI PUSH2 0x475 PUSH2 0x7FB JUMP JUMPDEST JUMPDEST EQ PUSH2 0x4B6 JUMPI PUSH1 0x40 MLOAD PUSH32 0x8C379A000000000000000000000000000000000000000000000000000000000 DUP2 MSTORE PUSH1 0x4 ADD PUSH2 0x4AD SWAP1 PUSH2 0xE8A JUMP JUMPDEST PUSH1 0x40 MLOAD DUP1 SWAP2 SUB SWAP1 REVERT JUMPDEST PUSH1 0x3 DUP2 PUSH1 0x3 ADD PUSH1 0x14 PUSH2 0x100 EXP DUP2 SLOAD DUP2 PUSH1 0xFF MUL NOT AND SWAP1 DUP4 PUSH1 0x3 DUP2 GT ISZERO PUSH2 0x4DE JUMPI PUSH2 0x4DD PUSH2 0x7FB JUMP JUMPDEST JUMPDEST MUL OR SWAP1 SSTORE POP DUP1 PUSH1 0x2 ADD PUSH0 SWAP1 SLOAD SWAP1 PUSH2 0x100 EXP SWAP1 DIV PUSH20 0xFFFFFFFFFFFFFFFFFFFFFFFFFFFFFFFFFFFFFFFF AND PUSH20 0xFFFFFFFFFFFFFFFFFFFFFFFFFFFFFFFFFFFFFFFF AND PUSH2 0x8FC DUP3 PUSH1 0x1 ADD SLOAD SWAP1 DUP2 ISZERO MUL SWAP1 PUSH1 0x40 MLOAD PUSH0 PUSH1 0x40 MLOAD DUP1 DUP4 SUB DUP2 DUP6 DUP9 DUP9 CALL SWAP4 POP POP POP POP ISZERO DUP1 ISZERO PUSH2 0x54D JUMPI RETURNDATASIZE PUSH0 PUSH0 RETURNDATACOPY RETURNDATASIZE PUSH0 REVERT JUMPDEST POP POP POP JUMP JUMPDEST PUSH0 PUSH0 PUSH0 DUP4 DUP2 MSTORE PUSH1 0x20 ADD SWAP1 DUP2 MSTORE PUSH1 0x20 ADD PUSH0 KECCAK256 SWAP1 POP PUSH0 PUSH1 0x3 DUP2 GT ISZERO PUSH2 0x578 JUMPI PUSH2 0x577 PUSH2 0x7FB JUMP JUMPDEST JUMPDEST DUP2 PUSH1 0x3 ADD PUSH1 0x14 SWAP1 SLOAD SWAP1 PUSH2 0x100 EXP SWAP1 DIV PUSH1 0xFF AND PUSH1 0x3 DUP2 GT ISZERO PUSH2 0x59C JUMPI PUSH2 0x59B PUSH2 0x7FB JUMP JUMPDEST JUMPDEST EQ PUSH2 0x5DC JUMPI PUSH1 0x40 MLOAD PUSH32 0x8C379A000000000000000000000000000000000000000000000000000000000 DUP2 MSTORE PUSH1 0x4 ADD PUSH2 0x5D3 SWAP1 PUSH2 0xF18 JUMP JUMPDEST PUSH1 0x40 MLOAD DUP1 SWAP2 SUB SWAP1 REVERT JUMPDEST DUP1 PUSH1 0x1 ADD SLOAD CALLVALUE EQ PUSH2 0x622 JUMPI PUSH1 0x40 MLOAD PUSH32 0x8C379A000000000000000000000000000000000000000000000000000000000 DUP2 MSTORE PUSH1 0x4 ADD PUSH2 0x619 SWAP1 PUSH2 0xFA6 JUMP JUMPDEST PUSH1 0x40 MLOAD DUP1 SWAP2 SUB SWAP1 REVERT JUMPDEST CALLER DUP2 PUSH1 0x3 ADD PUSH0 PUSH2 0x100 EXP DUP2 SLOAD DUP2 PUSH20 0xFFFFFFFFFFFFFFFFFFFFFFFFFFFFFFFFFFFFFFFF MUL NOT AND SWAP1 DUP4 PUSH20 0xFFFFFFFFFFFFFFFFFFFFFFFFFFFFFFFFFFFFFFFF AND MUL OR SWAP1 SSTORE POP PUSH1 0x1 DUP2 PUSH1 0x3 ADD PUSH1 0x14 PUSH2 0x100 EXP DUP2 SLOAD DUP2 PUSH1 0xFF MUL NOT AND SWAP1 DUP4 PUSH1 0x3 DUP2 GT ISZERO PUSH2 0x68C JUMPI PUSH2 0x68B PUSH2 0x7FB JUMP JUMPDEST JUMPDEST MUL OR SWAP1 SSTORE POP POP POP JUMP JUMPDEST PUSH0 DUP2 SWAP1 POP SWAP2 SWAP1 POP JUMP JUMPDEST PUSH2 0x6A7 DUP2 PUSH2 0x695 JUMP JUMPDEST DUP3 MSTORE POP POP JUMP JUMPDEST PUSH0 PUSH1 0x20 DUP3 ADD SWAP1 POP PUSH2 0x6C0 PUSH0 DUP4 ADD DUP5 PUSH2 0x69E JUMP JUMPDEST SWAP3 SWAP2 POP POP JUMP JUMPDEST PUSH0 PUSH1 0x40 MLOAD SWAP1 POP SWAP1 JUMP JUMPDEST PUSH0 PUSH0 REVERT JUMPDEST PUSH0 PUSH0 REVERT JUMPDEST PUSH2 0x6E0 DUP2 PUSH2 0x695 JUMP JUMPDEST DUP2 EQ PUSH2 0x6EA JUMPI PUSH0 PUSH0 REVERT JUMPDEST POP JUMP JUMPDEST PUSH0 DUP2 CALLDATALOAD SWAP1 POP PUSH2 0x6FB DUP2 PUSH2 0x6D7 JUMP JUMPDEST SWAP3 SWAP2 POP POP JUMP JUMPDEST PUSH0 PUSH1 0x20 DUP3 DUP5 SUB SLT ISZERO PUSH2 0x716 JUMPI PUSH2 0x715 PUSH2 0x6CF JUMP JUMPDEST JUMPDEST PUSH0 PUSH2 0x723 DUP5 DUP3 DUP6 ADD PUSH2 0x6ED JUMP JUMPDEST SWAP2 POP POP SWAP3 SWAP2 POP POP JUMP JUMPDEST PUSH0 DUP2 MLOAD SWAP1 POP SWAP2 SWAP1 POP JUMP JUMPDEST PUSH0 DUP3 DUP3 MSTORE PUSH1 0x20 DUP3 ADD SWAP1 POP SWAP3 SWAP2 POP POP JUMP JUMPDEST DUP3 DUP2 DUP4 MCOPY PUSH0 DUP4 DUP4 ADD MSTORE POP POP POP JUMP JUMPDEST PUSH0 PUSH1 0x1F NOT PUSH1 0x1F DUP4 ADD AND SWAP1 POP SWAP2 SWAP1 POP JUMP JUMPDEST PUSH0 PUSH2 0x76E DUP3 PUSH2 0x72C JUMP JUMPDEST PUSH2 0x778 DUP2 DUP6 PUSH2 0x736 JUMP JUMPDEST SWAP4 POP PUSH2 0x788 DUP2 DUP6 PUSH1 0x20 DUP7 ADD PUSH2 0x746 JUMP JUMPDEST PUSH2 0x791 DUP2 PUSH2 0x754 JUMP JUMPDEST DUP5 ADD SWAP2 POP POP SWAP3 SWAP2 POP POP JUMP JUMPDEST PUSH0 PUSH20 0xFFFFFFFFFFFFFFFFFFFFFFFFFFFFFFFFFFFFFFFF DUP3 AND SWAP1 POP SWAP2 SWAP1 POP JUMP JUMPDEST PUSH0 PUSH2 0x7C5 DUP3 PUSH2 0x79C JUMP JUMPDEST SWAP1 POP SWAP2 SWAP1 POP JUMP JUMPDEST PUSH2 0x7D5 DUP2 PUSH2 0x7BB JUMP JUMPDEST DUP3 MSTORE POP POP JUMP JUMPDEST PUSH0 PUSH2 0x7E5 DUP3 PUSH2 0x79C JUMP JUMPDEST SWAP1 POP SWAP2 SWAP1 POP JUMP JUMPDEST PUSH2 0x7F5 DUP2 PUSH2 0x7DB JUMP JUMPDEST DUP3 MSTORE POP POP JUMP JUMPDEST PUSH32 0x4E487B7100000000000000000000000000000000000000000000000000000000 PUSH0 MSTORE PUSH1 0x21 PUSH1 0x4 MSTORE PUSH1 0x24 PUSH0 REVERT JUMPDEST PUSH1 0x4 DUP2 LT PUSH2 0x839 JUMPI PUSH2 0x838 PUSH2 0x7FB JUMP JUMPDEST JUMPDEST POP JUMP JUMPDEST PUSH0 DUP2 SWAP1 POP PUSH2 0x849 DUP3 PUSH2 0x828 JUMP JUMPDEST SWAP2 SWAP1 POP JUMP JUMPDEST PUSH0 PUSH2 0x858 DUP3 PUSH2 0x83C JUMP JUMPDEST SWAP1 POP SWAP2 SWAP1 POP JUMP JUMPDEST PUSH2 0x868 DUP2 PUSH2 0x84E JUMP JUMPDEST DUP3 MSTORE POP POP JUMP JUMPDEST PUSH0 PUSH1 0xA0 DUP3 ADD SWAP1 POP DUP2 DUP2 SUB PUSH0 DUP4 ADD MSTORE PUSH2 0x886 DUP2 DUP9 PUSH2 0x764 JUMP JUMPDEST SWAP1 POP PUSH2 0x895 PUSH1 0x20 DUP4 ADD DUP8 PUSH2 0x69E JUMP JUMPDEST PUSH2 0x8A2 PUSH1 0x40 DUP4 ADD DUP7 PUSH2 0x7CC JUMP JUMPDEST PUSH2 0x8AF PUSH1 0x60 DUP4 ADD DUP6 PUSH2 0x7EC JUMP JUMPDEST PUSH2 0x8BC PUSH1 0x80 DUP4 ADD DUP5 PUSH2 0x85F JUMP JUMPDEST SWAP7 SWAP6 POP POP POP POP POP POP JUMP JUMPDEST PUSH0 PUSH0 REVERT JUMPDEST PUSH0 PUSH0 REVERT JUMPDEST PUSH32 0x4E487B7100000000000000000000000000000000000000000000000000000000 PUSH0 MSTORE PUSH1 0x41 PUSH1 0x4 MSTORE PUSH1 0x24 PUSH0 REVERT JUMPDEST PUSH2 0x904 DUP3 PUSH2 0x754 JUMP JUMPDEST DUP2 ADD DUP2 DUP2 LT PUSH8 0xFFFFFFFFFFFFFFFF DUP3 GT OR ISZERO PUSH2 0x923 JUMPI PUSH2 0x922 PUSH2 0x8CE JUMP JUMPDEST JUMPDEST DUP1 PUSH1 0x40 MSTORE POP POP POP JUMP JUMPDEST PUSH0 PUSH2 0x935 PUSH2 0x6C6 JUMP JUMPDEST SWAP1 POP PUSH2 0x941 DUP3 DUP3 PUSH2 0x8FB JUMP JUMPDEST SWAP2 SWAP1 POP JUMP JUMPDEST PUSH0 PUSH8 0xFFFFFFFFFFFFFFFF DUP3 GT ISZERO PUSH2 0x960 JUMPI PUSH2 0x95F PUSH2 0x8CE JUMP JUMPDEST JUMPDEST PUSH2 0x969 DUP3 PUSH2 0x754 JUMP JUMPDEST SWAP1 POP PUSH1 0x20 DUP2 ADD SWAP1 POP SWAP2 SWAP1 POP JUMP JUMPDEST DUP3 DUP2 DUP4 CALLDATACOPY PUSH0 DUP4 DUP4 ADD MSTORE POP POP POP JUMP JUMPDEST PUSH0 PUSH2 0x996 PUSH2 0x991 DUP5 PUSH2 0x946 JUMP JUMPDEST PUSH2 0x92C JUMP JUMPDEST SWAP1 POP DUP3 DUP2 MSTORE PUSH1 0x20 DUP2 ADD DUP5 DUP5 DUP5 ADD GT ISZERO PUSH2 0x9B2 JUMPI PUSH2 0x9B1 PUSH2 0x8CA JUMP JUMPDEST JUMPDEST PUSH2 0x9BD DUP5 DUP3 DUP6 PUSH2 0x976 JUMP JUMPDEST POP SWAP4 SWAP3 POP POP POP JUMP JUMPDEST PUSH0 DUP3 PUSH1 0x1F DUP4 ADD SLT PUSH2 0x9D9 JUMPI PUSH2 0x9D8 PUSH2 0x8C6 JUMP JUMPDEST JUMPDEST DUP2 CALLDATALOAD PUSH2 0x9E9 DUP5 DUP3 PUSH1 0x20 DUP7 ADD PUSH2 0x984 JUMP JUMPDEST SWAP2 POP POP SWAP3 SWAP2 POP POP JUMP JUMPDEST PUSH0 PUSH0 PUSH1 0x40 DUP4 DUP6 SUB SLT ISZERO PUSH2 0xA08 JUMPI PUSH2 0xA07 PUSH2 0x6CF JUMP JUMPDEST JUMPDEST PUSH0 DUP4 ADD CALLDATALOAD PUSH8 0xFFFFFFFFFFFFFFFF DUP2 GT ISZERO PUSH2 0xA25 JUMPI PUSH2 0xA24 PUSH2 0x6D3 JUMP JUMPDEST JUMPDEST PUSH2 0xA31 DUP6 DUP3 DUP7 ADD PUSH2 0x9C5 JUMP JUMPDEST SWAP3 POP POP PUSH1 0x20 PUSH2 0xA42 DUP6 DUP3 DUP7 ADD PUSH2 0x6ED JUMP JUMPDEST SWAP2 POP POP SWAP3 POP SWAP3 SWAP1 POP JUMP JUMPDEST PUSH32 0x4E487B7100000000000000000000000000000000000000000000000000000000 PUSH0 MSTORE PUSH1 0x22 PUSH1 0x4 MSTORE PUSH1 0x24 PUSH0 REVERT JUMPDEST PUSH0 PUSH1 0x2 DUP3 DIV SWAP1 POP PUSH1 0x1 DUP3 AND DUP1 PUSH2 0xA90 JUMPI PUSH1 0x7F DUP3 AND SWAP2 POP JUMPDEST PUSH1 0x20 DUP3 LT DUP2 SUB PUSH2 0xAA3 JUMPI PUSH2 0xAA2 PUSH2 0xA4C JUMP JUMPDEST JUMPDEST POP SWAP2 SWAP1 POP JUMP JUMPDEST PUSH0 DUP2 SWAP1 POP DUP2 PUSH0 MSTORE PUSH1 0x20 PUSH0 KECCAK256 SWAP1 POP SWAP2 SWAP1 POP JUMP JUMPDEST PUSH0 PUSH1 0x20 PUSH1 0x1F DUP4 ADD DIV SWAP1 POP SWAP2 SWAP1 POP JUMP JUMPDEST PUSH0 DUP3 DUP3 SHL SWAP1 POP SWAP3 SWAP2 POP POP JUMP JUMPDEST PUSH0 PUSH1 0x8 DUP4 MUL PUSH2 0xB05 PUSH32 0xFFFFFFFFFFFFFFFFFFFFFFFFFFFFFFFFFFFFFFFFFFFFFFFFFFFFFFFFFFFFFFFF DUP3 PUSH2 0xACA JUMP JUMPDEST PUSH2 0xB0F DUP7 DUP4 PUSH2 0xACA JUMP JUMPDEST SWAP6 POP DUP1 NOT DUP5 AND SWAP4 POP DUP1 DUP7 AND DUP5 OR SWAP3 POP POP POP SWAP4 SWAP3 POP POP POP JUMP JUMPDEST PUSH0 DUP2 SWAP1 POP SWAP2 SWAP1 POP JUMP JUMPDEST PUSH0 PUSH2 0xB4A PUSH2 0xB45 PUSH2 0xB40 DUP5 PUSH2 0x695 JUMP JUMPDEST PUSH2 0xB27 JUMP JUMPDEST PUSH2 0x695 JUMP JUMPDEST SWAP1 POP SWAP2 SWAP1 POP JUMP JUMPDEST PUSH0 DUP2 SWAP1 POP SWAP2 SWAP1 POP JUMP JUMPDEST PUSH2 0xB63 DUP4 PUSH2 0xB30 JUMP JUMPDEST PUSH2 0xB77 PUSH2 0xB6F DUP3 PUSH2 0xB51 JUMP JUMPDEST DUP5 DUP5 SLOAD PUSH2 0xAD6 JUMP JUMPDEST DUP3 SSTORE POP POP POP POP JUMP JUMPDEST PUSH0 PUSH0 SWAP1 POP SWAP1 JUMP JUMPDEST PUSH2 0xB8E PUSH2 0xB7F JUMP JUMPDEST PUSH2 0xB99 DUP2 DUP5 DUP5 PUSH2 0xB5A JUMP JUMPDEST POP POP POP JUMP JUMPDEST JUMPDEST DUP2 DUP2 LT ISZERO PUSH2 0xBBC JUMPI PUSH2 0xBB1 PUSH0 DUP3 PUSH2 0xB86 JUMP JUMPDEST PUSH1 0x1 DUP2 ADD SWAP1 POP PUSH2 0xB9F JUMP JUMPDEST POP POP JUMP JUMPDEST PUSH1 0x1F DUP3 GT ISZERO PUSH2 0xC01 JUMPI PUSH2 0xBD2 DUP2 PUSH2 0xAA9 JUMP JUMPDEST PUSH2 0xBDB DUP5 PUSH2 0xABB JUMP JUMPDEST DUP2 ADD PUSH1 0x20 DUP6 LT ISZERO PUSH2 0xBEA JUMPI DUP2 SWAP1 POP JUMPDEST PUSH2 0xBFE PUSH2 0xBF6 DUP6 PUSH2 0xABB JUMP JUMPDEST DUP4 ADD DUP3 PUSH2 0xB9E JUMP JUMPDEST POP POP JUMPDEST POP POP POP JUMP JUMPDEST PUSH0 DUP3 DUP3 SHR SWAP1 POP SWAP3 SWAP2 POP POP JUMP JUMPDEST PUSH0 PUSH2 0xC21 PUSH0 NOT DUP5 PUSH1 0x8 MUL PUSH2 0xC06 JUMP JUMPDEST NOT DUP1 DUP4 AND SWAP2 POP POP SWAP3 SWAP2 POP POP JUMP JUMPDEST PUSH0 PUSH2 0xC39 DUP4 DUP4 PUSH2 0xC12 JUMP JUMPDEST SWAP2 POP DUP3 PUSH1 0x2 MUL DUP3 OR SWAP1 POP SWAP3 SWAP2 POP POP JUMP JUMPDEST PUSH2 0xC52 DUP3 PUSH2 0x72C JUMP JUMPDEST PUSH8 0xFFFFFFFFFFFFFFFF DUP2 GT ISZERO PUSH2 0xC6B JUMPI PUSH2 0xC6A PUSH2 0x8CE JUMP JUMPDEST JUMPDEST PUSH2 0xC75 DUP3 SLOAD PUSH2 0xA79 JUMP JUMPDEST PUSH2 0xC80 DUP3 DUP3 DUP6 PUSH2 0xBC0 JUMP JUMPDEST PUSH0 PUSH1 0x20 SWAP1 POP PUSH1 0x1F DUP4 GT PUSH1 0x1 DUP2 EQ PUSH2 0xCB1 JUMPI PUSH0 DUP5 ISZERO PUSH2 0xC9F JUMPI DUP3 DUP8 ADD MLOAD SWAP1 POP JUMPDEST PUSH2 0xCA9 DUP6 DUP3 PUSH2 0xC2E JUMP JUMPDEST DUP7 SSTORE POP PUSH2 0xD10 JUMP JUMPDEST PUSH1 0x1F NOT DUP5 AND PUSH2 0xCBF DUP7 PUSH2 0xAA9 JUMP JUMPDEST PUSH0 JUMPDEST DUP3 DUP2 LT ISZERO PUSH2 0xCE6 JUMPI DUP5 DUP10 ADD MLOAD DUP3 SSTORE PUSH1 0x1 DUP3 ADD SWAP2 POP PUSH1 0x20 DUP6 ADD SWAP5 POP PUSH1 0x20 DUP2 ADD SWAP1 POP PUSH2 0xCC1 JUMP JUMPDEST DUP7 DUP4 LT ISZERO PUSH2 0xD03 JUMPI DUP5 DUP10 ADD MLOAD PUSH2 0xCFF PUSH1 0x1F DUP10 AND DUP3 PUSH2 0xC12 JUMP JUMPDEST DUP4 SSTORE POP JUMPDEST PUSH1 0x1 PUSH1 0x2 DUP9 MUL ADD DUP9 SSTORE POP POP POP JUMPDEST POP POP POP POP POP POP JUMP JUMPDEST PUSH32 0x4E487B7100000000000000000000000000000000000000000000000000000000 PUSH0 MSTORE PUSH1 0x11 PUSH1 0x4 MSTORE PUSH1 0x24 PUSH0 REVERT JUMPDEST PUSH0 PUSH2 0xD4F DUP3 PUSH2 0x695 JUMP JUMPDEST SWAP2 POP PUSH32 0xFFFFFFFFFFFFFFFFFFFFFFFFFFFFFFFFFFFFFFFFFFFFFFFFFFFFFFFFFFFFFFFF DUP3 SUB PUSH2 0xD81 JUMPI PUSH2 0xD80 PUSH2 0xD18 JUMP JUMPDEST JUMPDEST PUSH1 0x1 DUP3 ADD SWAP1 POP SWAP2 SWAP1 POP JUMP JUMPDEST PUSH32 0x536F6C6F20656C20636F6D707261646F7220707565646520636F6E6669726D61 PUSH0 DUP3 ADD MSTORE PUSH32 0x7200000000000000000000000000000000000000000000000000000000000000 PUSH1 0x20 DUP3 ADD MSTORE POP JUMP JUMPDEST PUSH0 PUSH2 0xDE6 PUSH1 0x21 DUP4 PUSH2 0x736 JUMP JUMPDEST SWAP2 POP PUSH2 0xDF1 DUP3 PUSH2 0xD8C JUMP JUMPDEST PUSH1 0x40 DUP3 ADD SWAP1 POP SWAP2 SWAP1 POP JUMP JUMPDEST PUSH0 PUSH1 0x20 DUP3 ADD SWAP1 POP DUP2 DUP2 SUB PUSH0 DUP4 ADD MSTORE PUSH2 0xE13 DUP2 PUSH2 0xDDA JUMP JUMPDEST SWAP1 POP SWAP2 SWAP1 POP JUMP JUMPDEST PUSH32 0x456C2070726F647563746F206E6F206861207369646F2066696E616E63696164 PUSH0 DUP3 ADD MSTORE PUSH32 0x6F00000000000000000000000000000000000000000000000000000000000000 PUSH1 0x20 DUP3 ADD MSTORE POP JUMP JUMPDEST PUSH0 PUSH2 0xE74 PUSH1 0x21 DUP4 PUSH2 0x736 JUMP JUMPDEST SWAP2 POP PUSH2 0xE7F DUP3 PUSH2 0xE1A JUMP JUMPDEST PUSH1 0x40 DUP3 ADD SWAP1 POP SWAP2 SWAP1 POP JUMP JUMPDEST PUSH0 PUSH1 0x20 DUP3 ADD SWAP1 POP DUP2 DUP2 SUB PUSH0 DUP4 ADD MSTORE PUSH2 0xEA1 DUP2 PUSH2 0xE68 JUMP JUMPDEST SWAP1 POP SWAP2 SWAP1 POP JUMP JUMPDEST PUSH32 0x456C2070726F647563746F207961206675652066696E616E636961646F206F20 PUSH0 DUP3 ADD MSTORE PUSH32 0x656E7472656761646F0000000000000000000000000000000000000000000000 PUSH1 0x20 DUP3 ADD MSTORE POP JUMP JUMPDEST PUSH0 PUSH2 0xF02 PUSH1 0x29 DUP4 PUSH2 0x736 JUMP JUMPDEST SWAP2 POP PUSH2 0xF0D DUP3 PUSH2 0xEA8 JUMP JUMPDEST PUSH1 0x40 DUP3 ADD SWAP1 POP SWAP2 SWAP1 POP JUMP JUMPDEST PUSH0 PUSH1 0x20 DUP3 ADD SWAP1 POP DUP2 DUP2 SUB PUSH0 DUP4 ADD MSTORE PUSH2 0xF2F DUP2 PUSH2 0xEF6 JUMP JUMPDEST SWAP1 POP SWAP2 SWAP1 POP JUMP JUMPDEST PUSH32 0x456C2076616C6F7220656E766961646F206E6F20636F696E6369646520636F6E PUSH0 DUP3 ADD MSTORE PUSH32 0x20656C2070726563696F00000000000000000000000000000000000000000000 PUSH1 0x20 DUP3 ADD MSTORE POP JUMP JUMPDEST PUSH0 PUSH2 0xF90 PUSH1 0x2A DUP4 PUSH2 0x736 JUMP JUMPDEST SWAP2 POP PUSH2 0xF9B DUP3 PUSH2 0xF36 JUMP JUMPDEST PUSH1 0x40 DUP3 ADD SWAP1 POP SWAP2 SWAP1 POP JUMP JUMPDEST PUSH0 PUSH1 0x20 DUP3 ADD SWAP1 POP DUP2 DUP2 SUB PUSH0 DUP4 ADD MSTORE PUSH2 0xFBD DUP2 PUSH2 0xF84 JUMP JUMPDEST SWAP1 POP SWAP2 SWAP1 POP JUMP INVALID LOG2 PUSH5 0x6970667358 0x22 SLT KECCAK256 0xEB RJUMP 0x3659 PUSH22 0x5374C296D8329F63AC0747BEFC72E3E8A713825542E1 0xBA DUP12 0xA7 0x1E SGT PUSH5 0x736F6C6343 STOP ADDMOD 0x1E STOP CALLER "
				},
				"gasEstimates": {
					"creation": {
						"codeDepositCost": "818000",
						"executionCost": "5854",
						"totalCost": "823854"
					},
					"external": {
						"confirmarEntrega(uint256)": "infinite",
						"contador()": "2403",
						"financiarCompra(uint256)": "53538",
						"productos(uint256)": "infinite",
						"publicarProducto(string,uint256)": "infinite"
					}
				},
				"methodIdentifiers": {
					"confirmarEntrega(uint256)": "eea7f824",
					"contador()": "53d27cc2",
					"financiarCompra(uint256)": "fecc7c93",
					"productos(uint256)": "99553636",
					"publicarProducto(string,uint256)": "9acde9ea"
				}
			},
			"storageLayout": {
				"storage": [
					{
						"astId": 27,
						"contract": "contracts/agroChain.sol:AgroChain",
						"label": "productos",
						"offset": 0,
						"slot": "0",
						"type": "t_mapping(t_uint256,t_struct(Producto)21_storage)"
					},
					{
						"astId": 31,
						"contract": "contracts/agroChain.sol:AgroChain",
						"label": "contador",
						"offset": 0,
						"slot": "1",
						"type": "t_uint256"
					}
				],
				"types": {
					"t_address": {
						"encoding": "inplace",
						"label": "address",
						"numberOfBytes": "20"
					},
					"t_address_payable": {
						"encoding": "inplace",
						"label": "address payable",
						"numberOfBytes": "20"
					},
					"t_enum(Estado)8": {
						"encoding": "inplace",
						"label": "enum AgroChain.Estado",
						"numberOfBytes": "1"
					},
					"t_mapping(t_uint256,t_struct(Producto)21_storage)": {
						"encoding": "mapping",
						"key": "t_uint256",
						"label": "mapping(uint256 => struct AgroChain.Producto)",
						"numberOfBytes": "32",
						"value": "t_struct(Producto)21_storage"
					},
					"t_string_storage": {
						"encoding": "bytes",
						"label": "string",
						"numberOfBytes": "32"
					},
					"t_struct(Producto)21_storage": {
						"encoding": "inplace",
						"label": "struct AgroChain.Producto",
						"members": [
							{
								"astId": 11,
								"contract": "contracts/agroChain.sol:AgroChain",
								"label": "nombre",
								"offset": 0,
								"slot": "0",
								"type": "t_string_storage"
							},
							{
								"astId": 13,
								"contract": "contracts/agroChain.sol:AgroChain",
								"label": "precio",
								"offset": 0,
								"slot": "1",
								"type": "t_uint256"
							},
							{
								"astId": 15,
								"contract": "contracts/agroChain.sol:AgroChain",
								"label": "agricultor",
								"offset": 0,
								"slot": "2",
								"type": "t_address_payable"
							},
							{
								"astId": 17,
								"contract": "contracts/agroChain.sol:AgroChain",
								"label": "comprador",
								"offset": 0,
								"slot": "3",
								"type": "t_address"
							},
							{
								"astId": 20,
								"contract": "contracts/agroChain.sol:AgroChain",
								"label": "estado",
								"offset": 20,
								"slot": "3",
								"type": "t_enum(Estado)8"
							}
						],
						"numberOfBytes": "128"
					},
					"t_uint256": {
						"encoding": "inplace",
						"label": "uint256",
						"numberOfBytes": "32"
					}
				}
			},
			"userdoc": {
				"kind": "user",
				"methods": {
					"confirmarEntrega(uint256)": {
						"notice": "Confirmación del comprador de que recibió el producto"
					},
					"contador()": {
						"notice": "Contador global de productos (sirve como ID incremental)"
					},
					"financiarCompra(uint256)": {
						"notice": "Permite a un comprador financiar la compra del producto"
					},
					"productos(uint256)": {
						"notice": "Mapping de productos por ID"
					},
					"publicarProducto(string,uint256)": {
						"notice": "Permite a un agricultor publicar un nuevo producto"
					}
				},
				"notice": "Permite publicar productos, recibir financiamiento y liberar pagos tras la entrega",
				"version": 1
			}
		}
	}
}