{
	"contracts/agroCadenaArbit.sol": {
		"AgroChain": {
			"abi": [
				{
					"anonymous": false,
					"inputs": [
						{
							"indexed": true,
							"internalType": "address",
							"name": "id",
							"type": "address"
						},
						{
							"indexed": false,
							"internalType": "string",
							"name": "nombre",
							"type": "string"
						},
						{
							"indexed": false,
							"internalType": "string",
							"name": "ubicacion",
							"type": "string"
						}
					],
					"name": "AgricultorRegistrado",
					"type": "event"
				},
				{
					"anonymous": false,
					"inputs": [
						{
							"indexed": true,
							"internalType": "uint256",
							"name": "id",
							"type": "uint256"
						}
					],
					"name": "ProductoEnviado",
					"type": "event"
				},
				{
					"anonymous": false,
					"inputs": [
						{
							"indexed": true,
							"internalType": "uint256",
							"name": "id",
							"type": "uint256"
						},
						{
							"indexed": true,
							"internalType": "address",
							"name": "comprador",
							"type": "address"
						},
						{
							"indexed": false,
							"internalType": "uint256",
							"name": "precio",
							"type": "uint256"
						}
					],
					"name": "ProductoFinanciado",
					"type": "event"
				},
				{
					"anonymous": false,
					"inputs": [
						{
							"indexed": true,
							"internalType": "uint256",
							"name": "id",
							"type": "uint256"
						}
					],
					"name": "ProductoRecibido",
					"type": "event"
				},
				{
					"anonymous": false,
					"inputs": [
						{
							"indexed": true,
							"internalType": "uint256",
							"name": "id",
							"type": "uint256"
						},
						{
							"indexed": true,
							"internalType": "address",
							"name": "agricultor",
							"type": "address"
						},
						{
							"indexed": false,
							"internalType": "string",
							"name": "nombreProducto",
							"type": "string"
						},
						{
							"indexed": false,
							"internalType": "uint256",
							"name": "precio",
							"type": "uint256"
						}
					],
					"name": "ProductoRegistrado",
					"type": "event"
				},
				{
					"anonymous": false,
					"inputs": [
						{
							"indexed": true,
							"internalType": "uint256",
							"name": "id",
							"type": "uint256"
						},
						{
							"indexed": false,
							"internalType": "string",
							"name": "descripcion",
							"type": "string"
						}
					],
					"name": "ProductoTransferido",
					"type": "event"
				},
				{
					"inputs": [
						{
							"internalType": "address",
							"name": "",
							"type": "address"
						}
					],
					"name": "agricultores",
					"outputs": [
						{
							"internalType": "address",
							"name": "id",
							"type": "address"
						},
						{
							"internalType": "string",
							"name": "nombre",
							"type": "string"
						},
						{
							"internalType": "string",
							"name": "ubicacion",
							"type": "string"
						}
					],
					"stateMutability": "view",
					"type": "function"
				},
				{
					"inputs": [
						{
							"internalType": "uint256",
							"name": "_idProducto",
							"type": "uint256"
						}
					],
					"name": "confirmarEntrega",
					"outputs": [],
					"stateMutability": "nonpayable",
					"type": "function"
				},
				{
					"inputs": [],
					"name": "contadorProductos",
					"outputs": [
						{
							"internalType": "uint256",
							"name": "",
							"type": "uint256"
						}
					],
					"stateMutability": "view",
					"type": "function"
				},
				{
					"inputs": [
						{
							"internalType": "uint256",
							"name": "_idProducto",
							"type": "uint256"
						}
					],
					"name": "financiarCompra",
					"outputs": [],
					"stateMutability": "payable",
					"type": "function"
				},
				{
					"inputs": [
						{
							"internalType": "uint256",
							"name": "_idProducto",
							"type": "uint256"
						}
					],
					"name": "marcarEnviado",
					"outputs": [],
					"stateMutability": "nonpayable",
					"type": "function"
				},
				{
					"inputs": [
						{
							"internalType": "uint256",
							"name": "_idProducto",
							"type": "uint256"
						}
					],
					"name": "obtenerHistorial",
					"outputs": [
						{
							"internalType": "string[]",
							"name": "",
							"type": "string[]"
						}
					],
					"stateMutability": "view",
					"type": "function"
				},
				{
					"inputs": [
						{
							"internalType": "uint256",
							"name": "",
							"type": "uint256"
						}
					],
					"name": "productos",
					"outputs": [
						{
							"internalType": "uint256",
							"name": "id",
							"type": "uint256"
						},
						{
							"internalType": "string",
							"name": "nombreProducto",
							"type": "string"
						},
						{
							"internalType": "uint256",
							"name": "precio",
							"type": "uint256"
						},
						{
							"internalType": "address payable",
							"name": "agricultor",
							"type": "address"
						},
						{
							"internalType": "address",
							"name": "comprador",
							"type": "address"
						},
						{
							"internalType": "enum AgroChain.Estado",
							"name": "estado",
							"type": "uint8"
						},
						{
							"internalType": "string",
							"name": "urlImagen",
							"type": "string"
						}
					],
					"stateMutability": "view",
					"type": "function"
				},
				{
					"inputs": [
						{
							"internalType": "string",
							"name": "_nombreProducto",
							"type": "string"
						},
						{
							"internalType": "uint256",
							"name": "_precio",
							"type": "uint256"
						},
						{
							"internalType": "string",
							"name": "_urlImagen",
							"type": "string"
						}
					],
					"name": "publicarProducto",
					"outputs": [],
					"stateMutability": "nonpayable",
					"type": "function"
				},
				{
					"inputs": [
						{
							"internalType": "string",
							"name": "_nombre",
							"type": "string"
						},
						{
							"internalType": "string",
							"name": "_ubicacion",
							"type": "string"
						}
					],
					"name": "registrarAgricultor",
					"outputs": [],
					"stateMutability": "nonpayable",
					"type": "function"
				},
				{
					"inputs": [
						{
							"internalType": "uint256",
							"name": "_idProducto",
							"type": "uint256"
						},
						{
							"internalType": "address",
							"name": "_nuevoPropietario",
							"type": "address"
						},
						{
							"internalType": "string",
							"name": "_descripcion",
							"type": "string"
						}
					],
					"name": "transferirProducto",
					"outputs": [],
					"stateMutability": "nonpayable",
					"type": "function"
				}
			],
			"devdoc": {
				"kind": "dev",
				"methods": {},
				"version": 1
			},
			"evm": {
				"assembly": "    /* \"contracts/agroCadenaArbit.sol\":58:5787  contract AgroChain {... */\n  mstore(0x40, 0x80)\n  callvalue\n  dup1\n  iszero\n  tag_1\n  jumpi\n  revert(0x00, 0x00)\ntag_1:\n  pop\n  dataSize(sub_0)\n  dup1\n  dataOffset(sub_0)\n  0x00\n  codecopy\n  0x00\n  return\nstop\n\nsub_0: assembly {\n        /* \"contracts/agroCadenaArbit.sol\":58:5787  contract AgroChain {... */\n      mstore(0x40, 0x80)\n      jumpi(tag_1, lt(calldatasize, 0x04))\n      shr(0xe0, calldataload(0x00))\n      dup1\n      0xa7d1cb55\n      gt\n      tag_12\n      jumpi\n      dup1\n      0xa7d1cb55\n      eq\n      tag_7\n      jumpi\n      dup1\n      0xaffe518a\n      eq\n      tag_8\n      jumpi\n      dup1\n      0xb820c38f\n      eq\n      tag_9\n      jumpi\n      dup1\n      0xeea7f824\n      eq\n      tag_10\n      jumpi\n      dup1\n      0xfecc7c93\n      eq\n      tag_11\n      jumpi\n      jump(tag_1)\n    tag_12:\n      dup1\n      0x1a6cb1c8\n      eq\n      tag_2\n      jumpi\n      dup1\n      0x24e63166\n      eq\n      tag_3\n      jumpi\n      dup1\n      0x583d9b98\n      eq\n      tag_4\n      jumpi\n      dup1\n      0x97283acb\n      eq\n      tag_5\n      jumpi\n      dup1\n      0x99553636\n      eq\n      tag_6\n      jumpi\n    tag_1:\n      revert(0x00, 0x00)\n        /* \"contracts/agroCadenaArbit.sol\":4958:5112  function obtenerHistorial(uint256 _idProducto) public view returns (string[] memory) {... */\n    tag_2:\n      callvalue\n      dup1\n      iszero\n      tag_13\n      jumpi\n      revert(0x00, 0x00)\n    tag_13:\n      pop\n      tag_14\n      0x04\n      dup1\n      calldatasize\n      sub\n      dup2\n      add\n      swap1\n      tag_15\n      swap2\n      swap1\n      tag_16\n      jump\t// in\n    tag_15:\n      tag_17\n      jump\t// in\n    tag_14:\n      mload(0x40)\n      tag_18\n      swap2\n      swap1\n      tag_19\n      jump\t// in\n    tag_18:\n      mload(0x40)\n      dup1\n      swap2\n      sub\n      swap1\n      return\n        /* \"contracts/agroCadenaArbit.sol\":1845:2873  function publicarProducto(string memory _nombreProducto, uint256 _precio, string memory _urlImagen) public {... */\n    tag_3:\n      callvalue\n      dup1\n      iszero\n      tag_20\n      jumpi\n      revert(0x00, 0x00)\n    tag_20:\n      pop\n      tag_21\n      0x04\n      dup1\n      calldatasize\n      sub\n      dup2\n      add\n      swap1\n      tag_22\n      swap2\n      swap1\n      tag_23\n      jump\t// in\n    tag_22:\n      tag_24\n      jump\t// in\n    tag_21:\n      stop\n        /* \"contracts/agroCadenaArbit.sol\":4445:4952  function transferirProducto(uint256 _idProducto, address _nuevoPropietario, string memory _descripcion) public {... */\n    tag_4:\n      callvalue\n      dup1\n      iszero\n      tag_25\n      jumpi\n      revert(0x00, 0x00)\n    tag_25:\n      pop\n      tag_26\n      0x04\n      dup1\n      calldatasize\n      sub\n      dup2\n      add\n      swap1\n      tag_27\n      swap2\n      swap1\n      tag_28\n      jump\t// in\n    tag_27:\n      tag_29\n      jump\t// in\n    tag_26:\n      stop\n        /* \"contracts/agroCadenaArbit.sol\":925:957  uint256 public contadorProductos */\n    tag_5:\n      callvalue\n      dup1\n      iszero\n      tag_30\n      jumpi\n      revert(0x00, 0x00)\n    tag_30:\n      pop\n      tag_31\n      tag_32\n      jump\t// in\n    tag_31:\n      mload(0x40)\n      tag_33\n      swap2\n      swap1\n      tag_34\n      jump\t// in\n    tag_33:\n      mload(0x40)\n      dup1\n      swap2\n      sub\n      swap1\n      return\n        /* \"contracts/agroCadenaArbit.sol\":874:919  mapping(uint256 => Producto) public productos */\n    tag_6:\n      callvalue\n      dup1\n      iszero\n      tag_35\n      jumpi\n      revert(0x00, 0x00)\n    tag_35:\n      pop\n      tag_36\n      0x04\n      dup1\n      calldatasize\n      sub\n      dup2\n      add\n      swap1\n      tag_37\n      swap2\n      swap1\n      tag_16\n      jump\t// in\n    tag_37:\n      tag_38\n      jump\t// in\n    tag_36:\n      mload(0x40)\n      tag_39\n      swap8\n      swap7\n      swap6\n      swap5\n      swap4\n      swap3\n      swap2\n      swap1\n      tag_40\n      jump\t// in\n    tag_39:\n      mload(0x40)\n      dup1\n      swap2\n      sub\n      swap1\n      return\n        /* \"contracts/agroCadenaArbit.sol\":818:868  mapping(address => Agricultor) public agricultores */\n    tag_7:\n      callvalue\n      dup1\n      iszero\n      tag_41\n      jumpi\n      revert(0x00, 0x00)\n    tag_41:\n      pop\n      tag_42\n      0x04\n      dup1\n      calldatasize\n      sub\n      dup2\n      add\n      swap1\n      tag_43\n      swap2\n      swap1\n      tag_44\n      jump\t// in\n    tag_43:\n      tag_45\n      jump\t// in\n    tag_42:\n      mload(0x40)\n      tag_46\n      swap4\n      swap3\n      swap2\n      swap1\n      tag_47\n      jump\t// in\n    tag_46:\n      mload(0x40)\n      dup1\n      swap2\n      sub\n      swap1\n      return\n        /* \"contracts/agroCadenaArbit.sol\":1500:1839  function registrarAgricultor(string memory _nombre, string memory _ubicacion) public {... */\n    tag_8:\n      callvalue\n      dup1\n      iszero\n      tag_48\n      jumpi\n      revert(0x00, 0x00)\n    tag_48:\n      pop\n      tag_49\n      0x04\n      dup1\n      calldatasize\n      sub\n      dup2\n      add\n      swap1\n      tag_50\n      swap2\n      swap1\n      tag_51\n      jump\t// in\n    tag_50:\n      tag_52\n      jump\t// in\n    tag_49:\n      stop\n        /* \"contracts/agroCadenaArbit.sol\":3489:3930  function marcarEnviado(uint256 _idProducto) public {... */\n    tag_9:\n      callvalue\n      dup1\n      iszero\n      tag_53\n      jumpi\n      revert(0x00, 0x00)\n    tag_53:\n      pop\n      tag_54\n      0x04\n      dup1\n      calldatasize\n      sub\n      dup2\n      add\n      swap1\n      tag_55\n      swap2\n      swap1\n      tag_16\n      jump\t// in\n    tag_55:\n      tag_56\n      jump\t// in\n    tag_54:\n      stop\n        /* \"contracts/agroCadenaArbit.sol\":3936:4439  function confirmarEntrega(uint256 _idProducto) public {... */\n    tag_10:\n      callvalue\n      dup1\n      iszero\n      tag_57\n      jumpi\n      revert(0x00, 0x00)\n    tag_57:\n      pop\n      tag_58\n      0x04\n      dup1\n      calldatasize\n      sub\n      dup2\n      add\n      swap1\n      tag_59\n      swap2\n      swap1\n      tag_16\n      jump\t// in\n    tag_59:\n      tag_60\n      jump\t// in\n    tag_58:\n      stop\n        /* \"contracts/agroCadenaArbit.sol\":2879:3483  function financiarCompra(uint256 _idProducto) public payable {... */\n    tag_11:\n      tag_61\n      0x04\n      dup1\n      calldatasize\n      sub\n      dup2\n      add\n      swap1\n      tag_62\n      swap2\n      swap1\n      tag_16\n      jump\t// in\n    tag_62:\n      tag_63\n      jump\t// in\n    tag_61:\n      stop\n        /* \"contracts/agroCadenaArbit.sol\":4958:5112  function obtenerHistorial(uint256 _idProducto) public view returns (string[] memory) {... */\n    tag_17:\n        /* \"contracts/agroCadenaArbit.sol\":5026:5041  string[] memory */\n      0x60\n        /* \"contracts/agroCadenaArbit.sol\":5060:5069  productos */\n      0x01\n        /* \"contracts/agroCadenaArbit.sol\":5060:5082  productos[_idProducto] */\n      0x00\n        /* \"contracts/agroCadenaArbit.sol\":5070:5081  _idProducto */\n      dup4\n        /* \"contracts/agroCadenaArbit.sol\":5060:5082  productos[_idProducto] */\n      dup2\n      mstore\n      0x20\n      add\n      swap1\n      dup2\n      mstore\n      0x20\n      add\n      0x00\n      keccak256\n        /* \"contracts/agroCadenaArbit.sol\":5060:5105  productos[_idProducto].historialTransacciones */\n      0x06\n      add\n        /* \"contracts/agroCadenaArbit.sol\":5053:5105  return productos[_idProducto].historialTransacciones */\n      dup1\n      sload\n      dup1\n      0x20\n      mul\n      0x20\n      add\n      mload(0x40)\n      swap1\n      dup2\n      add\n      0x40\n      mstore\n      dup1\n      swap3\n      swap2\n      swap1\n      dup2\n      dup2\n      mstore\n      0x20\n      add\n      0x00\n      swap1\n    tag_65:\n      dup3\n      dup3\n      lt\n      iszero\n      tag_66\n      jumpi\n      dup4\n      dup3\n      swap1\n      0x00\n      mstore\n      keccak256(0x00, 0x20)\n      add\n      dup1\n      sload\n      tag_68\n      swap1\n      tag_69\n      jump\t// in\n    tag_68:\n      dup1\n      0x1f\n      add\n      0x20\n      dup1\n      swap2\n      div\n      mul\n      0x20\n      add\n      mload(0x40)\n      swap1\n      dup2\n      add\n      0x40\n      mstore\n      dup1\n      swap3\n      swap2\n      swap1\n      dup2\n      dup2\n      mstore\n      0x20\n      add\n      dup3\n      dup1\n      sload\n      tag_70\n      swap1\n      tag_69\n      jump\t// in\n    tag_70:\n      dup1\n      iszero\n      tag_71\n      jumpi\n      dup1\n      0x1f\n      lt\n      tag_72\n      jumpi\n      0x0100\n      dup1\n      dup4\n      sload\n      div\n      mul\n      dup4\n      mstore\n      swap2\n      0x20\n      add\n      swap2\n      jump(tag_71)\n    tag_72:\n      dup3\n      add\n      swap2\n      swap1\n      0x00\n      mstore\n      keccak256(0x00, 0x20)\n      swap1\n    tag_73:\n      dup2\n      sload\n      dup2\n      mstore\n      swap1\n      0x01\n      add\n      swap1\n      0x20\n      add\n      dup1\n      dup4\n      gt\n      tag_73\n      jumpi\n      dup3\n      swap1\n      sub\n      0x1f\n      and\n      dup3\n      add\n      swap2\n    tag_71:\n      pop\n      pop\n      pop\n      pop\n      pop\n      dup2\n      mstore\n      0x20\n      add\n      swap1\n      0x01\n      add\n      swap1\n      jump(tag_65)\n    tag_66:\n      pop\n      pop\n      pop\n      pop\n      swap1\n      pop\n        /* \"contracts/agroCadenaArbit.sol\":4958:5112  function obtenerHistorial(uint256 _idProducto) public view returns (string[] memory) {... */\n      swap2\n      swap1\n      pop\n      jump\t// out\n        /* \"contracts/agroCadenaArbit.sol\":1845:2873  function publicarProducto(string memory _nombreProducto, uint256 _precio, string memory _urlImagen) public {... */\n    tag_24:\n        /* \"contracts/agroCadenaArbit.sol\":2018:2019  0 */\n      0x00\n        /* \"contracts/agroCadenaArbit.sol\":1976:1988  agricultores */\n      0x00\n        /* \"contracts/agroCadenaArbit.sol\":1976:2000  agricultores[msg.sender] */\n      0x00\n        /* \"contracts/agroCadenaArbit.sol\":1989:1999  msg.sender */\n      caller\n        /* \"contracts/agroCadenaArbit.sol\":1976:2000  agricultores[msg.sender] */\n      0xffffffffffffffffffffffffffffffffffffffff\n      and\n      0xffffffffffffffffffffffffffffffffffffffff\n      and\n      dup2\n      mstore\n      0x20\n      add\n      swap1\n      dup2\n      mstore\n      0x20\n      add\n      0x00\n      keccak256\n        /* \"contracts/agroCadenaArbit.sol\":1976:2007  agricultores[msg.sender].nombre */\n      0x01\n      add\n        /* \"contracts/agroCadenaArbit.sol\":1970:2015  bytes(agricultores[msg.sender].nombre).length */\n      dup1\n      sload\n      tag_75\n      swap1\n      tag_69\n      jump\t// in\n    tag_75:\n      swap1\n      pop\n        /* \"contracts/agroCadenaArbit.sol\":1970:2019  bytes(agricultores[msg.sender].nombre).length > 0 */\n      gt\n        /* \"contracts/agroCadenaArbit.sol\":1962:2079  require(bytes(agricultores[msg.sender].nombre).length > 0, \"Solo agricultores registrados pueden publicar productos\") */\n      tag_76\n      jumpi\n      mload(0x40)\n      0x08c379a000000000000000000000000000000000000000000000000000000000\n      dup2\n      mstore\n      0x04\n      add\n      tag_77\n      swap1\n      tag_78\n      jump\t// in\n    tag_77:\n      mload(0x40)\n      dup1\n      swap2\n      sub\n      swap1\n      revert\n    tag_76:\n        /* \"contracts/agroCadenaArbit.sol\":2107:2108  0 */\n      0x00\n        /* \"contracts/agroCadenaArbit.sol\":2097:2104  _precio */\n      dup3\n        /* \"contracts/agroCadenaArbit.sol\":2097:2108  _precio > 0 */\n      gt\n        /* \"contracts/agroCadenaArbit.sol\":2089:2144  require(_precio > 0, \"El precio debe ser mayor a cero\") */\n      tag_79\n      jumpi\n      mload(0x40)\n      0x08c379a000000000000000000000000000000000000000000000000000000000\n      dup2\n      mstore\n      0x04\n      add\n      tag_80\n      swap1\n      tag_81\n      jump\t// in\n    tag_80:\n      mload(0x40)\n      dup1\n      swap2\n      sub\n      swap1\n      revert\n    tag_79:\n        /* \"contracts/agroCadenaArbit.sol\":2155:2172  contadorProductos */\n      0x02\n      0x00\n        /* \"contracts/agroCadenaArbit.sol\":2155:2174  contadorProductos++ */\n      dup2\n      sload\n      dup1\n      swap3\n      swap2\n      swap1\n      tag_82\n      swap1\n      tag_83\n      jump\t// in\n    tag_82:\n      swap2\n      swap1\n      pop\n      sstore\n      pop\n        /* \"contracts/agroCadenaArbit.sol\":2184:2214  Producto storage nuevoProducto */\n      0x00\n        /* \"contracts/agroCadenaArbit.sol\":2217:2226  productos */\n      0x01\n        /* \"contracts/agroCadenaArbit.sol\":2217:2245  productos[contadorProductos] */\n      0x00\n        /* \"contracts/agroCadenaArbit.sol\":2227:2244  contadorProductos */\n      sload(0x02)\n        /* \"contracts/agroCadenaArbit.sol\":2217:2245  productos[contadorProductos] */\n      dup2\n      mstore\n      0x20\n      add\n      swap1\n      dup2\n      mstore\n      0x20\n      add\n      0x00\n      keccak256\n        /* \"contracts/agroCadenaArbit.sol\":2184:2245  Producto storage nuevoProducto = productos[contadorProductos] */\n      swap1\n      pop\n        /* \"contracts/agroCadenaArbit.sol\":2275:2292  contadorProductos */\n      sload(0x02)\n        /* \"contracts/agroCadenaArbit.sol\":2256:2269  nuevoProducto */\n      dup2\n        /* \"contracts/agroCadenaArbit.sol\":2256:2272  nuevoProducto.id */\n      0x00\n      add\n        /* \"contracts/agroCadenaArbit.sol\":2256:2292  nuevoProducto.id = contadorProductos */\n      dup2\n      swap1\n      sstore\n      pop\n        /* \"contracts/agroCadenaArbit.sol\":2333:2348  _nombreProducto */\n      dup4\n        /* \"contracts/agroCadenaArbit.sol\":2302:2315  nuevoProducto */\n      dup2\n        /* \"contracts/agroCadenaArbit.sol\":2302:2330  nuevoProducto.nombreProducto */\n      0x01\n      add\n        /* \"contracts/agroCadenaArbit.sol\":2302:2348  nuevoProducto.nombreProducto = _nombreProducto */\n      swap1\n      dup2\n      tag_84\n      swap2\n      swap1\n      tag_85\n      jump\t// in\n    tag_84:\n      pop\n        /* \"contracts/agroCadenaArbit.sol\":2381:2388  _precio */\n      dup3\n        /* \"contracts/agroCadenaArbit.sol\":2358:2371  nuevoProducto */\n      dup2\n        /* \"contracts/agroCadenaArbit.sol\":2358:2378  nuevoProducto.precio */\n      0x02\n      add\n        /* \"contracts/agroCadenaArbit.sol\":2358:2388  nuevoProducto.precio = _precio */\n      dup2\n      swap1\n      sstore\n      pop\n        /* \"contracts/agroCadenaArbit.sol\":2433:2443  msg.sender */\n      caller\n        /* \"contracts/agroCadenaArbit.sol\":2398:2411  nuevoProducto */\n      dup2\n        /* \"contracts/agroCadenaArbit.sol\":2398:2422  nuevoProducto.agricultor */\n      0x03\n      add\n      0x00\n        /* \"contracts/agroCadenaArbit.sol\":2398:2444  nuevoProducto.agricultor = payable(msg.sender) */\n      0x0100\n      exp\n      dup2\n      sload\n      dup2\n      0xffffffffffffffffffffffffffffffffffffffff\n      mul\n      not\n      and\n      swap1\n      dup4\n      0xffffffffffffffffffffffffffffffffffffffff\n      and\n      mul\n      or\n      swap1\n      sstore\n      pop\n        /* \"contracts/agroCadenaArbit.sol\":2488:2489  0 */\n      0x00\n        /* \"contracts/agroCadenaArbit.sol\":2454:2467  nuevoProducto */\n      dup2\n        /* \"contracts/agroCadenaArbit.sol\":2454:2477  nuevoProducto.comprador */\n      0x04\n      add\n      0x00\n        /* \"contracts/agroCadenaArbit.sol\":2454:2490  nuevoProducto.comprador = address(0) */\n      0x0100\n      exp\n      dup2\n      sload\n      dup2\n      0xffffffffffffffffffffffffffffffffffffffff\n      mul\n      not\n      and\n      swap1\n      dup4\n      0xffffffffffffffffffffffffffffffffffffffff\n      and\n      mul\n      or\n      swap1\n      sstore\n      pop\n        /* \"contracts/agroCadenaArbit.sol\":2523:2539  Estado.Publicado */\n      0x00\n        /* \"contracts/agroCadenaArbit.sol\":2500:2513  nuevoProducto */\n      dup2\n        /* \"contracts/agroCadenaArbit.sol\":2500:2520  nuevoProducto.estado */\n      0x04\n      add\n      0x14\n        /* \"contracts/agroCadenaArbit.sol\":2500:2539  nuevoProducto.estado = Estado.Publicado */\n      0x0100\n      exp\n      dup2\n      sload\n      dup2\n      0xff\n      mul\n      not\n      and\n      swap1\n      dup4\n      0x03\n      dup2\n      gt\n      iszero\n      tag_86\n      jumpi\n      tag_87\n      tag_88\n      jump\t// in\n    tag_87:\n    tag_86:\n      mul\n      or\n      swap1\n      sstore\n      pop\n        /* \"contracts/agroCadenaArbit.sol\":2575:2585  _urlImagen */\n      dup2\n        /* \"contracts/agroCadenaArbit.sol\":2549:2562  nuevoProducto */\n      dup2\n        /* \"contracts/agroCadenaArbit.sol\":2549:2572  nuevoProducto.urlImagen */\n      0x05\n      add\n        /* \"contracts/agroCadenaArbit.sol\":2549:2585  nuevoProducto.urlImagen = _urlImagen */\n      swap1\n      dup2\n      tag_89\n      swap2\n      swap1\n      tag_85\n      jump\t// in\n    tag_89:\n      pop\n        /* \"contracts/agroCadenaArbit.sol\":2596:2617  string memory inicial */\n      0x00\n        /* \"contracts/agroCadenaArbit.sol\":2682:2694  agricultores */\n      0x00\n        /* \"contracts/agroCadenaArbit.sol\":2682:2706  agricultores[msg.sender] */\n      0x00\n        /* \"contracts/agroCadenaArbit.sol\":2695:2705  msg.sender */\n      caller\n        /* \"contracts/agroCadenaArbit.sol\":2682:2706  agricultores[msg.sender] */\n      0xffffffffffffffffffffffffffffffffffffffff\n      and\n      0xffffffffffffffffffffffffffffffffffffffff\n      and\n      dup2\n      mstore\n      0x20\n      add\n      swap1\n      dup2\n      mstore\n      0x20\n      add\n      0x00\n      keccak256\n        /* \"contracts/agroCadenaArbit.sol\":2682:2713  agricultores[msg.sender].nombre */\n      0x01\n      add\n        /* \"contracts/agroCadenaArbit.sol\":2627:2714  abi.encodePacked(\"Producto publicado por agricultor \", agricultores[msg.sender].nombre) */\n      add(0x20, mload(0x40))\n      tag_90\n      swap2\n      swap1\n      tag_91\n      jump\t// in\n    tag_90:\n      mload(0x40)\n      0x20\n      dup2\n      dup4\n      sub\n      sub\n      dup2\n      mstore\n      swap1\n      0x40\n      mstore\n        /* \"contracts/agroCadenaArbit.sol\":2596:2715  string memory inicial = string(abi.encodePacked(\"Producto publicado por agricultor \", agricultores[msg.sender].nombre)) */\n      swap1\n      pop\n        /* \"contracts/agroCadenaArbit.sol\":2725:2738  nuevoProducto */\n      dup2\n        /* \"contracts/agroCadenaArbit.sol\":2725:2761  nuevoProducto.historialTransacciones */\n      0x06\n      add\n        /* \"contracts/agroCadenaArbit.sol\":2767:2774  inicial */\n      dup2\n        /* \"contracts/agroCadenaArbit.sol\":2725:2775  nuevoProducto.historialTransacciones.push(inicial) */\n      swap1\n      dup1\n      0x01\n      dup2\n      sload\n      add\n      dup1\n      dup3\n      sstore\n      dup1\n      swap2\n      pop\n      pop\n      0x01\n      swap1\n      sub\n      swap1\n      0x00\n      mstore\n      keccak256(0x00, 0x20)\n      add\n      0x00\n      swap1\n      swap2\n      swap1\n      swap2\n      swap1\n      swap2\n      pop\n      swap1\n      dup2\n      tag_93\n      swap2\n      swap1\n      tag_85\n      jump\t// in\n    tag_93:\n      pop\n        /* \"contracts/agroCadenaArbit.sol\":2829:2839  msg.sender */\n      caller\n        /* \"contracts/agroCadenaArbit.sol\":2791:2866  ProductoRegistrado(contadorProductos, msg.sender, _nombreProducto, _precio) */\n      0xffffffffffffffffffffffffffffffffffffffff\n      and\n        /* \"contracts/agroCadenaArbit.sol\":2810:2827  contadorProductos */\n      sload(0x02)\n        /* \"contracts/agroCadenaArbit.sol\":2791:2866  ProductoRegistrado(contadorProductos, msg.sender, _nombreProducto, _precio) */\n      0x3930e5670c46825fd55446202c6f740183609ce71746aca012563bd9dac35a2c\n        /* \"contracts/agroCadenaArbit.sol\":2841:2856  _nombreProducto */\n      dup8\n        /* \"contracts/agroCadenaArbit.sol\":2858:2865  _precio */\n      dup8\n        /* \"contracts/agroCadenaArbit.sol\":2791:2866  ProductoRegistrado(contadorProductos, msg.sender, _nombreProducto, _precio) */\n      mload(0x40)\n      tag_94\n      swap3\n      swap2\n      swap1\n      tag_95\n      jump\t// in\n    tag_94:\n      mload(0x40)\n      dup1\n      swap2\n      sub\n      swap1\n      log3\n        /* \"contracts/agroCadenaArbit.sol\":1952:2873  {... */\n      pop\n      pop\n        /* \"contracts/agroCadenaArbit.sol\":1845:2873  function publicarProducto(string memory _nombreProducto, uint256 _precio, string memory _urlImagen) public {... */\n      pop\n      pop\n      pop\n      jump\t// out\n        /* \"contracts/agroCadenaArbit.sol\":4445:4952  function transferirProducto(uint256 _idProducto, address _nuevoPropietario, string memory _descripcion) public {... */\n    tag_29:\n        /* \"contracts/agroCadenaArbit.sol\":4566:4584  Producto storage p */\n      0x00\n        /* \"contracts/agroCadenaArbit.sol\":4587:4596  productos */\n      0x01\n        /* \"contracts/agroCadenaArbit.sol\":4587:4609  productos[_idProducto] */\n      0x00\n        /* \"contracts/agroCadenaArbit.sol\":4597:4608  _idProducto */\n      dup6\n        /* \"contracts/agroCadenaArbit.sol\":4587:4609  productos[_idProducto] */\n      dup2\n      mstore\n      0x20\n      add\n      swap1\n      dup2\n      mstore\n      0x20\n      add\n      0x00\n      keccak256\n        /* \"contracts/agroCadenaArbit.sol\":4566:4609  Producto storage p = productos[_idProducto] */\n      swap1\n      pop\n        /* \"contracts/agroCadenaArbit.sol\":4641:4642  p */\n      dup1\n        /* \"contracts/agroCadenaArbit.sol\":4641:4653  p.agricultor */\n      0x03\n      add\n      0x00\n      swap1\n      sload\n      swap1\n      0x0100\n      exp\n      swap1\n      div\n      0xffffffffffffffffffffffffffffffffffffffff\n      and\n        /* \"contracts/agroCadenaArbit.sol\":4627:4653  msg.sender == p.agricultor */\n      0xffffffffffffffffffffffffffffffffffffffff\n      and\n        /* \"contracts/agroCadenaArbit.sol\":4627:4637  msg.sender */\n      caller\n        /* \"contracts/agroCadenaArbit.sol\":4627:4653  msg.sender == p.agricultor */\n      0xffffffffffffffffffffffffffffffffffffffff\n      and\n      eq\n        /* \"contracts/agroCadenaArbit.sol\":4627:4682  msg.sender == p.agricultor || msg.sender == p.comprador */\n      dup1\n      tag_97\n      jumpi\n      pop\n        /* \"contracts/agroCadenaArbit.sol\":4671:4672  p */\n      dup1\n        /* \"contracts/agroCadenaArbit.sol\":4671:4682  p.comprador */\n      0x04\n      add\n      0x00\n      swap1\n      sload\n      swap1\n      0x0100\n      exp\n      swap1\n      div\n      0xffffffffffffffffffffffffffffffffffffffff\n      and\n        /* \"contracts/agroCadenaArbit.sol\":4657:4682  msg.sender == p.comprador */\n      0xffffffffffffffffffffffffffffffffffffffff\n      and\n        /* \"contracts/agroCadenaArbit.sol\":4657:4667  msg.sender */\n      caller\n        /* \"contracts/agroCadenaArbit.sol\":4657:4682  msg.sender == p.comprador */\n      0xffffffffffffffffffffffffffffffffffffffff\n      and\n      eq\n        /* \"contracts/agroCadenaArbit.sol\":4627:4682  msg.sender == p.agricultor || msg.sender == p.comprador */\n    tag_97:\n        /* \"contracts/agroCadenaArbit.sol\":4619:4716  require(msg.sender == p.agricultor || msg.sender == p.comprador, \"No autorizado para transferir\") */\n      tag_98\n      jumpi\n      mload(0x40)\n      0x08c379a000000000000000000000000000000000000000000000000000000000\n      dup2\n      mstore\n      0x04\n      add\n      tag_99\n      swap1\n      tag_100\n      jump\t// in\n    tag_99:\n      mload(0x40)\n      dup1\n      swap2\n      sub\n      swap1\n      revert\n    tag_98:\n        /* \"contracts/agroCadenaArbit.sol\":4763:4764  0 */\n      0x00\n        /* \"contracts/agroCadenaArbit.sol\":4734:4765  _nuevoPropietario != address(0) */\n      0xffffffffffffffffffffffffffffffffffffffff\n      and\n        /* \"contracts/agroCadenaArbit.sol\":4734:4751  _nuevoPropietario */\n      dup4\n        /* \"contracts/agroCadenaArbit.sol\":4734:4765  _nuevoPropietario != address(0) */\n      0xffffffffffffffffffffffffffffffffffffffff\n      and\n      sub\n        /* \"contracts/agroCadenaArbit.sol\":4726:4788  require(_nuevoPropietario != address(0), \"Direccion invalida\") */\n      tag_101\n      jumpi\n      mload(0x40)\n      0x08c379a000000000000000000000000000000000000000000000000000000000\n      dup2\n      mstore\n      0x04\n      add\n      tag_102\n      swap1\n      tag_103\n      jump\t// in\n    tag_102:\n      mload(0x40)\n      dup1\n      swap2\n      sub\n      swap1\n      revert\n    tag_101:\n        /* \"contracts/agroCadenaArbit.sol\":4813:4830  _nuevoPropietario */\n      dup3\n        /* \"contracts/agroCadenaArbit.sol\":4799:4800  p */\n      dup2\n        /* \"contracts/agroCadenaArbit.sol\":4799:4810  p.comprador */\n      0x04\n      add\n      0x00\n        /* \"contracts/agroCadenaArbit.sol\":4799:4830  p.comprador = _nuevoPropietario */\n      0x0100\n      exp\n      dup2\n      sload\n      dup2\n      0xffffffffffffffffffffffffffffffffffffffff\n      mul\n      not\n      and\n      swap1\n      dup4\n      0xffffffffffffffffffffffffffffffffffffffff\n      and\n      mul\n      or\n      swap1\n      sstore\n      pop\n        /* \"contracts/agroCadenaArbit.sol\":4840:4841  p */\n      dup1\n        /* \"contracts/agroCadenaArbit.sol\":4840:4864  p.historialTransacciones */\n      0x06\n      add\n        /* \"contracts/agroCadenaArbit.sol\":4870:4882  _descripcion */\n      dup3\n        /* \"contracts/agroCadenaArbit.sol\":4840:4883  p.historialTransacciones.push(_descripcion) */\n      swap1\n      dup1\n      0x01\n      dup2\n      sload\n      add\n      dup1\n      dup3\n      sstore\n      dup1\n      swap2\n      pop\n      pop\n      0x01\n      swap1\n      sub\n      swap1\n      0x00\n      mstore\n      keccak256(0x00, 0x20)\n      add\n      0x00\n      swap1\n      swap2\n      swap1\n      swap2\n      swap1\n      swap2\n      pop\n      swap1\n      dup2\n      tag_105\n      swap2\n      swap1\n      tag_85\n      jump\t// in\n    tag_105:\n      pop\n        /* \"contracts/agroCadenaArbit.sol\":4919:4930  _idProducto */\n      dup4\n        /* \"contracts/agroCadenaArbit.sol\":4899:4945  ProductoTransferido(_idProducto, _descripcion) */\n      0xfd50aa3eb0b0a6ecf95005cd3f28d9f3849baa8725f57600691ecbb6f7e591b2\n        /* \"contracts/agroCadenaArbit.sol\":4932:4944  _descripcion */\n      dup4\n        /* \"contracts/agroCadenaArbit.sol\":4899:4945  ProductoTransferido(_idProducto, _descripcion) */\n      mload(0x40)\n      tag_106\n      swap2\n      swap1\n      tag_107\n      jump\t// in\n    tag_106:\n      mload(0x40)\n      dup1\n      swap2\n      sub\n      swap1\n      log2\n        /* \"contracts/agroCadenaArbit.sol\":4556:4952  {... */\n      pop\n        /* \"contracts/agroCadenaArbit.sol\":4445:4952  function transferirProducto(uint256 _idProducto, address _nuevoPropietario, string memory _descripcion) public {... */\n      pop\n      pop\n      pop\n      jump\t// out\n        /* \"contracts/agroCadenaArbit.sol\":925:957  uint256 public contadorProductos */\n    tag_32:\n      sload(0x02)\n      dup2\n      jump\t// out\n        /* \"contracts/agroCadenaArbit.sol\":874:919  mapping(uint256 => Producto) public productos */\n    tag_38:\n      mstore(0x20, 0x01)\n      dup1\n      0x00\n      mstore\n      keccak256(0x00, 0x40)\n      0x00\n      swap2\n      pop\n      swap1\n      pop\n      dup1\n      0x00\n      add\n      sload\n      swap1\n      dup1\n      0x01\n      add\n      dup1\n      sload\n      tag_108\n      swap1\n      tag_69\n      jump\t// in\n    tag_108:\n      dup1\n      0x1f\n      add\n      0x20\n      dup1\n      swap2\n      div\n      mul\n      0x20\n      add\n      mload(0x40)\n      swap1\n      dup2\n      add\n      0x40\n      mstore\n      dup1\n      swap3\n      swap2\n      swap1\n      dup2\n      dup2\n      mstore\n      0x20\n      add\n      dup3\n      dup1\n      sload\n      tag_109\n      swap1\n      tag_69\n      jump\t// in\n    tag_109:\n      dup1\n      iszero\n      tag_110\n      jumpi\n      dup1\n      0x1f\n      lt\n      tag_111\n      jumpi\n      0x0100\n      dup1\n      dup4\n      sload\n      div\n      mul\n      dup4\n      mstore\n      swap2\n      0x20\n      add\n      swap2\n      jump(tag_110)\n    tag_111:\n      dup3\n      add\n      swap2\n      swap1\n      0x00\n      mstore\n      keccak256(0x00, 0x20)\n      swap1\n    tag_112:\n      dup2\n      sload\n      dup2\n      mstore\n      swap1\n      0x01\n      add\n      swap1\n      0x20\n      add\n      dup1\n      dup4\n      gt\n      tag_112\n      jumpi\n      dup3\n      swap1\n      sub\n      0x1f\n      and\n      dup3\n      add\n      swap2\n    tag_110:\n      pop\n      pop\n      pop\n      pop\n      pop\n      swap1\n      dup1\n      0x02\n      add\n      sload\n      swap1\n      dup1\n      0x03\n      add\n      0x00\n      swap1\n      sload\n      swap1\n      0x0100\n      exp\n      swap1\n      div\n      0xffffffffffffffffffffffffffffffffffffffff\n      and\n      swap1\n      dup1\n      0x04\n      add\n      0x00\n      swap1\n      sload\n      swap1\n      0x0100\n      exp\n      swap1\n      div\n      0xffffffffffffffffffffffffffffffffffffffff\n      and\n      swap1\n      dup1\n      0x04\n      add\n      0x14\n      swap1\n      sload\n      swap1\n      0x0100\n      exp\n      swap1\n      div\n      0xff\n      and\n      swap1\n      dup1\n      0x05\n      add\n      dup1\n      sload\n      tag_113\n      swap1\n      tag_69\n      jump\t// in\n    tag_113:\n      dup1\n      0x1f\n      add\n      0x20\n      dup1\n      swap2\n      div\n      mul\n      0x20\n      add\n      mload(0x40)\n      swap1\n      dup2\n      add\n      0x40\n      mstore\n      dup1\n      swap3\n      swap2\n      swap1\n      dup2\n      dup2\n      mstore\n      0x20\n      add\n      dup3\n      dup1\n      sload\n      tag_114\n      swap1\n      tag_69\n      jump\t// in\n    tag_114:\n      dup1\n      iszero\n      tag_115\n      jumpi\n      dup1\n      0x1f\n      lt\n      tag_116\n      jumpi\n      0x0100\n      dup1\n      dup4\n      sload\n      div\n      mul\n      dup4\n      mstore\n      swap2\n      0x20\n      add\n      swap2\n      jump(tag_115)\n    tag_116:\n      dup3\n      add\n      swap2\n      swap1\n      0x00\n      mstore\n      keccak256(0x00, 0x20)\n      swap1\n    tag_117:\n      dup2\n      sload\n      dup2\n      mstore\n      swap1\n      0x01\n      add\n      swap1\n      0x20\n      add\n      dup1\n      dup4\n      gt\n      tag_117\n      jumpi\n      dup3\n      swap1\n      sub\n      0x1f\n      and\n      dup3\n      add\n      swap2\n    tag_115:\n      pop\n      pop\n      pop\n      pop\n      pop\n      swap1\n      pop\n      dup8\n      jump\t// out\n        /* \"contracts/agroCadenaArbit.sol\":818:868  mapping(address => Agricultor) public agricultores */\n    tag_45:\n      mstore(0x20, 0x00)\n      dup1\n      0x00\n      mstore\n      keccak256(0x00, 0x40)\n      0x00\n      swap2\n      pop\n      swap1\n      pop\n      dup1\n      0x00\n      add\n      0x00\n      swap1\n      sload\n      swap1\n      0x0100\n      exp\n      swap1\n      div\n      0xffffffffffffffffffffffffffffffffffffffff\n      and\n      swap1\n      dup1\n      0x01\n      add\n      dup1\n      sload\n      tag_118\n      swap1\n      tag_69\n      jump\t// in\n    tag_118:\n      dup1\n      0x1f\n      add\n      0x20\n      dup1\n      swap2\n      div\n      mul\n      0x20\n      add\n      mload(0x40)\n      swap1\n      dup2\n      add\n      0x40\n      mstore\n      dup1\n      swap3\n      swap2\n      swap1\n      dup2\n      dup2\n      mstore\n      0x20\n      add\n      dup3\n      dup1\n      sload\n      tag_119\n      swap1\n      tag_69\n      jump\t// in\n    tag_119:\n      dup1\n      iszero\n      tag_120\n      jumpi\n      dup1\n      0x1f\n      lt\n      tag_121\n      jumpi\n      0x0100\n      dup1\n      dup4\n      sload\n      div\n      mul\n      dup4\n      mstore\n      swap2\n      0x20\n      add\n      swap2\n      jump(tag_120)\n    tag_121:\n      dup3\n      add\n      swap2\n      swap1\n      0x00\n      mstore\n      keccak256(0x00, 0x20)\n      swap1\n    tag_122:\n      dup2\n      sload\n      dup2\n      mstore\n      swap1\n      0x01\n      add\n      swap1\n      0x20\n      add\n      dup1\n      dup4\n      gt\n      tag_122\n      jumpi\n      dup3\n      swap1\n      sub\n      0x1f\n      and\n      dup3\n      add\n      swap2\n    tag_120:\n      pop\n      pop\n      pop\n      pop\n      pop\n      swap1\n      dup1\n      0x02\n      add\n      dup1\n      sload\n      tag_123\n      swap1\n      tag_69\n      jump\t// in\n    tag_123:\n      dup1\n      0x1f\n      add\n      0x20\n      dup1\n      swap2\n      div\n      mul\n      0x20\n      add\n      mload(0x40)\n      swap1\n      dup2\n      add\n      0x40\n      mstore\n      dup1\n      swap3\n      swap2\n      swap1\n      dup2\n      dup2\n      mstore\n      0x20\n      add\n      dup3\n      dup1\n      sload\n      tag_124\n      swap1\n      tag_69\n      jump\t// in\n    tag_124:\n      dup1\n      iszero\n      tag_125\n      jumpi\n      dup1\n      0x1f\n      lt\n      tag_126\n      jumpi\n      0x0100\n      dup1\n      dup4\n      sload\n      div\n      mul\n      dup4\n      mstore\n      swap2\n      0x20\n      add\n      swap2\n      jump(tag_125)\n    tag_126:\n      dup3\n      add\n      swap2\n      swap1\n      0x00\n      mstore\n      keccak256(0x00, 0x20)\n      swap1\n    tag_127:\n      dup2\n      sload\n      dup2\n      mstore\n      swap1\n      0x01\n      add\n      swap1\n      0x20\n      add\n      dup1\n      dup4\n      gt\n      tag_127\n      jumpi\n      dup3\n      swap1\n      sub\n      0x1f\n      and\n      dup3\n      add\n      swap2\n    tag_125:\n      pop\n      pop\n      pop\n      pop\n      pop\n      swap1\n      pop\n      dup4\n      jump\t// out\n        /* \"contracts/agroCadenaArbit.sol\":1500:1839  function registrarAgricultor(string memory _nombre, string memory _ubicacion) public {... */\n    tag_52:\n        /* \"contracts/agroCadenaArbit.sol\":1652:1653  0 */\n      0x00\n        /* \"contracts/agroCadenaArbit.sol\":1609:1621  agricultores */\n      0x00\n        /* \"contracts/agroCadenaArbit.sol\":1609:1633  agricultores[msg.sender] */\n      0x00\n        /* \"contracts/agroCadenaArbit.sol\":1622:1632  msg.sender */\n      caller\n        /* \"contracts/agroCadenaArbit.sol\":1609:1633  agricultores[msg.sender] */\n      0xffffffffffffffffffffffffffffffffffffffff\n      and\n      0xffffffffffffffffffffffffffffffffffffffff\n      and\n      dup2\n      mstore\n      0x20\n      add\n      swap1\n      dup2\n      mstore\n      0x20\n      add\n      0x00\n      keccak256\n        /* \"contracts/agroCadenaArbit.sol\":1609:1640  agricultores[msg.sender].nombre */\n      0x01\n      add\n        /* \"contracts/agroCadenaArbit.sol\":1603:1648  bytes(agricultores[msg.sender].nombre).length */\n      dup1\n      sload\n      tag_129\n      swap1\n      tag_69\n      jump\t// in\n    tag_129:\n      swap1\n      pop\n        /* \"contracts/agroCadenaArbit.sol\":1603:1653  bytes(agricultores[msg.sender].nombre).length == 0 */\n      eq\n        /* \"contracts/agroCadenaArbit.sol\":1595:1682  require(bytes(agricultores[msg.sender].nombre).length == 0, \"Agricultor ya registrado\") */\n      tag_130\n      jumpi\n      mload(0x40)\n      0x08c379a000000000000000000000000000000000000000000000000000000000\n      dup2\n      mstore\n      0x04\n      add\n      tag_131\n      swap1\n      tag_132\n      jump\t// in\n    tag_131:\n      mload(0x40)\n      dup1\n      swap2\n      sub\n      swap1\n      revert\n    tag_130:\n        /* \"contracts/agroCadenaArbit.sol\":1720:1763  Agricultor(msg.sender, _nombre, _ubicacion) */\n      mload(0x40)\n      dup1\n      0x60\n      add\n      0x40\n      mstore\n      dup1\n        /* \"contracts/agroCadenaArbit.sol\":1731:1741  msg.sender */\n      caller\n        /* \"contracts/agroCadenaArbit.sol\":1720:1763  Agricultor(msg.sender, _nombre, _ubicacion) */\n      0xffffffffffffffffffffffffffffffffffffffff\n      and\n      dup2\n      mstore\n      0x20\n      add\n        /* \"contracts/agroCadenaArbit.sol\":1743:1750  _nombre */\n      dup4\n        /* \"contracts/agroCadenaArbit.sol\":1720:1763  Agricultor(msg.sender, _nombre, _ubicacion) */\n      dup2\n      mstore\n      0x20\n      add\n        /* \"contracts/agroCadenaArbit.sol\":1752:1762  _ubicacion */\n      dup3\n        /* \"contracts/agroCadenaArbit.sol\":1720:1763  Agricultor(msg.sender, _nombre, _ubicacion) */\n      dup2\n      mstore\n      pop\n        /* \"contracts/agroCadenaArbit.sol\":1693:1705  agricultores */\n      0x00\n        /* \"contracts/agroCadenaArbit.sol\":1693:1717  agricultores[msg.sender] */\n      0x00\n        /* \"contracts/agroCadenaArbit.sol\":1706:1716  msg.sender */\n      caller\n        /* \"contracts/agroCadenaArbit.sol\":1693:1717  agricultores[msg.sender] */\n      0xffffffffffffffffffffffffffffffffffffffff\n      and\n      0xffffffffffffffffffffffffffffffffffffffff\n      and\n      dup2\n      mstore\n      0x20\n      add\n      swap1\n      dup2\n      mstore\n      0x20\n      add\n      0x00\n      keccak256\n        /* \"contracts/agroCadenaArbit.sol\":1693:1763  agricultores[msg.sender] = Agricultor(msg.sender, _nombre, _ubicacion) */\n      0x00\n      dup3\n      add\n      mload\n      dup2\n      0x00\n      add\n      exp(0x0100, 0x00)\n      dup2\n      sload\n      dup2\n      0xffffffffffffffffffffffffffffffffffffffff\n      mul\n      not\n      and\n      swap1\n      dup4\n      0xffffffffffffffffffffffffffffffffffffffff\n      and\n      mul\n      or\n      swap1\n      sstore\n      pop\n      0x20\n      dup3\n      add\n      mload\n      dup2\n      0x01\n      add\n      swap1\n      dup2\n      tag_133\n      swap2\n      swap1\n      tag_85\n      jump\t// in\n    tag_133:\n      pop\n      0x40\n      dup3\n      add\n      mload\n      dup2\n      0x02\n      add\n      swap1\n      dup2\n      tag_134\n      swap2\n      swap1\n      tag_85\n      jump\t// in\n    tag_134:\n      pop\n      swap1\n      pop\n      pop\n        /* \"contracts/agroCadenaArbit.sol\":1800:1810  msg.sender */\n      caller\n        /* \"contracts/agroCadenaArbit.sol\":1779:1832  AgricultorRegistrado(msg.sender, _nombre, _ubicacion) */\n      0xffffffffffffffffffffffffffffffffffffffff\n      and\n      0xe81c369424fcae53aa0a7106fc3807a6619a60c791a5de3c76c3268b68b7176d\n        /* \"contracts/agroCadenaArbit.sol\":1812:1819  _nombre */\n      dup4\n        /* \"contracts/agroCadenaArbit.sol\":1821:1831  _ubicacion */\n      dup4\n        /* \"contracts/agroCadenaArbit.sol\":1779:1832  AgricultorRegistrado(msg.sender, _nombre, _ubicacion) */\n      mload(0x40)\n      tag_135\n      swap3\n      swap2\n      swap1\n      tag_136\n      jump\t// in\n    tag_135:\n      mload(0x40)\n      dup1\n      swap2\n      sub\n      swap1\n      log2\n        /* \"contracts/agroCadenaArbit.sol\":1500:1839  function registrarAgricultor(string memory _nombre, string memory _ubicacion) public {... */\n      pop\n      pop\n      jump\t// out\n        /* \"contracts/agroCadenaArbit.sol\":3489:3930  function marcarEnviado(uint256 _idProducto) public {... */\n    tag_56:\n        /* \"contracts/agroCadenaArbit.sol\":3550:3568  Producto storage p */\n      0x00\n        /* \"contracts/agroCadenaArbit.sol\":3571:3580  productos */\n      0x01\n        /* \"contracts/agroCadenaArbit.sol\":3571:3593  productos[_idProducto] */\n      0x00\n        /* \"contracts/agroCadenaArbit.sol\":3581:3592  _idProducto */\n      dup4\n        /* \"contracts/agroCadenaArbit.sol\":3571:3593  productos[_idProducto] */\n      dup2\n      mstore\n      0x20\n      add\n      swap1\n      dup2\n      mstore\n      0x20\n      add\n      0x00\n      keccak256\n        /* \"contracts/agroCadenaArbit.sol\":3550:3593  Producto storage p = productos[_idProducto] */\n      swap1\n      pop\n        /* \"contracts/agroCadenaArbit.sol\":3625:3626  p */\n      dup1\n        /* \"contracts/agroCadenaArbit.sol\":3625:3637  p.agricultor */\n      0x03\n      add\n      0x00\n      swap1\n      sload\n      swap1\n      0x0100\n      exp\n      swap1\n      div\n      0xffffffffffffffffffffffffffffffffffffffff\n      and\n        /* \"contracts/agroCadenaArbit.sol\":3611:3637  msg.sender == p.agricultor */\n      0xffffffffffffffffffffffffffffffffffffffff\n      and\n        /* \"contracts/agroCadenaArbit.sol\":3611:3621  msg.sender */\n      caller\n        /* \"contracts/agroCadenaArbit.sol\":3611:3637  msg.sender == p.agricultor */\n      0xffffffffffffffffffffffffffffffffffffffff\n      and\n      eq\n        /* \"contracts/agroCadenaArbit.sol\":3603:3686  require(msg.sender == p.agricultor, \"Solo el agricultor puede marcar como enviado\") */\n      tag_138\n      jumpi\n      mload(0x40)\n      0x08c379a000000000000000000000000000000000000000000000000000000000\n      dup2\n      mstore\n      0x04\n      add\n      tag_139\n      swap1\n      tag_140\n      jump\t// in\n    tag_139:\n      mload(0x40)\n      dup1\n      swap2\n      sub\n      swap1\n      revert\n    tag_138:\n        /* \"contracts/agroCadenaArbit.sol\":3716:3733  Estado.Financiado */\n      0x01\n        /* \"contracts/agroCadenaArbit.sol\":3704:3733  p.estado == Estado.Financiado */\n      0x03\n      dup2\n      gt\n      iszero\n      tag_141\n      jumpi\n      tag_142\n      tag_88\n      jump\t// in\n    tag_142:\n    tag_141:\n        /* \"contracts/agroCadenaArbit.sol\":3704:3705  p */\n      dup2\n        /* \"contracts/agroCadenaArbit.sol\":3704:3712  p.estado */\n      0x04\n      add\n      0x14\n      swap1\n      sload\n      swap1\n      0x0100\n      exp\n      swap1\n      div\n      0xff\n      and\n        /* \"contracts/agroCadenaArbit.sol\":3704:3733  p.estado == Estado.Financiado */\n      0x03\n      dup2\n      gt\n      iszero\n      tag_143\n      jumpi\n      tag_144\n      tag_88\n      jump\t// in\n    tag_144:\n    tag_143:\n      eq\n        /* \"contracts/agroCadenaArbit.sol\":3696:3771  require(p.estado == Estado.Financiado, \"El producto debe estar financiado\") */\n      tag_145\n      jumpi\n      mload(0x40)\n      0x08c379a000000000000000000000000000000000000000000000000000000000\n      dup2\n      mstore\n      0x04\n      add\n      tag_146\n      swap1\n      tag_147\n      jump\t// in\n    tag_146:\n      mload(0x40)\n      dup1\n      swap2\n      sub\n      swap1\n      revert\n    tag_145:\n        /* \"contracts/agroCadenaArbit.sol\":3793:3807  Estado.Enviado */\n      0x02\n        /* \"contracts/agroCadenaArbit.sol\":3782:3783  p */\n      dup2\n        /* \"contracts/agroCadenaArbit.sol\":3782:3790  p.estado */\n      0x04\n      add\n      0x14\n        /* \"contracts/agroCadenaArbit.sol\":3782:3807  p.estado = Estado.Enviado */\n      0x0100\n      exp\n      dup2\n      sload\n      dup2\n      0xff\n      mul\n      not\n      and\n      swap1\n      dup4\n      0x03\n      dup2\n      gt\n      iszero\n      tag_148\n      jumpi\n      tag_149\n      tag_88\n      jump\t// in\n    tag_149:\n    tag_148:\n      mul\n      or\n      swap1\n      sstore\n      pop\n        /* \"contracts/agroCadenaArbit.sol\":3817:3818  p */\n      dup1\n        /* \"contracts/agroCadenaArbit.sol\":3817:3841  p.historialTransacciones */\n      0x06\n      add\n        /* \"contracts/agroCadenaArbit.sol\":3817:3879  p.historialTransacciones.push(\"Producto marcado como enviado\") */\n      dup1\n      0x01\n      dup2\n      sload\n      add\n      dup1\n      dup3\n      sstore\n      dup1\n      swap2\n      pop\n      pop\n      0x01\n      swap1\n      sub\n      swap1\n      0x00\n      mstore\n      keccak256(0x00, 0x20)\n      add\n      0x00\n      mload(0x40)\n      dup1\n      0x40\n      add\n      0x40\n      mstore\n      dup1\n      0x1d\n      dup2\n      mstore\n      0x20\n      add\n      0x50726f647563746f206d61726361646f20636f6d6f20656e766961646f000000\n      dup2\n      mstore\n      pop\n      swap1\n      swap2\n      swap1\n      swap2\n      pop\n      swap1\n      dup2\n      tag_151\n      swap2\n      swap1\n      tag_85\n      jump\t// in\n    tag_151:\n      pop\n        /* \"contracts/agroCadenaArbit.sol\":3911:3922  _idProducto */\n      dup2\n        /* \"contracts/agroCadenaArbit.sol\":3895:3923  ProductoEnviado(_idProducto) */\n      0xe2014d2e3ef60e8b6f7e5e08a57da71901171b55245b5b299b50a39033561330\n      mload(0x40)\n      mload(0x40)\n      dup1\n      swap2\n      sub\n      swap1\n      log2\n        /* \"contracts/agroCadenaArbit.sol\":3540:3930  {... */\n      pop\n        /* \"contracts/agroCadenaArbit.sol\":3489:3930  function marcarEnviado(uint256 _idProducto) public {... */\n      pop\n      jump\t// out\n        /* \"contracts/agroCadenaArbit.sol\":3936:4439  function confirmarEntrega(uint256 _idProducto) public {... */\n    tag_60:\n        /* \"contracts/agroCadenaArbit.sol\":4000:4018  Producto storage p */\n      0x00\n        /* \"contracts/agroCadenaArbit.sol\":4021:4030  productos */\n      0x01\n        /* \"contracts/agroCadenaArbit.sol\":4021:4043  productos[_idProducto] */\n      0x00\n        /* \"contracts/agroCadenaArbit.sol\":4031:4042  _idProducto */\n      dup4\n        /* \"contracts/agroCadenaArbit.sol\":4021:4043  productos[_idProducto] */\n      dup2\n      mstore\n      0x20\n      add\n      swap1\n      dup2\n      mstore\n      0x20\n      add\n      0x00\n      keccak256\n        /* \"contracts/agroCadenaArbit.sol\":4000:4043  Producto storage p = productos[_idProducto] */\n      swap1\n      pop\n        /* \"contracts/agroCadenaArbit.sol\":4075:4076  p */\n      dup1\n        /* \"contracts/agroCadenaArbit.sol\":4075:4086  p.comprador */\n      0x04\n      add\n      0x00\n      swap1\n      sload\n      swap1\n      0x0100\n      exp\n      swap1\n      div\n      0xffffffffffffffffffffffffffffffffffffffff\n      and\n        /* \"contracts/agroCadenaArbit.sol\":4061:4086  msg.sender == p.comprador */\n      0xffffffffffffffffffffffffffffffffffffffff\n      and\n        /* \"contracts/agroCadenaArbit.sol\":4061:4071  msg.sender */\n      caller\n        /* \"contracts/agroCadenaArbit.sol\":4061:4086  msg.sender == p.comprador */\n      0xffffffffffffffffffffffffffffffffffffffff\n      and\n      eq\n        /* \"contracts/agroCadenaArbit.sol\":4053:4135  require(msg.sender == p.comprador, \"Solo el comprador puede confirmar la entrega\") */\n      tag_153\n      jumpi\n      mload(0x40)\n      0x08c379a000000000000000000000000000000000000000000000000000000000\n      dup2\n      mstore\n      0x04\n      add\n      tag_154\n      swap1\n      tag_155\n      jump\t// in\n    tag_154:\n      mload(0x40)\n      dup1\n      swap2\n      sub\n      swap1\n      revert\n    tag_153:\n        /* \"contracts/agroCadenaArbit.sol\":4165:4182  Estado.Financiado */\n      0x01\n        /* \"contracts/agroCadenaArbit.sol\":4153:4182  p.estado == Estado.Financiado */\n      0x03\n      dup2\n      gt\n      iszero\n      tag_156\n      jumpi\n      tag_157\n      tag_88\n      jump\t// in\n    tag_157:\n    tag_156:\n        /* \"contracts/agroCadenaArbit.sol\":4153:4154  p */\n      dup2\n        /* \"contracts/agroCadenaArbit.sol\":4153:4161  p.estado */\n      0x04\n      add\n      0x14\n      swap1\n      sload\n      swap1\n      0x0100\n      exp\n      swap1\n      div\n      0xff\n      and\n        /* \"contracts/agroCadenaArbit.sol\":4153:4182  p.estado == Estado.Financiado */\n      0x03\n      dup2\n      gt\n      iszero\n      tag_158\n      jumpi\n      tag_159\n      tag_88\n      jump\t// in\n    tag_159:\n    tag_158:\n      eq\n        /* \"contracts/agroCadenaArbit.sol\":4153:4212  p.estado == Estado.Financiado || p.estado == Estado.Enviado */\n      dup1\n      tag_160\n      jumpi\n      pop\n        /* \"contracts/agroCadenaArbit.sol\":4198:4212  Estado.Enviado */\n      0x02\n        /* \"contracts/agroCadenaArbit.sol\":4186:4212  p.estado == Estado.Enviado */\n      0x03\n      dup2\n      gt\n      iszero\n      tag_161\n      jumpi\n      tag_162\n      tag_88\n      jump\t// in\n    tag_162:\n    tag_161:\n        /* \"contracts/agroCadenaArbit.sol\":4186:4187  p */\n      dup2\n        /* \"contracts/agroCadenaArbit.sol\":4186:4194  p.estado */\n      0x04\n      add\n      0x14\n      swap1\n      sload\n      swap1\n      0x0100\n      exp\n      swap1\n      div\n      0xff\n      and\n        /* \"contracts/agroCadenaArbit.sol\":4186:4212  p.estado == Estado.Enviado */\n      0x03\n      dup2\n      gt\n      iszero\n      tag_163\n      jumpi\n      tag_164\n      tag_88\n      jump\t// in\n    tag_164:\n    tag_163:\n      eq\n        /* \"contracts/agroCadenaArbit.sol\":4153:4212  p.estado == Estado.Financiado || p.estado == Estado.Enviado */\n    tag_160:\n        /* \"contracts/agroCadenaArbit.sol\":4145:4232  require(p.estado == Estado.Financiado || p.estado == Estado.Enviado, \"Estado invalido\") */\n      tag_165\n      jumpi\n      mload(0x40)\n      0x08c379a000000000000000000000000000000000000000000000000000000000\n      dup2\n      mstore\n      0x04\n      add\n      tag_166\n      swap1\n      tag_167\n      jump\t// in\n    tag_166:\n      mload(0x40)\n      dup1\n      swap2\n      sub\n      swap1\n      revert\n    tag_165:\n        /* \"contracts/agroCadenaArbit.sol\":4254:4269  Estado.Recibido */\n      0x03\n        /* \"contracts/agroCadenaArbit.sol\":4243:4244  p */\n      dup2\n        /* \"contracts/agroCadenaArbit.sol\":4243:4251  p.estado */\n      0x04\n      add\n      0x14\n        /* \"contracts/agroCadenaArbit.sol\":4243:4269  p.estado = Estado.Recibido */\n      0x0100\n      exp\n      dup2\n      sload\n      dup2\n      0xff\n      mul\n      not\n      and\n      swap1\n      dup4\n      0x03\n      dup2\n      gt\n      iszero\n      tag_168\n      jumpi\n      tag_169\n      tag_88\n      jump\t// in\n    tag_169:\n    tag_168:\n      mul\n      or\n      swap1\n      sstore\n      pop\n        /* \"contracts/agroCadenaArbit.sol\":4279:4280  p */\n      dup1\n        /* \"contracts/agroCadenaArbit.sol\":4279:4303  p.historialTransacciones */\n      0x06\n      add\n        /* \"contracts/agroCadenaArbit.sol\":4279:4345  p.historialTransacciones.push(\"Entrega confirmada, pago liberado\") */\n      dup1\n      0x01\n      dup2\n      sload\n      add\n      dup1\n      dup3\n      sstore\n      dup1\n      swap2\n      pop\n      pop\n      0x01\n      swap1\n      sub\n      swap1\n      0x00\n      mstore\n      keccak256(0x00, 0x20)\n      add\n      0x00\n      mload(0x40)\n      dup1\n      0x60\n      add\n      0x40\n      mstore\n      dup1\n      0x21\n      dup2\n      mstore\n      0x20\n      add\n      data_f7bf652c70be12be1b568996e43b3db229bc6b228394a1703650be6176acd4ad\n      0x21\n      swap2\n      codecopy\n      swap1\n      swap2\n      swap1\n      swap2\n      pop\n      swap1\n      dup2\n      tag_171\n      swap2\n      swap1\n      tag_85\n      jump\t// in\n    tag_171:\n      pop\n        /* \"contracts/agroCadenaArbit.sol\":4356:4357  p */\n      dup1\n        /* \"contracts/agroCadenaArbit.sol\":4356:4368  p.agricultor */\n      0x03\n      add\n      0x00\n      swap1\n      sload\n      swap1\n      0x0100\n      exp\n      swap1\n      div\n      0xffffffffffffffffffffffffffffffffffffffff\n      and\n        /* \"contracts/agroCadenaArbit.sol\":4356:4377  p.agricultor.transfer */\n      0xffffffffffffffffffffffffffffffffffffffff\n      and\n        /* \"contracts/agroCadenaArbit.sol\":4356:4387  p.agricultor.transfer(p.precio) */\n      0x08fc\n        /* \"contracts/agroCadenaArbit.sol\":4378:4379  p */\n      dup3\n        /* \"contracts/agroCadenaArbit.sol\":4378:4386  p.precio */\n      0x02\n      add\n      sload\n        /* \"contracts/agroCadenaArbit.sol\":4356:4387  p.agricultor.transfer(p.precio) */\n      swap1\n      dup2\n      iszero\n      mul\n      swap1\n      mload(0x40)\n      0x00\n      mload(0x40)\n      dup1\n      dup4\n      sub\n      dup2\n      dup6\n      dup9\n      dup9\n      call\n      swap4\n      pop\n      pop\n      pop\n      pop\n      iszero\n      dup1\n      iszero\n      tag_173\n      jumpi\n      returndatacopy(0x00, 0x00, returndatasize)\n      revert(0x00, returndatasize)\n    tag_173:\n      pop\n        /* \"contracts/agroCadenaArbit.sol\":4420:4431  _idProducto */\n      dup2\n        /* \"contracts/agroCadenaArbit.sol\":4403:4432  ProductoRecibido(_idProducto) */\n      0xb0e28ea3f8d2a6c6be59eb0786a4ef44bbd06a455d02e84dc2c74b8a47355a3f\n      mload(0x40)\n      mload(0x40)\n      dup1\n      swap2\n      sub\n      swap1\n      log2\n        /* \"contracts/agroCadenaArbit.sol\":3990:4439  {... */\n      pop\n        /* \"contracts/agroCadenaArbit.sol\":3936:4439  function confirmarEntrega(uint256 _idProducto) public {... */\n      pop\n      jump\t// out\n        /* \"contracts/agroCadenaArbit.sol\":2879:3483  function financiarCompra(uint256 _idProducto) public payable {... */\n    tag_63:\n        /* \"contracts/agroCadenaArbit.sol\":2950:2968  Producto storage p */\n      0x00\n        /* \"contracts/agroCadenaArbit.sol\":2971:2980  productos */\n      0x01\n        /* \"contracts/agroCadenaArbit.sol\":2971:2993  productos[_idProducto] */\n      0x00\n        /* \"contracts/agroCadenaArbit.sol\":2981:2992  _idProducto */\n      dup4\n        /* \"contracts/agroCadenaArbit.sol\":2971:2993  productos[_idProducto] */\n      dup2\n      mstore\n      0x20\n      add\n      swap1\n      dup2\n      mstore\n      0x20\n      add\n      0x00\n      keccak256\n        /* \"contracts/agroCadenaArbit.sol\":2950:2993  Producto storage p = productos[_idProducto] */\n      swap1\n      pop\n        /* \"contracts/agroCadenaArbit.sol\":3024:3040  Estado.Publicado */\n      0x00\n        /* \"contracts/agroCadenaArbit.sol\":3012:3040  p.estado == Estado.Publicado */\n      0x03\n      dup2\n      gt\n      iszero\n      tag_175\n      jumpi\n      tag_176\n      tag_88\n      jump\t// in\n    tag_176:\n    tag_175:\n        /* \"contracts/agroCadenaArbit.sol\":3012:3013  p */\n      dup2\n        /* \"contracts/agroCadenaArbit.sol\":3012:3020  p.estado */\n      0x04\n      add\n      0x14\n      swap1\n      sload\n      swap1\n      0x0100\n      exp\n      swap1\n      div\n      0xff\n      and\n        /* \"contracts/agroCadenaArbit.sol\":3012:3040  p.estado == Estado.Publicado */\n      0x03\n      dup2\n      gt\n      iszero\n      tag_177\n      jumpi\n      tag_178\n      tag_88\n      jump\t// in\n    tag_178:\n    tag_177:\n      eq\n        /* \"contracts/agroCadenaArbit.sol\":3004:3095  require(p.estado == Estado.Publicado, \"El producto no esta disponible para financiamiento\") */\n      tag_179\n      jumpi\n      mload(0x40)\n      0x08c379a000000000000000000000000000000000000000000000000000000000\n      dup2\n      mstore\n      0x04\n      add\n      tag_180\n      swap1\n      tag_181\n      jump\t// in\n    tag_180:\n      mload(0x40)\n      dup1\n      swap2\n      sub\n      swap1\n      revert\n    tag_179:\n        /* \"contracts/agroCadenaArbit.sol\":3126:3127  p */\n      dup1\n        /* \"contracts/agroCadenaArbit.sol\":3126:3134  p.precio */\n      0x02\n      add\n      sload\n        /* \"contracts/agroCadenaArbit.sol\":3113:3122  msg.value */\n      callvalue\n        /* \"contracts/agroCadenaArbit.sol\":3113:3134  msg.value == p.precio */\n      eq\n        /* \"contracts/agroCadenaArbit.sol\":3105:3181  require(msg.value == p.precio, \"El valor enviado no coincide con el precio\") */\n      tag_182\n      jumpi\n      mload(0x40)\n      0x08c379a000000000000000000000000000000000000000000000000000000000\n      dup2\n      mstore\n      0x04\n      add\n      tag_183\n      swap1\n      tag_184\n      jump\t// in\n    tag_183:\n      mload(0x40)\n      dup1\n      swap2\n      sub\n      swap1\n      revert\n    tag_182:\n        /* \"contracts/agroCadenaArbit.sol\":3206:3216  msg.sender */\n      caller\n        /* \"contracts/agroCadenaArbit.sol\":3192:3193  p */\n      dup2\n        /* \"contracts/agroCadenaArbit.sol\":3192:3203  p.comprador */\n      0x04\n      add\n      0x00\n        /* \"contracts/agroCadenaArbit.sol\":3192:3216  p.comprador = msg.sender */\n      0x0100\n      exp\n      dup2\n      sload\n      dup2\n      0xffffffffffffffffffffffffffffffffffffffff\n      mul\n      not\n      and\n      swap1\n      dup4\n      0xffffffffffffffffffffffffffffffffffffffff\n      and\n      mul\n      or\n      swap1\n      sstore\n      pop\n        /* \"contracts/agroCadenaArbit.sol\":3237:3254  Estado.Financiado */\n      0x01\n        /* \"contracts/agroCadenaArbit.sol\":3226:3227  p */\n      dup2\n        /* \"contracts/agroCadenaArbit.sol\":3226:3234  p.estado */\n      0x04\n      add\n      0x14\n        /* \"contracts/agroCadenaArbit.sol\":3226:3254  p.estado = Estado.Financiado */\n      0x0100\n      exp\n      dup2\n      sload\n      dup2\n      0xff\n      mul\n      not\n      and\n      swap1\n      dup4\n      0x03\n      dup2\n      gt\n      iszero\n      tag_185\n      jumpi\n      tag_186\n      tag_88\n      jump\t// in\n    tag_186:\n    tag_185:\n      mul\n      or\n      swap1\n      sstore\n      pop\n        /* \"contracts/agroCadenaArbit.sol\":3265:3266  p */\n      dup1\n        /* \"contracts/agroCadenaArbit.sol\":3265:3289  p.historialTransacciones */\n      0x06\n      add\n        /* \"contracts/agroCadenaArbit.sol\":3370:3395  toAsciiString(msg.sender) */\n      tag_187\n        /* \"contracts/agroCadenaArbit.sol\":3384:3394  msg.sender */\n      caller\n        /* \"contracts/agroCadenaArbit.sol\":3370:3383  toAsciiString */\n      tag_188\n        /* \"contracts/agroCadenaArbit.sol\":3370:3395  toAsciiString(msg.sender) */\n      jump\t// in\n    tag_187:\n        /* \"contracts/agroCadenaArbit.sol\":3315:3396  abi.encodePacked(\"Producto financiado por comprador \", toAsciiString(msg.sender)) */\n      add(0x20, mload(0x40))\n      tag_189\n      swap2\n      swap1\n      tag_190\n      jump\t// in\n    tag_189:\n      mload(0x40)\n      0x20\n      dup2\n      dup4\n      sub\n      sub\n      dup2\n      mstore\n      swap1\n      0x40\n      mstore\n        /* \"contracts/agroCadenaArbit.sol\":3265:3407  p.historialTransacciones.push(... */\n      swap1\n      dup1\n      0x01\n      dup2\n      sload\n      add\n      dup1\n      dup3\n      sstore\n      dup1\n      swap2\n      pop\n      pop\n      0x01\n      swap1\n      sub\n      swap1\n      0x00\n      mstore\n      keccak256(0x00, 0x20)\n      add\n      0x00\n      swap1\n      swap2\n      swap1\n      swap2\n      swap1\n      swap2\n      pop\n      swap1\n      dup2\n      tag_192\n      swap2\n      swap1\n      tag_85\n      jump\t// in\n    tag_192:\n      pop\n        /* \"contracts/agroCadenaArbit.sol\":3455:3465  msg.sender */\n      caller\n        /* \"contracts/agroCadenaArbit.sol\":3423:3476  ProductoFinanciado(_idProducto, msg.sender, p.precio) */\n      0xffffffffffffffffffffffffffffffffffffffff\n      and\n        /* \"contracts/agroCadenaArbit.sol\":3442:3453  _idProducto */\n      dup3\n        /* \"contracts/agroCadenaArbit.sol\":3423:3476  ProductoFinanciado(_idProducto, msg.sender, p.precio) */\n      0xc2660db1071e6f18eb362f68dc4e14f1b991a78041ff997c425592035e3ba497\n        /* \"contracts/agroCadenaArbit.sol\":3467:3468  p */\n      dup4\n        /* \"contracts/agroCadenaArbit.sol\":3467:3475  p.precio */\n      0x02\n      add\n      sload\n        /* \"contracts/agroCadenaArbit.sol\":3423:3476  ProductoFinanciado(_idProducto, msg.sender, p.precio) */\n      mload(0x40)\n      tag_193\n      swap2\n      swap1\n      tag_34\n      jump\t// in\n    tag_193:\n      mload(0x40)\n      dup1\n      swap2\n      sub\n      swap1\n      log3\n        /* \"contracts/agroCadenaArbit.sol\":2940:3483  {... */\n      pop\n        /* \"contracts/agroCadenaArbit.sol\":2879:3483  function financiarCompra(uint256 _idProducto) public payable {... */\n      pop\n      jump\t// out\n        /* \"contracts/agroCadenaArbit.sol\":5118:5609  function toAsciiString(address x) internal pure returns (string memory) {... */\n    tag_188:\n        /* \"contracts/agroCadenaArbit.sol\":5175:5188  string memory */\n      0x60\n        /* \"contracts/agroCadenaArbit.sol\":5200:5214  bytes memory s */\n      0x00\n        /* \"contracts/agroCadenaArbit.sol\":5227:5229  42 */\n      0x2a\n        /* \"contracts/agroCadenaArbit.sol\":5217:5230  new bytes(42) */\n      0xffffffffffffffff\n      dup2\n      gt\n      iszero\n      tag_195\n      jumpi\n      tag_196\n      tag_197\n      jump\t// in\n    tag_196:\n    tag_195:\n      mload(0x40)\n      swap1\n      dup1\n      dup3\n      mstore\n      dup1\n      0x1f\n      add\n      not(0x1f)\n      and\n      0x20\n      add\n      dup3\n      add\n      0x40\n      mstore\n      dup1\n      iszero\n      tag_198\n      jumpi\n      dup2\n      0x20\n      add\n      0x01\n      dup3\n      mul\n      dup1\n      calldatasize\n      dup4\n      calldatacopy\n      dup1\n      dup3\n      add\n      swap2\n      pop\n      pop\n      swap1\n      pop\n    tag_198:\n      pop\n        /* \"contracts/agroCadenaArbit.sol\":5200:5230  bytes memory s = new bytes(42) */\n      swap1\n      pop\n        /* \"contracts/agroCadenaArbit.sol\":5240:5250  s[0] = '0' */\n      0x3000000000000000000000000000000000000000000000000000000000000000\n        /* \"contracts/agroCadenaArbit.sol\":5240:5241  s */\n      dup2\n        /* \"contracts/agroCadenaArbit.sol\":5242:5243  0 */\n      0x00\n        /* \"contracts/agroCadenaArbit.sol\":5240:5244  s[0] */\n      dup2\n      mload\n      dup2\n      lt\n      tag_199\n      jumpi\n      tag_200\n      tag_201\n      jump\t// in\n    tag_200:\n    tag_199:\n      0x20\n      add\n      add\n        /* \"contracts/agroCadenaArbit.sol\":5240:5250  s[0] = '0' */\n      swap1\n      not(0xffffffffffffffffffffffffffffffffffffffffffffffffffffffffffffff)\n      and\n      swap1\n      dup2\n      0x00\n      byte\n      swap1\n      mstore8\n      pop\n        /* \"contracts/agroCadenaArbit.sol\":5260:5270  s[1] = 'x' */\n      0x7800000000000000000000000000000000000000000000000000000000000000\n        /* \"contracts/agroCadenaArbit.sol\":5260:5261  s */\n      dup2\n        /* \"contracts/agroCadenaArbit.sol\":5262:5263  1 */\n      0x01\n        /* \"contracts/agroCadenaArbit.sol\":5260:5264  s[1] */\n      dup2\n      mload\n      dup2\n      lt\n      tag_202\n      jumpi\n      tag_203\n      tag_201\n      jump\t// in\n    tag_203:\n    tag_202:\n      0x20\n      add\n      add\n        /* \"contracts/agroCadenaArbit.sol\":5260:5270  s[1] = 'x' */\n      swap1\n      not(0xffffffffffffffffffffffffffffffffffffffffffffffffffffffffffffff)\n      and\n      swap1\n      dup2\n      0x00\n      byte\n      swap1\n      mstore8\n      pop\n        /* \"contracts/agroCadenaArbit.sol\":5285:5291  uint i */\n      0x00\n        /* \"contracts/agroCadenaArbit.sol\":5294:5295  0 */\n      0x00\n        /* \"contracts/agroCadenaArbit.sol\":5285:5295  uint i = 0 */\n      swap1\n      pop\n        /* \"contracts/agroCadenaArbit.sol\":5280:5577  for (uint i = 0; i < 20; i++) {... */\n    tag_204:\n        /* \"contracts/agroCadenaArbit.sol\":5301:5303  20 */\n      0x14\n        /* \"contracts/agroCadenaArbit.sol\":5297:5298  i */\n      dup2\n        /* \"contracts/agroCadenaArbit.sol\":5297:5303  i < 20 */\n      lt\n        /* \"contracts/agroCadenaArbit.sol\":5280:5577  for (uint i = 0; i < 20; i++) {... */\n      iszero\n      tag_205\n      jumpi\n        /* \"contracts/agroCadenaArbit.sol\":5324:5332  bytes1 b */\n      0x00\n        /* \"contracts/agroCadenaArbit.sol\":5384:5385  i */\n      dup2\n        /* \"contracts/agroCadenaArbit.sol\":5379:5381  19 */\n      0x13\n        /* \"contracts/agroCadenaArbit.sol\":5379:5385  19 - i */\n      tag_207\n      swap2\n      swap1\n      tag_208\n      jump\t// in\n    tag_207:\n        /* \"contracts/agroCadenaArbit.sol\":5374:5375  8 */\n      0x08\n        /* \"contracts/agroCadenaArbit.sol\":5374:5386  8 * (19 - i) */\n      tag_209\n      swap2\n      swap1\n      tag_210\n      jump\t// in\n    tag_209:\n        /* \"contracts/agroCadenaArbit.sol\":5368:5369  2 */\n      0x02\n        /* \"contracts/agroCadenaArbit.sol\":5368:5387  2 ** (8 * (19 - i)) */\n      tag_211\n      swap2\n      swap1\n      tag_212\n      jump\t// in\n    tag_211:\n        /* \"contracts/agroCadenaArbit.sol\":5361:5362  x */\n      dup6\n        /* \"contracts/agroCadenaArbit.sol\":5348:5364  uint(uint160(x)) */\n      0xffffffffffffffffffffffffffffffffffffffff\n      and\n        /* \"contracts/agroCadenaArbit.sol\":5348:5388  uint(uint160(x)) / (2 ** (8 * (19 - i))) */\n      tag_213\n      swap2\n      swap1\n      tag_214\n      jump\t// in\n    tag_213:\n        /* \"contracts/agroCadenaArbit.sol\":5335:5390  bytes1(uint8(uint(uint160(x)) / (2 ** (8 * (19 - i))))) */\n      0xf8\n      shl\n        /* \"contracts/agroCadenaArbit.sol\":5324:5390  bytes1 b = bytes1(uint8(uint(uint160(x)) / (2 ** (8 * (19 - i))))) */\n      swap1\n      pop\n        /* \"contracts/agroCadenaArbit.sol\":5404:5413  bytes1 hi */\n      0x00\n        /* \"contracts/agroCadenaArbit.sol\":5434:5436  16 */\n      0x10\n        /* \"contracts/agroCadenaArbit.sol\":5429:5430  b */\n      dup3\n        /* \"contracts/agroCadenaArbit.sol\":5423:5431  uint8(b) */\n      0xf8\n      shr\n        /* \"contracts/agroCadenaArbit.sol\":5423:5436  uint8(b) / 16 */\n      tag_215\n      swap2\n      swap1\n      tag_216\n      jump\t// in\n    tag_215:\n        /* \"contracts/agroCadenaArbit.sol\":5416:5437  bytes1(uint8(b) / 16) */\n      0xf8\n      shl\n        /* \"contracts/agroCadenaArbit.sol\":5404:5437  bytes1 hi = bytes1(uint8(b) / 16) */\n      swap1\n      pop\n        /* \"contracts/agroCadenaArbit.sol\":5451:5460  bytes1 lo */\n      0x00\n        /* \"contracts/agroCadenaArbit.sol\":5492:5494  hi */\n      dup2\n        /* \"contracts/agroCadenaArbit.sol\":5486:5495  uint8(hi) */\n      0xf8\n      shr\n        /* \"contracts/agroCadenaArbit.sol\":5481:5483  16 */\n      0x10\n        /* \"contracts/agroCadenaArbit.sol\":5481:5495  16 * uint8(hi) */\n      tag_217\n      swap2\n      swap1\n      tag_218\n      jump\t// in\n    tag_217:\n        /* \"contracts/agroCadenaArbit.sol\":5476:5477  b */\n      dup4\n        /* \"contracts/agroCadenaArbit.sol\":5470:5478  uint8(b) */\n      0xf8\n      shr\n        /* \"contracts/agroCadenaArbit.sol\":5470:5495  uint8(b) - 16 * uint8(hi) */\n      tag_219\n      swap2\n      swap1\n      tag_220\n      jump\t// in\n    tag_219:\n        /* \"contracts/agroCadenaArbit.sol\":5463:5496  bytes1(uint8(b) - 16 * uint8(hi)) */\n      0xf8\n      shl\n        /* \"contracts/agroCadenaArbit.sol\":5451:5496  bytes1 lo = bytes1(uint8(b) - 16 * uint8(hi)) */\n      swap1\n      pop\n        /* \"contracts/agroCadenaArbit.sol\":5523:5531  char(hi) */\n      tag_221\n        /* \"contracts/agroCadenaArbit.sol\":5528:5530  hi */\n      dup3\n        /* \"contracts/agroCadenaArbit.sol\":5523:5527  char */\n      tag_222\n        /* \"contracts/agroCadenaArbit.sol\":5523:5531  char(hi) */\n      jump\t// in\n    tag_221:\n        /* \"contracts/agroCadenaArbit.sol\":5510:5511  s */\n      dup6\n        /* \"contracts/agroCadenaArbit.sol\":5518:5519  2 */\n      0x02\n        /* \"contracts/agroCadenaArbit.sol\":5514:5515  i */\n      dup7\n        /* \"contracts/agroCadenaArbit.sol\":5512:5513  2 */\n      0x02\n        /* \"contracts/agroCadenaArbit.sol\":5512:5515  2*i */\n      tag_223\n      swap2\n      swap1\n      tag_210\n      jump\t// in\n    tag_223:\n        /* \"contracts/agroCadenaArbit.sol\":5512:5519  2*i + 2 */\n      tag_224\n      swap2\n      swap1\n      tag_225\n      jump\t// in\n    tag_224:\n        /* \"contracts/agroCadenaArbit.sol\":5510:5520  s[2*i + 2] */\n      dup2\n      mload\n      dup2\n      lt\n      tag_226\n      jumpi\n      tag_227\n      tag_201\n      jump\t// in\n    tag_227:\n    tag_226:\n      0x20\n      add\n      add\n        /* \"contracts/agroCadenaArbit.sol\":5510:5531  s[2*i + 2] = char(hi) */\n      swap1\n      not(0xffffffffffffffffffffffffffffffffffffffffffffffffffffffffffffff)\n      and\n      swap1\n      dup2\n      0x00\n      byte\n      swap1\n      mstore8\n      pop\n        /* \"contracts/agroCadenaArbit.sol\":5558:5566  char(lo) */\n      tag_228\n        /* \"contracts/agroCadenaArbit.sol\":5563:5565  lo */\n      dup2\n        /* \"contracts/agroCadenaArbit.sol\":5558:5562  char */\n      tag_222\n        /* \"contracts/agroCadenaArbit.sol\":5558:5566  char(lo) */\n      jump\t// in\n    tag_228:\n        /* \"contracts/agroCadenaArbit.sol\":5545:5546  s */\n      dup6\n        /* \"contracts/agroCadenaArbit.sol\":5553:5554  3 */\n      0x03\n        /* \"contracts/agroCadenaArbit.sol\":5549:5550  i */\n      dup7\n        /* \"contracts/agroCadenaArbit.sol\":5547:5548  2 */\n      0x02\n        /* \"contracts/agroCadenaArbit.sol\":5547:5550  2*i */\n      tag_229\n      swap2\n      swap1\n      tag_210\n      jump\t// in\n    tag_229:\n        /* \"contracts/agroCadenaArbit.sol\":5547:5554  2*i + 3 */\n      tag_230\n      swap2\n      swap1\n      tag_225\n      jump\t// in\n    tag_230:\n        /* \"contracts/agroCadenaArbit.sol\":5545:5555  s[2*i + 3] */\n      dup2\n      mload\n      dup2\n      lt\n      tag_231\n      jumpi\n      tag_232\n      tag_201\n      jump\t// in\n    tag_232:\n    tag_231:\n      0x20\n      add\n      add\n        /* \"contracts/agroCadenaArbit.sol\":5545:5566  s[2*i + 3] = char(lo) */\n      swap1\n      not(0xffffffffffffffffffffffffffffffffffffffffffffffffffffffffffffff)\n      and\n      swap1\n      dup2\n      0x00\n      byte\n      swap1\n      mstore8\n      pop\n        /* \"contracts/agroCadenaArbit.sol\":5310:5577  {... */\n      pop\n      pop\n      pop\n        /* \"contracts/agroCadenaArbit.sol\":5305:5308  i++ */\n      dup1\n      dup1\n      0x01\n      add\n      swap2\n      pop\n      pop\n        /* \"contracts/agroCadenaArbit.sol\":5280:5577  for (uint i = 0; i < 20; i++) {... */\n      jump(tag_204)\n    tag_205:\n      pop\n        /* \"contracts/agroCadenaArbit.sol\":5600:5601  s */\n      dup1\n        /* \"contracts/agroCadenaArbit.sol\":5586:5602  return string(s) */\n      swap2\n      pop\n      pop\n        /* \"contracts/agroCadenaArbit.sol\":5118:5609  function toAsciiString(address x) internal pure returns (string memory) {... */\n      swap2\n      swap1\n      pop\n      jump\t// out\n        /* \"contracts/agroCadenaArbit.sol\":5617:5785  function char(bytes1 b) internal pure returns (bytes1 c) {... */\n    tag_222:\n        /* \"contracts/agroCadenaArbit.sol\":5664:5672  bytes1 c */\n      0x00\n        /* \"contracts/agroCadenaArbit.sol\":5699:5701  10 */\n      0x0a\n        /* \"contracts/agroCadenaArbit.sol\":5694:5695  b */\n      dup3\n        /* \"contracts/agroCadenaArbit.sol\":5688:5696  uint8(b) */\n      0xf8\n      shr\n        /* \"contracts/agroCadenaArbit.sol\":5688:5701  uint8(b) < 10 */\n      0xff\n      and\n      lt\n        /* \"contracts/agroCadenaArbit.sol\":5684:5778  if (uint8(b) < 10) return bytes1(uint8(b) + 0x30);... */\n      iszero\n      tag_234\n      jumpi\n        /* \"contracts/agroCadenaArbit.sol\":5728:5732  0x30 */\n      0x30\n        /* \"contracts/agroCadenaArbit.sol\":5723:5724  b */\n      dup3\n        /* \"contracts/agroCadenaArbit.sol\":5717:5725  uint8(b) */\n      0xf8\n      shr\n        /* \"contracts/agroCadenaArbit.sol\":5717:5732  uint8(b) + 0x30 */\n      tag_235\n      swap2\n      swap1\n      tag_236\n      jump\t// in\n    tag_235:\n        /* \"contracts/agroCadenaArbit.sol\":5710:5733  bytes1(uint8(b) + 0x30) */\n      0xf8\n      shl\n        /* \"contracts/agroCadenaArbit.sol\":5703:5733  return bytes1(uint8(b) + 0x30) */\n      swap1\n      pop\n      jump(tag_233)\n        /* \"contracts/agroCadenaArbit.sol\":5684:5778  if (uint8(b) < 10) return bytes1(uint8(b) + 0x30);... */\n    tag_234:\n        /* \"contracts/agroCadenaArbit.sol\":5773:5777  0x57 */\n      0x57\n        /* \"contracts/agroCadenaArbit.sol\":5768:5769  b */\n      dup3\n        /* \"contracts/agroCadenaArbit.sol\":5762:5770  uint8(b) */\n      0xf8\n      shr\n        /* \"contracts/agroCadenaArbit.sol\":5762:5777  uint8(b) + 0x57 */\n      tag_238\n      swap2\n      swap1\n      tag_236\n      jump\t// in\n    tag_238:\n        /* \"contracts/agroCadenaArbit.sol\":5755:5778  bytes1(uint8(b) + 0x57) */\n      0xf8\n      shl\n        /* \"contracts/agroCadenaArbit.sol\":5748:5778  return bytes1(uint8(b) + 0x57) */\n      swap1\n      pop\n        /* \"contracts/agroCadenaArbit.sol\":5617:5785  function char(bytes1 b) internal pure returns (bytes1 c) {... */\n    tag_233:\n      swap2\n      swap1\n      pop\n      jump\t// out\n        /* \"#utility.yul\":7:82   */\n    tag_239:\n        /* \"#utility.yul\":40:46   */\n      0x00\n        /* \"#utility.yul\":73:75   */\n      0x40\n        /* \"#utility.yul\":67:76   */\n      mload\n        /* \"#utility.yul\":57:76   */\n      swap1\n      pop\n        /* \"#utility.yul\":7:82   */\n      swap1\n      jump\t// out\n        /* \"#utility.yul\":88:205   */\n    tag_240:\n        /* \"#utility.yul\":197:198   */\n      0x00\n        /* \"#utility.yul\":194:195   */\n      0x00\n        /* \"#utility.yul\":187:199   */\n      revert\n        /* \"#utility.yul\":211:328   */\n    tag_241:\n        /* \"#utility.yul\":320:321   */\n      0x00\n        /* \"#utility.yul\":317:318   */\n      0x00\n        /* \"#utility.yul\":310:322   */\n      revert\n        /* \"#utility.yul\":334:411   */\n    tag_242:\n        /* \"#utility.yul\":371:378   */\n      0x00\n        /* \"#utility.yul\":400:405   */\n      dup2\n        /* \"#utility.yul\":389:405   */\n      swap1\n      pop\n        /* \"#utility.yul\":334:411   */\n      swap2\n      swap1\n      pop\n      jump\t// out\n        /* \"#utility.yul\":417:539   */\n    tag_243:\n        /* \"#utility.yul\":490:514   */\n      tag_335\n        /* \"#utility.yul\":508:513   */\n      dup2\n        /* \"#utility.yul\":490:514   */\n      tag_242\n      jump\t// in\n    tag_335:\n        /* \"#utility.yul\":483:488   */\n      dup2\n        /* \"#utility.yul\":480:515   */\n      eq\n        /* \"#utility.yul\":470:533   */\n      tag_336\n      jumpi\n        /* \"#utility.yul\":529:530   */\n      0x00\n        /* \"#utility.yul\":526:527   */\n      0x00\n        /* \"#utility.yul\":519:531   */\n      revert\n        /* \"#utility.yul\":470:533   */\n    tag_336:\n        /* \"#utility.yul\":417:539   */\n      pop\n      jump\t// out\n        /* \"#utility.yul\":545:684   */\n    tag_244:\n        /* \"#utility.yul\":591:596   */\n      0x00\n        /* \"#utility.yul\":629:635   */\n      dup2\n        /* \"#utility.yul\":616:636   */\n      calldataload\n        /* \"#utility.yul\":607:636   */\n      swap1\n      pop\n        /* \"#utility.yul\":645:678   */\n      tag_338\n        /* \"#utility.yul\":672:677   */\n      dup2\n        /* \"#utility.yul\":645:678   */\n      tag_243\n      jump\t// in\n    tag_338:\n        /* \"#utility.yul\":545:684   */\n      swap3\n      swap2\n      pop\n      pop\n      jump\t// out\n        /* \"#utility.yul\":690:1019   */\n    tag_16:\n        /* \"#utility.yul\":749:755   */\n      0x00\n        /* \"#utility.yul\":798:800   */\n      0x20\n        /* \"#utility.yul\":786:795   */\n      dup3\n        /* \"#utility.yul\":777:784   */\n      dup5\n        /* \"#utility.yul\":773:796   */\n      sub\n        /* \"#utility.yul\":769:801   */\n      slt\n        /* \"#utility.yul\":766:885   */\n      iszero\n      tag_340\n      jumpi\n        /* \"#utility.yul\":804:883   */\n      tag_341\n      tag_240\n      jump\t// in\n    tag_341:\n        /* \"#utility.yul\":766:885   */\n    tag_340:\n        /* \"#utility.yul\":924:925   */\n      0x00\n        /* \"#utility.yul\":949:1002   */\n      tag_342\n        /* \"#utility.yul\":994:1001   */\n      dup5\n        /* \"#utility.yul\":985:991   */\n      dup3\n        /* \"#utility.yul\":974:983   */\n      dup6\n        /* \"#utility.yul\":970:992   */\n      add\n        /* \"#utility.yul\":949:1002   */\n      tag_244\n      jump\t// in\n    tag_342:\n        /* \"#utility.yul\":939:1002   */\n      swap2\n      pop\n        /* \"#utility.yul\":895:1012   */\n      pop\n        /* \"#utility.yul\":690:1019   */\n      swap3\n      swap2\n      pop\n      pop\n      jump\t// out\n        /* \"#utility.yul\":1025:1149   */\n    tag_245:\n        /* \"#utility.yul\":1102:1108   */\n      0x00\n        /* \"#utility.yul\":1136:1141   */\n      dup2\n        /* \"#utility.yul\":1130:1142   */\n      mload\n        /* \"#utility.yul\":1120:1142   */\n      swap1\n      pop\n        /* \"#utility.yul\":1025:1149   */\n      swap2\n      swap1\n      pop\n      jump\t// out\n        /* \"#utility.yul\":1155:1349   */\n    tag_246:\n        /* \"#utility.yul\":1264:1275   */\n      0x00\n        /* \"#utility.yul\":1298:1304   */\n      dup3\n        /* \"#utility.yul\":1293:1296   */\n      dup3\n        /* \"#utility.yul\":1286:1305   */\n      mstore\n        /* \"#utility.yul\":1338:1342   */\n      0x20\n        /* \"#utility.yul\":1333:1336   */\n      dup3\n        /* \"#utility.yul\":1329:1343   */\n      add\n        /* \"#utility.yul\":1314:1343   */\n      swap1\n      pop\n        /* \"#utility.yul\":1155:1349   */\n      swap3\n      swap2\n      pop\n      pop\n      jump\t// out\n        /* \"#utility.yul\":1355:1497   */\n    tag_247:\n        /* \"#utility.yul\":1432:1436   */\n      0x00\n        /* \"#utility.yul\":1455:1458   */\n      dup2\n        /* \"#utility.yul\":1447:1458   */\n      swap1\n      pop\n        /* \"#utility.yul\":1485:1489   */\n      0x20\n        /* \"#utility.yul\":1480:1483   */\n      dup3\n        /* \"#utility.yul\":1476:1490   */\n      add\n        /* \"#utility.yul\":1468:1490   */\n      swap1\n      pop\n        /* \"#utility.yul\":1355:1497   */\n      swap2\n      swap1\n      pop\n      jump\t// out\n        /* \"#utility.yul\":1503:1602   */\n    tag_248:\n        /* \"#utility.yul\":1555:1561   */\n      0x00\n        /* \"#utility.yul\":1589:1594   */\n      dup2\n        /* \"#utility.yul\":1583:1595   */\n      mload\n        /* \"#utility.yul\":1573:1595   */\n      swap1\n      pop\n        /* \"#utility.yul\":1503:1602   */\n      swap2\n      swap1\n      pop\n      jump\t// out\n        /* \"#utility.yul\":1608:1767   */\n    tag_249:\n        /* \"#utility.yul\":1682:1693   */\n      0x00\n        /* \"#utility.yul\":1716:1722   */\n      dup3\n        /* \"#utility.yul\":1711:1714   */\n      dup3\n        /* \"#utility.yul\":1704:1723   */\n      mstore\n        /* \"#utility.yul\":1756:1760   */\n      0x20\n        /* \"#utility.yul\":1751:1754   */\n      dup3\n        /* \"#utility.yul\":1747:1761   */\n      add\n        /* \"#utility.yul\":1732:1761   */\n      swap1\n      pop\n        /* \"#utility.yul\":1608:1767   */\n      swap3\n      swap2\n      pop\n      pop\n      jump\t// out\n        /* \"#utility.yul\":1773:1912   */\n    tag_250:\n        /* \"#utility.yul\":1862:1868   */\n      dup3\n        /* \"#utility.yul\":1857:1860   */\n      dup2\n        /* \"#utility.yul\":1852:1855   */\n      dup4\n        /* \"#utility.yul\":1846:1869   */\n      mcopy\n        /* \"#utility.yul\":1903:1904   */\n      0x00\n        /* \"#utility.yul\":1894:1900   */\n      dup4\n        /* \"#utility.yul\":1889:1892   */\n      dup4\n        /* \"#utility.yul\":1885:1901   */\n      add\n        /* \"#utility.yul\":1878:1905   */\n      mstore\n        /* \"#utility.yul\":1773:1912   */\n      pop\n      pop\n      pop\n      jump\t// out\n        /* \"#utility.yul\":1918:2020   */\n    tag_251:\n        /* \"#utility.yul\":1959:1965   */\n      0x00\n        /* \"#utility.yul\":2010:2012   */\n      0x1f\n        /* \"#utility.yul\":2006:2013   */\n      not\n        /* \"#utility.yul\":2001:2003   */\n      0x1f\n        /* \"#utility.yul\":1994:1999   */\n      dup4\n        /* \"#utility.yul\":1990:2004   */\n      add\n        /* \"#utility.yul\":1986:2014   */\n      and\n        /* \"#utility.yul\":1976:2014   */\n      swap1\n      pop\n        /* \"#utility.yul\":1918:2020   */\n      swap2\n      swap1\n      pop\n      jump\t// out\n        /* \"#utility.yul\":2026:2383   */\n    tag_252:\n        /* \"#utility.yul\":2104:2107   */\n      0x00\n        /* \"#utility.yul\":2132:2171   */\n      tag_351\n        /* \"#utility.yul\":2165:2170   */\n      dup3\n        /* \"#utility.yul\":2132:2171   */\n      tag_248\n      jump\t// in\n    tag_351:\n        /* \"#utility.yul\":2187:2248   */\n      tag_352\n        /* \"#utility.yul\":2241:2247   */\n      dup2\n        /* \"#utility.yul\":2236:2239   */\n      dup6\n        /* \"#utility.yul\":2187:2248   */\n      tag_249\n      jump\t// in\n    tag_352:\n        /* \"#utility.yul\":2180:2248   */\n      swap4\n      pop\n        /* \"#utility.yul\":2257:2322   */\n      tag_353\n        /* \"#utility.yul\":2315:2321   */\n      dup2\n        /* \"#utility.yul\":2310:2313   */\n      dup6\n        /* \"#utility.yul\":2303:2307   */\n      0x20\n        /* \"#utility.yul\":2296:2301   */\n      dup7\n        /* \"#utility.yul\":2292:2308   */\n      add\n        /* \"#utility.yul\":2257:2322   */\n      tag_250\n      jump\t// in\n    tag_353:\n        /* \"#utility.yul\":2347:2376   */\n      tag_354\n        /* \"#utility.yul\":2369:2375   */\n      dup2\n        /* \"#utility.yul\":2347:2376   */\n      tag_251\n      jump\t// in\n    tag_354:\n        /* \"#utility.yul\":2342:2345   */\n      dup5\n        /* \"#utility.yul\":2338:2377   */\n      add\n        /* \"#utility.yul\":2331:2377   */\n      swap2\n      pop\n        /* \"#utility.yul\":2108:2383   */\n      pop\n        /* \"#utility.yul\":2026:2383   */\n      swap3\n      swap2\n      pop\n      pop\n      jump\t// out\n        /* \"#utility.yul\":2389:2585   */\n    tag_253:\n        /* \"#utility.yul\":2478:2488   */\n      0x00\n        /* \"#utility.yul\":2513:2579   */\n      tag_356\n        /* \"#utility.yul\":2575:2578   */\n      dup4\n        /* \"#utility.yul\":2567:2573   */\n      dup4\n        /* \"#utility.yul\":2513:2579   */\n      tag_252\n      jump\t// in\n    tag_356:\n        /* \"#utility.yul\":2499:2579   */\n      swap1\n      pop\n        /* \"#utility.yul\":2389:2585   */\n      swap3\n      swap2\n      pop\n      pop\n      jump\t// out\n        /* \"#utility.yul\":2591:2714   */\n    tag_254:\n        /* \"#utility.yul\":2671:2675   */\n      0x00\n        /* \"#utility.yul\":2703:2707   */\n      0x20\n        /* \"#utility.yul\":2698:2701   */\n      dup3\n        /* \"#utility.yul\":2694:2708   */\n      add\n        /* \"#utility.yul\":2686:2708   */\n      swap1\n      pop\n        /* \"#utility.yul\":2591:2714   */\n      swap2\n      swap1\n      pop\n      jump\t// out\n        /* \"#utility.yul\":2748:3739   */\n    tag_255:\n        /* \"#utility.yul\":2887:2890   */\n      0x00\n        /* \"#utility.yul\":2916:2980   */\n      tag_359\n        /* \"#utility.yul\":2974:2979   */\n      dup3\n        /* \"#utility.yul\":2916:2980   */\n      tag_245\n      jump\t// in\n    tag_359:\n        /* \"#utility.yul\":2996:3092   */\n      tag_360\n        /* \"#utility.yul\":3085:3091   */\n      dup2\n        /* \"#utility.yul\":3080:3083   */\n      dup6\n        /* \"#utility.yul\":2996:3092   */\n      tag_246\n      jump\t// in\n    tag_360:\n        /* \"#utility.yul\":2989:3092   */\n      swap4\n      pop\n        /* \"#utility.yul\":3118:3121   */\n      dup4\n        /* \"#utility.yul\":3163:3167   */\n      0x20\n        /* \"#utility.yul\":3155:3161   */\n      dup3\n        /* \"#utility.yul\":3151:3168   */\n      mul\n        /* \"#utility.yul\":3146:3149   */\n      dup6\n        /* \"#utility.yul\":3142:3169   */\n      add\n        /* \"#utility.yul\":3193:3259   */\n      tag_361\n        /* \"#utility.yul\":3253:3258   */\n      dup6\n        /* \"#utility.yul\":3193:3259   */\n      tag_247\n      jump\t// in\n    tag_361:\n        /* \"#utility.yul\":3282:3289   */\n      dup1\n        /* \"#utility.yul\":3313:3314   */\n      0x00\n        /* \"#utility.yul\":3298:3694   */\n    tag_362:\n        /* \"#utility.yul\":3323:3329   */\n      dup6\n        /* \"#utility.yul\":3320:3321   */\n      dup2\n        /* \"#utility.yul\":3317:3330   */\n      lt\n        /* \"#utility.yul\":3298:3694   */\n      iszero\n      tag_364\n      jumpi\n        /* \"#utility.yul\":3394:3403   */\n      dup5\n        /* \"#utility.yul\":3388:3392   */\n      dup5\n        /* \"#utility.yul\":3384:3404   */\n      sub\n        /* \"#utility.yul\":3379:3382   */\n      dup10\n        /* \"#utility.yul\":3372:3405   */\n      mstore\n        /* \"#utility.yul\":3445:3451   */\n      dup2\n        /* \"#utility.yul\":3439:3452   */\n      mload\n        /* \"#utility.yul\":3473:3557   */\n      tag_365\n        /* \"#utility.yul\":3552:3556   */\n      dup6\n        /* \"#utility.yul\":3537:3550   */\n      dup3\n        /* \"#utility.yul\":3473:3557   */\n      tag_253\n      jump\t// in\n    tag_365:\n        /* \"#utility.yul\":3465:3557   */\n      swap5\n      pop\n        /* \"#utility.yul\":3580:3650   */\n      tag_366\n        /* \"#utility.yul\":3643:3649   */\n      dup4\n        /* \"#utility.yul\":3580:3650   */\n      tag_254\n      jump\t// in\n    tag_366:\n        /* \"#utility.yul\":3570:3650   */\n      swap3\n      pop\n        /* \"#utility.yul\":3679:3683   */\n      0x20\n        /* \"#utility.yul\":3674:3677   */\n      dup11\n        /* \"#utility.yul\":3670:3684   */\n      add\n        /* \"#utility.yul\":3663:3684   */\n      swap10\n      pop\n        /* \"#utility.yul\":3358:3694   */\n      pop\n        /* \"#utility.yul\":3345:3346   */\n      0x01\n        /* \"#utility.yul\":3342:3343   */\n      dup2\n        /* \"#utility.yul\":3338:3347   */\n      add\n        /* \"#utility.yul\":3333:3347   */\n      swap1\n      pop\n        /* \"#utility.yul\":3298:3694   */\n      jump(tag_362)\n    tag_364:\n        /* \"#utility.yul\":3302:3316   */\n      pop\n        /* \"#utility.yul\":3710:3714   */\n      dup3\n        /* \"#utility.yul\":3703:3714   */\n      swap8\n      pop\n        /* \"#utility.yul\":3730:3733   */\n      dup8\n        /* \"#utility.yul\":3723:3733   */\n      swap6\n      pop\n        /* \"#utility.yul\":2892:3739   */\n      pop\n      pop\n      pop\n      pop\n      pop\n        /* \"#utility.yul\":2748:3739   */\n      swap3\n      swap2\n      pop\n      pop\n      jump\t// out\n        /* \"#utility.yul\":3745:4158   */\n    tag_19:\n        /* \"#utility.yul\":3908:3912   */\n      0x00\n        /* \"#utility.yul\":3946:3948   */\n      0x20\n        /* \"#utility.yul\":3935:3944   */\n      dup3\n        /* \"#utility.yul\":3931:3949   */\n      add\n        /* \"#utility.yul\":3923:3949   */\n      swap1\n      pop\n        /* \"#utility.yul\":3995:4004   */\n      dup2\n        /* \"#utility.yul\":3989:3993   */\n      dup2\n        /* \"#utility.yul\":3985:4005   */\n      sub\n        /* \"#utility.yul\":3981:3982   */\n      0x00\n        /* \"#utility.yul\":3970:3979   */\n      dup4\n        /* \"#utility.yul\":3966:3983   */\n      add\n        /* \"#utility.yul\":3959:4006   */\n      mstore\n        /* \"#utility.yul\":4023:4151   */\n      tag_368\n        /* \"#utility.yul\":4146:4150   */\n      dup2\n        /* \"#utility.yul\":4137:4143   */\n      dup5\n        /* \"#utility.yul\":4023:4151   */\n      tag_255\n      jump\t// in\n    tag_368:\n        /* \"#utility.yul\":4015:4151   */\n      swap1\n      pop\n        /* \"#utility.yul\":3745:4158   */\n      swap3\n      swap2\n      pop\n      pop\n      jump\t// out\n        /* \"#utility.yul\":4164:4281   */\n    tag_256:\n        /* \"#utility.yul\":4273:4274   */\n      0x00\n        /* \"#utility.yul\":4270:4271   */\n      0x00\n        /* \"#utility.yul\":4263:4275   */\n      revert\n        /* \"#utility.yul\":4287:4404   */\n    tag_257:\n        /* \"#utility.yul\":4396:4397   */\n      0x00\n        /* \"#utility.yul\":4393:4394   */\n      0x00\n        /* \"#utility.yul\":4386:4398   */\n      revert\n        /* \"#utility.yul\":4410:4590   */\n    tag_197:\n        /* \"#utility.yul\":4458:4535   */\n      0x4e487b7100000000000000000000000000000000000000000000000000000000\n        /* \"#utility.yul\":4455:4456   */\n      0x00\n        /* \"#utility.yul\":4448:4536   */\n      mstore\n        /* \"#utility.yul\":4555:4559   */\n      0x41\n        /* \"#utility.yul\":4552:4553   */\n      0x04\n        /* \"#utility.yul\":4545:4560   */\n      mstore\n        /* \"#utility.yul\":4579:4583   */\n      0x24\n        /* \"#utility.yul\":4576:4577   */\n      0x00\n        /* \"#utility.yul\":4569:4584   */\n      revert\n        /* \"#utility.yul\":4596:4877   */\n    tag_258:\n        /* \"#utility.yul\":4679:4706   */\n      tag_373\n        /* \"#utility.yul\":4701:4705   */\n      dup3\n        /* \"#utility.yul\":4679:4706   */\n      tag_251\n      jump\t// in\n    tag_373:\n        /* \"#utility.yul\":4671:4677   */\n      dup2\n        /* \"#utility.yul\":4667:4707   */\n      add\n        /* \"#utility.yul\":4809:4815   */\n      dup2\n        /* \"#utility.yul\":4797:4807   */\n      dup2\n        /* \"#utility.yul\":4794:4816   */\n      lt\n        /* \"#utility.yul\":4773:4791   */\n      0xffffffffffffffff\n        /* \"#utility.yul\":4761:4771   */\n      dup3\n        /* \"#utility.yul\":4758:4792   */\n      gt\n        /* \"#utility.yul\":4755:4817   */\n      or\n        /* \"#utility.yul\":4752:4840   */\n      iszero\n      tag_374\n      jumpi\n        /* \"#utility.yul\":4820:4838   */\n      tag_375\n      tag_197\n      jump\t// in\n    tag_375:\n        /* \"#utility.yul\":4752:4840   */\n    tag_374:\n        /* \"#utility.yul\":4860:4870   */\n      dup1\n        /* \"#utility.yul\":4856:4858   */\n      0x40\n        /* \"#utility.yul\":4849:4871   */\n      mstore\n        /* \"#utility.yul\":4639:4877   */\n      pop\n        /* \"#utility.yul\":4596:4877   */\n      pop\n      pop\n      jump\t// out\n        /* \"#utility.yul\":4883:5012   */\n    tag_259:\n        /* \"#utility.yul\":4917:4923   */\n      0x00\n        /* \"#utility.yul\":4944:4964   */\n      tag_377\n      tag_239\n      jump\t// in\n    tag_377:\n        /* \"#utility.yul\":4934:4964   */\n      swap1\n      pop\n        /* \"#utility.yul\":4973:5006   */\n      tag_378\n        /* \"#utility.yul\":5001:5005   */\n      dup3\n        /* \"#utility.yul\":4993:4999   */\n      dup3\n        /* \"#utility.yul\":4973:5006   */\n      tag_258\n      jump\t// in\n    tag_378:\n        /* \"#utility.yul\":4883:5012   */\n      swap2\n      swap1\n      pop\n      jump\t// out\n        /* \"#utility.yul\":5018:5326   */\n    tag_260:\n        /* \"#utility.yul\":5080:5084   */\n      0x00\n        /* \"#utility.yul\":5170:5188   */\n      0xffffffffffffffff\n        /* \"#utility.yul\":5162:5168   */\n      dup3\n        /* \"#utility.yul\":5159:5189   */\n      gt\n        /* \"#utility.yul\":5156:5212   */\n      iszero\n      tag_380\n      jumpi\n        /* \"#utility.yul\":5192:5210   */\n      tag_381\n      tag_197\n      jump\t// in\n    tag_381:\n        /* \"#utility.yul\":5156:5212   */\n    tag_380:\n        /* \"#utility.yul\":5230:5259   */\n      tag_382\n        /* \"#utility.yul\":5252:5258   */\n      dup3\n        /* \"#utility.yul\":5230:5259   */\n      tag_251\n      jump\t// in\n    tag_382:\n        /* \"#utility.yul\":5222:5259   */\n      swap1\n      pop\n        /* \"#utility.yul\":5314:5318   */\n      0x20\n        /* \"#utility.yul\":5308:5312   */\n      dup2\n        /* \"#utility.yul\":5304:5319   */\n      add\n        /* \"#utility.yul\":5296:5319   */\n      swap1\n      pop\n        /* \"#utility.yul\":5018:5326   */\n      swap2\n      swap1\n      pop\n      jump\t// out\n        /* \"#utility.yul\":5332:5480   */\n    tag_261:\n        /* \"#utility.yul\":5430:5436   */\n      dup3\n        /* \"#utility.yul\":5425:5428   */\n      dup2\n        /* \"#utility.yul\":5420:5423   */\n      dup4\n        /* \"#utility.yul\":5407:5437   */\n      calldatacopy\n        /* \"#utility.yul\":5471:5472   */\n      0x00\n        /* \"#utility.yul\":5462:5468   */\n      dup4\n        /* \"#utility.yul\":5457:5460   */\n      dup4\n        /* \"#utility.yul\":5453:5469   */\n      add\n        /* \"#utility.yul\":5446:5473   */\n      mstore\n        /* \"#utility.yul\":5332:5480   */\n      pop\n      pop\n      pop\n      jump\t// out\n        /* \"#utility.yul\":5486:5911   */\n    tag_262:\n        /* \"#utility.yul\":5564:5569   */\n      0x00\n        /* \"#utility.yul\":5589:5655   */\n      tag_385\n        /* \"#utility.yul\":5605:5654   */\n      tag_386\n        /* \"#utility.yul\":5647:5653   */\n      dup5\n        /* \"#utility.yul\":5605:5654   */\n      tag_260\n      jump\t// in\n    tag_386:\n        /* \"#utility.yul\":5589:5655   */\n      tag_259\n      jump\t// in\n    tag_385:\n        /* \"#utility.yul\":5580:5655   */\n      swap1\n      pop\n        /* \"#utility.yul\":5678:5684   */\n      dup3\n        /* \"#utility.yul\":5671:5676   */\n      dup2\n        /* \"#utility.yul\":5664:5685   */\n      mstore\n        /* \"#utility.yul\":5716:5720   */\n      0x20\n        /* \"#utility.yul\":5709:5714   */\n      dup2\n        /* \"#utility.yul\":5705:5721   */\n      add\n        /* \"#utility.yul\":5754:5757   */\n      dup5\n        /* \"#utility.yul\":5745:5751   */\n      dup5\n        /* \"#utility.yul\":5740:5743   */\n      dup5\n        /* \"#utility.yul\":5736:5752   */\n      add\n        /* \"#utility.yul\":5733:5758   */\n      gt\n        /* \"#utility.yul\":5730:5842   */\n      iszero\n      tag_387\n      jumpi\n        /* \"#utility.yul\":5761:5840   */\n      tag_388\n      tag_257\n      jump\t// in\n    tag_388:\n        /* \"#utility.yul\":5730:5842   */\n    tag_387:\n        /* \"#utility.yul\":5851:5905   */\n      tag_389\n        /* \"#utility.yul\":5898:5904   */\n      dup5\n        /* \"#utility.yul\":5893:5896   */\n      dup3\n        /* \"#utility.yul\":5888:5891   */\n      dup6\n        /* \"#utility.yul\":5851:5905   */\n      tag_261\n      jump\t// in\n    tag_389:\n        /* \"#utility.yul\":5570:5911   */\n      pop\n        /* \"#utility.yul\":5486:5911   */\n      swap4\n      swap3\n      pop\n      pop\n      pop\n      jump\t// out\n        /* \"#utility.yul\":5931:6271   */\n    tag_263:\n        /* \"#utility.yul\":5987:5992   */\n      0x00\n        /* \"#utility.yul\":6036:6039   */\n      dup3\n        /* \"#utility.yul\":6029:6033   */\n      0x1f\n        /* \"#utility.yul\":6021:6027   */\n      dup4\n        /* \"#utility.yul\":6017:6034   */\n      add\n        /* \"#utility.yul\":6013:6040   */\n      slt\n        /* \"#utility.yul\":6003:6125   */\n      tag_391\n      jumpi\n        /* \"#utility.yul\":6044:6123   */\n      tag_392\n      tag_256\n      jump\t// in\n    tag_392:\n        /* \"#utility.yul\":6003:6125   */\n    tag_391:\n        /* \"#utility.yul\":6161:6167   */\n      dup2\n        /* \"#utility.yul\":6148:6168   */\n      calldataload\n        /* \"#utility.yul\":6186:6265   */\n      tag_393\n        /* \"#utility.yul\":6261:6264   */\n      dup5\n        /* \"#utility.yul\":6253:6259   */\n      dup3\n        /* \"#utility.yul\":6246:6250   */\n      0x20\n        /* \"#utility.yul\":6238:6244   */\n      dup7\n        /* \"#utility.yul\":6234:6251   */\n      add\n        /* \"#utility.yul\":6186:6265   */\n      tag_262\n      jump\t// in\n    tag_393:\n        /* \"#utility.yul\":6177:6265   */\n      swap2\n      pop\n        /* \"#utility.yul\":5993:6271   */\n      pop\n        /* \"#utility.yul\":5931:6271   */\n      swap3\n      swap2\n      pop\n      pop\n      jump\t// out\n        /* \"#utility.yul\":6277:7256   */\n    tag_23:\n        /* \"#utility.yul\":6374:6380   */\n      0x00\n        /* \"#utility.yul\":6382:6388   */\n      0x00\n        /* \"#utility.yul\":6390:6396   */\n      0x00\n        /* \"#utility.yul\":6439:6441   */\n      0x60\n        /* \"#utility.yul\":6427:6436   */\n      dup5\n        /* \"#utility.yul\":6418:6425   */\n      dup7\n        /* \"#utility.yul\":6414:6437   */\n      sub\n        /* \"#utility.yul\":6410:6442   */\n      slt\n        /* \"#utility.yul\":6407:6526   */\n      iszero\n      tag_395\n      jumpi\n        /* \"#utility.yul\":6445:6524   */\n      tag_396\n      tag_240\n      jump\t// in\n    tag_396:\n        /* \"#utility.yul\":6407:6526   */\n    tag_395:\n        /* \"#utility.yul\":6593:6594   */\n      0x00\n        /* \"#utility.yul\":6582:6591   */\n      dup5\n        /* \"#utility.yul\":6578:6595   */\n      add\n        /* \"#utility.yul\":6565:6596   */\n      calldataload\n        /* \"#utility.yul\":6623:6641   */\n      0xffffffffffffffff\n        /* \"#utility.yul\":6615:6621   */\n      dup2\n        /* \"#utility.yul\":6612:6642   */\n      gt\n        /* \"#utility.yul\":6609:6726   */\n      iszero\n      tag_397\n      jumpi\n        /* \"#utility.yul\":6645:6724   */\n      tag_398\n      tag_241\n      jump\t// in\n    tag_398:\n        /* \"#utility.yul\":6609:6726   */\n    tag_397:\n        /* \"#utility.yul\":6750:6813   */\n      tag_399\n        /* \"#utility.yul\":6805:6812   */\n      dup7\n        /* \"#utility.yul\":6796:6802   */\n      dup3\n        /* \"#utility.yul\":6785:6794   */\n      dup8\n        /* \"#utility.yul\":6781:6803   */\n      add\n        /* \"#utility.yul\":6750:6813   */\n      tag_263\n      jump\t// in\n    tag_399:\n        /* \"#utility.yul\":6740:6813   */\n      swap4\n      pop\n        /* \"#utility.yul\":6536:6823   */\n      pop\n        /* \"#utility.yul\":6862:6864   */\n      0x20\n        /* \"#utility.yul\":6888:6941   */\n      tag_400\n        /* \"#utility.yul\":6933:6940   */\n      dup7\n        /* \"#utility.yul\":6924:6930   */\n      dup3\n        /* \"#utility.yul\":6913:6922   */\n      dup8\n        /* \"#utility.yul\":6909:6931   */\n      add\n        /* \"#utility.yul\":6888:6941   */\n      tag_244\n      jump\t// in\n    tag_400:\n        /* \"#utility.yul\":6878:6941   */\n      swap3\n      pop\n        /* \"#utility.yul\":6833:6951   */\n      pop\n        /* \"#utility.yul\":7018:7020   */\n      0x40\n        /* \"#utility.yul\":7007:7016   */\n      dup5\n        /* \"#utility.yul\":7003:7021   */\n      add\n        /* \"#utility.yul\":6990:7022   */\n      calldataload\n        /* \"#utility.yul\":7049:7067   */\n      0xffffffffffffffff\n        /* \"#utility.yul\":7041:7047   */\n      dup2\n        /* \"#utility.yul\":7038:7068   */\n      gt\n        /* \"#utility.yul\":7035:7152   */\n      iszero\n      tag_401\n      jumpi\n        /* \"#utility.yul\":7071:7150   */\n      tag_402\n      tag_241\n      jump\t// in\n    tag_402:\n        /* \"#utility.yul\":7035:7152   */\n    tag_401:\n        /* \"#utility.yul\":7176:7239   */\n      tag_403\n        /* \"#utility.yul\":7231:7238   */\n      dup7\n        /* \"#utility.yul\":7222:7228   */\n      dup3\n        /* \"#utility.yul\":7211:7220   */\n      dup8\n        /* \"#utility.yul\":7207:7229   */\n      add\n        /* \"#utility.yul\":7176:7239   */\n      tag_263\n      jump\t// in\n    tag_403:\n        /* \"#utility.yul\":7166:7239   */\n      swap2\n      pop\n        /* \"#utility.yul\":6961:7249   */\n      pop\n        /* \"#utility.yul\":6277:7256   */\n      swap3\n      pop\n      swap3\n      pop\n      swap3\n      jump\t// out\n        /* \"#utility.yul\":7262:7388   */\n    tag_264:\n        /* \"#utility.yul\":7299:7306   */\n      0x00\n        /* \"#utility.yul\":7339:7381   */\n      0xffffffffffffffffffffffffffffffffffffffff\n        /* \"#utility.yul\":7332:7337   */\n      dup3\n        /* \"#utility.yul\":7328:7382   */\n      and\n        /* \"#utility.yul\":7317:7382   */\n      swap1\n      pop\n        /* \"#utility.yul\":7262:7388   */\n      swap2\n      swap1\n      pop\n      jump\t// out\n        /* \"#utility.yul\":7394:7490   */\n    tag_265:\n        /* \"#utility.yul\":7431:7438   */\n      0x00\n        /* \"#utility.yul\":7460:7484   */\n      tag_406\n        /* \"#utility.yul\":7478:7483   */\n      dup3\n        /* \"#utility.yul\":7460:7484   */\n      tag_264\n      jump\t// in\n    tag_406:\n        /* \"#utility.yul\":7449:7484   */\n      swap1\n      pop\n        /* \"#utility.yul\":7394:7490   */\n      swap2\n      swap1\n      pop\n      jump\t// out\n        /* \"#utility.yul\":7496:7618   */\n    tag_266:\n        /* \"#utility.yul\":7569:7593   */\n      tag_408\n        /* \"#utility.yul\":7587:7592   */\n      dup2\n        /* \"#utility.yul\":7569:7593   */\n      tag_265\n      jump\t// in\n    tag_408:\n        /* \"#utility.yul\":7562:7567   */\n      dup2\n        /* \"#utility.yul\":7559:7594   */\n      eq\n        /* \"#utility.yul\":7549:7612   */\n      tag_409\n      jumpi\n        /* \"#utility.yul\":7608:7609   */\n      0x00\n        /* \"#utility.yul\":7605:7606   */\n      0x00\n        /* \"#utility.yul\":7598:7610   */\n      revert\n        /* \"#utility.yul\":7549:7612   */\n    tag_409:\n        /* \"#utility.yul\":7496:7618   */\n      pop\n      jump\t// out\n        /* \"#utility.yul\":7624:7763   */\n    tag_267:\n        /* \"#utility.yul\":7670:7675   */\n      0x00\n        /* \"#utility.yul\":7708:7714   */\n      dup2\n        /* \"#utility.yul\":7695:7715   */\n      calldataload\n        /* \"#utility.yul\":7686:7715   */\n      swap1\n      pop\n        /* \"#utility.yul\":7724:7757   */\n      tag_411\n        /* \"#utility.yul\":7751:7756   */\n      dup2\n        /* \"#utility.yul\":7724:7757   */\n      tag_266\n      jump\t// in\n    tag_411:\n        /* \"#utility.yul\":7624:7763   */\n      swap3\n      swap2\n      pop\n      pop\n      jump\t// out\n        /* \"#utility.yul\":7769:8568   */\n    tag_28:\n        /* \"#utility.yul\":7856:7862   */\n      0x00\n        /* \"#utility.yul\":7864:7870   */\n      0x00\n        /* \"#utility.yul\":7872:7878   */\n      0x00\n        /* \"#utility.yul\":7921:7923   */\n      0x60\n        /* \"#utility.yul\":7909:7918   */\n      dup5\n        /* \"#utility.yul\":7900:7907   */\n      dup7\n        /* \"#utility.yul\":7896:7919   */\n      sub\n        /* \"#utility.yul\":7892:7924   */\n      slt\n        /* \"#utility.yul\":7889:8008   */\n      iszero\n      tag_413\n      jumpi\n        /* \"#utility.yul\":7927:8006   */\n      tag_414\n      tag_240\n      jump\t// in\n    tag_414:\n        /* \"#utility.yul\":7889:8008   */\n    tag_413:\n        /* \"#utility.yul\":8047:8048   */\n      0x00\n        /* \"#utility.yul\":8072:8125   */\n      tag_415\n        /* \"#utility.yul\":8117:8124   */\n      dup7\n        /* \"#utility.yul\":8108:8114   */\n      dup3\n        /* \"#utility.yul\":8097:8106   */\n      dup8\n        /* \"#utility.yul\":8093:8115   */\n      add\n        /* \"#utility.yul\":8072:8125   */\n      tag_244\n      jump\t// in\n    tag_415:\n        /* \"#utility.yul\":8062:8125   */\n      swap4\n      pop\n        /* \"#utility.yul\":8018:8135   */\n      pop\n        /* \"#utility.yul\":8174:8176   */\n      0x20\n        /* \"#utility.yul\":8200:8253   */\n      tag_416\n        /* \"#utility.yul\":8245:8252   */\n      dup7\n        /* \"#utility.yul\":8236:8242   */\n      dup3\n        /* \"#utility.yul\":8225:8234   */\n      dup8\n        /* \"#utility.yul\":8221:8243   */\n      add\n        /* \"#utility.yul\":8200:8253   */\n      tag_267\n      jump\t// in\n    tag_416:\n        /* \"#utility.yul\":8190:8253   */\n      swap3\n      pop\n        /* \"#utility.yul\":8145:8263   */\n      pop\n        /* \"#utility.yul\":8330:8332   */\n      0x40\n        /* \"#utility.yul\":8319:8328   */\n      dup5\n        /* \"#utility.yul\":8315:8333   */\n      add\n        /* \"#utility.yul\":8302:8334   */\n      calldataload\n        /* \"#utility.yul\":8361:8379   */\n      0xffffffffffffffff\n        /* \"#utility.yul\":8353:8359   */\n      dup2\n        /* \"#utility.yul\":8350:8380   */\n      gt\n        /* \"#utility.yul\":8347:8464   */\n      iszero\n      tag_417\n      jumpi\n        /* \"#utility.yul\":8383:8462   */\n      tag_418\n      tag_241\n      jump\t// in\n    tag_418:\n        /* \"#utility.yul\":8347:8464   */\n    tag_417:\n        /* \"#utility.yul\":8488:8551   */\n      tag_419\n        /* \"#utility.yul\":8543:8550   */\n      dup7\n        /* \"#utility.yul\":8534:8540   */\n      dup3\n        /* \"#utility.yul\":8523:8532   */\n      dup8\n        /* \"#utility.yul\":8519:8541   */\n      add\n        /* \"#utility.yul\":8488:8551   */\n      tag_263\n      jump\t// in\n    tag_419:\n        /* \"#utility.yul\":8478:8551   */\n      swap2\n      pop\n        /* \"#utility.yul\":8273:8561   */\n      pop\n        /* \"#utility.yul\":7769:8568   */\n      swap3\n      pop\n      swap3\n      pop\n      swap3\n      jump\t// out\n        /* \"#utility.yul\":8574:8692   */\n    tag_268:\n        /* \"#utility.yul\":8661:8685   */\n      tag_421\n        /* \"#utility.yul\":8679:8684   */\n      dup2\n        /* \"#utility.yul\":8661:8685   */\n      tag_242\n      jump\t// in\n    tag_421:\n        /* \"#utility.yul\":8656:8659   */\n      dup3\n        /* \"#utility.yul\":8649:8686   */\n      mstore\n        /* \"#utility.yul\":8574:8692   */\n      pop\n      pop\n      jump\t// out\n        /* \"#utility.yul\":8698:8920   */\n    tag_34:\n        /* \"#utility.yul\":8791:8795   */\n      0x00\n        /* \"#utility.yul\":8829:8831   */\n      0x20\n        /* \"#utility.yul\":8818:8827   */\n      dup3\n        /* \"#utility.yul\":8814:8832   */\n      add\n        /* \"#utility.yul\":8806:8832   */\n      swap1\n      pop\n        /* \"#utility.yul\":8842:8913   */\n      tag_423\n        /* \"#utility.yul\":8910:8911   */\n      0x00\n        /* \"#utility.yul\":8899:8908   */\n      dup4\n        /* \"#utility.yul\":8895:8912   */\n      add\n        /* \"#utility.yul\":8886:8892   */\n      dup5\n        /* \"#utility.yul\":8842:8913   */\n      tag_268\n      jump\t// in\n    tag_423:\n        /* \"#utility.yul\":8698:8920   */\n      swap3\n      swap2\n      pop\n      pop\n      jump\t// out\n        /* \"#utility.yul\":8926:9095   */\n    tag_269:\n        /* \"#utility.yul\":9010:9021   */\n      0x00\n        /* \"#utility.yul\":9044:9050   */\n      dup3\n        /* \"#utility.yul\":9039:9042   */\n      dup3\n        /* \"#utility.yul\":9032:9051   */\n      mstore\n        /* \"#utility.yul\":9084:9088   */\n      0x20\n        /* \"#utility.yul\":9079:9082   */\n      dup3\n        /* \"#utility.yul\":9075:9089   */\n      add\n        /* \"#utility.yul\":9060:9089   */\n      swap1\n      pop\n        /* \"#utility.yul\":8926:9095   */\n      swap3\n      swap2\n      pop\n      pop\n      jump\t// out\n        /* \"#utility.yul\":9101:9478   */\n    tag_270:\n        /* \"#utility.yul\":9189:9192   */\n      0x00\n        /* \"#utility.yul\":9217:9256   */\n      tag_426\n        /* \"#utility.yul\":9250:9255   */\n      dup3\n        /* \"#utility.yul\":9217:9256   */\n      tag_248\n      jump\t// in\n    tag_426:\n        /* \"#utility.yul\":9272:9343   */\n      tag_427\n        /* \"#utility.yul\":9336:9342   */\n      dup2\n        /* \"#utility.yul\":9331:9334   */\n      dup6\n        /* \"#utility.yul\":9272:9343   */\n      tag_269\n      jump\t// in\n    tag_427:\n        /* \"#utility.yul\":9265:9343   */\n      swap4\n      pop\n        /* \"#utility.yul\":9352:9417   */\n      tag_428\n        /* \"#utility.yul\":9410:9416   */\n      dup2\n        /* \"#utility.yul\":9405:9408   */\n      dup6\n        /* \"#utility.yul\":9398:9402   */\n      0x20\n        /* \"#utility.yul\":9391:9396   */\n      dup7\n        /* \"#utility.yul\":9387:9403   */\n      add\n        /* \"#utility.yul\":9352:9417   */\n      tag_250\n      jump\t// in\n    tag_428:\n        /* \"#utility.yul\":9442:9471   */\n      tag_429\n        /* \"#utility.yul\":9464:9470   */\n      dup2\n        /* \"#utility.yul\":9442:9471   */\n      tag_251\n      jump\t// in\n    tag_429:\n        /* \"#utility.yul\":9437:9440   */\n      dup5\n        /* \"#utility.yul\":9433:9472   */\n      add\n        /* \"#utility.yul\":9426:9472   */\n      swap2\n      pop\n        /* \"#utility.yul\":9193:9478   */\n      pop\n        /* \"#utility.yul\":9101:9478   */\n      swap3\n      swap2\n      pop\n      pop\n      jump\t// out\n        /* \"#utility.yul\":9484:9588   */\n    tag_271:\n        /* \"#utility.yul\":9529:9536   */\n      0x00\n        /* \"#utility.yul\":9558:9582   */\n      tag_431\n        /* \"#utility.yul\":9576:9581   */\n      dup3\n        /* \"#utility.yul\":9558:9582   */\n      tag_264\n      jump\t// in\n    tag_431:\n        /* \"#utility.yul\":9547:9582   */\n      swap1\n      pop\n        /* \"#utility.yul\":9484:9588   */\n      swap2\n      swap1\n      pop\n      jump\t// out\n        /* \"#utility.yul\":9594:9736   */\n    tag_272:\n        /* \"#utility.yul\":9697:9729   */\n      tag_433\n        /* \"#utility.yul\":9723:9728   */\n      dup2\n        /* \"#utility.yul\":9697:9729   */\n      tag_271\n      jump\t// in\n    tag_433:\n        /* \"#utility.yul\":9692:9695   */\n      dup3\n        /* \"#utility.yul\":9685:9730   */\n      mstore\n        /* \"#utility.yul\":9594:9736   */\n      pop\n      pop\n      jump\t// out\n        /* \"#utility.yul\":9742:9860   */\n    tag_273:\n        /* \"#utility.yul\":9829:9853   */\n      tag_435\n        /* \"#utility.yul\":9847:9852   */\n      dup2\n        /* \"#utility.yul\":9829:9853   */\n      tag_265\n      jump\t// in\n    tag_435:\n        /* \"#utility.yul\":9824:9827   */\n      dup3\n        /* \"#utility.yul\":9817:9854   */\n      mstore\n        /* \"#utility.yul\":9742:9860   */\n      pop\n      pop\n      jump\t// out\n        /* \"#utility.yul\":9866:10046   */\n    tag_88:\n        /* \"#utility.yul\":9914:9991   */\n      0x4e487b7100000000000000000000000000000000000000000000000000000000\n        /* \"#utility.yul\":9911:9912   */\n      0x00\n        /* \"#utility.yul\":9904:9992   */\n      mstore\n        /* \"#utility.yul\":10011:10015   */\n      0x21\n        /* \"#utility.yul\":10008:10009   */\n      0x04\n        /* \"#utility.yul\":10001:10016   */\n      mstore\n        /* \"#utility.yul\":10035:10039   */\n      0x24\n        /* \"#utility.yul\":10032:10033   */\n      0x00\n        /* \"#utility.yul\":10025:10040   */\n      revert\n        /* \"#utility.yul\":10052:10166   */\n    tag_274:\n        /* \"#utility.yul\":10134:10135   */\n      0x04\n        /* \"#utility.yul\":10127:10132   */\n      dup2\n        /* \"#utility.yul\":10124:10136   */\n      lt\n        /* \"#utility.yul\":10114:10160   */\n      tag_438\n      jumpi\n        /* \"#utility.yul\":10140:10158   */\n      tag_439\n      tag_88\n      jump\t// in\n    tag_439:\n        /* \"#utility.yul\":10114:10160   */\n    tag_438:\n        /* \"#utility.yul\":10052:10166   */\n      pop\n      jump\t// out\n        /* \"#utility.yul\":10172:10301   */\n    tag_275:\n        /* \"#utility.yul\":10218:10225   */\n      0x00\n        /* \"#utility.yul\":10247:10252   */\n      dup2\n        /* \"#utility.yul\":10236:10252   */\n      swap1\n      pop\n        /* \"#utility.yul\":10253:10295   */\n      tag_441\n        /* \"#utility.yul\":10289:10294   */\n      dup3\n        /* \"#utility.yul\":10253:10295   */\n      tag_274\n      jump\t// in\n    tag_441:\n        /* \"#utility.yul\":10172:10301   */\n      swap2\n      swap1\n      pop\n      jump\t// out\n        /* \"#utility.yul\":10307:10436   */\n    tag_276:\n        /* \"#utility.yul\":10364:10373   */\n      0x00\n        /* \"#utility.yul\":10397:10430   */\n      tag_443\n        /* \"#utility.yul\":10424:10429   */\n      dup3\n        /* \"#utility.yul\":10397:10430   */\n      tag_275\n      jump\t// in\n    tag_443:\n        /* \"#utility.yul\":10384:10430   */\n      swap1\n      pop\n        /* \"#utility.yul\":10307:10436   */\n      swap2\n      swap1\n      pop\n      jump\t// out\n        /* \"#utility.yul\":10442:10587   */\n    tag_277:\n        /* \"#utility.yul\":10536:10580   */\n      tag_445\n        /* \"#utility.yul\":10574:10579   */\n      dup2\n        /* \"#utility.yul\":10536:10580   */\n      tag_276\n      jump\t// in\n    tag_445:\n        /* \"#utility.yul\":10531:10534   */\n      dup3\n        /* \"#utility.yul\":10524:10581   */\n      mstore\n        /* \"#utility.yul\":10442:10587   */\n      pop\n      pop\n      jump\t// out\n        /* \"#utility.yul\":10593:11707   */\n    tag_40:\n        /* \"#utility.yul\":10917:10921   */\n      0x00\n        /* \"#utility.yul\":10955:10958   */\n      0xe0\n        /* \"#utility.yul\":10944:10953   */\n      dup3\n        /* \"#utility.yul\":10940:10959   */\n      add\n        /* \"#utility.yul\":10932:10959   */\n      swap1\n      pop\n        /* \"#utility.yul\":10969:11040   */\n      tag_447\n        /* \"#utility.yul\":11037:11038   */\n      0x00\n        /* \"#utility.yul\":11026:11035   */\n      dup4\n        /* \"#utility.yul\":11022:11039   */\n      add\n        /* \"#utility.yul\":11013:11019   */\n      dup11\n        /* \"#utility.yul\":10969:11040   */\n      tag_268\n      jump\t// in\n    tag_447:\n        /* \"#utility.yul\":11087:11096   */\n      dup2\n        /* \"#utility.yul\":11081:11085   */\n      dup2\n        /* \"#utility.yul\":11077:11097   */\n      sub\n        /* \"#utility.yul\":11072:11074   */\n      0x20\n        /* \"#utility.yul\":11061:11070   */\n      dup4\n        /* \"#utility.yul\":11057:11075   */\n      add\n        /* \"#utility.yul\":11050:11098   */\n      mstore\n        /* \"#utility.yul\":11115:11193   */\n      tag_448\n        /* \"#utility.yul\":11188:11192   */\n      dup2\n        /* \"#utility.yul\":11179:11185   */\n      dup10\n        /* \"#utility.yul\":11115:11193   */\n      tag_270\n      jump\t// in\n    tag_448:\n        /* \"#utility.yul\":11107:11193   */\n      swap1\n      pop\n        /* \"#utility.yul\":11203:11275   */\n      tag_449\n        /* \"#utility.yul\":11271:11273   */\n      0x40\n        /* \"#utility.yul\":11260:11269   */\n      dup4\n        /* \"#utility.yul\":11256:11274   */\n      add\n        /* \"#utility.yul\":11247:11253   */\n      dup9\n        /* \"#utility.yul\":11203:11275   */\n      tag_268\n      jump\t// in\n    tag_449:\n        /* \"#utility.yul\":11285:11373   */\n      tag_450\n        /* \"#utility.yul\":11369:11371   */\n      0x60\n        /* \"#utility.yul\":11358:11367   */\n      dup4\n        /* \"#utility.yul\":11354:11372   */\n      add\n        /* \"#utility.yul\":11345:11351   */\n      dup8\n        /* \"#utility.yul\":11285:11373   */\n      tag_272\n      jump\t// in\n    tag_450:\n        /* \"#utility.yul\":11383:11456   */\n      tag_451\n        /* \"#utility.yul\":11451:11454   */\n      0x80\n        /* \"#utility.yul\":11440:11449   */\n      dup4\n        /* \"#utility.yul\":11436:11455   */\n      add\n        /* \"#utility.yul\":11427:11433   */\n      dup7\n        /* \"#utility.yul\":11383:11456   */\n      tag_273\n      jump\t// in\n    tag_451:\n        /* \"#utility.yul\":11466:11546   */\n      tag_452\n        /* \"#utility.yul\":11541:11544   */\n      0xa0\n        /* \"#utility.yul\":11530:11539   */\n      dup4\n        /* \"#utility.yul\":11526:11545   */\n      add\n        /* \"#utility.yul\":11517:11523   */\n      dup6\n        /* \"#utility.yul\":11466:11546   */\n      tag_277\n      jump\t// in\n    tag_452:\n        /* \"#utility.yul\":11594:11603   */\n      dup2\n        /* \"#utility.yul\":11588:11592   */\n      dup2\n        /* \"#utility.yul\":11584:11604   */\n      sub\n        /* \"#utility.yul\":11578:11581   */\n      0xc0\n        /* \"#utility.yul\":11567:11576   */\n      dup4\n        /* \"#utility.yul\":11563:11582   */\n      add\n        /* \"#utility.yul\":11556:11605   */\n      mstore\n        /* \"#utility.yul\":11622:11700   */\n      tag_453\n        /* \"#utility.yul\":11695:11699   */\n      dup2\n        /* \"#utility.yul\":11686:11692   */\n      dup5\n        /* \"#utility.yul\":11622:11700   */\n      tag_270\n      jump\t// in\n    tag_453:\n        /* \"#utility.yul\":11614:11700   */\n      swap1\n      pop\n        /* \"#utility.yul\":10593:11707   */\n      swap9\n      swap8\n      pop\n      pop\n      pop\n      pop\n      pop\n      pop\n      pop\n      pop\n      jump\t// out\n        /* \"#utility.yul\":11713:12042   */\n    tag_44:\n        /* \"#utility.yul\":11772:11778   */\n      0x00\n        /* \"#utility.yul\":11821:11823   */\n      0x20\n        /* \"#utility.yul\":11809:11818   */\n      dup3\n        /* \"#utility.yul\":11800:11807   */\n      dup5\n        /* \"#utility.yul\":11796:11819   */\n      sub\n        /* \"#utility.yul\":11792:11824   */\n      slt\n        /* \"#utility.yul\":11789:11908   */\n      iszero\n      tag_455\n      jumpi\n        /* \"#utility.yul\":11827:11906   */\n      tag_456\n      tag_240\n      jump\t// in\n    tag_456:\n        /* \"#utility.yul\":11789:11908   */\n    tag_455:\n        /* \"#utility.yul\":11947:11948   */\n      0x00\n        /* \"#utility.yul\":11972:12025   */\n      tag_457\n        /* \"#utility.yul\":12017:12024   */\n      dup5\n        /* \"#utility.yul\":12008:12014   */\n      dup3\n        /* \"#utility.yul\":11997:12006   */\n      dup6\n        /* \"#utility.yul\":11993:12015   */\n      add\n        /* \"#utility.yul\":11972:12025   */\n      tag_267\n      jump\t// in\n    tag_457:\n        /* \"#utility.yul\":11962:12025   */\n      swap2\n      pop\n        /* \"#utility.yul\":11918:12035   */\n      pop\n        /* \"#utility.yul\":11713:12042   */\n      swap3\n      swap2\n      pop\n      pop\n      jump\t// out\n        /* \"#utility.yul\":12048:12672   */\n    tag_47:\n        /* \"#utility.yul\":12237:12241   */\n      0x00\n        /* \"#utility.yul\":12275:12277   */\n      0x60\n        /* \"#utility.yul\":12264:12273   */\n      dup3\n        /* \"#utility.yul\":12260:12278   */\n      add\n        /* \"#utility.yul\":12252:12278   */\n      swap1\n      pop\n        /* \"#utility.yul\":12288:12359   */\n      tag_459\n        /* \"#utility.yul\":12356:12357   */\n      0x00\n        /* \"#utility.yul\":12345:12354   */\n      dup4\n        /* \"#utility.yul\":12341:12358   */\n      add\n        /* \"#utility.yul\":12332:12338   */\n      dup7\n        /* \"#utility.yul\":12288:12359   */\n      tag_273\n      jump\t// in\n    tag_459:\n        /* \"#utility.yul\":12406:12415   */\n      dup2\n        /* \"#utility.yul\":12400:12404   */\n      dup2\n        /* \"#utility.yul\":12396:12416   */\n      sub\n        /* \"#utility.yul\":12391:12393   */\n      0x20\n        /* \"#utility.yul\":12380:12389   */\n      dup4\n        /* \"#utility.yul\":12376:12394   */\n      add\n        /* \"#utility.yul\":12369:12417   */\n      mstore\n        /* \"#utility.yul\":12434:12512   */\n      tag_460\n        /* \"#utility.yul\":12507:12511   */\n      dup2\n        /* \"#utility.yul\":12498:12504   */\n      dup6\n        /* \"#utility.yul\":12434:12512   */\n      tag_270\n      jump\t// in\n    tag_460:\n        /* \"#utility.yul\":12426:12512   */\n      swap1\n      pop\n        /* \"#utility.yul\":12559:12568   */\n      dup2\n        /* \"#utility.yul\":12553:12557   */\n      dup2\n        /* \"#utility.yul\":12549:12569   */\n      sub\n        /* \"#utility.yul\":12544:12546   */\n      0x40\n        /* \"#utility.yul\":12533:12542   */\n      dup4\n        /* \"#utility.yul\":12529:12547   */\n      add\n        /* \"#utility.yul\":12522:12570   */\n      mstore\n        /* \"#utility.yul\":12587:12665   */\n      tag_461\n        /* \"#utility.yul\":12660:12664   */\n      dup2\n        /* \"#utility.yul\":12651:12657   */\n      dup5\n        /* \"#utility.yul\":12587:12665   */\n      tag_270\n      jump\t// in\n    tag_461:\n        /* \"#utility.yul\":12579:12665   */\n      swap1\n      pop\n        /* \"#utility.yul\":12048:12672   */\n      swap5\n      swap4\n      pop\n      pop\n      pop\n      pop\n      jump\t// out\n        /* \"#utility.yul\":12678:13512   */\n    tag_51:\n        /* \"#utility.yul\":12766:12772   */\n      0x00\n        /* \"#utility.yul\":12774:12780   */\n      0x00\n        /* \"#utility.yul\":12823:12825   */\n      0x40\n        /* \"#utility.yul\":12811:12820   */\n      dup4\n        /* \"#utility.yul\":12802:12809   */\n      dup6\n        /* \"#utility.yul\":12798:12821   */\n      sub\n        /* \"#utility.yul\":12794:12826   */\n      slt\n        /* \"#utility.yul\":12791:12910   */\n      iszero\n      tag_463\n      jumpi\n        /* \"#utility.yul\":12829:12908   */\n      tag_464\n      tag_240\n      jump\t// in\n    tag_464:\n        /* \"#utility.yul\":12791:12910   */\n    tag_463:\n        /* \"#utility.yul\":12977:12978   */\n      0x00\n        /* \"#utility.yul\":12966:12975   */\n      dup4\n        /* \"#utility.yul\":12962:12979   */\n      add\n        /* \"#utility.yul\":12949:12980   */\n      calldataload\n        /* \"#utility.yul\":13007:13025   */\n      0xffffffffffffffff\n        /* \"#utility.yul\":12999:13005   */\n      dup2\n        /* \"#utility.yul\":12996:13026   */\n      gt\n        /* \"#utility.yul\":12993:13110   */\n      iszero\n      tag_465\n      jumpi\n        /* \"#utility.yul\":13029:13108   */\n      tag_466\n      tag_241\n      jump\t// in\n    tag_466:\n        /* \"#utility.yul\":12993:13110   */\n    tag_465:\n        /* \"#utility.yul\":13134:13197   */\n      tag_467\n        /* \"#utility.yul\":13189:13196   */\n      dup6\n        /* \"#utility.yul\":13180:13186   */\n      dup3\n        /* \"#utility.yul\":13169:13178   */\n      dup7\n        /* \"#utility.yul\":13165:13187   */\n      add\n        /* \"#utility.yul\":13134:13197   */\n      tag_263\n      jump\t// in\n    tag_467:\n        /* \"#utility.yul\":13124:13197   */\n      swap3\n      pop\n        /* \"#utility.yul\":12920:13207   */\n      pop\n        /* \"#utility.yul\":13274:13276   */\n      0x20\n        /* \"#utility.yul\":13263:13272   */\n      dup4\n        /* \"#utility.yul\":13259:13277   */\n      add\n        /* \"#utility.yul\":13246:13278   */\n      calldataload\n        /* \"#utility.yul\":13305:13323   */\n      0xffffffffffffffff\n        /* \"#utility.yul\":13297:13303   */\n      dup2\n        /* \"#utility.yul\":13294:13324   */\n      gt\n        /* \"#utility.yul\":13291:13408   */\n      iszero\n      tag_468\n      jumpi\n        /* \"#utility.yul\":13327:13406   */\n      tag_469\n      tag_241\n      jump\t// in\n    tag_469:\n        /* \"#utility.yul\":13291:13408   */\n    tag_468:\n        /* \"#utility.yul\":13432:13495   */\n      tag_470\n        /* \"#utility.yul\":13487:13494   */\n      dup6\n        /* \"#utility.yul\":13478:13484   */\n      dup3\n        /* \"#utility.yul\":13467:13476   */\n      dup7\n        /* \"#utility.yul\":13463:13485   */\n      add\n        /* \"#utility.yul\":13432:13495   */\n      tag_263\n      jump\t// in\n    tag_470:\n        /* \"#utility.yul\":13422:13495   */\n      swap2\n      pop\n        /* \"#utility.yul\":13217:13505   */\n      pop\n        /* \"#utility.yul\":12678:13512   */\n      swap3\n      pop\n      swap3\n      swap1\n      pop\n      jump\t// out\n        /* \"#utility.yul\":13518:13698   */\n    tag_278:\n        /* \"#utility.yul\":13566:13643   */\n      0x4e487b7100000000000000000000000000000000000000000000000000000000\n        /* \"#utility.yul\":13563:13564   */\n      0x00\n        /* \"#utility.yul\":13556:13644   */\n      mstore\n        /* \"#utility.yul\":13663:13667   */\n      0x22\n        /* \"#utility.yul\":13660:13661   */\n      0x04\n        /* \"#utility.yul\":13653:13668   */\n      mstore\n        /* \"#utility.yul\":13687:13691   */\n      0x24\n        /* \"#utility.yul\":13684:13685   */\n      0x00\n        /* \"#utility.yul\":13677:13692   */\n      revert\n        /* \"#utility.yul\":13704:14024   */\n    tag_69:\n        /* \"#utility.yul\":13748:13754   */\n      0x00\n        /* \"#utility.yul\":13785:13786   */\n      0x02\n        /* \"#utility.yul\":13779:13783   */\n      dup3\n        /* \"#utility.yul\":13775:13787   */\n      div\n        /* \"#utility.yul\":13765:13787   */\n      swap1\n      pop\n        /* \"#utility.yul\":13832:13833   */\n      0x01\n        /* \"#utility.yul\":13826:13830   */\n      dup3\n        /* \"#utility.yul\":13822:13834   */\n      and\n        /* \"#utility.yul\":13853:13871   */\n      dup1\n        /* \"#utility.yul\":13843:13924   */\n      tag_473\n      jumpi\n        /* \"#utility.yul\":13909:13913   */\n      0x7f\n        /* \"#utility.yul\":13901:13907   */\n      dup3\n        /* \"#utility.yul\":13897:13914   */\n      and\n        /* \"#utility.yul\":13887:13914   */\n      swap2\n      pop\n        /* \"#utility.yul\":13843:13924   */\n    tag_473:\n        /* \"#utility.yul\":13971:13973   */\n      0x20\n        /* \"#utility.yul\":13963:13969   */\n      dup3\n        /* \"#utility.yul\":13960:13974   */\n      lt\n        /* \"#utility.yul\":13940:13958   */\n      dup2\n        /* \"#utility.yul\":13937:13975   */\n      sub\n        /* \"#utility.yul\":13934:14018   */\n      tag_474\n      jumpi\n        /* \"#utility.yul\":13990:14008   */\n      tag_475\n      tag_278\n      jump\t// in\n    tag_475:\n        /* \"#utility.yul\":13934:14018   */\n    tag_474:\n        /* \"#utility.yul\":13755:14024   */\n      pop\n        /* \"#utility.yul\":13704:14024   */\n      swap2\n      swap1\n      pop\n      jump\t// out\n        /* \"#utility.yul\":14030:14272   */\n    tag_279:\n        /* \"#utility.yul\":14170:14204   */\n      0x536f6c6f206167726963756c746f726573207265676973747261646f73207075\n        /* \"#utility.yul\":14166:14167   */\n      0x00\n        /* \"#utility.yul\":14158:14164   */\n      dup3\n        /* \"#utility.yul\":14154:14168   */\n      add\n        /* \"#utility.yul\":14147:14205   */\n      mstore\n        /* \"#utility.yul\":14239:14264   */\n      0x6564656e207075626c696361722070726f647563746f73000000000000000000\n        /* \"#utility.yul\":14234:14236   */\n      0x20\n        /* \"#utility.yul\":14226:14232   */\n      dup3\n        /* \"#utility.yul\":14222:14237   */\n      add\n        /* \"#utility.yul\":14215:14265   */\n      mstore\n        /* \"#utility.yul\":14030:14272   */\n      pop\n      jump\t// out\n        /* \"#utility.yul\":14278:14644   */\n    tag_280:\n        /* \"#utility.yul\":14420:14423   */\n      0x00\n        /* \"#utility.yul\":14441:14508   */\n      tag_478\n        /* \"#utility.yul\":14505:14507   */\n      0x37\n        /* \"#utility.yul\":14500:14503   */\n      dup4\n        /* \"#utility.yul\":14441:14508   */\n      tag_269\n      jump\t// in\n    tag_478:\n        /* \"#utility.yul\":14434:14508   */\n      swap2\n      pop\n        /* \"#utility.yul\":14517:14610   */\n      tag_479\n        /* \"#utility.yul\":14606:14609   */\n      dup3\n        /* \"#utility.yul\":14517:14610   */\n      tag_279\n      jump\t// in\n    tag_479:\n        /* \"#utility.yul\":14635:14637   */\n      0x40\n        /* \"#utility.yul\":14630:14633   */\n      dup3\n        /* \"#utility.yul\":14626:14638   */\n      add\n        /* \"#utility.yul\":14619:14638   */\n      swap1\n      pop\n        /* \"#utility.yul\":14278:14644   */\n      swap2\n      swap1\n      pop\n      jump\t// out\n        /* \"#utility.yul\":14650:15069   */\n    tag_78:\n        /* \"#utility.yul\":14816:14820   */\n      0x00\n        /* \"#utility.yul\":14854:14856   */\n      0x20\n        /* \"#utility.yul\":14843:14852   */\n      dup3\n        /* \"#utility.yul\":14839:14857   */\n      add\n        /* \"#utility.yul\":14831:14857   */\n      swap1\n      pop\n        /* \"#utility.yul\":14903:14912   */\n      dup2\n        /* \"#utility.yul\":14897:14901   */\n      dup2\n        /* \"#utility.yul\":14893:14913   */\n      sub\n        /* \"#utility.yul\":14889:14890   */\n      0x00\n        /* \"#utility.yul\":14878:14887   */\n      dup4\n        /* \"#utility.yul\":14874:14891   */\n      add\n        /* \"#utility.yul\":14867:14914   */\n      mstore\n        /* \"#utility.yul\":14931:15062   */\n      tag_481\n        /* \"#utility.yul\":15057:15061   */\n      dup2\n        /* \"#utility.yul\":14931:15062   */\n      tag_280\n      jump\t// in\n    tag_481:\n        /* \"#utility.yul\":14923:15062   */\n      swap1\n      pop\n        /* \"#utility.yul\":14650:15069   */\n      swap2\n      swap1\n      pop\n      jump\t// out\n        /* \"#utility.yul\":15075:15256   */\n    tag_281:\n        /* \"#utility.yul\":15215:15248   */\n      0x456c2070726563696f206465626520736572206d61796f722061206365726f00\n        /* \"#utility.yul\":15211:15212   */\n      0x00\n        /* \"#utility.yul\":15203:15209   */\n      dup3\n        /* \"#utility.yul\":15199:15213   */\n      add\n        /* \"#utility.yul\":15192:15249   */\n      mstore\n        /* \"#utility.yul\":15075:15256   */\n      pop\n      jump\t// out\n        /* \"#utility.yul\":15262:15628   */\n    tag_282:\n        /* \"#utility.yul\":15404:15407   */\n      0x00\n        /* \"#utility.yul\":15425:15492   */\n      tag_484\n        /* \"#utility.yul\":15489:15491   */\n      0x1f\n        /* \"#utility.yul\":15484:15487   */\n      dup4\n        /* \"#utility.yul\":15425:15492   */\n      tag_269\n      jump\t// in\n    tag_484:\n        /* \"#utility.yul\":15418:15492   */\n      swap2\n      pop\n        /* \"#utility.yul\":15501:15594   */\n      tag_485\n        /* \"#utility.yul\":15590:15593   */\n      dup3\n        /* \"#utility.yul\":15501:15594   */\n      tag_281\n      jump\t// in\n    tag_485:\n        /* \"#utility.yul\":15619:15621   */\n      0x20\n        /* \"#utility.yul\":15614:15617   */\n      dup3\n        /* \"#utility.yul\":15610:15622   */\n      add\n        /* \"#utility.yul\":15603:15622   */\n      swap1\n      pop\n        /* \"#utility.yul\":15262:15628   */\n      swap2\n      swap1\n      pop\n      jump\t// out\n        /* \"#utility.yul\":15634:16053   */\n    tag_81:\n        /* \"#utility.yul\":15800:15804   */\n      0x00\n        /* \"#utility.yul\":15838:15840   */\n      0x20\n        /* \"#utility.yul\":15827:15836   */\n      dup3\n        /* \"#utility.yul\":15823:15841   */\n      add\n        /* \"#utility.yul\":15815:15841   */\n      swap1\n      pop\n        /* \"#utility.yul\":15887:15896   */\n      dup2\n        /* \"#utility.yul\":15881:15885   */\n      dup2\n        /* \"#utility.yul\":15877:15897   */\n      sub\n        /* \"#utility.yul\":15873:15874   */\n      0x00\n        /* \"#utility.yul\":15862:15871   */\n      dup4\n        /* \"#utility.yul\":15858:15875   */\n      add\n        /* \"#utility.yul\":15851:15898   */\n      mstore\n        /* \"#utility.yul\":15915:16046   */\n      tag_487\n        /* \"#utility.yul\":16041:16045   */\n      dup2\n        /* \"#utility.yul\":15915:16046   */\n      tag_282\n      jump\t// in\n    tag_487:\n        /* \"#utility.yul\":15907:16046   */\n      swap1\n      pop\n        /* \"#utility.yul\":15634:16053   */\n      swap2\n      swap1\n      pop\n      jump\t// out\n        /* \"#utility.yul\":16059:16239   */\n    tag_283:\n        /* \"#utility.yul\":16107:16184   */\n      0x4e487b7100000000000000000000000000000000000000000000000000000000\n        /* \"#utility.yul\":16104:16105   */\n      0x00\n        /* \"#utility.yul\":16097:16185   */\n      mstore\n        /* \"#utility.yul\":16204:16208   */\n      0x11\n        /* \"#utility.yul\":16201:16202   */\n      0x04\n        /* \"#utility.yul\":16194:16209   */\n      mstore\n        /* \"#utility.yul\":16228:16232   */\n      0x24\n        /* \"#utility.yul\":16225:16226   */\n      0x00\n        /* \"#utility.yul\":16218:16233   */\n      revert\n        /* \"#utility.yul\":16245:16478   */\n    tag_83:\n        /* \"#utility.yul\":16284:16287   */\n      0x00\n        /* \"#utility.yul\":16307:16331   */\n      tag_490\n        /* \"#utility.yul\":16325:16330   */\n      dup3\n        /* \"#utility.yul\":16307:16331   */\n      tag_242\n      jump\t// in\n    tag_490:\n        /* \"#utility.yul\":16298:16331   */\n      swap2\n      pop\n        /* \"#utility.yul\":16353:16419   */\n      0xffffffffffffffffffffffffffffffffffffffffffffffffffffffffffffffff\n        /* \"#utility.yul\":16346:16351   */\n      dup3\n        /* \"#utility.yul\":16343:16420   */\n      sub\n        /* \"#utility.yul\":16340:16443   */\n      tag_491\n      jumpi\n        /* \"#utility.yul\":16423:16441   */\n      tag_492\n      tag_283\n      jump\t// in\n    tag_492:\n        /* \"#utility.yul\":16340:16443   */\n    tag_491:\n        /* \"#utility.yul\":16470:16471   */\n      0x01\n        /* \"#utility.yul\":16463:16468   */\n      dup3\n        /* \"#utility.yul\":16459:16472   */\n      add\n        /* \"#utility.yul\":16452:16472   */\n      swap1\n      pop\n        /* \"#utility.yul\":16245:16478   */\n      swap2\n      swap1\n      pop\n      jump\t// out\n        /* \"#utility.yul\":16484:16625   */\n    tag_284:\n        /* \"#utility.yul\":16533:16537   */\n      0x00\n        /* \"#utility.yul\":16556:16559   */\n      dup2\n        /* \"#utility.yul\":16548:16559   */\n      swap1\n      pop\n        /* \"#utility.yul\":16579:16582   */\n      dup2\n        /* \"#utility.yul\":16576:16577   */\n      0x00\n        /* \"#utility.yul\":16569:16583   */\n      mstore\n        /* \"#utility.yul\":16613:16617   */\n      0x20\n        /* \"#utility.yul\":16610:16611   */\n      0x00\n        /* \"#utility.yul\":16600:16618   */\n      keccak256\n        /* \"#utility.yul\":16592:16618   */\n      swap1\n      pop\n        /* \"#utility.yul\":16484:16625   */\n      swap2\n      swap1\n      pop\n      jump\t// out\n        /* \"#utility.yul\":16631:16724   */\n    tag_285:\n        /* \"#utility.yul\":16668:16674   */\n      0x00\n        /* \"#utility.yul\":16715:16717   */\n      0x20\n        /* \"#utility.yul\":16710:16712   */\n      0x1f\n        /* \"#utility.yul\":16703:16708   */\n      dup4\n        /* \"#utility.yul\":16699:16713   */\n      add\n        /* \"#utility.yul\":16695:16718   */\n      div\n        /* \"#utility.yul\":16685:16718   */\n      swap1\n      pop\n        /* \"#utility.yul\":16631:16724   */\n      swap2\n      swap1\n      pop\n      jump\t// out\n        /* \"#utility.yul\":16730:16837   */\n    tag_286:\n        /* \"#utility.yul\":16774:16782   */\n      0x00\n        /* \"#utility.yul\":16824:16829   */\n      dup3\n        /* \"#utility.yul\":16818:16822   */\n      dup3\n        /* \"#utility.yul\":16814:16830   */\n      shl\n        /* \"#utility.yul\":16793:16830   */\n      swap1\n      pop\n        /* \"#utility.yul\":16730:16837   */\n      swap3\n      swap2\n      pop\n      pop\n      jump\t// out\n        /* \"#utility.yul\":16843:17236   */\n    tag_287:\n        /* \"#utility.yul\":16912:16918   */\n      0x00\n        /* \"#utility.yul\":16962:16963   */\n      0x08\n        /* \"#utility.yul\":16950:16960   */\n      dup4\n        /* \"#utility.yul\":16946:16964   */\n      mul\n        /* \"#utility.yul\":16985:17082   */\n      tag_497\n        /* \"#utility.yul\":17015:17081   */\n      0xffffffffffffffffffffffffffffffffffffffffffffffffffffffffffffffff\n        /* \"#utility.yul\":17004:17013   */\n      dup3\n        /* \"#utility.yul\":16985:17082   */\n      tag_286\n      jump\t// in\n    tag_497:\n        /* \"#utility.yul\":17103:17142   */\n      tag_498\n        /* \"#utility.yul\":17133:17141   */\n      dup7\n        /* \"#utility.yul\":17122:17131   */\n      dup4\n        /* \"#utility.yul\":17103:17142   */\n      tag_286\n      jump\t// in\n    tag_498:\n        /* \"#utility.yul\":17091:17142   */\n      swap6\n      pop\n        /* \"#utility.yul\":17175:17179   */\n      dup1\n        /* \"#utility.yul\":17171:17180   */\n      not\n        /* \"#utility.yul\":17164:17169   */\n      dup5\n        /* \"#utility.yul\":17160:17181   */\n      and\n        /* \"#utility.yul\":17151:17181   */\n      swap4\n      pop\n        /* \"#utility.yul\":17224:17228   */\n      dup1\n        /* \"#utility.yul\":17214:17222   */\n      dup7\n        /* \"#utility.yul\":17210:17229   */\n      and\n        /* \"#utility.yul\":17203:17208   */\n      dup5\n        /* \"#utility.yul\":17200:17230   */\n      or\n        /* \"#utility.yul\":17190:17230   */\n      swap3\n      pop\n        /* \"#utility.yul\":16919:17236   */\n      pop\n      pop\n        /* \"#utility.yul\":16843:17236   */\n      swap4\n      swap3\n      pop\n      pop\n      pop\n      jump\t// out\n        /* \"#utility.yul\":17242:17302   */\n    tag_288:\n        /* \"#utility.yul\":17270:17273   */\n      0x00\n        /* \"#utility.yul\":17291:17296   */\n      dup2\n        /* \"#utility.yul\":17284:17296   */\n      swap1\n      pop\n        /* \"#utility.yul\":17242:17302   */\n      swap2\n      swap1\n      pop\n      jump\t// out\n        /* \"#utility.yul\":17308:17450   */\n    tag_289:\n        /* \"#utility.yul\":17358:17367   */\n      0x00\n        /* \"#utility.yul\":17391:17444   */\n      tag_501\n        /* \"#utility.yul\":17409:17443   */\n      tag_502\n        /* \"#utility.yul\":17418:17442   */\n      tag_503\n        /* \"#utility.yul\":17436:17441   */\n      dup5\n        /* \"#utility.yul\":17418:17442   */\n      tag_242\n      jump\t// in\n    tag_503:\n        /* \"#utility.yul\":17409:17443   */\n      tag_288\n      jump\t// in\n    tag_502:\n        /* \"#utility.yul\":17391:17444   */\n      tag_242\n      jump\t// in\n    tag_501:\n        /* \"#utility.yul\":17378:17444   */\n      swap1\n      pop\n        /* \"#utility.yul\":17308:17450   */\n      swap2\n      swap1\n      pop\n      jump\t// out\n        /* \"#utility.yul\":17456:17531   */\n    tag_290:\n        /* \"#utility.yul\":17499:17502   */\n      0x00\n        /* \"#utility.yul\":17520:17525   */\n      dup2\n        /* \"#utility.yul\":17513:17525   */\n      swap1\n      pop\n        /* \"#utility.yul\":17456:17531   */\n      swap2\n      swap1\n      pop\n      jump\t// out\n        /* \"#utility.yul\":17537:17806   */\n    tag_291:\n        /* \"#utility.yul\":17647:17686   */\n      tag_506\n        /* \"#utility.yul\":17678:17685   */\n      dup4\n        /* \"#utility.yul\":17647:17686   */\n      tag_289\n      jump\t// in\n    tag_506:\n        /* \"#utility.yul\":17708:17799   */\n      tag_507\n        /* \"#utility.yul\":17757:17798   */\n      tag_508\n        /* \"#utility.yul\":17781:17797   */\n      dup3\n        /* \"#utility.yul\":17757:17798   */\n      tag_290\n      jump\t// in\n    tag_508:\n        /* \"#utility.yul\":17749:17755   */\n      dup5\n        /* \"#utility.yul\":17742:17746   */\n      dup5\n        /* \"#utility.yul\":17736:17747   */\n      sload\n        /* \"#utility.yul\":17708:17799   */\n      tag_287\n      jump\t// in\n    tag_507:\n        /* \"#utility.yul\":17702:17706   */\n      dup3\n        /* \"#utility.yul\":17695:17800   */\n      sstore\n        /* \"#utility.yul\":17613:17806   */\n      pop\n        /* \"#utility.yul\":17537:17806   */\n      pop\n      pop\n      pop\n      jump\t// out\n        /* \"#utility.yul\":17812:17885   */\n    tag_292:\n        /* \"#utility.yul\":17857:17860   */\n      0x00\n        /* \"#utility.yul\":17878:17879   */\n      0x00\n        /* \"#utility.yul\":17871:17879   */\n      swap1\n      pop\n        /* \"#utility.yul\":17812:17885   */\n      swap1\n      jump\t// out\n        /* \"#utility.yul\":17891:18080   */\n    tag_293:\n        /* \"#utility.yul\":17968:18000   */\n      tag_511\n      tag_292\n      jump\t// in\n    tag_511:\n        /* \"#utility.yul\":18009:18074   */\n      tag_512\n        /* \"#utility.yul\":18067:18073   */\n      dup2\n        /* \"#utility.yul\":18059:18065   */\n      dup5\n        /* \"#utility.yul\":18053:18057   */\n      dup5\n        /* \"#utility.yul\":18009:18074   */\n      tag_291\n      jump\t// in\n    tag_512:\n        /* \"#utility.yul\":17944:18080   */\n      pop\n        /* \"#utility.yul\":17891:18080   */\n      pop\n      pop\n      jump\t// out\n        /* \"#utility.yul\":18086:18272   */\n    tag_294:\n        /* \"#utility.yul\":18146:18266   */\n    tag_514:\n        /* \"#utility.yul\":18163:18166   */\n      dup2\n        /* \"#utility.yul\":18156:18161   */\n      dup2\n        /* \"#utility.yul\":18153:18167   */\n      lt\n        /* \"#utility.yul\":18146:18266   */\n      iszero\n      tag_516\n      jumpi\n        /* \"#utility.yul\":18217:18256   */\n      tag_517\n        /* \"#utility.yul\":18254:18255   */\n      0x00\n        /* \"#utility.yul\":18247:18252   */\n      dup3\n        /* \"#utility.yul\":18217:18256   */\n      tag_293\n      jump\t// in\n    tag_517:\n        /* \"#utility.yul\":18190:18191   */\n      0x01\n        /* \"#utility.yul\":18183:18188   */\n      dup2\n        /* \"#utility.yul\":18179:18192   */\n      add\n        /* \"#utility.yul\":18170:18192   */\n      swap1\n      pop\n        /* \"#utility.yul\":18146:18266   */\n      jump(tag_514)\n    tag_516:\n        /* \"#utility.yul\":18086:18272   */\n      pop\n      pop\n      jump\t// out\n        /* \"#utility.yul\":18278:18821   */\n    tag_295:\n        /* \"#utility.yul\":18379:18381   */\n      0x1f\n        /* \"#utility.yul\":18374:18377   */\n      dup3\n        /* \"#utility.yul\":18371:18382   */\n      gt\n        /* \"#utility.yul\":18368:18814   */\n      iszero\n      tag_519\n      jumpi\n        /* \"#utility.yul\":18413:18451   */\n      tag_520\n        /* \"#utility.yul\":18445:18450   */\n      dup2\n        /* \"#utility.yul\":18413:18451   */\n      tag_284\n      jump\t// in\n    tag_520:\n        /* \"#utility.yul\":18497:18526   */\n      tag_521\n        /* \"#utility.yul\":18515:18525   */\n      dup5\n        /* \"#utility.yul\":18497:18526   */\n      tag_285\n      jump\t// in\n    tag_521:\n        /* \"#utility.yul\":18487:18495   */\n      dup2\n        /* \"#utility.yul\":18483:18527   */\n      add\n        /* \"#utility.yul\":18680:18682   */\n      0x20\n        /* \"#utility.yul\":18668:18678   */\n      dup6\n        /* \"#utility.yul\":18665:18683   */\n      lt\n        /* \"#utility.yul\":18662:18711   */\n      iszero\n      tag_522\n      jumpi\n        /* \"#utility.yul\":18701:18709   */\n      dup2\n        /* \"#utility.yul\":18686:18709   */\n      swap1\n      pop\n        /* \"#utility.yul\":18662:18711   */\n    tag_522:\n        /* \"#utility.yul\":18724:18804   */\n      tag_523\n        /* \"#utility.yul\":18780:18802   */\n      tag_524\n        /* \"#utility.yul\":18798:18801   */\n      dup6\n        /* \"#utility.yul\":18780:18802   */\n      tag_285\n      jump\t// in\n    tag_524:\n        /* \"#utility.yul\":18770:18778   */\n      dup4\n        /* \"#utility.yul\":18766:18803   */\n      add\n        /* \"#utility.yul\":18753:18764   */\n      dup3\n        /* \"#utility.yul\":18724:18804   */\n      tag_294\n      jump\t// in\n    tag_523:\n        /* \"#utility.yul\":18383:18814   */\n      pop\n      pop\n        /* \"#utility.yul\":18368:18814   */\n    tag_519:\n        /* \"#utility.yul\":18278:18821   */\n      pop\n      pop\n      pop\n      jump\t// out\n        /* \"#utility.yul\":18827:18944   */\n    tag_296:\n        /* \"#utility.yul\":18881:18889   */\n      0x00\n        /* \"#utility.yul\":18931:18936   */\n      dup3\n        /* \"#utility.yul\":18925:18929   */\n      dup3\n        /* \"#utility.yul\":18921:18937   */\n      shr\n        /* \"#utility.yul\":18900:18937   */\n      swap1\n      pop\n        /* \"#utility.yul\":18827:18944   */\n      swap3\n      swap2\n      pop\n      pop\n      jump\t// out\n        /* \"#utility.yul\":18950:19119   */\n    tag_297:\n        /* \"#utility.yul\":18994:19000   */\n      0x00\n        /* \"#utility.yul\":19027:19078   */\n      tag_527\n        /* \"#utility.yul\":19075:19076   */\n      0x00\n        /* \"#utility.yul\":19071:19077   */\n      not\n        /* \"#utility.yul\":19063:19068   */\n      dup5\n        /* \"#utility.yul\":19060:19061   */\n      0x08\n        /* \"#utility.yul\":19056:19069   */\n      mul\n        /* \"#utility.yul\":19027:19078   */\n      tag_296\n      jump\t// in\n    tag_527:\n        /* \"#utility.yul\":19023:19079   */\n      not\n        /* \"#utility.yul\":19108:19112   */\n      dup1\n        /* \"#utility.yul\":19102:19106   */\n      dup4\n        /* \"#utility.yul\":19098:19113   */\n      and\n        /* \"#utility.yul\":19088:19113   */\n      swap2\n      pop\n        /* \"#utility.yul\":19001:19119   */\n      pop\n        /* \"#utility.yul\":18950:19119   */\n      swap3\n      swap2\n      pop\n      pop\n      jump\t// out\n        /* \"#utility.yul\":19124:19419   */\n    tag_298:\n        /* \"#utility.yul\":19200:19204   */\n      0x00\n        /* \"#utility.yul\":19346:19375   */\n      tag_529\n        /* \"#utility.yul\":19371:19374   */\n      dup4\n        /* \"#utility.yul\":19365:19369   */\n      dup4\n        /* \"#utility.yul\":19346:19375   */\n      tag_297\n      jump\t// in\n    tag_529:\n        /* \"#utility.yul\":19338:19375   */\n      swap2\n      pop\n        /* \"#utility.yul\":19408:19411   */\n      dup3\n        /* \"#utility.yul\":19405:19406   */\n      0x02\n        /* \"#utility.yul\":19401:19412   */\n      mul\n        /* \"#utility.yul\":19395:19399   */\n      dup3\n        /* \"#utility.yul\":19392:19413   */\n      or\n        /* \"#utility.yul\":19384:19413   */\n      swap1\n      pop\n        /* \"#utility.yul\":19124:19419   */\n      swap3\n      swap2\n      pop\n      pop\n      jump\t// out\n        /* \"#utility.yul\":19424:20819   */\n    tag_85:\n        /* \"#utility.yul\":19541:19578   */\n      tag_531\n        /* \"#utility.yul\":19574:19577   */\n      dup3\n        /* \"#utility.yul\":19541:19578   */\n      tag_248\n      jump\t// in\n    tag_531:\n        /* \"#utility.yul\":19643:19661   */\n      0xffffffffffffffff\n        /* \"#utility.yul\":19635:19641   */\n      dup2\n        /* \"#utility.yul\":19632:19662   */\n      gt\n        /* \"#utility.yul\":19629:19685   */\n      iszero\n      tag_532\n      jumpi\n        /* \"#utility.yul\":19665:19683   */\n      tag_533\n      tag_197\n      jump\t// in\n    tag_533:\n        /* \"#utility.yul\":19629:19685   */\n    tag_532:\n        /* \"#utility.yul\":19709:19747   */\n      tag_534\n        /* \"#utility.yul\":19741:19745   */\n      dup3\n        /* \"#utility.yul\":19735:19746   */\n      sload\n        /* \"#utility.yul\":19709:19747   */\n      tag_69\n      jump\t// in\n    tag_534:\n        /* \"#utility.yul\":19794:19861   */\n      tag_535\n        /* \"#utility.yul\":19854:19860   */\n      dup3\n        /* \"#utility.yul\":19846:19852   */\n      dup3\n        /* \"#utility.yul\":19840:19844   */\n      dup6\n        /* \"#utility.yul\":19794:19861   */\n      tag_295\n      jump\t// in\n    tag_535:\n        /* \"#utility.yul\":19888:19889   */\n      0x00\n        /* \"#utility.yul\":19912:19916   */\n      0x20\n        /* \"#utility.yul\":19899:19916   */\n      swap1\n      pop\n        /* \"#utility.yul\":19944:19946   */\n      0x1f\n        /* \"#utility.yul\":19936:19942   */\n      dup4\n        /* \"#utility.yul\":19933:19947   */\n      gt\n        /* \"#utility.yul\":19961:19962   */\n      0x01\n        /* \"#utility.yul\":19956:20574   */\n      dup2\n      eq\n      tag_537\n      jumpi\n        /* \"#utility.yul\":20618:20619   */\n      0x00\n        /* \"#utility.yul\":20635:20641   */\n      dup5\n        /* \"#utility.yul\":20632:20709   */\n      iszero\n      tag_538\n      jumpi\n        /* \"#utility.yul\":20684:20693   */\n      dup3\n        /* \"#utility.yul\":20679:20682   */\n      dup8\n        /* \"#utility.yul\":20675:20694   */\n      add\n        /* \"#utility.yul\":20669:20695   */\n      mload\n        /* \"#utility.yul\":20660:20695   */\n      swap1\n      pop\n        /* \"#utility.yul\":20632:20709   */\n    tag_538:\n        /* \"#utility.yul\":20735:20802   */\n      tag_539\n        /* \"#utility.yul\":20795:20801   */\n      dup6\n        /* \"#utility.yul\":20788:20793   */\n      dup3\n        /* \"#utility.yul\":20735:20802   */\n      tag_298\n      jump\t// in\n    tag_539:\n        /* \"#utility.yul\":20729:20733   */\n      dup7\n        /* \"#utility.yul\":20722:20803   */\n      sstore\n        /* \"#utility.yul\":20591:20813   */\n      pop\n        /* \"#utility.yul\":19926:20813   */\n      jump(tag_536)\n        /* \"#utility.yul\":19956:20574   */\n    tag_537:\n        /* \"#utility.yul\":20008:20012   */\n      0x1f\n        /* \"#utility.yul\":20004:20013   */\n      not\n        /* \"#utility.yul\":19996:20002   */\n      dup5\n        /* \"#utility.yul\":19992:20014   */\n      and\n        /* \"#utility.yul\":20042:20079   */\n      tag_540\n        /* \"#utility.yul\":20074:20078   */\n      dup7\n        /* \"#utility.yul\":20042:20079   */\n      tag_284\n      jump\t// in\n    tag_540:\n        /* \"#utility.yul\":20101:20102   */\n      0x00\n        /* \"#utility.yul\":20115:20323   */\n    tag_541:\n        /* \"#utility.yul\":20129:20136   */\n      dup3\n        /* \"#utility.yul\":20126:20127   */\n      dup2\n        /* \"#utility.yul\":20123:20137   */\n      lt\n        /* \"#utility.yul\":20115:20323   */\n      iszero\n      tag_543\n      jumpi\n        /* \"#utility.yul\":20208:20217   */\n      dup5\n        /* \"#utility.yul\":20203:20206   */\n      dup10\n        /* \"#utility.yul\":20199:20218   */\n      add\n        /* \"#utility.yul\":20193:20219   */\n      mload\n        /* \"#utility.yul\":20185:20191   */\n      dup3\n        /* \"#utility.yul\":20178:20220   */\n      sstore\n        /* \"#utility.yul\":20259:20260   */\n      0x01\n        /* \"#utility.yul\":20251:20257   */\n      dup3\n        /* \"#utility.yul\":20247:20261   */\n      add\n        /* \"#utility.yul\":20237:20261   */\n      swap2\n      pop\n        /* \"#utility.yul\":20306:20308   */\n      0x20\n        /* \"#utility.yul\":20295:20304   */\n      dup6\n        /* \"#utility.yul\":20291:20309   */\n      add\n        /* \"#utility.yul\":20278:20309   */\n      swap5\n      pop\n        /* \"#utility.yul\":20152:20156   */\n      0x20\n        /* \"#utility.yul\":20149:20150   */\n      dup2\n        /* \"#utility.yul\":20145:20157   */\n      add\n        /* \"#utility.yul\":20140:20157   */\n      swap1\n      pop\n        /* \"#utility.yul\":20115:20323   */\n      jump(tag_541)\n    tag_543:\n        /* \"#utility.yul\":20351:20357   */\n      dup7\n        /* \"#utility.yul\":20342:20349   */\n      dup4\n        /* \"#utility.yul\":20339:20358   */\n      lt\n        /* \"#utility.yul\":20336:20515   */\n      iszero\n      tag_544\n      jumpi\n        /* \"#utility.yul\":20409:20418   */\n      dup5\n        /* \"#utility.yul\":20404:20407   */\n      dup10\n        /* \"#utility.yul\":20400:20419   */\n      add\n        /* \"#utility.yul\":20394:20420   */\n      mload\n        /* \"#utility.yul\":20452:20500   */\n      tag_545\n        /* \"#utility.yul\":20494:20498   */\n      0x1f\n        /* \"#utility.yul\":20486:20492   */\n      dup10\n        /* \"#utility.yul\":20482:20499   */\n      and\n        /* \"#utility.yul\":20471:20480   */\n      dup3\n        /* \"#utility.yul\":20452:20500   */\n      tag_297\n      jump\t// in\n    tag_545:\n        /* \"#utility.yul\":20444:20450   */\n      dup4\n        /* \"#utility.yul\":20437:20501   */\n      sstore\n        /* \"#utility.yul\":20359:20515   */\n      pop\n        /* \"#utility.yul\":20336:20515   */\n    tag_544:\n        /* \"#utility.yul\":20561:20562   */\n      0x01\n        /* \"#utility.yul\":20557:20558   */\n      0x02\n        /* \"#utility.yul\":20549:20555   */\n      dup9\n        /* \"#utility.yul\":20545:20559   */\n      mul\n        /* \"#utility.yul\":20541:20563   */\n      add\n        /* \"#utility.yul\":20535:20539   */\n      dup9\n        /* \"#utility.yul\":20528:20564   */\n      sstore\n        /* \"#utility.yul\":19963:20574   */\n      pop\n      pop\n      pop\n        /* \"#utility.yul\":19926:20813   */\n    tag_536:\n      pop\n        /* \"#utility.yul\":19516:20819   */\n      pop\n      pop\n      pop\n        /* \"#utility.yul\":19424:20819   */\n      pop\n      pop\n      jump\t// out\n        /* \"#utility.yul\":20825:20973   */\n    tag_299:\n        /* \"#utility.yul\":20927:20938   */\n      0x00\n        /* \"#utility.yul\":20964:20967   */\n      dup2\n        /* \"#utility.yul\":20949:20967   */\n      swap1\n      pop\n        /* \"#utility.yul\":20825:20973   */\n      swap3\n      swap2\n      pop\n      pop\n      jump\t// out\n        /* \"#utility.yul\":20979:21200   */\n    tag_300:\n        /* \"#utility.yul\":21119:21153   */\n      0x50726f647563746f207075626c696361646f20706f72206167726963756c746f\n        /* \"#utility.yul\":21115:21116   */\n      0x00\n        /* \"#utility.yul\":21107:21113   */\n      dup3\n        /* \"#utility.yul\":21103:21117   */\n      add\n        /* \"#utility.yul\":21096:21154   */\n      mstore\n        /* \"#utility.yul\":21188:21192   */\n      0x7220000000000000000000000000000000000000000000000000000000000000\n        /* \"#utility.yul\":21183:21185   */\n      0x20\n        /* \"#utility.yul\":21175:21181   */\n      dup3\n        /* \"#utility.yul\":21171:21186   */\n      add\n        /* \"#utility.yul\":21164:21193   */\n      mstore\n        /* \"#utility.yul\":20979:21200   */\n      pop\n      jump\t// out\n        /* \"#utility.yul\":21206:21608   */\n    tag_301:\n        /* \"#utility.yul\":21366:21369   */\n      0x00\n        /* \"#utility.yul\":21387:21472   */\n      tag_549\n        /* \"#utility.yul\":21469:21471   */\n      0x22\n        /* \"#utility.yul\":21464:21467   */\n      dup4\n        /* \"#utility.yul\":21387:21472   */\n      tag_299\n      jump\t// in\n    tag_549:\n        /* \"#utility.yul\":21380:21472   */\n      swap2\n      pop\n        /* \"#utility.yul\":21481:21574   */\n      tag_550\n        /* \"#utility.yul\":21570:21573   */\n      dup3\n        /* \"#utility.yul\":21481:21574   */\n      tag_300\n      jump\t// in\n    tag_550:\n        /* \"#utility.yul\":21599:21601   */\n      0x22\n        /* \"#utility.yul\":21594:21597   */\n      dup3\n        /* \"#utility.yul\":21590:21602   */\n      add\n        /* \"#utility.yul\":21583:21602   */\n      swap1\n      pop\n        /* \"#utility.yul\":21206:21608   */\n      swap2\n      swap1\n      pop\n      jump\t// out\n        /* \"#utility.yul\":21638:22512   */\n    tag_302:\n        /* \"#utility.yul\":21741:21744   */\n      0x00\n        /* \"#utility.yul\":21778:21783   */\n      dup2\n        /* \"#utility.yul\":21772:21784   */\n      sload\n        /* \"#utility.yul\":21807:21843   */\n      tag_552\n        /* \"#utility.yul\":21833:21842   */\n      dup2\n        /* \"#utility.yul\":21807:21843   */\n      tag_69\n      jump\t// in\n    tag_552:\n        /* \"#utility.yul\":21859:21948   */\n      tag_553\n        /* \"#utility.yul\":21941:21947   */\n      dup2\n        /* \"#utility.yul\":21936:21939   */\n      dup7\n        /* \"#utility.yul\":21859:21948   */\n      tag_299\n      jump\t// in\n    tag_553:\n        /* \"#utility.yul\":21852:21948   */\n      swap5\n      pop\n        /* \"#utility.yul\":21979:21980   */\n      0x01\n        /* \"#utility.yul\":21968:21977   */\n      dup3\n        /* \"#utility.yul\":21964:21981   */\n      and\n        /* \"#utility.yul\":21995:21996   */\n      0x00\n        /* \"#utility.yul\":21990:22156   */\n      dup2\n      eq\n      tag_555\n      jumpi\n        /* \"#utility.yul\":22170:22171   */\n      0x01\n        /* \"#utility.yul\":22165:22506   */\n      dup2\n      eq\n      tag_556\n      jumpi\n        /* \"#utility.yul\":21957:22506   */\n      jump(tag_554)\n        /* \"#utility.yul\":21990:22156   */\n    tag_555:\n        /* \"#utility.yul\":22074:22078   */\n      0xff\n        /* \"#utility.yul\":22070:22079   */\n      not\n        /* \"#utility.yul\":22059:22068   */\n      dup4\n        /* \"#utility.yul\":22055:22080   */\n      and\n        /* \"#utility.yul\":22050:22053   */\n      dup7\n        /* \"#utility.yul\":22043:22081   */\n      mstore\n        /* \"#utility.yul\":22136:22142   */\n      dup2\n        /* \"#utility.yul\":22129:22143   */\n      iszero\n        /* \"#utility.yul\":22122:22144   */\n      iszero\n        /* \"#utility.yul\":22114:22120   */\n      dup3\n        /* \"#utility.yul\":22110:22145   */\n      mul\n        /* \"#utility.yul\":22105:22108   */\n      dup7\n        /* \"#utility.yul\":22101:22146   */\n      add\n        /* \"#utility.yul\":22094:22146   */\n      swap4\n      pop\n        /* \"#utility.yul\":21990:22156   */\n      jump(tag_554)\n        /* \"#utility.yul\":22165:22506   */\n    tag_556:\n        /* \"#utility.yul\":22232:22270   */\n      tag_557\n        /* \"#utility.yul\":22264:22269   */\n      dup6\n        /* \"#utility.yul\":22232:22270   */\n      tag_284\n      jump\t// in\n    tag_557:\n        /* \"#utility.yul\":22292:22293   */\n      0x00\n        /* \"#utility.yul\":22306:22460   */\n    tag_558:\n        /* \"#utility.yul\":22320:22326   */\n      dup4\n        /* \"#utility.yul\":22317:22318   */\n      dup2\n        /* \"#utility.yul\":22314:22327   */\n      lt\n        /* \"#utility.yul\":22306:22460   */\n      iszero\n      tag_560\n      jumpi\n        /* \"#utility.yul\":22394:22401   */\n      dup2\n        /* \"#utility.yul\":22388:22402   */\n      sload\n        /* \"#utility.yul\":22384:22385   */\n      dup2\n        /* \"#utility.yul\":22379:22382   */\n      dup10\n        /* \"#utility.yul\":22375:22386   */\n      add\n        /* \"#utility.yul\":22368:22403   */\n      mstore\n        /* \"#utility.yul\":22444:22445   */\n      0x01\n        /* \"#utility.yul\":22435:22442   */\n      dup3\n        /* \"#utility.yul\":22431:22446   */\n      add\n        /* \"#utility.yul\":22420:22446   */\n      swap2\n      pop\n        /* \"#utility.yul\":22342:22346   */\n      0x20\n        /* \"#utility.yul\":22339:22340   */\n      dup2\n        /* \"#utility.yul\":22335:22347   */\n      add\n        /* \"#utility.yul\":22330:22347   */\n      swap1\n      pop\n        /* \"#utility.yul\":22306:22460   */\n      jump(tag_558)\n    tag_560:\n        /* \"#utility.yul\":22489:22495   */\n      dup4\n        /* \"#utility.yul\":22484:22487   */\n      dup9\n        /* \"#utility.yul\":22480:22496   */\n      add\n        /* \"#utility.yul\":22473:22496   */\n      swap6\n      pop\n        /* \"#utility.yul\":22172:22506   */\n      pop\n      pop\n        /* \"#utility.yul\":21957:22506   */\n    tag_554:\n      pop\n        /* \"#utility.yul\":21745:22512   */\n      pop\n      pop\n        /* \"#utility.yul\":21638:22512   */\n      swap3\n      swap2\n      pop\n      pop\n      jump\t// out\n        /* \"#utility.yul\":22518:23053   */\n    tag_91:\n        /* \"#utility.yul\":22748:22751   */\n      0x00\n        /* \"#utility.yul\":22770:22918   */\n      tag_562\n        /* \"#utility.yul\":22914:22917   */\n      dup3\n        /* \"#utility.yul\":22770:22918   */\n      tag_301\n      jump\t// in\n    tag_562:\n        /* \"#utility.yul\":22763:22918   */\n      swap2\n      pop\n        /* \"#utility.yul\":22935:23027   */\n      tag_563\n        /* \"#utility.yul\":23023:23026   */\n      dup3\n        /* \"#utility.yul\":23014:23020   */\n      dup5\n        /* \"#utility.yul\":22935:23027   */\n      tag_302\n      jump\t// in\n    tag_563:\n        /* \"#utility.yul\":22928:23027   */\n      swap2\n      pop\n        /* \"#utility.yul\":23044:23047   */\n      dup2\n        /* \"#utility.yul\":23037:23047   */\n      swap1\n      pop\n        /* \"#utility.yul\":22518:23053   */\n      swap3\n      swap2\n      pop\n      pop\n      jump\t// out\n        /* \"#utility.yul\":23059:23482   */\n    tag_95:\n        /* \"#utility.yul\":23200:23204   */\n      0x00\n        /* \"#utility.yul\":23238:23240   */\n      0x40\n        /* \"#utility.yul\":23227:23236   */\n      dup3\n        /* \"#utility.yul\":23223:23241   */\n      add\n        /* \"#utility.yul\":23215:23241   */\n      swap1\n      pop\n        /* \"#utility.yul\":23287:23296   */\n      dup2\n        /* \"#utility.yul\":23281:23285   */\n      dup2\n        /* \"#utility.yul\":23277:23297   */\n      sub\n        /* \"#utility.yul\":23273:23274   */\n      0x00\n        /* \"#utility.yul\":23262:23271   */\n      dup4\n        /* \"#utility.yul\":23258:23275   */\n      add\n        /* \"#utility.yul\":23251:23298   */\n      mstore\n        /* \"#utility.yul\":23315:23393   */\n      tag_565\n        /* \"#utility.yul\":23388:23392   */\n      dup2\n        /* \"#utility.yul\":23379:23385   */\n      dup6\n        /* \"#utility.yul\":23315:23393   */\n      tag_270\n      jump\t// in\n    tag_565:\n        /* \"#utility.yul\":23307:23393   */\n      swap1\n      pop\n        /* \"#utility.yul\":23403:23475   */\n      tag_566\n        /* \"#utility.yul\":23471:23473   */\n      0x20\n        /* \"#utility.yul\":23460:23469   */\n      dup4\n        /* \"#utility.yul\":23456:23474   */\n      add\n        /* \"#utility.yul\":23447:23453   */\n      dup5\n        /* \"#utility.yul\":23403:23475   */\n      tag_268\n      jump\t// in\n    tag_566:\n        /* \"#utility.yul\":23059:23482   */\n      swap4\n      swap3\n      pop\n      pop\n      pop\n      jump\t// out\n        /* \"#utility.yul\":23488:23667   */\n    tag_303:\n        /* \"#utility.yul\":23628:23659   */\n      0x4e6f206175746f72697a61646f2070617261207472616e736665726972000000\n        /* \"#utility.yul\":23624:23625   */\n      0x00\n        /* \"#utility.yul\":23616:23622   */\n      dup3\n        /* \"#utility.yul\":23612:23626   */\n      add\n        /* \"#utility.yul\":23605:23660   */\n      mstore\n        /* \"#utility.yul\":23488:23667   */\n      pop\n      jump\t// out\n        /* \"#utility.yul\":23673:24039   */\n    tag_304:\n        /* \"#utility.yul\":23815:23818   */\n      0x00\n        /* \"#utility.yul\":23836:23903   */\n      tag_569\n        /* \"#utility.yul\":23900:23902   */\n      0x1d\n        /* \"#utility.yul\":23895:23898   */\n      dup4\n        /* \"#utility.yul\":23836:23903   */\n      tag_269\n      jump\t// in\n    tag_569:\n        /* \"#utility.yul\":23829:23903   */\n      swap2\n      pop\n        /* \"#utility.yul\":23912:24005   */\n      tag_570\n        /* \"#utility.yul\":24001:24004   */\n      dup3\n        /* \"#utility.yul\":23912:24005   */\n      tag_303\n      jump\t// in\n    tag_570:\n        /* \"#utility.yul\":24030:24032   */\n      0x20\n        /* \"#utility.yul\":24025:24028   */\n      dup3\n        /* \"#utility.yul\":24021:24033   */\n      add\n        /* \"#utility.yul\":24014:24033   */\n      swap1\n      pop\n        /* \"#utility.yul\":23673:24039   */\n      swap2\n      swap1\n      pop\n      jump\t// out\n        /* \"#utility.yul\":24045:24464   */\n    tag_100:\n        /* \"#utility.yul\":24211:24215   */\n      0x00\n        /* \"#utility.yul\":24249:24251   */\n      0x20\n        /* \"#utility.yul\":24238:24247   */\n      dup3\n        /* \"#utility.yul\":24234:24252   */\n      add\n        /* \"#utility.yul\":24226:24252   */\n      swap1\n      pop\n        /* \"#utility.yul\":24298:24307   */\n      dup2\n        /* \"#utility.yul\":24292:24296   */\n      dup2\n        /* \"#utility.yul\":24288:24308   */\n      sub\n        /* \"#utility.yul\":24284:24285   */\n      0x00\n        /* \"#utility.yul\":24273:24282   */\n      dup4\n        /* \"#utility.yul\":24269:24286   */\n      add\n        /* \"#utility.yul\":24262:24309   */\n      mstore\n        /* \"#utility.yul\":24326:24457   */\n      tag_572\n        /* \"#utility.yul\":24452:24456   */\n      dup2\n        /* \"#utility.yul\":24326:24457   */\n      tag_304\n      jump\t// in\n    tag_572:\n        /* \"#utility.yul\":24318:24457   */\n      swap1\n      pop\n        /* \"#utility.yul\":24045:24464   */\n      swap2\n      swap1\n      pop\n      jump\t// out\n        /* \"#utility.yul\":24470:24638   */\n    tag_305:\n        /* \"#utility.yul\":24610:24630   */\n      0x446972656363696f6e20696e76616c6964610000000000000000000000000000\n        /* \"#utility.yul\":24606:24607   */\n      0x00\n        /* \"#utility.yul\":24598:24604   */\n      dup3\n        /* \"#utility.yul\":24594:24608   */\n      add\n        /* \"#utility.yul\":24587:24631   */\n      mstore\n        /* \"#utility.yul\":24470:24638   */\n      pop\n      jump\t// out\n        /* \"#utility.yul\":24644:25010   */\n    tag_306:\n        /* \"#utility.yul\":24786:24789   */\n      0x00\n        /* \"#utility.yul\":24807:24874   */\n      tag_575\n        /* \"#utility.yul\":24871:24873   */\n      0x12\n        /* \"#utility.yul\":24866:24869   */\n      dup4\n        /* \"#utility.yul\":24807:24874   */\n      tag_269\n      jump\t// in\n    tag_575:\n        /* \"#utility.yul\":24800:24874   */\n      swap2\n      pop\n        /* \"#utility.yul\":24883:24976   */\n      tag_576\n        /* \"#utility.yul\":24972:24975   */\n      dup3\n        /* \"#utility.yul\":24883:24976   */\n      tag_305\n      jump\t// in\n    tag_576:\n        /* \"#utility.yul\":25001:25003   */\n      0x20\n        /* \"#utility.yul\":24996:24999   */\n      dup3\n        /* \"#utility.yul\":24992:25004   */\n      add\n        /* \"#utility.yul\":24985:25004   */\n      swap1\n      pop\n        /* \"#utility.yul\":24644:25010   */\n      swap2\n      swap1\n      pop\n      jump\t// out\n        /* \"#utility.yul\":25016:25435   */\n    tag_103:\n        /* \"#utility.yul\":25182:25186   */\n      0x00\n        /* \"#utility.yul\":25220:25222   */\n      0x20\n        /* \"#utility.yul\":25209:25218   */\n      dup3\n        /* \"#utility.yul\":25205:25223   */\n      add\n        /* \"#utility.yul\":25197:25223   */\n      swap1\n      pop\n        /* \"#utility.yul\":25269:25278   */\n      dup2\n        /* \"#utility.yul\":25263:25267   */\n      dup2\n        /* \"#utility.yul\":25259:25279   */\n      sub\n        /* \"#utility.yul\":25255:25256   */\n      0x00\n        /* \"#utility.yul\":25244:25253   */\n      dup4\n        /* \"#utility.yul\":25240:25257   */\n      add\n        /* \"#utility.yul\":25233:25280   */\n      mstore\n        /* \"#utility.yul\":25297:25428   */\n      tag_578\n        /* \"#utility.yul\":25423:25427   */\n      dup2\n        /* \"#utility.yul\":25297:25428   */\n      tag_306\n      jump\t// in\n    tag_578:\n        /* \"#utility.yul\":25289:25428   */\n      swap1\n      pop\n        /* \"#utility.yul\":25016:25435   */\n      swap2\n      swap1\n      pop\n      jump\t// out\n        /* \"#utility.yul\":25441:25754   */\n    tag_107:\n        /* \"#utility.yul\":25554:25558   */\n      0x00\n        /* \"#utility.yul\":25592:25594   */\n      0x20\n        /* \"#utility.yul\":25581:25590   */\n      dup3\n        /* \"#utility.yul\":25577:25595   */\n      add\n        /* \"#utility.yul\":25569:25595   */\n      swap1\n      pop\n        /* \"#utility.yul\":25641:25650   */\n      dup2\n        /* \"#utility.yul\":25635:25639   */\n      dup2\n        /* \"#utility.yul\":25631:25651   */\n      sub\n        /* \"#utility.yul\":25627:25628   */\n      0x00\n        /* \"#utility.yul\":25616:25625   */\n      dup4\n        /* \"#utility.yul\":25612:25629   */\n      add\n        /* \"#utility.yul\":25605:25652   */\n      mstore\n        /* \"#utility.yul\":25669:25747   */\n      tag_580\n        /* \"#utility.yul\":25742:25746   */\n      dup2\n        /* \"#utility.yul\":25733:25739   */\n      dup5\n        /* \"#utility.yul\":25669:25747   */\n      tag_270\n      jump\t// in\n    tag_580:\n        /* \"#utility.yul\":25661:25747   */\n      swap1\n      pop\n        /* \"#utility.yul\":25441:25754   */\n      swap3\n      swap2\n      pop\n      pop\n      jump\t// out\n        /* \"#utility.yul\":25760:25934   */\n    tag_307:\n        /* \"#utility.yul\":25900:25926   */\n      0x4167726963756c746f72207961207265676973747261646f0000000000000000\n        /* \"#utility.yul\":25896:25897   */\n      0x00\n        /* \"#utility.yul\":25888:25894   */\n      dup3\n        /* \"#utility.yul\":25884:25898   */\n      add\n        /* \"#utility.yul\":25877:25927   */\n      mstore\n        /* \"#utility.yul\":25760:25934   */\n      pop\n      jump\t// out\n        /* \"#utility.yul\":25940:26306   */\n    tag_308:\n        /* \"#utility.yul\":26082:26085   */\n      0x00\n        /* \"#utility.yul\":26103:26170   */\n      tag_583\n        /* \"#utility.yul\":26167:26169   */\n      0x18\n        /* \"#utility.yul\":26162:26165   */\n      dup4\n        /* \"#utility.yul\":26103:26170   */\n      tag_269\n      jump\t// in\n    tag_583:\n        /* \"#utility.yul\":26096:26170   */\n      swap2\n      pop\n        /* \"#utility.yul\":26179:26272   */\n      tag_584\n        /* \"#utility.yul\":26268:26271   */\n      dup3\n        /* \"#utility.yul\":26179:26272   */\n      tag_307\n      jump\t// in\n    tag_584:\n        /* \"#utility.yul\":26297:26299   */\n      0x20\n        /* \"#utility.yul\":26292:26295   */\n      dup3\n        /* \"#utility.yul\":26288:26300   */\n      add\n        /* \"#utility.yul\":26281:26300   */\n      swap1\n      pop\n        /* \"#utility.yul\":25940:26306   */\n      swap2\n      swap1\n      pop\n      jump\t// out\n        /* \"#utility.yul\":26312:26731   */\n    tag_132:\n        /* \"#utility.yul\":26478:26482   */\n      0x00\n        /* \"#utility.yul\":26516:26518   */\n      0x20\n        /* \"#utility.yul\":26505:26514   */\n      dup3\n        /* \"#utility.yul\":26501:26519   */\n      add\n        /* \"#utility.yul\":26493:26519   */\n      swap1\n      pop\n        /* \"#utility.yul\":26565:26574   */\n      dup2\n        /* \"#utility.yul\":26559:26563   */\n      dup2\n        /* \"#utility.yul\":26555:26575   */\n      sub\n        /* \"#utility.yul\":26551:26552   */\n      0x00\n        /* \"#utility.yul\":26540:26549   */\n      dup4\n        /* \"#utility.yul\":26536:26553   */\n      add\n        /* \"#utility.yul\":26529:26576   */\n      mstore\n        /* \"#utility.yul\":26593:26724   */\n      tag_586\n        /* \"#utility.yul\":26719:26723   */\n      dup2\n        /* \"#utility.yul\":26593:26724   */\n      tag_308\n      jump\t// in\n    tag_586:\n        /* \"#utility.yul\":26585:26724   */\n      swap1\n      pop\n        /* \"#utility.yul\":26312:26731   */\n      swap2\n      swap1\n      pop\n      jump\t// out\n        /* \"#utility.yul\":26737:27251   */\n    tag_136:\n        /* \"#utility.yul\":26898:26902   */\n      0x00\n        /* \"#utility.yul\":26936:26938   */\n      0x40\n        /* \"#utility.yul\":26925:26934   */\n      dup3\n        /* \"#utility.yul\":26921:26939   */\n      add\n        /* \"#utility.yul\":26913:26939   */\n      swap1\n      pop\n        /* \"#utility.yul\":26985:26994   */\n      dup2\n        /* \"#utility.yul\":26979:26983   */\n      dup2\n        /* \"#utility.yul\":26975:26995   */\n      sub\n        /* \"#utility.yul\":26971:26972   */\n      0x00\n        /* \"#utility.yul\":26960:26969   */\n      dup4\n        /* \"#utility.yul\":26956:26973   */\n      add\n        /* \"#utility.yul\":26949:26996   */\n      mstore\n        /* \"#utility.yul\":27013:27091   */\n      tag_588\n        /* \"#utility.yul\":27086:27090   */\n      dup2\n        /* \"#utility.yul\":27077:27083   */\n      dup6\n        /* \"#utility.yul\":27013:27091   */\n      tag_270\n      jump\t// in\n    tag_588:\n        /* \"#utility.yul\":27005:27091   */\n      swap1\n      pop\n        /* \"#utility.yul\":27138:27147   */\n      dup2\n        /* \"#utility.yul\":27132:27136   */\n      dup2\n        /* \"#utility.yul\":27128:27148   */\n      sub\n        /* \"#utility.yul\":27123:27125   */\n      0x20\n        /* \"#utility.yul\":27112:27121   */\n      dup4\n        /* \"#utility.yul\":27108:27126   */\n      add\n        /* \"#utility.yul\":27101:27149   */\n      mstore\n        /* \"#utility.yul\":27166:27244   */\n      tag_589\n        /* \"#utility.yul\":27239:27243   */\n      dup2\n        /* \"#utility.yul\":27230:27236   */\n      dup5\n        /* \"#utility.yul\":27166:27244   */\n      tag_270\n      jump\t// in\n    tag_589:\n        /* \"#utility.yul\":27158:27244   */\n      swap1\n      pop\n        /* \"#utility.yul\":26737:27251   */\n      swap4\n      swap3\n      pop\n      pop\n      pop\n      jump\t// out\n        /* \"#utility.yul\":27257:27488   */\n    tag_309:\n        /* \"#utility.yul\":27397:27431   */\n      0x536f6c6f20656c206167726963756c746f72207075656465206d617263617220\n        /* \"#utility.yul\":27393:27394   */\n      0x00\n        /* \"#utility.yul\":27385:27391   */\n      dup3\n        /* \"#utility.yul\":27381:27395   */\n      add\n        /* \"#utility.yul\":27374:27432   */\n      mstore\n        /* \"#utility.yul\":27466:27480   */\n      0x636f6d6f20656e766961646f0000000000000000000000000000000000000000\n        /* \"#utility.yul\":27461:27463   */\n      0x20\n        /* \"#utility.yul\":27453:27459   */\n      dup3\n        /* \"#utility.yul\":27449:27464   */\n      add\n        /* \"#utility.yul\":27442:27481   */\n      mstore\n        /* \"#utility.yul\":27257:27488   */\n      pop\n      jump\t// out\n        /* \"#utility.yul\":27494:27860   */\n    tag_310:\n        /* \"#utility.yul\":27636:27639   */\n      0x00\n        /* \"#utility.yul\":27657:27724   */\n      tag_592\n        /* \"#utility.yul\":27721:27723   */\n      0x2c\n        /* \"#utility.yul\":27716:27719   */\n      dup4\n        /* \"#utility.yul\":27657:27724   */\n      tag_269\n      jump\t// in\n    tag_592:\n        /* \"#utility.yul\":27650:27724   */\n      swap2\n      pop\n        /* \"#utility.yul\":27733:27826   */\n      tag_593\n        /* \"#utility.yul\":27822:27825   */\n      dup3\n        /* \"#utility.yul\":27733:27826   */\n      tag_309\n      jump\t// in\n    tag_593:\n        /* \"#utility.yul\":27851:27853   */\n      0x40\n        /* \"#utility.yul\":27846:27849   */\n      dup3\n        /* \"#utility.yul\":27842:27854   */\n      add\n        /* \"#utility.yul\":27835:27854   */\n      swap1\n      pop\n        /* \"#utility.yul\":27494:27860   */\n      swap2\n      swap1\n      pop\n      jump\t// out\n        /* \"#utility.yul\":27866:28285   */\n    tag_140:\n        /* \"#utility.yul\":28032:28036   */\n      0x00\n        /* \"#utility.yul\":28070:28072   */\n      0x20\n        /* \"#utility.yul\":28059:28068   */\n      dup3\n        /* \"#utility.yul\":28055:28073   */\n      add\n        /* \"#utility.yul\":28047:28073   */\n      swap1\n      pop\n        /* \"#utility.yul\":28119:28128   */\n      dup2\n        /* \"#utility.yul\":28113:28117   */\n      dup2\n        /* \"#utility.yul\":28109:28129   */\n      sub\n        /* \"#utility.yul\":28105:28106   */\n      0x00\n        /* \"#utility.yul\":28094:28103   */\n      dup4\n        /* \"#utility.yul\":28090:28107   */\n      add\n        /* \"#utility.yul\":28083:28130   */\n      mstore\n        /* \"#utility.yul\":28147:28278   */\n      tag_595\n        /* \"#utility.yul\":28273:28277   */\n      dup2\n        /* \"#utility.yul\":28147:28278   */\n      tag_310\n      jump\t// in\n    tag_595:\n        /* \"#utility.yul\":28139:28278   */\n      swap1\n      pop\n        /* \"#utility.yul\":27866:28285   */\n      swap2\n      swap1\n      pop\n      jump\t// out\n        /* \"#utility.yul\":28291:28511   */\n    tag_311:\n        /* \"#utility.yul\":28431:28465   */\n      0x456c2070726f647563746f20646562652065737461722066696e616e63696164\n        /* \"#utility.yul\":28427:28428   */\n      0x00\n        /* \"#utility.yul\":28419:28425   */\n      dup3\n        /* \"#utility.yul\":28415:28429   */\n      add\n        /* \"#utility.yul\":28408:28466   */\n      mstore\n        /* \"#utility.yul\":28500:28503   */\n      0x6f00000000000000000000000000000000000000000000000000000000000000\n        /* \"#utility.yul\":28495:28497   */\n      0x20\n        /* \"#utility.yul\":28487:28493   */\n      dup3\n        /* \"#utility.yul\":28483:28498   */\n      add\n        /* \"#utility.yul\":28476:28504   */\n      mstore\n        /* \"#utility.yul\":28291:28511   */\n      pop\n      jump\t// out\n        /* \"#utility.yul\":28517:28883   */\n    tag_312:\n        /* \"#utility.yul\":28659:28662   */\n      0x00\n        /* \"#utility.yul\":28680:28747   */\n      tag_598\n        /* \"#utility.yul\":28744:28746   */\n      0x21\n        /* \"#utility.yul\":28739:28742   */\n      dup4\n        /* \"#utility.yul\":28680:28747   */\n      tag_269\n      jump\t// in\n    tag_598:\n        /* \"#utility.yul\":28673:28747   */\n      swap2\n      pop\n        /* \"#utility.yul\":28756:28849   */\n      tag_599\n        /* \"#utility.yul\":28845:28848   */\n      dup3\n        /* \"#utility.yul\":28756:28849   */\n      tag_311\n      jump\t// in\n    tag_599:\n        /* \"#utility.yul\":28874:28876   */\n      0x40\n        /* \"#utility.yul\":28869:28872   */\n      dup3\n        /* \"#utility.yul\":28865:28877   */\n      add\n        /* \"#utility.yul\":28858:28877   */\n      swap1\n      pop\n        /* \"#utility.yul\":28517:28883   */\n      swap2\n      swap1\n      pop\n      jump\t// out\n        /* \"#utility.yul\":28889:29308   */\n    tag_147:\n        /* \"#utility.yul\":29055:29059   */\n      0x00\n        /* \"#utility.yul\":29093:29095   */\n      0x20\n        /* \"#utility.yul\":29082:29091   */\n      dup3\n        /* \"#utility.yul\":29078:29096   */\n      add\n        /* \"#utility.yul\":29070:29096   */\n      swap1\n      pop\n        /* \"#utility.yul\":29142:29151   */\n      dup2\n        /* \"#utility.yul\":29136:29140   */\n      dup2\n        /* \"#utility.yul\":29132:29152   */\n      sub\n        /* \"#utility.yul\":29128:29129   */\n      0x00\n        /* \"#utility.yul\":29117:29126   */\n      dup4\n        /* \"#utility.yul\":29113:29130   */\n      add\n        /* \"#utility.yul\":29106:29153   */\n      mstore\n        /* \"#utility.yul\":29170:29301   */\n      tag_601\n        /* \"#utility.yul\":29296:29300   */\n      dup2\n        /* \"#utility.yul\":29170:29301   */\n      tag_312\n      jump\t// in\n    tag_601:\n        /* \"#utility.yul\":29162:29301   */\n      swap1\n      pop\n        /* \"#utility.yul\":28889:29308   */\n      swap2\n      swap1\n      pop\n      jump\t// out\n        /* \"#utility.yul\":29314:29545   */\n    tag_313:\n        /* \"#utility.yul\":29454:29488   */\n      0x536f6c6f20656c20636f6d707261646f7220707565646520636f6e6669726d61\n        /* \"#utility.yul\":29450:29451   */\n      0x00\n        /* \"#utility.yul\":29442:29448   */\n      dup3\n        /* \"#utility.yul\":29438:29452   */\n      add\n        /* \"#utility.yul\":29431:29489   */\n      mstore\n        /* \"#utility.yul\":29523:29537   */\n      0x72206c6120656e74726567610000000000000000000000000000000000000000\n        /* \"#utility.yul\":29518:29520   */\n      0x20\n        /* \"#utility.yul\":29510:29516   */\n      dup3\n        /* \"#utility.yul\":29506:29521   */\n      add\n        /* \"#utility.yul\":29499:29538   */\n      mstore\n        /* \"#utility.yul\":29314:29545   */\n      pop\n      jump\t// out\n        /* \"#utility.yul\":29551:29917   */\n    tag_314:\n        /* \"#utility.yul\":29693:29696   */\n      0x00\n        /* \"#utility.yul\":29714:29781   */\n      tag_604\n        /* \"#utility.yul\":29778:29780   */\n      0x2c\n        /* \"#utility.yul\":29773:29776   */\n      dup4\n        /* \"#utility.yul\":29714:29781   */\n      tag_269\n      jump\t// in\n    tag_604:\n        /* \"#utility.yul\":29707:29781   */\n      swap2\n      pop\n        /* \"#utility.yul\":29790:29883   */\n      tag_605\n        /* \"#utility.yul\":29879:29882   */\n      dup3\n        /* \"#utility.yul\":29790:29883   */\n      tag_313\n      jump\t// in\n    tag_605:\n        /* \"#utility.yul\":29908:29910   */\n      0x40\n        /* \"#utility.yul\":29903:29906   */\n      dup3\n        /* \"#utility.yul\":29899:29911   */\n      add\n        /* \"#utility.yul\":29892:29911   */\n      swap1\n      pop\n        /* \"#utility.yul\":29551:29917   */\n      swap2\n      swap1\n      pop\n      jump\t// out\n        /* \"#utility.yul\":29923:30342   */\n    tag_155:\n        /* \"#utility.yul\":30089:30093   */\n      0x00\n        /* \"#utility.yul\":30127:30129   */\n      0x20\n        /* \"#utility.yul\":30116:30125   */\n      dup3\n        /* \"#utility.yul\":30112:30130   */\n      add\n        /* \"#utility.yul\":30104:30130   */\n      swap1\n      pop\n        /* \"#utility.yul\":30176:30185   */\n      dup2\n        /* \"#utility.yul\":30170:30174   */\n      dup2\n        /* \"#utility.yul\":30166:30186   */\n      sub\n        /* \"#utility.yul\":30162:30163   */\n      0x00\n        /* \"#utility.yul\":30151:30160   */\n      dup4\n        /* \"#utility.yul\":30147:30164   */\n      add\n        /* \"#utility.yul\":30140:30187   */\n      mstore\n        /* \"#utility.yul\":30204:30335   */\n      tag_607\n        /* \"#utility.yul\":30330:30334   */\n      dup2\n        /* \"#utility.yul\":30204:30335   */\n      tag_314\n      jump\t// in\n    tag_607:\n        /* \"#utility.yul\":30196:30335   */\n      swap1\n      pop\n        /* \"#utility.yul\":29923:30342   */\n      swap2\n      swap1\n      pop\n      jump\t// out\n        /* \"#utility.yul\":30348:30513   */\n    tag_315:\n        /* \"#utility.yul\":30488:30505   */\n      0x45737461646f20696e76616c69646f0000000000000000000000000000000000\n        /* \"#utility.yul\":30484:30485   */\n      0x00\n        /* \"#utility.yul\":30476:30482   */\n      dup3\n        /* \"#utility.yul\":30472:30486   */\n      add\n        /* \"#utility.yul\":30465:30506   */\n      mstore\n        /* \"#utility.yul\":30348:30513   */\n      pop\n      jump\t// out\n        /* \"#utility.yul\":30519:30885   */\n    tag_316:\n        /* \"#utility.yul\":30661:30664   */\n      0x00\n        /* \"#utility.yul\":30682:30749   */\n      tag_610\n        /* \"#utility.yul\":30746:30748   */\n      0x0f\n        /* \"#utility.yul\":30741:30744   */\n      dup4\n        /* \"#utility.yul\":30682:30749   */\n      tag_269\n      jump\t// in\n    tag_610:\n        /* \"#utility.yul\":30675:30749   */\n      swap2\n      pop\n        /* \"#utility.yul\":30758:30851   */\n      tag_611\n        /* \"#utility.yul\":30847:30850   */\n      dup3\n        /* \"#utility.yul\":30758:30851   */\n      tag_315\n      jump\t// in\n    tag_611:\n        /* \"#utility.yul\":30876:30878   */\n      0x20\n        /* \"#utility.yul\":30871:30874   */\n      dup3\n        /* \"#utility.yul\":30867:30879   */\n      add\n        /* \"#utility.yul\":30860:30879   */\n      swap1\n      pop\n        /* \"#utility.yul\":30519:30885   */\n      swap2\n      swap1\n      pop\n      jump\t// out\n        /* \"#utility.yul\":30891:31310   */\n    tag_167:\n        /* \"#utility.yul\":31057:31061   */\n      0x00\n        /* \"#utility.yul\":31095:31097   */\n      0x20\n        /* \"#utility.yul\":31084:31093   */\n      dup3\n        /* \"#utility.yul\":31080:31098   */\n      add\n        /* \"#utility.yul\":31072:31098   */\n      swap1\n      pop\n        /* \"#utility.yul\":31144:31153   */\n      dup2\n        /* \"#utility.yul\":31138:31142   */\n      dup2\n        /* \"#utility.yul\":31134:31154   */\n      sub\n        /* \"#utility.yul\":31130:31131   */\n      0x00\n        /* \"#utility.yul\":31119:31128   */\n      dup4\n        /* \"#utility.yul\":31115:31132   */\n      add\n        /* \"#utility.yul\":31108:31155   */\n      mstore\n        /* \"#utility.yul\":31172:31303   */\n      tag_613\n        /* \"#utility.yul\":31298:31302   */\n      dup2\n        /* \"#utility.yul\":31172:31303   */\n      tag_316\n      jump\t// in\n    tag_613:\n        /* \"#utility.yul\":31164:31303   */\n      swap1\n      pop\n        /* \"#utility.yul\":30891:31310   */\n      swap2\n      swap1\n      pop\n      jump\t// out\n        /* \"#utility.yul\":31316:31553   */\n    tag_317:\n        /* \"#utility.yul\":31456:31490   */\n      0x456c2070726f647563746f206e6f206573746120646973706f6e69626c652070\n        /* \"#utility.yul\":31452:31453   */\n      0x00\n        /* \"#utility.yul\":31444:31450   */\n      dup3\n        /* \"#utility.yul\":31440:31454   */\n      add\n        /* \"#utility.yul\":31433:31491   */\n      mstore\n        /* \"#utility.yul\":31525:31545   */\n      0x6172612066696e616e6369616d69656e746f0000000000000000000000000000\n        /* \"#utility.yul\":31520:31522   */\n      0x20\n        /* \"#utility.yul\":31512:31518   */\n      dup3\n        /* \"#utility.yul\":31508:31523   */\n      add\n        /* \"#utility.yul\":31501:31546   */\n      mstore\n        /* \"#utility.yul\":31316:31553   */\n      pop\n      jump\t// out\n        /* \"#utility.yul\":31559:31925   */\n    tag_318:\n        /* \"#utility.yul\":31701:31704   */\n      0x00\n        /* \"#utility.yul\":31722:31789   */\n      tag_616\n        /* \"#utility.yul\":31786:31788   */\n      0x32\n        /* \"#utility.yul\":31781:31784   */\n      dup4\n        /* \"#utility.yul\":31722:31789   */\n      tag_269\n      jump\t// in\n    tag_616:\n        /* \"#utility.yul\":31715:31789   */\n      swap2\n      pop\n        /* \"#utility.yul\":31798:31891   */\n      tag_617\n        /* \"#utility.yul\":31887:31890   */\n      dup3\n        /* \"#utility.yul\":31798:31891   */\n      tag_317\n      jump\t// in\n    tag_617:\n        /* \"#utility.yul\":31916:31918   */\n      0x40\n        /* \"#utility.yul\":31911:31914   */\n      dup3\n        /* \"#utility.yul\":31907:31919   */\n      add\n        /* \"#utility.yul\":31900:31919   */\n      swap1\n      pop\n        /* \"#utility.yul\":31559:31925   */\n      swap2\n      swap1\n      pop\n      jump\t// out\n        /* \"#utility.yul\":31931:32350   */\n    tag_181:\n        /* \"#utility.yul\":32097:32101   */\n      0x00\n        /* \"#utility.yul\":32135:32137   */\n      0x20\n        /* \"#utility.yul\":32124:32133   */\n      dup3\n        /* \"#utility.yul\":32120:32138   */\n      add\n        /* \"#utility.yul\":32112:32138   */\n      swap1\n      pop\n        /* \"#utility.yul\":32184:32193   */\n      dup2\n        /* \"#utility.yul\":32178:32182   */\n      dup2\n        /* \"#utility.yul\":32174:32194   */\n      sub\n        /* \"#utility.yul\":32170:32171   */\n      0x00\n        /* \"#utility.yul\":32159:32168   */\n      dup4\n        /* \"#utility.yul\":32155:32172   */\n      add\n        /* \"#utility.yul\":32148:32195   */\n      mstore\n        /* \"#utility.yul\":32212:32343   */\n      tag_619\n        /* \"#utility.yul\":32338:32342   */\n      dup2\n        /* \"#utility.yul\":32212:32343   */\n      tag_318\n      jump\t// in\n    tag_619:\n        /* \"#utility.yul\":32204:32343   */\n      swap1\n      pop\n        /* \"#utility.yul\":31931:32350   */\n      swap2\n      swap1\n      pop\n      jump\t// out\n        /* \"#utility.yul\":32356:32585   */\n    tag_319:\n        /* \"#utility.yul\":32496:32530   */\n      0x456c2076616c6f7220656e766961646f206e6f20636f696e6369646520636f6e\n        /* \"#utility.yul\":32492:32493   */\n      0x00\n        /* \"#utility.yul\":32484:32490   */\n      dup3\n        /* \"#utility.yul\":32480:32494   */\n      add\n        /* \"#utility.yul\":32473:32531   */\n      mstore\n        /* \"#utility.yul\":32565:32577   */\n      0x20656c2070726563696f00000000000000000000000000000000000000000000\n        /* \"#utility.yul\":32560:32562   */\n      0x20\n        /* \"#utility.yul\":32552:32558   */\n      dup3\n        /* \"#utility.yul\":32548:32563   */\n      add\n        /* \"#utility.yul\":32541:32578   */\n      mstore\n        /* \"#utility.yul\":32356:32585   */\n      pop\n      jump\t// out\n        /* \"#utility.yul\":32591:32957   */\n    tag_320:\n        /* \"#utility.yul\":32733:32736   */\n      0x00\n        /* \"#utility.yul\":32754:32821   */\n      tag_622\n        /* \"#utility.yul\":32818:32820   */\n      0x2a\n        /* \"#utility.yul\":32813:32816   */\n      dup4\n        /* \"#utility.yul\":32754:32821   */\n      tag_269\n      jump\t// in\n    tag_622:\n        /* \"#utility.yul\":32747:32821   */\n      swap2\n      pop\n        /* \"#utility.yul\":32830:32923   */\n      tag_623\n        /* \"#utility.yul\":32919:32922   */\n      dup3\n        /* \"#utility.yul\":32830:32923   */\n      tag_319\n      jump\t// in\n    tag_623:\n        /* \"#utility.yul\":32948:32950   */\n      0x40\n        /* \"#utility.yul\":32943:32946   */\n      dup3\n        /* \"#utility.yul\":32939:32951   */\n      add\n        /* \"#utility.yul\":32932:32951   */\n      swap1\n      pop\n        /* \"#utility.yul\":32591:32957   */\n      swap2\n      swap1\n      pop\n      jump\t// out\n        /* \"#utility.yul\":32963:33382   */\n    tag_184:\n        /* \"#utility.yul\":33129:33133   */\n      0x00\n        /* \"#utility.yul\":33167:33169   */\n      0x20\n        /* \"#utility.yul\":33156:33165   */\n      dup3\n        /* \"#utility.yul\":33152:33170   */\n      add\n        /* \"#utility.yul\":33144:33170   */\n      swap1\n      pop\n        /* \"#utility.yul\":33216:33225   */\n      dup2\n        /* \"#utility.yul\":33210:33214   */\n      dup2\n        /* \"#utility.yul\":33206:33226   */\n      sub\n        /* \"#utility.yul\":33202:33203   */\n      0x00\n        /* \"#utility.yul\":33191:33200   */\n      dup4\n        /* \"#utility.yul\":33187:33204   */\n      add\n        /* \"#utility.yul\":33180:33227   */\n      mstore\n        /* \"#utility.yul\":33244:33375   */\n      tag_625\n        /* \"#utility.yul\":33370:33374   */\n      dup2\n        /* \"#utility.yul\":33244:33375   */\n      tag_320\n      jump\t// in\n    tag_625:\n        /* \"#utility.yul\":33236:33375   */\n      swap1\n      pop\n        /* \"#utility.yul\":32963:33382   */\n      swap2\n      swap1\n      pop\n      jump\t// out\n        /* \"#utility.yul\":33388:33609   */\n    tag_321:\n        /* \"#utility.yul\":33528:33562   */\n      0x50726f647563746f2066696e616e636961646f20706f7220636f6d707261646f\n        /* \"#utility.yul\":33524:33525   */\n      0x00\n        /* \"#utility.yul\":33516:33522   */\n      dup3\n        /* \"#utility.yul\":33512:33526   */\n      add\n        /* \"#utility.yul\":33505:33563   */\n      mstore\n        /* \"#utility.yul\":33597:33601   */\n      0x7220000000000000000000000000000000000000000000000000000000000000\n        /* \"#utility.yul\":33592:33594   */\n      0x20\n        /* \"#utility.yul\":33584:33590   */\n      dup3\n        /* \"#utility.yul\":33580:33595   */\n      add\n        /* \"#utility.yul\":33573:33602   */\n      mstore\n        /* \"#utility.yul\":33388:33609   */\n      pop\n      jump\t// out\n        /* \"#utility.yul\":33615:34017   */\n    tag_322:\n        /* \"#utility.yul\":33775:33778   */\n      0x00\n        /* \"#utility.yul\":33796:33881   */\n      tag_628\n        /* \"#utility.yul\":33878:33880   */\n      0x22\n        /* \"#utility.yul\":33873:33876   */\n      dup4\n        /* \"#utility.yul\":33796:33881   */\n      tag_299\n      jump\t// in\n    tag_628:\n        /* \"#utility.yul\":33789:33881   */\n      swap2\n      pop\n        /* \"#utility.yul\":33890:33983   */\n      tag_629\n        /* \"#utility.yul\":33979:33982   */\n      dup3\n        /* \"#utility.yul\":33890:33983   */\n      tag_321\n      jump\t// in\n    tag_629:\n        /* \"#utility.yul\":34008:34010   */\n      0x22\n        /* \"#utility.yul\":34003:34006   */\n      dup3\n        /* \"#utility.yul\":33999:34011   */\n      add\n        /* \"#utility.yul\":33992:34011   */\n      swap1\n      pop\n        /* \"#utility.yul\":33615:34017   */\n      swap2\n      swap1\n      pop\n      jump\t// out\n        /* \"#utility.yul\":34023:34413   */\n    tag_323:\n        /* \"#utility.yul\":34129:34132   */\n      0x00\n        /* \"#utility.yul\":34157:34196   */\n      tag_631\n        /* \"#utility.yul\":34190:34195   */\n      dup3\n        /* \"#utility.yul\":34157:34196   */\n      tag_248\n      jump\t// in\n    tag_631:\n        /* \"#utility.yul\":34212:34301   */\n      tag_632\n        /* \"#utility.yul\":34294:34300   */\n      dup2\n        /* \"#utility.yul\":34289:34292   */\n      dup6\n        /* \"#utility.yul\":34212:34301   */\n      tag_299\n      jump\t// in\n    tag_632:\n        /* \"#utility.yul\":34205:34301   */\n      swap4\n      pop\n        /* \"#utility.yul\":34310:34375   */\n      tag_633\n        /* \"#utility.yul\":34368:34374   */\n      dup2\n        /* \"#utility.yul\":34363:34366   */\n      dup6\n        /* \"#utility.yul\":34356:34360   */\n      0x20\n        /* \"#utility.yul\":34349:34354   */\n      dup7\n        /* \"#utility.yul\":34345:34361   */\n      add\n        /* \"#utility.yul\":34310:34375   */\n      tag_250\n      jump\t// in\n    tag_633:\n        /* \"#utility.yul\":34400:34406   */\n      dup1\n        /* \"#utility.yul\":34395:34398   */\n      dup5\n        /* \"#utility.yul\":34391:34407   */\n      add\n        /* \"#utility.yul\":34384:34407   */\n      swap2\n      pop\n        /* \"#utility.yul\":34133:34413   */\n      pop\n        /* \"#utility.yul\":34023:34413   */\n      swap3\n      swap2\n      pop\n      pop\n      jump\t// out\n        /* \"#utility.yul\":34419:34960   */\n    tag_190:\n        /* \"#utility.yul\":34652:34655   */\n      0x00\n        /* \"#utility.yul\":34674:34822   */\n      tag_635\n        /* \"#utility.yul\":34818:34821   */\n      dup3\n        /* \"#utility.yul\":34674:34822   */\n      tag_322\n      jump\t// in\n    tag_635:\n        /* \"#utility.yul\":34667:34822   */\n      swap2\n      pop\n        /* \"#utility.yul\":34839:34934   */\n      tag_636\n        /* \"#utility.yul\":34930:34933   */\n      dup3\n        /* \"#utility.yul\":34921:34927   */\n      dup5\n        /* \"#utility.yul\":34839:34934   */\n      tag_323\n      jump\t// in\n    tag_636:\n        /* \"#utility.yul\":34832:34934   */\n      swap2\n      pop\n        /* \"#utility.yul\":34951:34954   */\n      dup2\n        /* \"#utility.yul\":34944:34954   */\n      swap1\n      pop\n        /* \"#utility.yul\":34419:34960   */\n      swap3\n      swap2\n      pop\n      pop\n      jump\t// out\n        /* \"#utility.yul\":34966:35146   */\n    tag_201:\n        /* \"#utility.yul\":35014:35091   */\n      0x4e487b7100000000000000000000000000000000000000000000000000000000\n        /* \"#utility.yul\":35011:35012   */\n      0x00\n        /* \"#utility.yul\":35004:35092   */\n      mstore\n        /* \"#utility.yul\":35111:35115   */\n      0x32\n        /* \"#utility.yul\":35108:35109   */\n      0x04\n        /* \"#utility.yul\":35101:35116   */\n      mstore\n        /* \"#utility.yul\":35135:35139   */\n      0x24\n        /* \"#utility.yul\":35132:35133   */\n      0x00\n        /* \"#utility.yul\":35125:35140   */\n      revert\n        /* \"#utility.yul\":35152:35346   */\n    tag_208:\n        /* \"#utility.yul\":35192:35196   */\n      0x00\n        /* \"#utility.yul\":35212:35232   */\n      tag_639\n        /* \"#utility.yul\":35230:35231   */\n      dup3\n        /* \"#utility.yul\":35212:35232   */\n      tag_242\n      jump\t// in\n    tag_639:\n        /* \"#utility.yul\":35207:35232   */\n      swap2\n      pop\n        /* \"#utility.yul\":35246:35266   */\n      tag_640\n        /* \"#utility.yul\":35264:35265   */\n      dup4\n        /* \"#utility.yul\":35246:35266   */\n      tag_242\n      jump\t// in\n    tag_640:\n        /* \"#utility.yul\":35241:35266   */\n      swap3\n      pop\n        /* \"#utility.yul\":35290:35291   */\n      dup3\n        /* \"#utility.yul\":35287:35288   */\n      dup3\n        /* \"#utility.yul\":35283:35292   */\n      sub\n        /* \"#utility.yul\":35275:35292   */\n      swap1\n      pop\n        /* \"#utility.yul\":35314:35315   */\n      dup2\n        /* \"#utility.yul\":35308:35312   */\n      dup2\n        /* \"#utility.yul\":35305:35316   */\n      gt\n        /* \"#utility.yul\":35302:35339   */\n      iszero\n      tag_641\n      jumpi\n        /* \"#utility.yul\":35319:35337   */\n      tag_642\n      tag_283\n      jump\t// in\n    tag_642:\n        /* \"#utility.yul\":35302:35339   */\n    tag_641:\n        /* \"#utility.yul\":35152:35346   */\n      swap3\n      swap2\n      pop\n      pop\n      jump\t// out\n        /* \"#utility.yul\":35352:35762   */\n    tag_210:\n        /* \"#utility.yul\":35392:35399   */\n      0x00\n        /* \"#utility.yul\":35415:35435   */\n      tag_644\n        /* \"#utility.yul\":35433:35434   */\n      dup3\n        /* \"#utility.yul\":35415:35435   */\n      tag_242\n      jump\t// in\n    tag_644:\n        /* \"#utility.yul\":35410:35435   */\n      swap2\n      pop\n        /* \"#utility.yul\":35449:35469   */\n      tag_645\n        /* \"#utility.yul\":35467:35468   */\n      dup4\n        /* \"#utility.yul\":35449:35469   */\n      tag_242\n      jump\t// in\n    tag_645:\n        /* \"#utility.yul\":35444:35469   */\n      swap3\n      pop\n        /* \"#utility.yul\":35504:35505   */\n      dup3\n        /* \"#utility.yul\":35501:35502   */\n      dup3\n        /* \"#utility.yul\":35497:35506   */\n      mul\n        /* \"#utility.yul\":35526:35556   */\n      tag_646\n        /* \"#utility.yul\":35544:35555   */\n      dup2\n        /* \"#utility.yul\":35526:35556   */\n      tag_242\n      jump\t// in\n    tag_646:\n        /* \"#utility.yul\":35515:35556   */\n      swap2\n      pop\n        /* \"#utility.yul\":35705:35706   */\n      dup3\n        /* \"#utility.yul\":35696:35703   */\n      dup3\n        /* \"#utility.yul\":35692:35707   */\n      div\n        /* \"#utility.yul\":35689:35690   */\n      dup5\n        /* \"#utility.yul\":35686:35708   */\n      eq\n        /* \"#utility.yul\":35666:35667   */\n      dup4\n        /* \"#utility.yul\":35659:35668   */\n      iszero\n        /* \"#utility.yul\":35639:35722   */\n      or\n        /* \"#utility.yul\":35616:35755   */\n      tag_647\n      jumpi\n        /* \"#utility.yul\":35735:35753   */\n      tag_648\n      tag_283\n      jump\t// in\n    tag_648:\n        /* \"#utility.yul\":35616:35755   */\n    tag_647:\n        /* \"#utility.yul\":35400:35762   */\n      pop\n        /* \"#utility.yul\":35352:35762   */\n      swap3\n      swap2\n      pop\n      pop\n      jump\t// out\n        /* \"#utility.yul\":35768:35870   */\n    tag_324:\n        /* \"#utility.yul\":35810:35818   */\n      0x00\n        /* \"#utility.yul\":35857:35862   */\n      dup2\n        /* \"#utility.yul\":35854:35855   */\n      0x01\n        /* \"#utility.yul\":35850:35863   */\n      shr\n        /* \"#utility.yul\":35829:35863   */\n      swap1\n      pop\n        /* \"#utility.yul\":35768:35870   */\n      swap2\n      swap1\n      pop\n      jump\t// out\n        /* \"#utility.yul\":35876:36724   */\n    tag_325:\n        /* \"#utility.yul\":35937:35942   */\n      0x00\n        /* \"#utility.yul\":35944:35948   */\n      0x00\n        /* \"#utility.yul\":35968:35974   */\n      dup3\n        /* \"#utility.yul\":35959:35974   */\n      swap2\n      pop\n        /* \"#utility.yul\":35992:35997   */\n      dup4\n        /* \"#utility.yul\":35983:35997   */\n      swap1\n      pop\n        /* \"#utility.yul\":36006:36718   */\n    tag_651:\n        /* \"#utility.yul\":36027:36028   */\n      0x01\n        /* \"#utility.yul\":36017:36025   */\n      dup6\n        /* \"#utility.yul\":36014:36029   */\n      gt\n        /* \"#utility.yul\":36006:36718   */\n      iszero\n      tag_653\n      jumpi\n        /* \"#utility.yul\":36122:36126   */\n      dup1\n        /* \"#utility.yul\":36117:36120   */\n      dup7\n        /* \"#utility.yul\":36113:36127   */\n      div\n        /* \"#utility.yul\":36107:36111   */\n      dup2\n        /* \"#utility.yul\":36104:36128   */\n      gt\n        /* \"#utility.yul\":36101:36151   */\n      iszero\n      tag_654\n      jumpi\n        /* \"#utility.yul\":36131:36149   */\n      tag_655\n      tag_283\n      jump\t// in\n    tag_655:\n        /* \"#utility.yul\":36101:36151   */\n    tag_654:\n        /* \"#utility.yul\":36181:36182   */\n      0x01\n        /* \"#utility.yul\":36171:36179   */\n      dup6\n        /* \"#utility.yul\":36167:36183   */\n      and\n        /* \"#utility.yul\":36164:36615   */\n      iszero\n      tag_656\n      jumpi\n        /* \"#utility.yul\":36596:36600   */\n      dup1\n        /* \"#utility.yul\":36589:36594   */\n      dup3\n        /* \"#utility.yul\":36585:36601   */\n      mul\n        /* \"#utility.yul\":36576:36601   */\n      swap2\n      pop\n        /* \"#utility.yul\":36164:36615   */\n    tag_656:\n        /* \"#utility.yul\":36646:36650   */\n      dup1\n        /* \"#utility.yul\":36640:36644   */\n      dup2\n        /* \"#utility.yul\":36636:36651   */\n      mul\n        /* \"#utility.yul\":36628:36651   */\n      swap1\n      pop\n        /* \"#utility.yul\":36676:36708   */\n      tag_657\n        /* \"#utility.yul\":36699:36707   */\n      dup6\n        /* \"#utility.yul\":36676:36708   */\n      tag_324\n      jump\t// in\n    tag_657:\n        /* \"#utility.yul\":36664:36708   */\n      swap5\n      pop\n        /* \"#utility.yul\":36006:36718   */\n      jump(tag_651)\n    tag_653:\n        /* \"#utility.yul\":35876:36724   */\n      swap5\n      pop\n      swap5\n      swap3\n      pop\n      pop\n      pop\n      jump\t// out\n        /* \"#utility.yul\":36730:37803   */\n    tag_326:\n        /* \"#utility.yul\":36784:36789   */\n      0x00\n        /* \"#utility.yul\":36975:36983   */\n      dup3\n        /* \"#utility.yul\":36965:37005   */\n      tag_659\n      jumpi\n        /* \"#utility.yul\":36996:36997   */\n      0x01\n        /* \"#utility.yul\":36987:36997   */\n      swap1\n      pop\n        /* \"#utility.yul\":36998:37003   */\n      jump(tag_658)\n        /* \"#utility.yul\":36965:37005   */\n    tag_659:\n        /* \"#utility.yul\":37024:37028   */\n      dup2\n        /* \"#utility.yul\":37014:37050   */\n      tag_660\n      jumpi\n        /* \"#utility.yul\":37041:37042   */\n      0x00\n        /* \"#utility.yul\":37032:37042   */\n      swap1\n      pop\n        /* \"#utility.yul\":37043:37048   */\n      jump(tag_658)\n        /* \"#utility.yul\":37014:37050   */\n    tag_660:\n        /* \"#utility.yul\":37110:37114   */\n      dup2\n        /* \"#utility.yul\":37158:37159   */\n      0x01\n        /* \"#utility.yul\":37153:37180   */\n      dup2\n      eq\n      tag_662\n      jumpi\n        /* \"#utility.yul\":37194:37195   */\n      0x02\n        /* \"#utility.yul\":37189:37380   */\n      dup2\n      eq\n      tag_663\n      jumpi\n        /* \"#utility.yul\":37103:37380   */\n      jump(tag_661)\n        /* \"#utility.yul\":37153:37180   */\n    tag_662:\n        /* \"#utility.yul\":37171:37172   */\n      0x01\n        /* \"#utility.yul\":37162:37172   */\n      swap2\n      pop\n        /* \"#utility.yul\":37173:37178   */\n      pop\n      jump(tag_658)\n        /* \"#utility.yul\":37189:37380   */\n    tag_663:\n        /* \"#utility.yul\":37234:37237   */\n      0xff\n        /* \"#utility.yul\":37224:37232   */\n      dup5\n        /* \"#utility.yul\":37221:37238   */\n      gt\n        /* \"#utility.yul\":37218:37261   */\n      iszero\n      tag_664\n      jumpi\n        /* \"#utility.yul\":37241:37259   */\n      tag_665\n      tag_283\n      jump\t// in\n    tag_665:\n        /* \"#utility.yul\":37218:37261   */\n    tag_664:\n        /* \"#utility.yul\":37290:37298   */\n      dup4\n        /* \"#utility.yul\":37287:37288   */\n      0x02\n        /* \"#utility.yul\":37283:37299   */\n      exp\n        /* \"#utility.yul\":37274:37299   */\n      swap2\n      pop\n        /* \"#utility.yul\":37325:37328   */\n      dup5\n        /* \"#utility.yul\":37318:37323   */\n      dup3\n        /* \"#utility.yul\":37315:37329   */\n      gt\n        /* \"#utility.yul\":37312:37352   */\n      iszero\n      tag_666\n      jumpi\n        /* \"#utility.yul\":37332:37350   */\n      tag_667\n      tag_283\n      jump\t// in\n    tag_667:\n        /* \"#utility.yul\":37312:37352   */\n    tag_666:\n        /* \"#utility.yul\":37365:37370   */\n      pop\n      jump(tag_658)\n        /* \"#utility.yul\":37103:37380   */\n    tag_661:\n      pop\n        /* \"#utility.yul\":37489:37491   */\n      0x20\n        /* \"#utility.yul\":37479:37487   */\n      dup4\n        /* \"#utility.yul\":37476:37492   */\n      lt\n        /* \"#utility.yul\":37470:37473   */\n      0x0133\n        /* \"#utility.yul\":37464:37468   */\n      dup4\n        /* \"#utility.yul\":37461:37474   */\n      lt\n        /* \"#utility.yul\":37457:37493   */\n      and\n        /* \"#utility.yul\":37439:37441   */\n      0x4e\n        /* \"#utility.yul\":37429:37437   */\n      dup5\n        /* \"#utility.yul\":37426:37442   */\n      lt\n        /* \"#utility.yul\":37421:37423   */\n      0x0b\n        /* \"#utility.yul\":37415:37419   */\n      dup5\n        /* \"#utility.yul\":37412:37424   */\n      lt\n        /* \"#utility.yul\":37408:37443   */\n      and\n        /* \"#utility.yul\":37392:37503   */\n      or\n        /* \"#utility.yul\":37389:37635   */\n      iszero\n      tag_668\n      jumpi\n        /* \"#utility.yul\":37545:37553   */\n      dup3\n        /* \"#utility.yul\":37539:37543   */\n      dup3\n        /* \"#utility.yul\":37535:37554   */\n      exp\n        /* \"#utility.yul\":37526:37554   */\n      swap1\n      pop\n        /* \"#utility.yul\":37580:37583   */\n      dup4\n        /* \"#utility.yul\":37573:37578   */\n      dup2\n        /* \"#utility.yul\":37570:37584   */\n      gt\n        /* \"#utility.yul\":37567:37607   */\n      iszero\n      tag_669\n      jumpi\n        /* \"#utility.yul\":37587:37605   */\n      tag_670\n      tag_283\n      jump\t// in\n    tag_670:\n        /* \"#utility.yul\":37567:37607   */\n    tag_669:\n        /* \"#utility.yul\":37620:37625   */\n      jump(tag_658)\n        /* \"#utility.yul\":37389:37635   */\n    tag_668:\n        /* \"#utility.yul\":37660:37702   */\n      tag_671\n        /* \"#utility.yul\":37698:37701   */\n      dup5\n        /* \"#utility.yul\":37688:37696   */\n      dup5\n        /* \"#utility.yul\":37682:37686   */\n      dup5\n        /* \"#utility.yul\":37679:37680   */\n      0x01\n        /* \"#utility.yul\":37660:37702   */\n      tag_325\n      jump\t// in\n    tag_671:\n        /* \"#utility.yul\":37645:37702   */\n      swap3\n      pop\n      swap1\n      pop\n        /* \"#utility.yul\":37734:37738   */\n      dup2\n        /* \"#utility.yul\":37729:37732   */\n      dup5\n        /* \"#utility.yul\":37725:37739   */\n      div\n        /* \"#utility.yul\":37718:37723   */\n      dup2\n        /* \"#utility.yul\":37715:37740   */\n      gt\n        /* \"#utility.yul\":37712:37763   */\n      iszero\n      tag_672\n      jumpi\n        /* \"#utility.yul\":37743:37761   */\n      tag_673\n      tag_283\n      jump\t// in\n    tag_673:\n        /* \"#utility.yul\":37712:37763   */\n    tag_672:\n        /* \"#utility.yul\":37792:37796   */\n      dup2\n        /* \"#utility.yul\":37785:37790   */\n      dup2\n        /* \"#utility.yul\":37781:37797   */\n      mul\n        /* \"#utility.yul\":37772:37797   */\n      swap1\n      pop\n        /* \"#utility.yul\":36730:37803   */\n    tag_658:\n      swap4\n      swap3\n      pop\n      pop\n      pop\n      jump\t// out\n        /* \"#utility.yul\":37809:38094   */\n    tag_212:\n        /* \"#utility.yul\":37869:37874   */\n      0x00\n        /* \"#utility.yul\":37893:37916   */\n      tag_675\n        /* \"#utility.yul\":37911:37915   */\n      dup3\n        /* \"#utility.yul\":37893:37916   */\n      tag_242\n      jump\t// in\n    tag_675:\n        /* \"#utility.yul\":37885:37916   */\n      swap2\n      pop\n        /* \"#utility.yul\":37937:37964   */\n      tag_676\n        /* \"#utility.yul\":37955:37963   */\n      dup4\n        /* \"#utility.yul\":37937:37964   */\n      tag_242\n      jump\t// in\n    tag_676:\n        /* \"#utility.yul\":37925:37964   */\n      swap3\n      pop\n        /* \"#utility.yul\":37983:38087   */\n      tag_677\n        /* \"#utility.yul\":38020:38086   */\n      0xffffffffffffffffffffffffffffffffffffffffffffffffffffffffffffffff\n        /* \"#utility.yul\":38010:38018   */\n      dup5\n        /* \"#utility.yul\":38004:38008   */\n      dup5\n        /* \"#utility.yul\":37983:38087   */\n      tag_326\n      jump\t// in\n    tag_677:\n        /* \"#utility.yul\":37974:38087   */\n      swap1\n      pop\n        /* \"#utility.yul\":37809:38094   */\n      swap3\n      swap2\n      pop\n      pop\n      jump\t// out\n        /* \"#utility.yul\":38100:38280   */\n    tag_327:\n        /* \"#utility.yul\":38148:38225   */\n      0x4e487b7100000000000000000000000000000000000000000000000000000000\n        /* \"#utility.yul\":38145:38146   */\n      0x00\n        /* \"#utility.yul\":38138:38226   */\n      mstore\n        /* \"#utility.yul\":38245:38249   */\n      0x12\n        /* \"#utility.yul\":38242:38243   */\n      0x04\n        /* \"#utility.yul\":38235:38250   */\n      mstore\n        /* \"#utility.yul\":38269:38273   */\n      0x24\n        /* \"#utility.yul\":38266:38267   */\n      0x00\n        /* \"#utility.yul\":38259:38274   */\n      revert\n        /* \"#utility.yul\":38286:38471   */\n    tag_214:\n        /* \"#utility.yul\":38326:38327   */\n      0x00\n        /* \"#utility.yul\":38343:38363   */\n      tag_680\n        /* \"#utility.yul\":38361:38362   */\n      dup3\n        /* \"#utility.yul\":38343:38363   */\n      tag_242\n      jump\t// in\n    tag_680:\n        /* \"#utility.yul\":38338:38363   */\n      swap2\n      pop\n        /* \"#utility.yul\":38377:38397   */\n      tag_681\n        /* \"#utility.yul\":38395:38396   */\n      dup4\n        /* \"#utility.yul\":38377:38397   */\n      tag_242\n      jump\t// in\n    tag_681:\n        /* \"#utility.yul\":38372:38397   */\n      swap3\n      pop\n        /* \"#utility.yul\":38416:38417   */\n      dup3\n        /* \"#utility.yul\":38406:38441   */\n      tag_682\n      jumpi\n        /* \"#utility.yul\":38421:38439   */\n      tag_683\n      tag_327\n      jump\t// in\n    tag_683:\n        /* \"#utility.yul\":38406:38441   */\n    tag_682:\n        /* \"#utility.yul\":38463:38464   */\n      dup3\n        /* \"#utility.yul\":38460:38461   */\n      dup3\n        /* \"#utility.yul\":38456:38465   */\n      div\n        /* \"#utility.yul\":38451:38465   */\n      swap1\n      pop\n        /* \"#utility.yul\":38286:38471   */\n      swap3\n      swap2\n      pop\n      pop\n      jump\t// out\n        /* \"#utility.yul\":38477:38563   */\n    tag_328:\n        /* \"#utility.yul\":38512:38519   */\n      0x00\n        /* \"#utility.yul\":38552:38556   */\n      0xff\n        /* \"#utility.yul\":38545:38550   */\n      dup3\n        /* \"#utility.yul\":38541:38557   */\n      and\n        /* \"#utility.yul\":38530:38557   */\n      swap1\n      pop\n        /* \"#utility.yul\":38477:38563   */\n      swap2\n      swap1\n      pop\n      jump\t// out\n        /* \"#utility.yul\":38569:38748   */\n    tag_216:\n        /* \"#utility.yul\":38607:38608   */\n      0x00\n        /* \"#utility.yul\":38624:38642   */\n      tag_686\n        /* \"#utility.yul\":38640:38641   */\n      dup3\n        /* \"#utility.yul\":38624:38642   */\n      tag_328\n      jump\t// in\n    tag_686:\n        /* \"#utility.yul\":38619:38642   */\n      swap2\n      pop\n        /* \"#utility.yul\":38656:38674   */\n      tag_687\n        /* \"#utility.yul\":38672:38673   */\n      dup4\n        /* \"#utility.yul\":38656:38674   */\n      tag_328\n      jump\t// in\n    tag_687:\n        /* \"#utility.yul\":38651:38674   */\n      swap3\n      pop\n        /* \"#utility.yul\":38693:38694   */\n      dup3\n        /* \"#utility.yul\":38683:38718   */\n      tag_688\n      jumpi\n        /* \"#utility.yul\":38698:38716   */\n      tag_689\n      tag_327\n      jump\t// in\n    tag_689:\n        /* \"#utility.yul\":38683:38718   */\n    tag_688:\n        /* \"#utility.yul\":38740:38741   */\n      dup3\n        /* \"#utility.yul\":38737:38738   */\n      dup3\n        /* \"#utility.yul\":38733:38742   */\n      div\n        /* \"#utility.yul\":38728:38742   */\n      swap1\n      pop\n        /* \"#utility.yul\":38569:38748   */\n      swap3\n      swap2\n      pop\n      pop\n      jump\t// out\n        /* \"#utility.yul\":38754:39025   */\n    tag_218:\n        /* \"#utility.yul\":38792:38799   */\n      0x00\n        /* \"#utility.yul\":38815:38833   */\n      tag_691\n        /* \"#utility.yul\":38831:38832   */\n      dup3\n        /* \"#utility.yul\":38815:38833   */\n      tag_328\n      jump\t// in\n    tag_691:\n        /* \"#utility.yul\":38810:38833   */\n      swap2\n      pop\n        /* \"#utility.yul\":38847:38865   */\n      tag_692\n        /* \"#utility.yul\":38863:38864   */\n      dup4\n        /* \"#utility.yul\":38847:38865   */\n      tag_328\n      jump\t// in\n    tag_692:\n        /* \"#utility.yul\":38842:38865   */\n      swap3\n      pop\n        /* \"#utility.yul\":38900:38901   */\n      dup3\n        /* \"#utility.yul\":38897:38898   */\n      dup3\n        /* \"#utility.yul\":38893:38902   */\n      mul\n        /* \"#utility.yul\":38922:38950   */\n      tag_693\n        /* \"#utility.yul\":38938:38949   */\n      dup2\n        /* \"#utility.yul\":38922:38950   */\n      tag_328\n      jump\t// in\n    tag_693:\n        /* \"#utility.yul\":38911:38950   */\n      swap2\n      pop\n        /* \"#utility.yul\":38982:38993   */\n      dup1\n        /* \"#utility.yul\":38973:38980   */\n      dup3\n        /* \"#utility.yul\":38970:38994   */\n      eq\n        /* \"#utility.yul\":38960:39018   */\n      tag_694\n      jumpi\n        /* \"#utility.yul\":38998:39016   */\n      tag_695\n      tag_283\n      jump\t// in\n    tag_695:\n        /* \"#utility.yul\":38960:39018   */\n    tag_694:\n        /* \"#utility.yul\":38800:39025   */\n      pop\n        /* \"#utility.yul\":38754:39025   */\n      swap3\n      swap2\n      pop\n      pop\n      jump\t// out\n        /* \"#utility.yul\":39031:39222   */\n    tag_220:\n        /* \"#utility.yul\":39069:39073   */\n      0x00\n        /* \"#utility.yul\":39089:39107   */\n      tag_697\n        /* \"#utility.yul\":39105:39106   */\n      dup3\n        /* \"#utility.yul\":39089:39107   */\n      tag_328\n      jump\t// in\n    tag_697:\n        /* \"#utility.yul\":39084:39107   */\n      swap2\n      pop\n        /* \"#utility.yul\":39121:39139   */\n      tag_698\n        /* \"#utility.yul\":39137:39138   */\n      dup4\n        /* \"#utility.yul\":39121:39139   */\n      tag_328\n      jump\t// in\n    tag_698:\n        /* \"#utility.yul\":39116:39139   */\n      swap3\n      pop\n        /* \"#utility.yul\":39163:39164   */\n      dup3\n        /* \"#utility.yul\":39160:39161   */\n      dup3\n        /* \"#utility.yul\":39156:39165   */\n      sub\n        /* \"#utility.yul\":39148:39165   */\n      swap1\n      pop\n        /* \"#utility.yul\":39187:39191   */\n      0xff\n        /* \"#utility.yul\":39181:39185   */\n      dup2\n        /* \"#utility.yul\":39178:39192   */\n      gt\n        /* \"#utility.yul\":39175:39215   */\n      iszero\n      tag_699\n      jumpi\n        /* \"#utility.yul\":39195:39213   */\n      tag_700\n      tag_283\n      jump\t// in\n    tag_700:\n        /* \"#utility.yul\":39175:39215   */\n    tag_699:\n        /* \"#utility.yul\":39031:39222   */\n      swap3\n      swap2\n      pop\n      pop\n      jump\t// out\n        /* \"#utility.yul\":39228:39419   */\n    tag_225:\n        /* \"#utility.yul\":39268:39271   */\n      0x00\n        /* \"#utility.yul\":39287:39307   */\n      tag_702\n        /* \"#utility.yul\":39305:39306   */\n      dup3\n        /* \"#utility.yul\":39287:39307   */\n      tag_242\n      jump\t// in\n    tag_702:\n        /* \"#utility.yul\":39282:39307   */\n      swap2\n      pop\n        /* \"#utility.yul\":39321:39341   */\n      tag_703\n        /* \"#utility.yul\":39339:39340   */\n      dup4\n        /* \"#utility.yul\":39321:39341   */\n      tag_242\n      jump\t// in\n    tag_703:\n        /* \"#utility.yul\":39316:39341   */\n      swap3\n      pop\n        /* \"#utility.yul\":39364:39365   */\n      dup3\n        /* \"#utility.yul\":39361:39362   */\n      dup3\n        /* \"#utility.yul\":39357:39366   */\n      add\n        /* \"#utility.yul\":39350:39366   */\n      swap1\n      pop\n        /* \"#utility.yul\":39385:39388   */\n      dup1\n        /* \"#utility.yul\":39382:39383   */\n      dup3\n        /* \"#utility.yul\":39379:39389   */\n      gt\n        /* \"#utility.yul\":39376:39412   */\n      iszero\n      tag_704\n      jumpi\n        /* \"#utility.yul\":39392:39410   */\n      tag_705\n      tag_283\n      jump\t// in\n    tag_705:\n        /* \"#utility.yul\":39376:39412   */\n    tag_704:\n        /* \"#utility.yul\":39228:39419   */\n      swap3\n      swap2\n      pop\n      pop\n      jump\t// out\n        /* \"#utility.yul\":39425:39613   */\n    tag_236:\n        /* \"#utility.yul\":39463:39466   */\n      0x00\n        /* \"#utility.yul\":39482:39500   */\n      tag_707\n        /* \"#utility.yul\":39498:39499   */\n      dup3\n        /* \"#utility.yul\":39482:39500   */\n      tag_328\n      jump\t// in\n    tag_707:\n        /* \"#utility.yul\":39477:39500   */\n      swap2\n      pop\n        /* \"#utility.yul\":39514:39532   */\n      tag_708\n        /* \"#utility.yul\":39530:39531   */\n      dup4\n        /* \"#utility.yul\":39514:39532   */\n      tag_328\n      jump\t// in\n    tag_708:\n        /* \"#utility.yul\":39509:39532   */\n      swap3\n      pop\n        /* \"#utility.yul\":39555:39556   */\n      dup3\n        /* \"#utility.yul\":39552:39553   */\n      dup3\n        /* \"#utility.yul\":39548:39557   */\n      add\n        /* \"#utility.yul\":39541:39557   */\n      swap1\n      pop\n        /* \"#utility.yul\":39578:39582   */\n      0xff\n        /* \"#utility.yul\":39573:39576   */\n      dup2\n        /* \"#utility.yul\":39570:39583   */\n      gt\n        /* \"#utility.yul\":39567:39606   */\n      iszero\n      tag_709\n      jumpi\n        /* \"#utility.yul\":39586:39604   */\n      tag_710\n      tag_283\n      jump\t// in\n    tag_710:\n        /* \"#utility.yul\":39567:39606   */\n    tag_709:\n        /* \"#utility.yul\":39425:39613   */\n      swap3\n      swap2\n      pop\n      pop\n      jump\t// out\n    stop\n    data_f7bf652c70be12be1b568996e43b3db229bc6b228394a1703650be6176acd4ad 456e747265676120636f6e6669726d6164612c207061676f206c6962657261646f\n\n    auxdata: 0xa2646970667358221220a56ef40f210e6887f0ecf89b8c0c075f2e3a5d1726ee47662ac3053349ddd90d64736f6c634300081e0033\n}\n",
				"bytecode": {
					"linkReferences": {},
					"object": "6080604052348015600e575f5ffd5b50612b768061001c5f395ff3fe608060405260043610610090575f3560e01c8063a7d1cb5511610058578063a7d1cb551461018c578063affe518a146101ca578063b820c38f146101f2578063eea7f8241461021a578063fecc7c931461024257610090565b80631a6cb1c81461009457806324e63166146100d0578063583d9b98146100f857806397283acb14610120578063995536361461014a575b5f5ffd5b34801561009f575f5ffd5b506100ba60048036038101906100b59190611639565b61025e565b6040516100c7919061178f565b60405180910390f35b3480156100db575f5ffd5b506100f660048036038101906100f191906118db565b610346565b005b348015610103575f5ffd5b5061011e600480360381019061011991906119bd565b610618565b005b34801561012b575f5ffd5b50610134610838565b6040516101419190611a38565b60405180910390f35b348015610155575f5ffd5b50610170600480360381019061016b9190611639565b61083e565b6040516101839796959493929190611b3b565b60405180910390f35b348015610197575f5ffd5b506101b260048036038101906101ad9190611bb6565b6109d3565b6040516101c193929190611be1565b60405180910390f35b3480156101d5575f5ffd5b506101f060048036038101906101eb9190611c24565b610b23565b005b3480156101fd575f5ffd5b5061021860048036038101906102139190611639565b610ce4565b005b348015610225575f5ffd5b50610240600480360381019061023b9190611639565b610ec5565b005b61025c60048036038101906102579190611639565b611134565b005b606060015f8381526020019081526020015f20600601805480602002602001604051908101604052809291908181526020015f905b8282101561033b578382905f5260205f200180546102b090611cc7565b80601f01602080910402602001604051908101604052809291908181526020018280546102dc90611cc7565b80156103275780601f106102fe57610100808354040283529160200191610327565b820191905f5260205f20905b81548152906001019060200180831161030a57829003601f168201915b505050505081526020019060010190610293565b505050509050919050565b5f5f5f3373ffffffffffffffffffffffffffffffffffffffff1673ffffffffffffffffffffffffffffffffffffffff1681526020019081526020015f20600101805461039190611cc7565b9050116103d3576040517f08c379a00000000000000000000000000000000000000000000000000000000081526004016103ca90611d67565b60405180910390fd5b5f8211610415576040517f08c379a000000000000000000000000000000000000000000000000000000000815260040161040c90611dcf565b60405180910390fd5b60025f81548092919061042790611e1a565b91905055505f60015f60025481526020019081526020015f209050600254815f01819055508381600101908161045d9190612001565b5082816002018190555033816003015f6101000a81548173ffffffffffffffffffffffffffffffffffffffff021916908373ffffffffffffffffffffffffffffffffffffffff1602179055505f816004015f6101000a81548173ffffffffffffffffffffffffffffffffffffffff021916908373ffffffffffffffffffffffffffffffffffffffff1602179055505f8160040160146101000a81548160ff0219169083600381111561051257610511611ac8565b5b0217905550818160050190816105289190612001565b505f5f5f3373ffffffffffffffffffffffffffffffffffffffff1673ffffffffffffffffffffffffffffffffffffffff1681526020019081526020015f2060010160405160200161057991906121ca565b60405160208183030381529060405290508160060181908060018154018082558091505060019003905f5260205f20015f9091909190915090816105bd9190612001565b503373ffffffffffffffffffffffffffffffffffffffff166002547f3930e5670c46825fd55446202c6f740183609ce71746aca012563bd9dac35a2c87876040516106099291906121eb565b60405180910390a35050505050565b5f60015f8581526020019081526020015f209050806003015f9054906101000a900473ffffffffffffffffffffffffffffffffffffffff1673ffffffffffffffffffffffffffffffffffffffff163373ffffffffffffffffffffffffffffffffffffffff1614806106d75750806004015f9054906101000a900473ffffffffffffffffffffffffffffffffffffffff1673ffffffffffffffffffffffffffffffffffffffff163373ffffffffffffffffffffffffffffffffffffffff16145b610716576040517f08c379a000000000000000000000000000000000000000000000000000000000815260040161070d90612263565b60405180910390fd5b5f73ffffffffffffffffffffffffffffffffffffffff168373ffffffffffffffffffffffffffffffffffffffff1603610784576040517f08c379a000000000000000000000000000000000000000000000000000000000815260040161077b906122cb565b60405180910390fd5b82816004015f6101000a81548173ffffffffffffffffffffffffffffffffffffffff021916908373ffffffffffffffffffffffffffffffffffffffff1602179055508060060182908060018154018082558091505060019003905f5260205f20015f9091909190915090816107f99190612001565b50837ffd50aa3eb0b0a6ecf95005cd3f28d9f3849baa8725f57600691ecbb6f7e591b28360405161082a91906122e9565b60405180910390a250505050565b60025481565b6001602052805f5260405f205f91509050805f01549080600101805461086390611cc7565b80601f016020809104026020016040519081016040528092919081815260200182805461088f90611cc7565b80156108da5780601f106108b1576101008083540402835291602001916108da565b820191905f5260205f20905b8154815290600101906020018083116108bd57829003601f168201915b505050505090806002015490806003015f9054906101000a900473ffffffffffffffffffffffffffffffffffffffff1690806004015f9054906101000a900473ffffffffffffffffffffffffffffffffffffffff16908060040160149054906101000a900460ff169080600501805461095290611cc7565b80601f016020809104026020016040519081016040528092919081815260200182805461097e90611cc7565b80156109c95780601f106109a0576101008083540402835291602001916109c9565b820191905f5260205f20905b8154815290600101906020018083116109ac57829003601f168201915b5050505050905087565b5f602052805f5260405f205f91509050805f015f9054906101000a900473ffffffffffffffffffffffffffffffffffffffff1690806001018054610a1690611cc7565b80601f0160208091040260200160405190810160405280929190818152602001828054610a4290611cc7565b8015610a8d5780601f10610a6457610100808354040283529160200191610a8d565b820191905f5260205f20905b815481529060010190602001808311610a7057829003601f168201915b505050505090806002018054610aa290611cc7565b80601f0160208091040260200160405190810160405280929190818152602001828054610ace90611cc7565b8015610b195780601f10610af057610100808354040283529160200191610b19565b820191905f5260205f20905b815481529060010190602001808311610afc57829003601f168201915b5050505050905083565b5f5f5f3373ffffffffffffffffffffffffffffffffffffffff1673ffffffffffffffffffffffffffffffffffffffff1681526020019081526020015f206001018054610b6e90611cc7565b905014610bb0576040517f08c379a0000000000000000000000000000000000000000000000000000000008152600401610ba790612353565b60405180910390fd5b60405180606001604052803373ffffffffffffffffffffffffffffffffffffffff168152602001838152602001828152505f5f3373ffffffffffffffffffffffffffffffffffffffff1673ffffffffffffffffffffffffffffffffffffffff1681526020019081526020015f205f820151815f015f6101000a81548173ffffffffffffffffffffffffffffffffffffffff021916908373ffffffffffffffffffffffffffffffffffffffff1602179055506020820151816001019081610c769190612001565b506040820151816002019081610c8c9190612001565b509050503373ffffffffffffffffffffffffffffffffffffffff167fe81c369424fcae53aa0a7106fc3807a6619a60c791a5de3c76c3268b68b7176d8383604051610cd8929190612371565b60405180910390a25050565b5f60015f8381526020019081526020015f209050806003015f9054906101000a900473ffffffffffffffffffffffffffffffffffffffff1673ffffffffffffffffffffffffffffffffffffffff163373ffffffffffffffffffffffffffffffffffffffff1614610d89576040517f08c379a0000000000000000000000000000000000000000000000000000000008152600401610d8090612416565b60405180910390fd5b60016003811115610d9d57610d9c611ac8565b5b8160040160149054906101000a900460ff166003811115610dc157610dc0611ac8565b5b14610e01576040517f08c379a0000000000000000000000000000000000000000000000000000000008152600401610df8906124a4565b60405180910390fd5b60028160040160146101000a81548160ff02191690836003811115610e2957610e28611ac8565b5b0217905550806006018060018154018082558091505060019003905f5260205f20015f6040518060400160405280601d81526020017f50726f647563746f206d61726361646f20636f6d6f20656e766961646f00000081525090919091509081610e939190612001565b50817fe2014d2e3ef60e8b6f7e5e08a57da71901171b55245b5b299b50a3903356133060405160405180910390a25050565b5f60015f8381526020019081526020015f209050806004015f9054906101000a900473ffffffffffffffffffffffffffffffffffffffff1673ffffffffffffffffffffffffffffffffffffffff163373ffffffffffffffffffffffffffffffffffffffff1614610f6a576040517f08c379a0000000000000000000000000000000000000000000000000000000008152600401610f6190612532565b60405180910390fd5b60016003811115610f7e57610f7d611ac8565b5b8160040160149054906101000a900460ff166003811115610fa257610fa1611ac8565b5b1480610fe3575060026003811115610fbd57610fbc611ac8565b5b8160040160149054906101000a900460ff166003811115610fe157610fe0611ac8565b5b145b611022576040517f08c379a00000000000000000000000000000000000000000000000000000000081526004016110199061259a565b60405180910390fd5b60038160040160146101000a81548160ff0219169083600381111561104a57611049611ac8565b5b0217905550806006018060018154018082558091505060019003905f5260205f20015f604051806060016040528060218152602001612b2060219139909190915090816110979190612001565b50806003015f9054906101000a900473ffffffffffffffffffffffffffffffffffffffff1673ffffffffffffffffffffffffffffffffffffffff166108fc826002015490811502906040515f60405180830381858888f19350505050158015611102573d5f5f3e3d5ffd5b50817fb0e28ea3f8d2a6c6be59eb0786a4ef44bbd06a455d02e84dc2c74b8a47355a3f60405160405180910390a25050565b5f60015f8381526020019081526020015f2090505f600381111561115b5761115a611ac8565b5b8160040160149054906101000a900460ff16600381111561117f5761117e611ac8565b5b146111bf576040517f08c379a00000000000000000000000000000000000000000000000000000000081526004016111b690612628565b60405180910390fd5b80600201543414611205576040517f08c379a00000000000000000000000000000000000000000000000000000000081526004016111fc906126b6565b60405180910390fd5b33816004015f6101000a81548173ffffffffffffffffffffffffffffffffffffffff021916908373ffffffffffffffffffffffffffffffffffffffff16021790555060018160040160146101000a81548160ff0219169083600381111561126f5761126e611ac8565b5b02179055508060060161128133611326565b6040516020016112919190612774565b604051602081830303815290604052908060018154018082558091505060019003905f5260205f20015f9091909190915090816112ce9190612001565b503373ffffffffffffffffffffffffffffffffffffffff16827fc2660db1071e6f18eb362f68dc4e14f1b991a78041ff997c425592035e3ba497836002015460405161131a9190611a38565b60405180910390a35050565b60605f602a67ffffffffffffffff811115611344576113436117b7565b5b6040519080825280601f01601f1916602001820160405280156113765781602001600182028036833780820191505090505b5090507f3000000000000000000000000000000000000000000000000000000000000000815f815181106113ad576113ac612795565b5b60200101907effffffffffffffffffffffffffffffffffffffffffffffffffffffffffffff191690815f1a9053507f7800000000000000000000000000000000000000000000000000000000000000816001815181106114105761140f612795565b5b60200101907effffffffffffffffffffffffffffffffffffffffffffffffffffffffffffff191690815f1a9053505f5f90505b60148110156115a6575f81601361145a91906127c2565b600861146691906127f5565b60026114729190612965565b8573ffffffffffffffffffffffffffffffffffffffff1661149391906129dc565b60f81b90505f60108260f81c6114a99190612a18565b60f81b90505f8160f81c60106114bf9190612a48565b8360f81c6114cd9190612a84565b60f81b90506114db826115b0565b8560028660026114eb91906127f5565b6114f59190612ab8565b8151811061150657611505612795565b5b60200101907effffffffffffffffffffffffffffffffffffffffffffffffffffffffffffff191690815f1a90535061153d816115b0565b85600386600261154d91906127f5565b6115579190612ab8565b8151811061156857611567612795565b5b60200101907effffffffffffffffffffffffffffffffffffffffffffffffffffffffffffff191690815f1a9053505050508080600101915050611443565b5080915050919050565b5f600a8260f81c60ff1610156115da5760308260f81c6115d09190612aeb565b60f81b90506115f0565b60578260f81c6115ea9190612aeb565b60f81b90505b919050565b5f604051905090565b5f5ffd5b5f5ffd5b5f819050919050565b61161881611606565b8114611622575f5ffd5b50565b5f813590506116338161160f565b92915050565b5f6020828403121561164e5761164d6115fe565b5b5f61165b84828501611625565b91505092915050565b5f81519050919050565b5f82825260208201905092915050565b5f819050602082019050919050565b5f81519050919050565b5f82825260208201905092915050565b8281835e5f83830152505050565b5f601f19601f8301169050919050565b5f6116cf8261168d565b6116d98185611697565b93506116e98185602086016116a7565b6116f2816116b5565b840191505092915050565b5f61170883836116c5565b905092915050565b5f602082019050919050565b5f61172682611664565b611730818561166e565b9350836020820285016117428561167e565b805f5b8581101561177d578484038952815161175e85826116fd565b945061176983611710565b925060208a01995050600181019050611745565b50829750879550505050505092915050565b5f6020820190508181035f8301526117a7818461171c565b905092915050565b5f5ffd5b5f5ffd5b7f4e487b71000000000000000000000000000000000000000000000000000000005f52604160045260245ffd5b6117ed826116b5565b810181811067ffffffffffffffff8211171561180c5761180b6117b7565b5b80604052505050565b5f61181e6115f5565b905061182a82826117e4565b919050565b5f67ffffffffffffffff821115611849576118486117b7565b5b611852826116b5565b9050602081019050919050565b828183375f83830152505050565b5f61187f61187a8461182f565b611815565b90508281526020810184848401111561189b5761189a6117b3565b5b6118a684828561185f565b509392505050565b5f82601f8301126118c2576118c16117af565b5b81356118d284826020860161186d565b91505092915050565b5f5f5f606084860312156118f2576118f16115fe565b5b5f84013567ffffffffffffffff81111561190f5761190e611602565b5b61191b868287016118ae565b935050602061192c86828701611625565b925050604084013567ffffffffffffffff81111561194d5761194c611602565b5b611959868287016118ae565b9150509250925092565b5f73ffffffffffffffffffffffffffffffffffffffff82169050919050565b5f61198c82611963565b9050919050565b61199c81611982565b81146119a6575f5ffd5b50565b5f813590506119b781611993565b92915050565b5f5f5f606084860312156119d4576119d36115fe565b5b5f6119e186828701611625565b93505060206119f2868287016119a9565b925050604084013567ffffffffffffffff811115611a1357611a12611602565b5b611a1f868287016118ae565b9150509250925092565b611a3281611606565b82525050565b5f602082019050611a4b5f830184611a29565b92915050565b5f82825260208201905092915050565b5f611a6b8261168d565b611a758185611a51565b9350611a858185602086016116a7565b611a8e816116b5565b840191505092915050565b5f611aa382611963565b9050919050565b611ab381611a99565b82525050565b611ac281611982565b82525050565b7f4e487b71000000000000000000000000000000000000000000000000000000005f52602160045260245ffd5b60048110611b0657611b05611ac8565b5b50565b5f819050611b1682611af5565b919050565b5f611b2582611b09565b9050919050565b611b3581611b1b565b82525050565b5f60e082019050611b4e5f83018a611a29565b8181036020830152611b608189611a61565b9050611b6f6040830188611a29565b611b7c6060830187611aaa565b611b896080830186611ab9565b611b9660a0830185611b2c565b81810360c0830152611ba88184611a61565b905098975050505050505050565b5f60208284031215611bcb57611bca6115fe565b5b5f611bd8848285016119a9565b91505092915050565b5f606082019050611bf45f830186611ab9565b8181036020830152611c068185611a61565b90508181036040830152611c1a8184611a61565b9050949350505050565b5f5f60408385031215611c3a57611c396115fe565b5b5f83013567ffffffffffffffff811115611c5757611c56611602565b5b611c63858286016118ae565b925050602083013567ffffffffffffffff811115611c8457611c83611602565b5b611c90858286016118ae565b9150509250929050565b7f4e487b71000000000000000000000000000000000000000000000000000000005f52602260045260245ffd5b5f6002820490506001821680611cde57607f821691505b602082108103611cf157611cf0611c9a565b5b50919050565b7f536f6c6f206167726963756c746f726573207265676973747261646f732070755f8201527f6564656e207075626c696361722070726f647563746f73000000000000000000602082015250565b5f611d51603783611a51565b9150611d5c82611cf7565b604082019050919050565b5f6020820190508181035f830152611d7e81611d45565b9050919050565b7f456c2070726563696f206465626520736572206d61796f722061206365726f005f82015250565b5f611db9601f83611a51565b9150611dc482611d85565b602082019050919050565b5f6020820190508181035f830152611de681611dad565b9050919050565b7f4e487b71000000000000000000000000000000000000000000000000000000005f52601160045260245ffd5b5f611e2482611606565b91507fffffffffffffffffffffffffffffffffffffffffffffffffffffffffffffffff8203611e5657611e55611ded565b5b600182019050919050565b5f819050815f5260205f209050919050565b5f6020601f8301049050919050565b5f82821b905092915050565b5f60088302611ebd7fffffffffffffffffffffffffffffffffffffffffffffffffffffffffffffffff82611e82565b611ec78683611e82565b95508019841693508086168417925050509392505050565b5f819050919050565b5f611f02611efd611ef884611606565b611edf565b611606565b9050919050565b5f819050919050565b611f1b83611ee8565b611f2f611f2782611f09565b848454611e8e565b825550505050565b5f5f905090565b611f46611f37565b611f51818484611f12565b505050565b5b81811015611f7457611f695f82611f3e565b600181019050611f57565b5050565b601f821115611fb957611f8a81611e61565b611f9384611e73565b81016020851015611fa2578190505b611fb6611fae85611e73565b830182611f56565b50505b505050565b5f82821c905092915050565b5f611fd95f1984600802611fbe565b1980831691505092915050565b5f611ff18383611fca565b9150826002028217905092915050565b61200a8261168d565b67ffffffffffffffff811115612023576120226117b7565b5b61202d8254611cc7565b612038828285611f78565b5f60209050601f831160018114612069575f8415612057578287015190505b6120618582611fe6565b8655506120c8565b601f19841661207786611e61565b5f5b8281101561209e57848901518255600182019150602085019450602081019050612079565b868310156120bb57848901516120b7601f891682611fca565b8355505b6001600288020188555050505b505050505050565b5f81905092915050565b7f50726f647563746f207075626c696361646f20706f72206167726963756c746f5f8201527f7220000000000000000000000000000000000000000000000000000000000000602082015250565b5f6121346022836120d0565b915061213f826120da565b602282019050919050565b5f815461215681611cc7565b61216081866120d0565b9450600182165f811461217a576001811461218f576121c1565b60ff19831686528115158202860193506121c1565b61219885611e61565b5f5b838110156121b95781548189015260018201915060208101905061219a565b838801955050505b50505092915050565b5f6121d482612128565b91506121e0828461214a565b915081905092915050565b5f6040820190508181035f8301526122038185611a61565b90506122126020830184611a29565b9392505050565b7f4e6f206175746f72697a61646f2070617261207472616e7366657269720000005f82015250565b5f61224d601d83611a51565b915061225882612219565b602082019050919050565b5f6020820190508181035f83015261227a81612241565b9050919050565b7f446972656363696f6e20696e76616c69646100000000000000000000000000005f82015250565b5f6122b5601283611a51565b91506122c082612281565b602082019050919050565b5f6020820190508181035f8301526122e2816122a9565b9050919050565b5f6020820190508181035f8301526123018184611a61565b905092915050565b7f4167726963756c746f72207961207265676973747261646f00000000000000005f82015250565b5f61233d601883611a51565b915061234882612309565b602082019050919050565b5f6020820190508181035f83015261236a81612331565b9050919050565b5f6040820190508181035f8301526123898185611a61565b9050818103602083015261239d8184611a61565b90509392505050565b7f536f6c6f20656c206167726963756c746f72207075656465206d6172636172205f8201527f636f6d6f20656e766961646f0000000000000000000000000000000000000000602082015250565b5f612400602c83611a51565b915061240b826123a6565b604082019050919050565b5f6020820190508181035f83015261242d816123f4565b9050919050565b7f456c2070726f647563746f20646562652065737461722066696e616e636961645f8201527f6f00000000000000000000000000000000000000000000000000000000000000602082015250565b5f61248e602183611a51565b915061249982612434565b604082019050919050565b5f6020820190508181035f8301526124bb81612482565b9050919050565b7f536f6c6f20656c20636f6d707261646f7220707565646520636f6e6669726d615f8201527f72206c6120656e74726567610000000000000000000000000000000000000000602082015250565b5f61251c602c83611a51565b9150612527826124c2565b604082019050919050565b5f6020820190508181035f83015261254981612510565b9050919050565b7f45737461646f20696e76616c69646f00000000000000000000000000000000005f82015250565b5f612584600f83611a51565b915061258f82612550565b602082019050919050565b5f6020820190508181035f8301526125b181612578565b9050919050565b7f456c2070726f647563746f206e6f206573746120646973706f6e69626c6520705f8201527f6172612066696e616e6369616d69656e746f0000000000000000000000000000602082015250565b5f612612603283611a51565b915061261d826125b8565b604082019050919050565b5f6020820190508181035f83015261263f81612606565b9050919050565b7f456c2076616c6f7220656e766961646f206e6f20636f696e6369646520636f6e5f8201527f20656c2070726563696f00000000000000000000000000000000000000000000602082015250565b5f6126a0602a83611a51565b91506126ab82612646565b604082019050919050565b5f6020820190508181035f8301526126cd81612694565b9050919050565b7f50726f647563746f2066696e616e636961646f20706f7220636f6d707261646f5f8201527f7220000000000000000000000000000000000000000000000000000000000000602082015250565b5f61272e6022836120d0565b9150612739826126d4565b602282019050919050565b5f61274e8261168d565b61275881856120d0565b93506127688185602086016116a7565b80840191505092915050565b5f61277e82612722565b915061278a8284612744565b915081905092915050565b7f4e487b71000000000000000000000000000000000000000000000000000000005f52603260045260245ffd5b5f6127cc82611606565b91506127d783611606565b92508282039050818111156127ef576127ee611ded565b5b92915050565b5f6127ff82611606565b915061280a83611606565b925082820261281881611606565b9150828204841483151761282f5761282e611ded565b5b5092915050565b5f8160011c9050919050565b5f5f8291508390505b600185111561288b5780860481111561286757612866611ded565b5b60018516156128765780820291505b808102905061288485612836565b945061284b565b94509492505050565b5f826128a3576001905061295e565b816128b0575f905061295e565b81600181146128c657600281146128d0576128ff565b600191505061295e565b60ff8411156128e2576128e1611ded565b5b8360020a9150848211156128f9576128f8611ded565b5b5061295e565b5060208310610133831016604e8410600b84101617156129345782820a90508381111561292f5761292e611ded565b5b61295e565b6129418484846001612842565b9250905081840481111561295857612957611ded565b5b81810290505b9392505050565b5f61296f82611606565b915061297a83611606565b92506129a77fffffffffffffffffffffffffffffffffffffffffffffffffffffffffffffffff8484612894565b905092915050565b7f4e487b71000000000000000000000000000000000000000000000000000000005f52601260045260245ffd5b5f6129e682611606565b91506129f183611606565b925082612a0157612a006129af565b5b828204905092915050565b5f60ff82169050919050565b5f612a2282612a0c565b9150612a2d83612a0c565b925082612a3d57612a3c6129af565b5b828204905092915050565b5f612a5282612a0c565b9150612a5d83612a0c565b9250828202612a6b81612a0c565b9150808214612a7d57612a7c611ded565b5b5092915050565b5f612a8e82612a0c565b9150612a9983612a0c565b9250828203905060ff811115612ab257612ab1611ded565b5b92915050565b5f612ac282611606565b9150612acd83611606565b9250828201905080821115612ae557612ae4611ded565b5b92915050565b5f612af582612a0c565b9150612b0083612a0c565b9250828201905060ff811115612b1957612b18611ded565b5b9291505056fe456e747265676120636f6e6669726d6164612c207061676f206c6962657261646fa2646970667358221220a56ef40f210e6887f0ecf89b8c0c075f2e3a5d1726ee47662ac3053349ddd90d64736f6c634300081e0033",
					"opcodes": "PUSH1 0x80 PUSH1 0x40 MSTORE CALLVALUE DUP1 ISZERO PUSH1 0xE JUMPI PUSH0 PUSH0 REVERT JUMPDEST POP PUSH2 0x2B76 DUP1 PUSH2 0x1C PUSH0 CODECOPY PUSH0 RETURN INVALID PUSH1 0x80 PUSH1 0x40 MSTORE PUSH1 0x4 CALLDATASIZE LT PUSH2 0x90 JUMPI PUSH0 CALLDATALOAD PUSH1 0xE0 SHR DUP1 PUSH4 0xA7D1CB55 GT PUSH2 0x58 JUMPI DUP1 PUSH4 0xA7D1CB55 EQ PUSH2 0x18C JUMPI DUP1 PUSH4 0xAFFE518A EQ PUSH2 0x1CA JUMPI DUP1 PUSH4 0xB820C38F EQ PUSH2 0x1F2 JUMPI DUP1 PUSH4 0xEEA7F824 EQ PUSH2 0x21A JUMPI DUP1 PUSH4 0xFECC7C93 EQ PUSH2 0x242 JUMPI PUSH2 0x90 JUMP JUMPDEST DUP1 PUSH4 0x1A6CB1C8 EQ PUSH2 0x94 JUMPI DUP1 PUSH4 0x24E63166 EQ PUSH2 0xD0 JUMPI DUP1 PUSH4 0x583D9B98 EQ PUSH2 0xF8 JUMPI DUP1 PUSH4 0x97283ACB EQ PUSH2 0x120 JUMPI DUP1 PUSH4 0x99553636 EQ PUSH2 0x14A JUMPI JUMPDEST PUSH0 PUSH0 REVERT JUMPDEST CALLVALUE DUP1 ISZERO PUSH2 0x9F JUMPI PUSH0 PUSH0 REVERT JUMPDEST POP PUSH2 0xBA PUSH1 0x4 DUP1 CALLDATASIZE SUB DUP2 ADD SWAP1 PUSH2 0xB5 SWAP2 SWAP1 PUSH2 0x1639 JUMP JUMPDEST PUSH2 0x25E JUMP JUMPDEST PUSH1 0x40 MLOAD PUSH2 0xC7 SWAP2 SWAP1 PUSH2 0x178F JUMP JUMPDEST PUSH1 0x40 MLOAD DUP1 SWAP2 SUB SWAP1 RETURN JUMPDEST CALLVALUE DUP1 ISZERO PUSH2 0xDB JUMPI PUSH0 PUSH0 REVERT JUMPDEST POP PUSH2 0xF6 PUSH1 0x4 DUP1 CALLDATASIZE SUB DUP2 ADD SWAP1 PUSH2 0xF1 SWAP2 SWAP1 PUSH2 0x18DB JUMP JUMPDEST PUSH2 0x346 JUMP JUMPDEST STOP JUMPDEST CALLVALUE DUP1 ISZERO PUSH2 0x103 JUMPI PUSH0 PUSH0 REVERT JUMPDEST POP PUSH2 0x11E PUSH1 0x4 DUP1 CALLDATASIZE SUB DUP2 ADD SWAP1 PUSH2 0x119 SWAP2 SWAP1 PUSH2 0x19BD JUMP JUMPDEST PUSH2 0x618 JUMP JUMPDEST STOP JUMPDEST CALLVALUE DUP1 ISZERO PUSH2 0x12B JUMPI PUSH0 PUSH0 REVERT JUMPDEST POP PUSH2 0x134 PUSH2 0x838 JUMP JUMPDEST PUSH1 0x40 MLOAD PUSH2 0x141 SWAP2 SWAP1 PUSH2 0x1A38 JUMP JUMPDEST PUSH1 0x40 MLOAD DUP1 SWAP2 SUB SWAP1 RETURN JUMPDEST CALLVALUE DUP1 ISZERO PUSH2 0x155 JUMPI PUSH0 PUSH0 REVERT JUMPDEST POP PUSH2 0x170 PUSH1 0x4 DUP1 CALLDATASIZE SUB DUP2 ADD SWAP1 PUSH2 0x16B SWAP2 SWAP1 PUSH2 0x1639 JUMP JUMPDEST PUSH2 0x83E JUMP JUMPDEST PUSH1 0x40 MLOAD PUSH2 0x183 SWAP8 SWAP7 SWAP6 SWAP5 SWAP4 SWAP3 SWAP2 SWAP1 PUSH2 0x1B3B JUMP JUMPDEST PUSH1 0x40 MLOAD DUP1 SWAP2 SUB SWAP1 RETURN JUMPDEST CALLVALUE DUP1 ISZERO PUSH2 0x197 JUMPI PUSH0 PUSH0 REVERT JUMPDEST POP PUSH2 0x1B2 PUSH1 0x4 DUP1 CALLDATASIZE SUB DUP2 ADD SWAP1 PUSH2 0x1AD SWAP2 SWAP1 PUSH2 0x1BB6 JUMP JUMPDEST PUSH2 0x9D3 JUMP JUMPDEST PUSH1 0x40 MLOAD PUSH2 0x1C1 SWAP4 SWAP3 SWAP2 SWAP1 PUSH2 0x1BE1 JUMP JUMPDEST PUSH1 0x40 MLOAD DUP1 SWAP2 SUB SWAP1 RETURN JUMPDEST CALLVALUE DUP1 ISZERO PUSH2 0x1D5 JUMPI PUSH0 PUSH0 REVERT JUMPDEST POP PUSH2 0x1F0 PUSH1 0x4 DUP1 CALLDATASIZE SUB DUP2 ADD SWAP1 PUSH2 0x1EB SWAP2 SWAP1 PUSH2 0x1C24 JUMP JUMPDEST PUSH2 0xB23 JUMP JUMPDEST STOP JUMPDEST CALLVALUE DUP1 ISZERO PUSH2 0x1FD JUMPI PUSH0 PUSH0 REVERT JUMPDEST POP PUSH2 0x218 PUSH1 0x4 DUP1 CALLDATASIZE SUB DUP2 ADD SWAP1 PUSH2 0x213 SWAP2 SWAP1 PUSH2 0x1639 JUMP JUMPDEST PUSH2 0xCE4 JUMP JUMPDEST STOP JUMPDEST CALLVALUE DUP1 ISZERO PUSH2 0x225 JUMPI PUSH0 PUSH0 REVERT JUMPDEST POP PUSH2 0x240 PUSH1 0x4 DUP1 CALLDATASIZE SUB DUP2 ADD SWAP1 PUSH2 0x23B SWAP2 SWAP1 PUSH2 0x1639 JUMP JUMPDEST PUSH2 0xEC5 JUMP JUMPDEST STOP JUMPDEST PUSH2 0x25C PUSH1 0x4 DUP1 CALLDATASIZE SUB DUP2 ADD SWAP1 PUSH2 0x257 SWAP2 SWAP1 PUSH2 0x1639 JUMP JUMPDEST PUSH2 0x1134 JUMP JUMPDEST STOP JUMPDEST PUSH1 0x60 PUSH1 0x1 PUSH0 DUP4 DUP2 MSTORE PUSH1 0x20 ADD SWAP1 DUP2 MSTORE PUSH1 0x20 ADD PUSH0 KECCAK256 PUSH1 0x6 ADD DUP1 SLOAD DUP1 PUSH1 0x20 MUL PUSH1 0x20 ADD PUSH1 0x40 MLOAD SWAP1 DUP2 ADD PUSH1 0x40 MSTORE DUP1 SWAP3 SWAP2 SWAP1 DUP2 DUP2 MSTORE PUSH1 0x20 ADD PUSH0 SWAP1 JUMPDEST DUP3 DUP3 LT ISZERO PUSH2 0x33B JUMPI DUP4 DUP3 SWAP1 PUSH0 MSTORE PUSH1 0x20 PUSH0 KECCAK256 ADD DUP1 SLOAD PUSH2 0x2B0 SWAP1 PUSH2 0x1CC7 JUMP JUMPDEST DUP1 PUSH1 0x1F ADD PUSH1 0x20 DUP1 SWAP2 DIV MUL PUSH1 0x20 ADD PUSH1 0x40 MLOAD SWAP1 DUP2 ADD PUSH1 0x40 MSTORE DUP1 SWAP3 SWAP2 SWAP1 DUP2 DUP2 MSTORE PUSH1 0x20 ADD DUP3 DUP1 SLOAD PUSH2 0x2DC SWAP1 PUSH2 0x1CC7 JUMP JUMPDEST DUP1 ISZERO PUSH2 0x327 JUMPI DUP1 PUSH1 0x1F LT PUSH2 0x2FE JUMPI PUSH2 0x100 DUP1 DUP4 SLOAD DIV MUL DUP4 MSTORE SWAP2 PUSH1 0x20 ADD SWAP2 PUSH2 0x327 JUMP JUMPDEST DUP3 ADD SWAP2 SWAP1 PUSH0 MSTORE PUSH1 0x20 PUSH0 KECCAK256 SWAP1 JUMPDEST DUP2 SLOAD DUP2 MSTORE SWAP1 PUSH1 0x1 ADD SWAP1 PUSH1 0x20 ADD DUP1 DUP4 GT PUSH2 0x30A JUMPI DUP3 SWAP1 SUB PUSH1 0x1F AND DUP3 ADD SWAP2 JUMPDEST POP POP POP POP POP DUP2 MSTORE PUSH1 0x20 ADD SWAP1 PUSH1 0x1 ADD SWAP1 PUSH2 0x293 JUMP JUMPDEST POP POP POP POP SWAP1 POP SWAP2 SWAP1 POP JUMP JUMPDEST PUSH0 PUSH0 PUSH0 CALLER PUSH20 0xFFFFFFFFFFFFFFFFFFFFFFFFFFFFFFFFFFFFFFFF AND PUSH20 0xFFFFFFFFFFFFFFFFFFFFFFFFFFFFFFFFFFFFFFFF AND DUP2 MSTORE PUSH1 0x20 ADD SWAP1 DUP2 MSTORE PUSH1 0x20 ADD PUSH0 KECCAK256 PUSH1 0x1 ADD DUP1 SLOAD PUSH2 0x391 SWAP1 PUSH2 0x1CC7 JUMP JUMPDEST SWAP1 POP GT PUSH2 0x3D3 JUMPI PUSH1 0x40 MLOAD PUSH32 0x8C379A000000000000000000000000000000000000000000000000000000000 DUP2 MSTORE PUSH1 0x4 ADD PUSH2 0x3CA SWAP1 PUSH2 0x1D67 JUMP JUMPDEST PUSH1 0x40 MLOAD DUP1 SWAP2 SUB SWAP1 REVERT JUMPDEST PUSH0 DUP3 GT PUSH2 0x415 JUMPI PUSH1 0x40 MLOAD PUSH32 0x8C379A000000000000000000000000000000000000000000000000000000000 DUP2 MSTORE PUSH1 0x4 ADD PUSH2 0x40C SWAP1 PUSH2 0x1DCF JUMP JUMPDEST PUSH1 0x40 MLOAD DUP1 SWAP2 SUB SWAP1 REVERT JUMPDEST PUSH1 0x2 PUSH0 DUP2 SLOAD DUP1 SWAP3 SWAP2 SWAP1 PUSH2 0x427 SWAP1 PUSH2 0x1E1A JUMP JUMPDEST SWAP2 SWAP1 POP SSTORE POP PUSH0 PUSH1 0x1 PUSH0 PUSH1 0x2 SLOAD DUP2 MSTORE PUSH1 0x20 ADD SWAP1 DUP2 MSTORE PUSH1 0x20 ADD PUSH0 KECCAK256 SWAP1 POP PUSH1 0x2 SLOAD DUP2 PUSH0 ADD DUP2 SWAP1 SSTORE POP DUP4 DUP2 PUSH1 0x1 ADD SWAP1 DUP2 PUSH2 0x45D SWAP2 SWAP1 PUSH2 0x2001 JUMP JUMPDEST POP DUP3 DUP2 PUSH1 0x2 ADD DUP2 SWAP1 SSTORE POP CALLER DUP2 PUSH1 0x3 ADD PUSH0 PUSH2 0x100 EXP DUP2 SLOAD DUP2 PUSH20 0xFFFFFFFFFFFFFFFFFFFFFFFFFFFFFFFFFFFFFFFF MUL NOT AND SWAP1 DUP4 PUSH20 0xFFFFFFFFFFFFFFFFFFFFFFFFFFFFFFFFFFFFFFFF AND MUL OR SWAP1 SSTORE POP PUSH0 DUP2 PUSH1 0x4 ADD PUSH0 PUSH2 0x100 EXP DUP2 SLOAD DUP2 PUSH20 0xFFFFFFFFFFFFFFFFFFFFFFFFFFFFFFFFFFFFFFFF MUL NOT AND SWAP1 DUP4 PUSH20 0xFFFFFFFFFFFFFFFFFFFFFFFFFFFFFFFFFFFFFFFF AND MUL OR SWAP1 SSTORE POP PUSH0 DUP2 PUSH1 0x4 ADD PUSH1 0x14 PUSH2 0x100 EXP DUP2 SLOAD DUP2 PUSH1 0xFF MUL NOT AND SWAP1 DUP4 PUSH1 0x3 DUP2 GT ISZERO PUSH2 0x512 JUMPI PUSH2 0x511 PUSH2 0x1AC8 JUMP JUMPDEST JUMPDEST MUL OR SWAP1 SSTORE POP DUP2 DUP2 PUSH1 0x5 ADD SWAP1 DUP2 PUSH2 0x528 SWAP2 SWAP1 PUSH2 0x2001 JUMP JUMPDEST POP PUSH0 PUSH0 PUSH0 CALLER PUSH20 0xFFFFFFFFFFFFFFFFFFFFFFFFFFFFFFFFFFFFFFFF AND PUSH20 0xFFFFFFFFFFFFFFFFFFFFFFFFFFFFFFFFFFFFFFFF AND DUP2 MSTORE PUSH1 0x20 ADD SWAP1 DUP2 MSTORE PUSH1 0x20 ADD PUSH0 KECCAK256 PUSH1 0x1 ADD PUSH1 0x40 MLOAD PUSH1 0x20 ADD PUSH2 0x579 SWAP2 SWAP1 PUSH2 0x21CA JUMP JUMPDEST PUSH1 0x40 MLOAD PUSH1 0x20 DUP2 DUP4 SUB SUB DUP2 MSTORE SWAP1 PUSH1 0x40 MSTORE SWAP1 POP DUP2 PUSH1 0x6 ADD DUP2 SWAP1 DUP1 PUSH1 0x1 DUP2 SLOAD ADD DUP1 DUP3 SSTORE DUP1 SWAP2 POP POP PUSH1 0x1 SWAP1 SUB SWAP1 PUSH0 MSTORE PUSH1 0x20 PUSH0 KECCAK256 ADD PUSH0 SWAP1 SWAP2 SWAP1 SWAP2 SWAP1 SWAP2 POP SWAP1 DUP2 PUSH2 0x5BD SWAP2 SWAP1 PUSH2 0x2001 JUMP JUMPDEST POP CALLER PUSH20 0xFFFFFFFFFFFFFFFFFFFFFFFFFFFFFFFFFFFFFFFF AND PUSH1 0x2 SLOAD PUSH32 0x3930E5670C46825FD55446202C6F740183609CE71746ACA012563BD9DAC35A2C DUP8 DUP8 PUSH1 0x40 MLOAD PUSH2 0x609 SWAP3 SWAP2 SWAP1 PUSH2 0x21EB JUMP JUMPDEST PUSH1 0x40 MLOAD DUP1 SWAP2 SUB SWAP1 LOG3 POP POP POP POP POP JUMP JUMPDEST PUSH0 PUSH1 0x1 PUSH0 DUP6 DUP2 MSTORE PUSH1 0x20 ADD SWAP1 DUP2 MSTORE PUSH1 0x20 ADD PUSH0 KECCAK256 SWAP1 POP DUP1 PUSH1 0x3 ADD PUSH0 SWAP1 SLOAD SWAP1 PUSH2 0x100 EXP SWAP1 DIV PUSH20 0xFFFFFFFFFFFFFFFFFFFFFFFFFFFFFFFFFFFFFFFF AND PUSH20 0xFFFFFFFFFFFFFFFFFFFFFFFFFFFFFFFFFFFFFFFF AND CALLER PUSH20 0xFFFFFFFFFFFFFFFFFFFFFFFFFFFFFFFFFFFFFFFF AND EQ DUP1 PUSH2 0x6D7 JUMPI POP DUP1 PUSH1 0x4 ADD PUSH0 SWAP1 SLOAD SWAP1 PUSH2 0x100 EXP SWAP1 DIV PUSH20 0xFFFFFFFFFFFFFFFFFFFFFFFFFFFFFFFFFFFFFFFF AND PUSH20 0xFFFFFFFFFFFFFFFFFFFFFFFFFFFFFFFFFFFFFFFF AND CALLER PUSH20 0xFFFFFFFFFFFFFFFFFFFFFFFFFFFFFFFFFFFFFFFF AND EQ JUMPDEST PUSH2 0x716 JUMPI PUSH1 0x40 MLOAD PUSH32 0x8C379A000000000000000000000000000000000000000000000000000000000 DUP2 MSTORE PUSH1 0x4 ADD PUSH2 0x70D SWAP1 PUSH2 0x2263 JUMP JUMPDEST PUSH1 0x40 MLOAD DUP1 SWAP2 SUB SWAP1 REVERT JUMPDEST PUSH0 PUSH20 0xFFFFFFFFFFFFFFFFFFFFFFFFFFFFFFFFFFFFFFFF AND DUP4 PUSH20 0xFFFFFFFFFFFFFFFFFFFFFFFFFFFFFFFFFFFFFFFF AND SUB PUSH2 0x784 JUMPI PUSH1 0x40 MLOAD PUSH32 0x8C379A000000000000000000000000000000000000000000000000000000000 DUP2 MSTORE PUSH1 0x4 ADD PUSH2 0x77B SWAP1 PUSH2 0x22CB JUMP JUMPDEST PUSH1 0x40 MLOAD DUP1 SWAP2 SUB SWAP1 REVERT JUMPDEST DUP3 DUP2 PUSH1 0x4 ADD PUSH0 PUSH2 0x100 EXP DUP2 SLOAD DUP2 PUSH20 0xFFFFFFFFFFFFFFFFFFFFFFFFFFFFFFFFFFFFFFFF MUL NOT AND SWAP1 DUP4 PUSH20 0xFFFFFFFFFFFFFFFFFFFFFFFFFFFFFFFFFFFFFFFF AND MUL OR SWAP1 SSTORE POP DUP1 PUSH1 0x6 ADD DUP3 SWAP1 DUP1 PUSH1 0x1 DUP2 SLOAD ADD DUP1 DUP3 SSTORE DUP1 SWAP2 POP POP PUSH1 0x1 SWAP1 SUB SWAP1 PUSH0 MSTORE PUSH1 0x20 PUSH0 KECCAK256 ADD PUSH0 SWAP1 SWAP2 SWAP1 SWAP2 SWAP1 SWAP2 POP SWAP1 DUP2 PUSH2 0x7F9 SWAP2 SWAP1 PUSH2 0x2001 JUMP JUMPDEST POP DUP4 PUSH32 0xFD50AA3EB0B0A6ECF95005CD3F28D9F3849BAA8725F57600691ECBB6F7E591B2 DUP4 PUSH1 0x40 MLOAD PUSH2 0x82A SWAP2 SWAP1 PUSH2 0x22E9 JUMP JUMPDEST PUSH1 0x40 MLOAD DUP1 SWAP2 SUB SWAP1 LOG2 POP POP POP POP JUMP JUMPDEST PUSH1 0x2 SLOAD DUP2 JUMP JUMPDEST PUSH1 0x1 PUSH1 0x20 MSTORE DUP1 PUSH0 MSTORE PUSH1 0x40 PUSH0 KECCAK256 PUSH0 SWAP2 POP SWAP1 POP DUP1 PUSH0 ADD SLOAD SWAP1 DUP1 PUSH1 0x1 ADD DUP1 SLOAD PUSH2 0x863 SWAP1 PUSH2 0x1CC7 JUMP JUMPDEST DUP1 PUSH1 0x1F ADD PUSH1 0x20 DUP1 SWAP2 DIV MUL PUSH1 0x20 ADD PUSH1 0x40 MLOAD SWAP1 DUP2 ADD PUSH1 0x40 MSTORE DUP1 SWAP3 SWAP2 SWAP1 DUP2 DUP2 MSTORE PUSH1 0x20 ADD DUP3 DUP1 SLOAD PUSH2 0x88F SWAP1 PUSH2 0x1CC7 JUMP JUMPDEST DUP1 ISZERO PUSH2 0x8DA JUMPI DUP1 PUSH1 0x1F LT PUSH2 0x8B1 JUMPI PUSH2 0x100 DUP1 DUP4 SLOAD DIV MUL DUP4 MSTORE SWAP2 PUSH1 0x20 ADD SWAP2 PUSH2 0x8DA JUMP JUMPDEST DUP3 ADD SWAP2 SWAP1 PUSH0 MSTORE PUSH1 0x20 PUSH0 KECCAK256 SWAP1 JUMPDEST DUP2 SLOAD DUP2 MSTORE SWAP1 PUSH1 0x1 ADD SWAP1 PUSH1 0x20 ADD DUP1 DUP4 GT PUSH2 0x8BD JUMPI DUP3 SWAP1 SUB PUSH1 0x1F AND DUP3 ADD SWAP2 JUMPDEST POP POP POP POP POP SWAP1 DUP1 PUSH1 0x2 ADD SLOAD SWAP1 DUP1 PUSH1 0x3 ADD PUSH0 SWAP1 SLOAD SWAP1 PUSH2 0x100 EXP SWAP1 DIV PUSH20 0xFFFFFFFFFFFFFFFFFFFFFFFFFFFFFFFFFFFFFFFF AND SWAP1 DUP1 PUSH1 0x4 ADD PUSH0 SWAP1 SLOAD SWAP1 PUSH2 0x100 EXP SWAP1 DIV PUSH20 0xFFFFFFFFFFFFFFFFFFFFFFFFFFFFFFFFFFFFFFFF AND SWAP1 DUP1 PUSH1 0x4 ADD PUSH1 0x14 SWAP1 SLOAD SWAP1 PUSH2 0x100 EXP SWAP1 DIV PUSH1 0xFF AND SWAP1 DUP1 PUSH1 0x5 ADD DUP1 SLOAD PUSH2 0x952 SWAP1 PUSH2 0x1CC7 JUMP JUMPDEST DUP1 PUSH1 0x1F ADD PUSH1 0x20 DUP1 SWAP2 DIV MUL PUSH1 0x20 ADD PUSH1 0x40 MLOAD SWAP1 DUP2 ADD PUSH1 0x40 MSTORE DUP1 SWAP3 SWAP2 SWAP1 DUP2 DUP2 MSTORE PUSH1 0x20 ADD DUP3 DUP1 SLOAD PUSH2 0x97E SWAP1 PUSH2 0x1CC7 JUMP JUMPDEST DUP1 ISZERO PUSH2 0x9C9 JUMPI DUP1 PUSH1 0x1F LT PUSH2 0x9A0 JUMPI PUSH2 0x100 DUP1 DUP4 SLOAD DIV MUL DUP4 MSTORE SWAP2 PUSH1 0x20 ADD SWAP2 PUSH2 0x9C9 JUMP JUMPDEST DUP3 ADD SWAP2 SWAP1 PUSH0 MSTORE PUSH1 0x20 PUSH0 KECCAK256 SWAP1 JUMPDEST DUP2 SLOAD DUP2 MSTORE SWAP1 PUSH1 0x1 ADD SWAP1 PUSH1 0x20 ADD DUP1 DUP4 GT PUSH2 0x9AC JUMPI DUP3 SWAP1 SUB PUSH1 0x1F AND DUP3 ADD SWAP2 JUMPDEST POP POP POP POP POP SWAP1 POP DUP8 JUMP JUMPDEST PUSH0 PUSH1 0x20 MSTORE DUP1 PUSH0 MSTORE PUSH1 0x40 PUSH0 KECCAK256 PUSH0 SWAP2 POP SWAP1 POP DUP1 PUSH0 ADD PUSH0 SWAP1 SLOAD SWAP1 PUSH2 0x100 EXP SWAP1 DIV PUSH20 0xFFFFFFFFFFFFFFFFFFFFFFFFFFFFFFFFFFFFFFFF AND SWAP1 DUP1 PUSH1 0x1 ADD DUP1 SLOAD PUSH2 0xA16 SWAP1 PUSH2 0x1CC7 JUMP JUMPDEST DUP1 PUSH1 0x1F ADD PUSH1 0x20 DUP1 SWAP2 DIV MUL PUSH1 0x20 ADD PUSH1 0x40 MLOAD SWAP1 DUP2 ADD PUSH1 0x40 MSTORE DUP1 SWAP3 SWAP2 SWAP1 DUP2 DUP2 MSTORE PUSH1 0x20 ADD DUP3 DUP1 SLOAD PUSH2 0xA42 SWAP1 PUSH2 0x1CC7 JUMP JUMPDEST DUP1 ISZERO PUSH2 0xA8D JUMPI DUP1 PUSH1 0x1F LT PUSH2 0xA64 JUMPI PUSH2 0x100 DUP1 DUP4 SLOAD DIV MUL DUP4 MSTORE SWAP2 PUSH1 0x20 ADD SWAP2 PUSH2 0xA8D JUMP JUMPDEST DUP3 ADD SWAP2 SWAP1 PUSH0 MSTORE PUSH1 0x20 PUSH0 KECCAK256 SWAP1 JUMPDEST DUP2 SLOAD DUP2 MSTORE SWAP1 PUSH1 0x1 ADD SWAP1 PUSH1 0x20 ADD DUP1 DUP4 GT PUSH2 0xA70 JUMPI DUP3 SWAP1 SUB PUSH1 0x1F AND DUP3 ADD SWAP2 JUMPDEST POP POP POP POP POP SWAP1 DUP1 PUSH1 0x2 ADD DUP1 SLOAD PUSH2 0xAA2 SWAP1 PUSH2 0x1CC7 JUMP JUMPDEST DUP1 PUSH1 0x1F ADD PUSH1 0x20 DUP1 SWAP2 DIV MUL PUSH1 0x20 ADD PUSH1 0x40 MLOAD SWAP1 DUP2 ADD PUSH1 0x40 MSTORE DUP1 SWAP3 SWAP2 SWAP1 DUP2 DUP2 MSTORE PUSH1 0x20 ADD DUP3 DUP1 SLOAD PUSH2 0xACE SWAP1 PUSH2 0x1CC7 JUMP JUMPDEST DUP1 ISZERO PUSH2 0xB19 JUMPI DUP1 PUSH1 0x1F LT PUSH2 0xAF0 JUMPI PUSH2 0x100 DUP1 DUP4 SLOAD DIV MUL DUP4 MSTORE SWAP2 PUSH1 0x20 ADD SWAP2 PUSH2 0xB19 JUMP JUMPDEST DUP3 ADD SWAP2 SWAP1 PUSH0 MSTORE PUSH1 0x20 PUSH0 KECCAK256 SWAP1 JUMPDEST DUP2 SLOAD DUP2 MSTORE SWAP1 PUSH1 0x1 ADD SWAP1 PUSH1 0x20 ADD DUP1 DUP4 GT PUSH2 0xAFC JUMPI DUP3 SWAP1 SUB PUSH1 0x1F AND DUP3 ADD SWAP2 JUMPDEST POP POP POP POP POP SWAP1 POP DUP4 JUMP JUMPDEST PUSH0 PUSH0 PUSH0 CALLER PUSH20 0xFFFFFFFFFFFFFFFFFFFFFFFFFFFFFFFFFFFFFFFF AND PUSH20 0xFFFFFFFFFFFFFFFFFFFFFFFFFFFFFFFFFFFFFFFF AND DUP2 MSTORE PUSH1 0x20 ADD SWAP1 DUP2 MSTORE PUSH1 0x20 ADD PUSH0 KECCAK256 PUSH1 0x1 ADD DUP1 SLOAD PUSH2 0xB6E SWAP1 PUSH2 0x1CC7 JUMP JUMPDEST SWAP1 POP EQ PUSH2 0xBB0 JUMPI PUSH1 0x40 MLOAD PUSH32 0x8C379A000000000000000000000000000000000000000000000000000000000 DUP2 MSTORE PUSH1 0x4 ADD PUSH2 0xBA7 SWAP1 PUSH2 0x2353 JUMP JUMPDEST PUSH1 0x40 MLOAD DUP1 SWAP2 SUB SWAP1 REVERT JUMPDEST PUSH1 0x40 MLOAD DUP1 PUSH1 0x60 ADD PUSH1 0x40 MSTORE DUP1 CALLER PUSH20 0xFFFFFFFFFFFFFFFFFFFFFFFFFFFFFFFFFFFFFFFF AND DUP2 MSTORE PUSH1 0x20 ADD DUP4 DUP2 MSTORE PUSH1 0x20 ADD DUP3 DUP2 MSTORE POP PUSH0 PUSH0 CALLER PUSH20 0xFFFFFFFFFFFFFFFFFFFFFFFFFFFFFFFFFFFFFFFF AND PUSH20 0xFFFFFFFFFFFFFFFFFFFFFFFFFFFFFFFFFFFFFFFF AND DUP2 MSTORE PUSH1 0x20 ADD SWAP1 DUP2 MSTORE PUSH1 0x20 ADD PUSH0 KECCAK256 PUSH0 DUP3 ADD MLOAD DUP2 PUSH0 ADD PUSH0 PUSH2 0x100 EXP DUP2 SLOAD DUP2 PUSH20 0xFFFFFFFFFFFFFFFFFFFFFFFFFFFFFFFFFFFFFFFF MUL NOT AND SWAP1 DUP4 PUSH20 0xFFFFFFFFFFFFFFFFFFFFFFFFFFFFFFFFFFFFFFFF AND MUL OR SWAP1 SSTORE POP PUSH1 0x20 DUP3 ADD MLOAD DUP2 PUSH1 0x1 ADD SWAP1 DUP2 PUSH2 0xC76 SWAP2 SWAP1 PUSH2 0x2001 JUMP JUMPDEST POP PUSH1 0x40 DUP3 ADD MLOAD DUP2 PUSH1 0x2 ADD SWAP1 DUP2 PUSH2 0xC8C SWAP2 SWAP1 PUSH2 0x2001 JUMP JUMPDEST POP SWAP1 POP POP CALLER PUSH20 0xFFFFFFFFFFFFFFFFFFFFFFFFFFFFFFFFFFFFFFFF AND PUSH32 0xE81C369424FCAE53AA0A7106FC3807A6619A60C791A5DE3C76C3268B68B7176D DUP4 DUP4 PUSH1 0x40 MLOAD PUSH2 0xCD8 SWAP3 SWAP2 SWAP1 PUSH2 0x2371 JUMP JUMPDEST PUSH1 0x40 MLOAD DUP1 SWAP2 SUB SWAP1 LOG2 POP POP JUMP JUMPDEST PUSH0 PUSH1 0x1 PUSH0 DUP4 DUP2 MSTORE PUSH1 0x20 ADD SWAP1 DUP2 MSTORE PUSH1 0x20 ADD PUSH0 KECCAK256 SWAP1 POP DUP1 PUSH1 0x3 ADD PUSH0 SWAP1 SLOAD SWAP1 PUSH2 0x100 EXP SWAP1 DIV PUSH20 0xFFFFFFFFFFFFFFFFFFFFFFFFFFFFFFFFFFFFFFFF AND PUSH20 0xFFFFFFFFFFFFFFFFFFFFFFFFFFFFFFFFFFFFFFFF AND CALLER PUSH20 0xFFFFFFFFFFFFFFFFFFFFFFFFFFFFFFFFFFFFFFFF AND EQ PUSH2 0xD89 JUMPI PUSH1 0x40 MLOAD PUSH32 0x8C379A000000000000000000000000000000000000000000000000000000000 DUP2 MSTORE PUSH1 0x4 ADD PUSH2 0xD80 SWAP1 PUSH2 0x2416 JUMP JUMPDEST PUSH1 0x40 MLOAD DUP1 SWAP2 SUB SWAP1 REVERT JUMPDEST PUSH1 0x1 PUSH1 0x3 DUP2 GT ISZERO PUSH2 0xD9D JUMPI PUSH2 0xD9C PUSH2 0x1AC8 JUMP JUMPDEST JUMPDEST DUP2 PUSH1 0x4 ADD PUSH1 0x14 SWAP1 SLOAD SWAP1 PUSH2 0x100 EXP SWAP1 DIV PUSH1 0xFF AND PUSH1 0x3 DUP2 GT ISZERO PUSH2 0xDC1 JUMPI PUSH2 0xDC0 PUSH2 0x1AC8 JUMP JUMPDEST JUMPDEST EQ PUSH2 0xE01 JUMPI PUSH1 0x40 MLOAD PUSH32 0x8C379A000000000000000000000000000000000000000000000000000000000 DUP2 MSTORE PUSH1 0x4 ADD PUSH2 0xDF8 SWAP1 PUSH2 0x24A4 JUMP JUMPDEST PUSH1 0x40 MLOAD DUP1 SWAP2 SUB SWAP1 REVERT JUMPDEST PUSH1 0x2 DUP2 PUSH1 0x4 ADD PUSH1 0x14 PUSH2 0x100 EXP DUP2 SLOAD DUP2 PUSH1 0xFF MUL NOT AND SWAP1 DUP4 PUSH1 0x3 DUP2 GT ISZERO PUSH2 0xE29 JUMPI PUSH2 0xE28 PUSH2 0x1AC8 JUMP JUMPDEST JUMPDEST MUL OR SWAP1 SSTORE POP DUP1 PUSH1 0x6 ADD DUP1 PUSH1 0x1 DUP2 SLOAD ADD DUP1 DUP3 SSTORE DUP1 SWAP2 POP POP PUSH1 0x1 SWAP1 SUB SWAP1 PUSH0 MSTORE PUSH1 0x20 PUSH0 KECCAK256 ADD PUSH0 PUSH1 0x40 MLOAD DUP1 PUSH1 0x40 ADD PUSH1 0x40 MSTORE DUP1 PUSH1 0x1D DUP2 MSTORE PUSH1 0x20 ADD PUSH32 0x50726F647563746F206D61726361646F20636F6D6F20656E766961646F000000 DUP2 MSTORE POP SWAP1 SWAP2 SWAP1 SWAP2 POP SWAP1 DUP2 PUSH2 0xE93 SWAP2 SWAP1 PUSH2 0x2001 JUMP JUMPDEST POP DUP2 PUSH32 0xE2014D2E3EF60E8B6F7E5E08A57DA71901171B55245B5B299B50A39033561330 PUSH1 0x40 MLOAD PUSH1 0x40 MLOAD DUP1 SWAP2 SUB SWAP1 LOG2 POP POP JUMP JUMPDEST PUSH0 PUSH1 0x1 PUSH0 DUP4 DUP2 MSTORE PUSH1 0x20 ADD SWAP1 DUP2 MSTORE PUSH1 0x20 ADD PUSH0 KECCAK256 SWAP1 POP DUP1 PUSH1 0x4 ADD PUSH0 SWAP1 SLOAD SWAP1 PUSH2 0x100 EXP SWAP1 DIV PUSH20 0xFFFFFFFFFFFFFFFFFFFFFFFFFFFFFFFFFFFFFFFF AND PUSH20 0xFFFFFFFFFFFFFFFFFFFFFFFFFFFFFFFFFFFFFFFF AND CALLER PUSH20 0xFFFFFFFFFFFFFFFFFFFFFFFFFFFFFFFFFFFFFFFF AND EQ PUSH2 0xF6A JUMPI PUSH1 0x40 MLOAD PUSH32 0x8C379A000000000000000000000000000000000000000000000000000000000 DUP2 MSTORE PUSH1 0x4 ADD PUSH2 0xF61 SWAP1 PUSH2 0x2532 JUMP JUMPDEST PUSH1 0x40 MLOAD DUP1 SWAP2 SUB SWAP1 REVERT JUMPDEST PUSH1 0x1 PUSH1 0x3 DUP2 GT ISZERO PUSH2 0xF7E JUMPI PUSH2 0xF7D PUSH2 0x1AC8 JUMP JUMPDEST JUMPDEST DUP2 PUSH1 0x4 ADD PUSH1 0x14 SWAP1 SLOAD SWAP1 PUSH2 0x100 EXP SWAP1 DIV PUSH1 0xFF AND PUSH1 0x3 DUP2 GT ISZERO PUSH2 0xFA2 JUMPI PUSH2 0xFA1 PUSH2 0x1AC8 JUMP JUMPDEST JUMPDEST EQ DUP1 PUSH2 0xFE3 JUMPI POP PUSH1 0x2 PUSH1 0x3 DUP2 GT ISZERO PUSH2 0xFBD JUMPI PUSH2 0xFBC PUSH2 0x1AC8 JUMP JUMPDEST JUMPDEST DUP2 PUSH1 0x4 ADD PUSH1 0x14 SWAP1 SLOAD SWAP1 PUSH2 0x100 EXP SWAP1 DIV PUSH1 0xFF AND PUSH1 0x3 DUP2 GT ISZERO PUSH2 0xFE1 JUMPI PUSH2 0xFE0 PUSH2 0x1AC8 JUMP JUMPDEST JUMPDEST EQ JUMPDEST PUSH2 0x1022 JUMPI PUSH1 0x40 MLOAD PUSH32 0x8C379A000000000000000000000000000000000000000000000000000000000 DUP2 MSTORE PUSH1 0x4 ADD PUSH2 0x1019 SWAP1 PUSH2 0x259A JUMP JUMPDEST PUSH1 0x40 MLOAD DUP1 SWAP2 SUB SWAP1 REVERT JUMPDEST PUSH1 0x3 DUP2 PUSH1 0x4 ADD PUSH1 0x14 PUSH2 0x100 EXP DUP2 SLOAD DUP2 PUSH1 0xFF MUL NOT AND SWAP1 DUP4 PUSH1 0x3 DUP2 GT ISZERO PUSH2 0x104A JUMPI PUSH2 0x1049 PUSH2 0x1AC8 JUMP JUMPDEST JUMPDEST MUL OR SWAP1 SSTORE POP DUP1 PUSH1 0x6 ADD DUP1 PUSH1 0x1 DUP2 SLOAD ADD DUP1 DUP3 SSTORE DUP1 SWAP2 POP POP PUSH1 0x1 SWAP1 SUB SWAP1 PUSH0 MSTORE PUSH1 0x20 PUSH0 KECCAK256 ADD PUSH0 PUSH1 0x40 MLOAD DUP1 PUSH1 0x60 ADD PUSH1 0x40 MSTORE DUP1 PUSH1 0x21 DUP2 MSTORE PUSH1 0x20 ADD PUSH2 0x2B20 PUSH1 0x21 SWAP2 CODECOPY SWAP1 SWAP2 SWAP1 SWAP2 POP SWAP1 DUP2 PUSH2 0x1097 SWAP2 SWAP1 PUSH2 0x2001 JUMP JUMPDEST POP DUP1 PUSH1 0x3 ADD PUSH0 SWAP1 SLOAD SWAP1 PUSH2 0x100 EXP SWAP1 DIV PUSH20 0xFFFFFFFFFFFFFFFFFFFFFFFFFFFFFFFFFFFFFFFF AND PUSH20 0xFFFFFFFFFFFFFFFFFFFFFFFFFFFFFFFFFFFFFFFF AND PUSH2 0x8FC DUP3 PUSH1 0x2 ADD SLOAD SWAP1 DUP2 ISZERO MUL SWAP1 PUSH1 0x40 MLOAD PUSH0 PUSH1 0x40 MLOAD DUP1 DUP4 SUB DUP2 DUP6 DUP9 DUP9 CALL SWAP4 POP POP POP POP ISZERO DUP1 ISZERO PUSH2 0x1102 JUMPI RETURNDATASIZE PUSH0 PUSH0 RETURNDATACOPY RETURNDATASIZE PUSH0 REVERT JUMPDEST POP DUP2 PUSH32 0xB0E28EA3F8D2A6C6BE59EB0786A4EF44BBD06A455D02E84DC2C74B8A47355A3F PUSH1 0x40 MLOAD PUSH1 0x40 MLOAD DUP1 SWAP2 SUB SWAP1 LOG2 POP POP JUMP JUMPDEST PUSH0 PUSH1 0x1 PUSH0 DUP4 DUP2 MSTORE PUSH1 0x20 ADD SWAP1 DUP2 MSTORE PUSH1 0x20 ADD PUSH0 KECCAK256 SWAP1 POP PUSH0 PUSH1 0x3 DUP2 GT ISZERO PUSH2 0x115B JUMPI PUSH2 0x115A PUSH2 0x1AC8 JUMP JUMPDEST JUMPDEST DUP2 PUSH1 0x4 ADD PUSH1 0x14 SWAP1 SLOAD SWAP1 PUSH2 0x100 EXP SWAP1 DIV PUSH1 0xFF AND PUSH1 0x3 DUP2 GT ISZERO PUSH2 0x117F JUMPI PUSH2 0x117E PUSH2 0x1AC8 JUMP JUMPDEST JUMPDEST EQ PUSH2 0x11BF JUMPI PUSH1 0x40 MLOAD PUSH32 0x8C379A000000000000000000000000000000000000000000000000000000000 DUP2 MSTORE PUSH1 0x4 ADD PUSH2 0x11B6 SWAP1 PUSH2 0x2628 JUMP JUMPDEST PUSH1 0x40 MLOAD DUP1 SWAP2 SUB SWAP1 REVERT JUMPDEST DUP1 PUSH1 0x2 ADD SLOAD CALLVALUE EQ PUSH2 0x1205 JUMPI PUSH1 0x40 MLOAD PUSH32 0x8C379A000000000000000000000000000000000000000000000000000000000 DUP2 MSTORE PUSH1 0x4 ADD PUSH2 0x11FC SWAP1 PUSH2 0x26B6 JUMP JUMPDEST PUSH1 0x40 MLOAD DUP1 SWAP2 SUB SWAP1 REVERT JUMPDEST CALLER DUP2 PUSH1 0x4 ADD PUSH0 PUSH2 0x100 EXP DUP2 SLOAD DUP2 PUSH20 0xFFFFFFFFFFFFFFFFFFFFFFFFFFFFFFFFFFFFFFFF MUL NOT AND SWAP1 DUP4 PUSH20 0xFFFFFFFFFFFFFFFFFFFFFFFFFFFFFFFFFFFFFFFF AND MUL OR SWAP1 SSTORE POP PUSH1 0x1 DUP2 PUSH1 0x4 ADD PUSH1 0x14 PUSH2 0x100 EXP DUP2 SLOAD DUP2 PUSH1 0xFF MUL NOT AND SWAP1 DUP4 PUSH1 0x3 DUP2 GT ISZERO PUSH2 0x126F JUMPI PUSH2 0x126E PUSH2 0x1AC8 JUMP JUMPDEST JUMPDEST MUL OR SWAP1 SSTORE POP DUP1 PUSH1 0x6 ADD PUSH2 0x1281 CALLER PUSH2 0x1326 JUMP JUMPDEST PUSH1 0x40 MLOAD PUSH1 0x20 ADD PUSH2 0x1291 SWAP2 SWAP1 PUSH2 0x2774 JUMP JUMPDEST PUSH1 0x40 MLOAD PUSH1 0x20 DUP2 DUP4 SUB SUB DUP2 MSTORE SWAP1 PUSH1 0x40 MSTORE SWAP1 DUP1 PUSH1 0x1 DUP2 SLOAD ADD DUP1 DUP3 SSTORE DUP1 SWAP2 POP POP PUSH1 0x1 SWAP1 SUB SWAP1 PUSH0 MSTORE PUSH1 0x20 PUSH0 KECCAK256 ADD PUSH0 SWAP1 SWAP2 SWAP1 SWAP2 SWAP1 SWAP2 POP SWAP1 DUP2 PUSH2 0x12CE SWAP2 SWAP1 PUSH2 0x2001 JUMP JUMPDEST POP CALLER PUSH20 0xFFFFFFFFFFFFFFFFFFFFFFFFFFFFFFFFFFFFFFFF AND DUP3 PUSH32 0xC2660DB1071E6F18EB362F68DC4E14F1B991A78041FF997C425592035E3BA497 DUP4 PUSH1 0x2 ADD SLOAD PUSH1 0x40 MLOAD PUSH2 0x131A SWAP2 SWAP1 PUSH2 0x1A38 JUMP JUMPDEST PUSH1 0x40 MLOAD DUP1 SWAP2 SUB SWAP1 LOG3 POP POP JUMP JUMPDEST PUSH1 0x60 PUSH0 PUSH1 0x2A PUSH8 0xFFFFFFFFFFFFFFFF DUP2 GT ISZERO PUSH2 0x1344 JUMPI PUSH2 0x1343 PUSH2 0x17B7 JUMP JUMPDEST JUMPDEST PUSH1 0x40 MLOAD SWAP1 DUP1 DUP3 MSTORE DUP1 PUSH1 0x1F ADD PUSH1 0x1F NOT AND PUSH1 0x20 ADD DUP3 ADD PUSH1 0x40 MSTORE DUP1 ISZERO PUSH2 0x1376 JUMPI DUP2 PUSH1 0x20 ADD PUSH1 0x1 DUP3 MUL DUP1 CALLDATASIZE DUP4 CALLDATACOPY DUP1 DUP3 ADD SWAP2 POP POP SWAP1 POP JUMPDEST POP SWAP1 POP PUSH32 0x3000000000000000000000000000000000000000000000000000000000000000 DUP2 PUSH0 DUP2 MLOAD DUP2 LT PUSH2 0x13AD JUMPI PUSH2 0x13AC PUSH2 0x2795 JUMP JUMPDEST JUMPDEST PUSH1 0x20 ADD ADD SWAP1 PUSH31 0xFFFFFFFFFFFFFFFFFFFFFFFFFFFFFFFFFFFFFFFFFFFFFFFFFFFFFFFFFFFFFF NOT AND SWAP1 DUP2 PUSH0 BYTE SWAP1 MSTORE8 POP PUSH32 0x7800000000000000000000000000000000000000000000000000000000000000 DUP2 PUSH1 0x1 DUP2 MLOAD DUP2 LT PUSH2 0x1410 JUMPI PUSH2 0x140F PUSH2 0x2795 JUMP JUMPDEST JUMPDEST PUSH1 0x20 ADD ADD SWAP1 PUSH31 0xFFFFFFFFFFFFFFFFFFFFFFFFFFFFFFFFFFFFFFFFFFFFFFFFFFFFFFFFFFFFFF NOT AND SWAP1 DUP2 PUSH0 BYTE SWAP1 MSTORE8 POP PUSH0 PUSH0 SWAP1 POP JUMPDEST PUSH1 0x14 DUP2 LT ISZERO PUSH2 0x15A6 JUMPI PUSH0 DUP2 PUSH1 0x13 PUSH2 0x145A SWAP2 SWAP1 PUSH2 0x27C2 JUMP JUMPDEST PUSH1 0x8 PUSH2 0x1466 SWAP2 SWAP1 PUSH2 0x27F5 JUMP JUMPDEST PUSH1 0x2 PUSH2 0x1472 SWAP2 SWAP1 PUSH2 0x2965 JUMP JUMPDEST DUP6 PUSH20 0xFFFFFFFFFFFFFFFFFFFFFFFFFFFFFFFFFFFFFFFF AND PUSH2 0x1493 SWAP2 SWAP1 PUSH2 0x29DC JUMP JUMPDEST PUSH1 0xF8 SHL SWAP1 POP PUSH0 PUSH1 0x10 DUP3 PUSH1 0xF8 SHR PUSH2 0x14A9 SWAP2 SWAP1 PUSH2 0x2A18 JUMP JUMPDEST PUSH1 0xF8 SHL SWAP1 POP PUSH0 DUP2 PUSH1 0xF8 SHR PUSH1 0x10 PUSH2 0x14BF SWAP2 SWAP1 PUSH2 0x2A48 JUMP JUMPDEST DUP4 PUSH1 0xF8 SHR PUSH2 0x14CD SWAP2 SWAP1 PUSH2 0x2A84 JUMP JUMPDEST PUSH1 0xF8 SHL SWAP1 POP PUSH2 0x14DB DUP3 PUSH2 0x15B0 JUMP JUMPDEST DUP6 PUSH1 0x2 DUP7 PUSH1 0x2 PUSH2 0x14EB SWAP2 SWAP1 PUSH2 0x27F5 JUMP JUMPDEST PUSH2 0x14F5 SWAP2 SWAP1 PUSH2 0x2AB8 JUMP JUMPDEST DUP2 MLOAD DUP2 LT PUSH2 0x1506 JUMPI PUSH2 0x1505 PUSH2 0x2795 JUMP JUMPDEST JUMPDEST PUSH1 0x20 ADD ADD SWAP1 PUSH31 0xFFFFFFFFFFFFFFFFFFFFFFFFFFFFFFFFFFFFFFFFFFFFFFFFFFFFFFFFFFFFFF NOT AND SWAP1 DUP2 PUSH0 BYTE SWAP1 MSTORE8 POP PUSH2 0x153D DUP2 PUSH2 0x15B0 JUMP JUMPDEST DUP6 PUSH1 0x3 DUP7 PUSH1 0x2 PUSH2 0x154D SWAP2 SWAP1 PUSH2 0x27F5 JUMP JUMPDEST PUSH2 0x1557 SWAP2 SWAP1 PUSH2 0x2AB8 JUMP JUMPDEST DUP2 MLOAD DUP2 LT PUSH2 0x1568 JUMPI PUSH2 0x1567 PUSH2 0x2795 JUMP JUMPDEST JUMPDEST PUSH1 0x20 ADD ADD SWAP1 PUSH31 0xFFFFFFFFFFFFFFFFFFFFFFFFFFFFFFFFFFFFFFFFFFFFFFFFFFFFFFFFFFFFFF NOT AND SWAP1 DUP2 PUSH0 BYTE SWAP1 MSTORE8 POP POP POP POP DUP1 DUP1 PUSH1 0x1 ADD SWAP2 POP POP PUSH2 0x1443 JUMP JUMPDEST POP DUP1 SWAP2 POP POP SWAP2 SWAP1 POP JUMP JUMPDEST PUSH0 PUSH1 0xA DUP3 PUSH1 0xF8 SHR PUSH1 0xFF AND LT ISZERO PUSH2 0x15DA JUMPI PUSH1 0x30 DUP3 PUSH1 0xF8 SHR PUSH2 0x15D0 SWAP2 SWAP1 PUSH2 0x2AEB JUMP JUMPDEST PUSH1 0xF8 SHL SWAP1 POP PUSH2 0x15F0 JUMP JUMPDEST PUSH1 0x57 DUP3 PUSH1 0xF8 SHR PUSH2 0x15EA SWAP2 SWAP1 PUSH2 0x2AEB JUMP JUMPDEST PUSH1 0xF8 SHL SWAP1 POP JUMPDEST SWAP2 SWAP1 POP JUMP JUMPDEST PUSH0 PUSH1 0x40 MLOAD SWAP1 POP SWAP1 JUMP JUMPDEST PUSH0 PUSH0 REVERT JUMPDEST PUSH0 PUSH0 REVERT JUMPDEST PUSH0 DUP2 SWAP1 POP SWAP2 SWAP1 POP JUMP JUMPDEST PUSH2 0x1618 DUP2 PUSH2 0x1606 JUMP JUMPDEST DUP2 EQ PUSH2 0x1622 JUMPI PUSH0 PUSH0 REVERT JUMPDEST POP JUMP JUMPDEST PUSH0 DUP2 CALLDATALOAD SWAP1 POP PUSH2 0x1633 DUP2 PUSH2 0x160F JUMP JUMPDEST SWAP3 SWAP2 POP POP JUMP JUMPDEST PUSH0 PUSH1 0x20 DUP3 DUP5 SUB SLT ISZERO PUSH2 0x164E JUMPI PUSH2 0x164D PUSH2 0x15FE JUMP JUMPDEST JUMPDEST PUSH0 PUSH2 0x165B DUP5 DUP3 DUP6 ADD PUSH2 0x1625 JUMP JUMPDEST SWAP2 POP POP SWAP3 SWAP2 POP POP JUMP JUMPDEST PUSH0 DUP2 MLOAD SWAP1 POP SWAP2 SWAP1 POP JUMP JUMPDEST PUSH0 DUP3 DUP3 MSTORE PUSH1 0x20 DUP3 ADD SWAP1 POP SWAP3 SWAP2 POP POP JUMP JUMPDEST PUSH0 DUP2 SWAP1 POP PUSH1 0x20 DUP3 ADD SWAP1 POP SWAP2 SWAP1 POP JUMP JUMPDEST PUSH0 DUP2 MLOAD SWAP1 POP SWAP2 SWAP1 POP JUMP JUMPDEST PUSH0 DUP3 DUP3 MSTORE PUSH1 0x20 DUP3 ADD SWAP1 POP SWAP3 SWAP2 POP POP JUMP JUMPDEST DUP3 DUP2 DUP4 MCOPY PUSH0 DUP4 DUP4 ADD MSTORE POP POP POP JUMP JUMPDEST PUSH0 PUSH1 0x1F NOT PUSH1 0x1F DUP4 ADD AND SWAP1 POP SWAP2 SWAP1 POP JUMP JUMPDEST PUSH0 PUSH2 0x16CF DUP3 PUSH2 0x168D JUMP JUMPDEST PUSH2 0x16D9 DUP2 DUP6 PUSH2 0x1697 JUMP JUMPDEST SWAP4 POP PUSH2 0x16E9 DUP2 DUP6 PUSH1 0x20 DUP7 ADD PUSH2 0x16A7 JUMP JUMPDEST PUSH2 0x16F2 DUP2 PUSH2 0x16B5 JUMP JUMPDEST DUP5 ADD SWAP2 POP POP SWAP3 SWAP2 POP POP JUMP JUMPDEST PUSH0 PUSH2 0x1708 DUP4 DUP4 PUSH2 0x16C5 JUMP JUMPDEST SWAP1 POP SWAP3 SWAP2 POP POP JUMP JUMPDEST PUSH0 PUSH1 0x20 DUP3 ADD SWAP1 POP SWAP2 SWAP1 POP JUMP JUMPDEST PUSH0 PUSH2 0x1726 DUP3 PUSH2 0x1664 JUMP JUMPDEST PUSH2 0x1730 DUP2 DUP6 PUSH2 0x166E JUMP JUMPDEST SWAP4 POP DUP4 PUSH1 0x20 DUP3 MUL DUP6 ADD PUSH2 0x1742 DUP6 PUSH2 0x167E JUMP JUMPDEST DUP1 PUSH0 JUMPDEST DUP6 DUP2 LT ISZERO PUSH2 0x177D JUMPI DUP5 DUP5 SUB DUP10 MSTORE DUP2 MLOAD PUSH2 0x175E DUP6 DUP3 PUSH2 0x16FD JUMP JUMPDEST SWAP5 POP PUSH2 0x1769 DUP4 PUSH2 0x1710 JUMP JUMPDEST SWAP3 POP PUSH1 0x20 DUP11 ADD SWAP10 POP POP PUSH1 0x1 DUP2 ADD SWAP1 POP PUSH2 0x1745 JUMP JUMPDEST POP DUP3 SWAP8 POP DUP8 SWAP6 POP POP POP POP POP POP SWAP3 SWAP2 POP POP JUMP JUMPDEST PUSH0 PUSH1 0x20 DUP3 ADD SWAP1 POP DUP2 DUP2 SUB PUSH0 DUP4 ADD MSTORE PUSH2 0x17A7 DUP2 DUP5 PUSH2 0x171C JUMP JUMPDEST SWAP1 POP SWAP3 SWAP2 POP POP JUMP JUMPDEST PUSH0 PUSH0 REVERT JUMPDEST PUSH0 PUSH0 REVERT JUMPDEST PUSH32 0x4E487B7100000000000000000000000000000000000000000000000000000000 PUSH0 MSTORE PUSH1 0x41 PUSH1 0x4 MSTORE PUSH1 0x24 PUSH0 REVERT JUMPDEST PUSH2 0x17ED DUP3 PUSH2 0x16B5 JUMP JUMPDEST DUP2 ADD DUP2 DUP2 LT PUSH8 0xFFFFFFFFFFFFFFFF DUP3 GT OR ISZERO PUSH2 0x180C JUMPI PUSH2 0x180B PUSH2 0x17B7 JUMP JUMPDEST JUMPDEST DUP1 PUSH1 0x40 MSTORE POP POP POP JUMP JUMPDEST PUSH0 PUSH2 0x181E PUSH2 0x15F5 JUMP JUMPDEST SWAP1 POP PUSH2 0x182A DUP3 DUP3 PUSH2 0x17E4 JUMP JUMPDEST SWAP2 SWAP1 POP JUMP JUMPDEST PUSH0 PUSH8 0xFFFFFFFFFFFFFFFF DUP3 GT ISZERO PUSH2 0x1849 JUMPI PUSH2 0x1848 PUSH2 0x17B7 JUMP JUMPDEST JUMPDEST PUSH2 0x1852 DUP3 PUSH2 0x16B5 JUMP JUMPDEST SWAP1 POP PUSH1 0x20 DUP2 ADD SWAP1 POP SWAP2 SWAP1 POP JUMP JUMPDEST DUP3 DUP2 DUP4 CALLDATACOPY PUSH0 DUP4 DUP4 ADD MSTORE POP POP POP JUMP JUMPDEST PUSH0 PUSH2 0x187F PUSH2 0x187A DUP5 PUSH2 0x182F JUMP JUMPDEST PUSH2 0x1815 JUMP JUMPDEST SWAP1 POP DUP3 DUP2 MSTORE PUSH1 0x20 DUP2 ADD DUP5 DUP5 DUP5 ADD GT ISZERO PUSH2 0x189B JUMPI PUSH2 0x189A PUSH2 0x17B3 JUMP JUMPDEST JUMPDEST PUSH2 0x18A6 DUP5 DUP3 DUP6 PUSH2 0x185F JUMP JUMPDEST POP SWAP4 SWAP3 POP POP POP JUMP JUMPDEST PUSH0 DUP3 PUSH1 0x1F DUP4 ADD SLT PUSH2 0x18C2 JUMPI PUSH2 0x18C1 PUSH2 0x17AF JUMP JUMPDEST JUMPDEST DUP2 CALLDATALOAD PUSH2 0x18D2 DUP5 DUP3 PUSH1 0x20 DUP7 ADD PUSH2 0x186D JUMP JUMPDEST SWAP2 POP POP SWAP3 SWAP2 POP POP JUMP JUMPDEST PUSH0 PUSH0 PUSH0 PUSH1 0x60 DUP5 DUP7 SUB SLT ISZERO PUSH2 0x18F2 JUMPI PUSH2 0x18F1 PUSH2 0x15FE JUMP JUMPDEST JUMPDEST PUSH0 DUP5 ADD CALLDATALOAD PUSH8 0xFFFFFFFFFFFFFFFF DUP2 GT ISZERO PUSH2 0x190F JUMPI PUSH2 0x190E PUSH2 0x1602 JUMP JUMPDEST JUMPDEST PUSH2 0x191B DUP7 DUP3 DUP8 ADD PUSH2 0x18AE JUMP JUMPDEST SWAP4 POP POP PUSH1 0x20 PUSH2 0x192C DUP7 DUP3 DUP8 ADD PUSH2 0x1625 JUMP JUMPDEST SWAP3 POP POP PUSH1 0x40 DUP5 ADD CALLDATALOAD PUSH8 0xFFFFFFFFFFFFFFFF DUP2 GT ISZERO PUSH2 0x194D JUMPI PUSH2 0x194C PUSH2 0x1602 JUMP JUMPDEST JUMPDEST PUSH2 0x1959 DUP7 DUP3 DUP8 ADD PUSH2 0x18AE JUMP JUMPDEST SWAP2 POP POP SWAP3 POP SWAP3 POP SWAP3 JUMP JUMPDEST PUSH0 PUSH20 0xFFFFFFFFFFFFFFFFFFFFFFFFFFFFFFFFFFFFFFFF DUP3 AND SWAP1 POP SWAP2 SWAP1 POP JUMP JUMPDEST PUSH0 PUSH2 0x198C DUP3 PUSH2 0x1963 JUMP JUMPDEST SWAP1 POP SWAP2 SWAP1 POP JUMP JUMPDEST PUSH2 0x199C DUP2 PUSH2 0x1982 JUMP JUMPDEST DUP2 EQ PUSH2 0x19A6 JUMPI PUSH0 PUSH0 REVERT JUMPDEST POP JUMP JUMPDEST PUSH0 DUP2 CALLDATALOAD SWAP1 POP PUSH2 0x19B7 DUP2 PUSH2 0x1993 JUMP JUMPDEST SWAP3 SWAP2 POP POP JUMP JUMPDEST PUSH0 PUSH0 PUSH0 PUSH1 0x60 DUP5 DUP7 SUB SLT ISZERO PUSH2 0x19D4 JUMPI PUSH2 0x19D3 PUSH2 0x15FE JUMP JUMPDEST JUMPDEST PUSH0 PUSH2 0x19E1 DUP7 DUP3 DUP8 ADD PUSH2 0x1625 JUMP JUMPDEST SWAP4 POP POP PUSH1 0x20 PUSH2 0x19F2 DUP7 DUP3 DUP8 ADD PUSH2 0x19A9 JUMP JUMPDEST SWAP3 POP POP PUSH1 0x40 DUP5 ADD CALLDATALOAD PUSH8 0xFFFFFFFFFFFFFFFF DUP2 GT ISZERO PUSH2 0x1A13 JUMPI PUSH2 0x1A12 PUSH2 0x1602 JUMP JUMPDEST JUMPDEST PUSH2 0x1A1F DUP7 DUP3 DUP8 ADD PUSH2 0x18AE JUMP JUMPDEST SWAP2 POP POP SWAP3 POP SWAP3 POP SWAP3 JUMP JUMPDEST PUSH2 0x1A32 DUP2 PUSH2 0x1606 JUMP JUMPDEST DUP3 MSTORE POP POP JUMP JUMPDEST PUSH0 PUSH1 0x20 DUP3 ADD SWAP1 POP PUSH2 0x1A4B PUSH0 DUP4 ADD DUP5 PUSH2 0x1A29 JUMP JUMPDEST SWAP3 SWAP2 POP POP JUMP JUMPDEST PUSH0 DUP3 DUP3 MSTORE PUSH1 0x20 DUP3 ADD SWAP1 POP SWAP3 SWAP2 POP POP JUMP JUMPDEST PUSH0 PUSH2 0x1A6B DUP3 PUSH2 0x168D JUMP JUMPDEST PUSH2 0x1A75 DUP2 DUP6 PUSH2 0x1A51 JUMP JUMPDEST SWAP4 POP PUSH2 0x1A85 DUP2 DUP6 PUSH1 0x20 DUP7 ADD PUSH2 0x16A7 JUMP JUMPDEST PUSH2 0x1A8E DUP2 PUSH2 0x16B5 JUMP JUMPDEST DUP5 ADD SWAP2 POP POP SWAP3 SWAP2 POP POP JUMP JUMPDEST PUSH0 PUSH2 0x1AA3 DUP3 PUSH2 0x1963 JUMP JUMPDEST SWAP1 POP SWAP2 SWAP1 POP JUMP JUMPDEST PUSH2 0x1AB3 DUP2 PUSH2 0x1A99 JUMP JUMPDEST DUP3 MSTORE POP POP JUMP JUMPDEST PUSH2 0x1AC2 DUP2 PUSH2 0x1982 JUMP JUMPDEST DUP3 MSTORE POP POP JUMP JUMPDEST PUSH32 0x4E487B7100000000000000000000000000000000000000000000000000000000 PUSH0 MSTORE PUSH1 0x21 PUSH1 0x4 MSTORE PUSH1 0x24 PUSH0 REVERT JUMPDEST PUSH1 0x4 DUP2 LT PUSH2 0x1B06 JUMPI PUSH2 0x1B05 PUSH2 0x1AC8 JUMP JUMPDEST JUMPDEST POP JUMP JUMPDEST PUSH0 DUP2 SWAP1 POP PUSH2 0x1B16 DUP3 PUSH2 0x1AF5 JUMP JUMPDEST SWAP2 SWAP1 POP JUMP JUMPDEST PUSH0 PUSH2 0x1B25 DUP3 PUSH2 0x1B09 JUMP JUMPDEST SWAP1 POP SWAP2 SWAP1 POP JUMP JUMPDEST PUSH2 0x1B35 DUP2 PUSH2 0x1B1B JUMP JUMPDEST DUP3 MSTORE POP POP JUMP JUMPDEST PUSH0 PUSH1 0xE0 DUP3 ADD SWAP1 POP PUSH2 0x1B4E PUSH0 DUP4 ADD DUP11 PUSH2 0x1A29 JUMP JUMPDEST DUP2 DUP2 SUB PUSH1 0x20 DUP4 ADD MSTORE PUSH2 0x1B60 DUP2 DUP10 PUSH2 0x1A61 JUMP JUMPDEST SWAP1 POP PUSH2 0x1B6F PUSH1 0x40 DUP4 ADD DUP9 PUSH2 0x1A29 JUMP JUMPDEST PUSH2 0x1B7C PUSH1 0x60 DUP4 ADD DUP8 PUSH2 0x1AAA JUMP JUMPDEST PUSH2 0x1B89 PUSH1 0x80 DUP4 ADD DUP7 PUSH2 0x1AB9 JUMP JUMPDEST PUSH2 0x1B96 PUSH1 0xA0 DUP4 ADD DUP6 PUSH2 0x1B2C JUMP JUMPDEST DUP2 DUP2 SUB PUSH1 0xC0 DUP4 ADD MSTORE PUSH2 0x1BA8 DUP2 DUP5 PUSH2 0x1A61 JUMP JUMPDEST SWAP1 POP SWAP9 SWAP8 POP POP POP POP POP POP POP POP JUMP JUMPDEST PUSH0 PUSH1 0x20 DUP3 DUP5 SUB SLT ISZERO PUSH2 0x1BCB JUMPI PUSH2 0x1BCA PUSH2 0x15FE JUMP JUMPDEST JUMPDEST PUSH0 PUSH2 0x1BD8 DUP5 DUP3 DUP6 ADD PUSH2 0x19A9 JUMP JUMPDEST SWAP2 POP POP SWAP3 SWAP2 POP POP JUMP JUMPDEST PUSH0 PUSH1 0x60 DUP3 ADD SWAP1 POP PUSH2 0x1BF4 PUSH0 DUP4 ADD DUP7 PUSH2 0x1AB9 JUMP JUMPDEST DUP2 DUP2 SUB PUSH1 0x20 DUP4 ADD MSTORE PUSH2 0x1C06 DUP2 DUP6 PUSH2 0x1A61 JUMP JUMPDEST SWAP1 POP DUP2 DUP2 SUB PUSH1 0x40 DUP4 ADD MSTORE PUSH2 0x1C1A DUP2 DUP5 PUSH2 0x1A61 JUMP JUMPDEST SWAP1 POP SWAP5 SWAP4 POP POP POP POP JUMP JUMPDEST PUSH0 PUSH0 PUSH1 0x40 DUP4 DUP6 SUB SLT ISZERO PUSH2 0x1C3A JUMPI PUSH2 0x1C39 PUSH2 0x15FE JUMP JUMPDEST JUMPDEST PUSH0 DUP4 ADD CALLDATALOAD PUSH8 0xFFFFFFFFFFFFFFFF DUP2 GT ISZERO PUSH2 0x1C57 JUMPI PUSH2 0x1C56 PUSH2 0x1602 JUMP JUMPDEST JUMPDEST PUSH2 0x1C63 DUP6 DUP3 DUP7 ADD PUSH2 0x18AE JUMP JUMPDEST SWAP3 POP POP PUSH1 0x20 DUP4 ADD CALLDATALOAD PUSH8 0xFFFFFFFFFFFFFFFF DUP2 GT ISZERO PUSH2 0x1C84 JUMPI PUSH2 0x1C83 PUSH2 0x1602 JUMP JUMPDEST JUMPDEST PUSH2 0x1C90 DUP6 DUP3 DUP7 ADD PUSH2 0x18AE JUMP JUMPDEST SWAP2 POP POP SWAP3 POP SWAP3 SWAP1 POP JUMP JUMPDEST PUSH32 0x4E487B7100000000000000000000000000000000000000000000000000000000 PUSH0 MSTORE PUSH1 0x22 PUSH1 0x4 MSTORE PUSH1 0x24 PUSH0 REVERT JUMPDEST PUSH0 PUSH1 0x2 DUP3 DIV SWAP1 POP PUSH1 0x1 DUP3 AND DUP1 PUSH2 0x1CDE JUMPI PUSH1 0x7F DUP3 AND SWAP2 POP JUMPDEST PUSH1 0x20 DUP3 LT DUP2 SUB PUSH2 0x1CF1 JUMPI PUSH2 0x1CF0 PUSH2 0x1C9A JUMP JUMPDEST JUMPDEST POP SWAP2 SWAP1 POP JUMP JUMPDEST PUSH32 0x536F6C6F206167726963756C746F726573207265676973747261646F73207075 PUSH0 DUP3 ADD MSTORE PUSH32 0x6564656E207075626C696361722070726F647563746F73000000000000000000 PUSH1 0x20 DUP3 ADD MSTORE POP JUMP JUMPDEST PUSH0 PUSH2 0x1D51 PUSH1 0x37 DUP4 PUSH2 0x1A51 JUMP JUMPDEST SWAP2 POP PUSH2 0x1D5C DUP3 PUSH2 0x1CF7 JUMP JUMPDEST PUSH1 0x40 DUP3 ADD SWAP1 POP SWAP2 SWAP1 POP JUMP JUMPDEST PUSH0 PUSH1 0x20 DUP3 ADD SWAP1 POP DUP2 DUP2 SUB PUSH0 DUP4 ADD MSTORE PUSH2 0x1D7E DUP2 PUSH2 0x1D45 JUMP JUMPDEST SWAP1 POP SWAP2 SWAP1 POP JUMP JUMPDEST PUSH32 0x456C2070726563696F206465626520736572206D61796F722061206365726F00 PUSH0 DUP3 ADD MSTORE POP JUMP JUMPDEST PUSH0 PUSH2 0x1DB9 PUSH1 0x1F DUP4 PUSH2 0x1A51 JUMP JUMPDEST SWAP2 POP PUSH2 0x1DC4 DUP3 PUSH2 0x1D85 JUMP JUMPDEST PUSH1 0x20 DUP3 ADD SWAP1 POP SWAP2 SWAP1 POP JUMP JUMPDEST PUSH0 PUSH1 0x20 DUP3 ADD SWAP1 POP DUP2 DUP2 SUB PUSH0 DUP4 ADD MSTORE PUSH2 0x1DE6 DUP2 PUSH2 0x1DAD JUMP JUMPDEST SWAP1 POP SWAP2 SWAP1 POP JUMP JUMPDEST PUSH32 0x4E487B7100000000000000000000000000000000000000000000000000000000 PUSH0 MSTORE PUSH1 0x11 PUSH1 0x4 MSTORE PUSH1 0x24 PUSH0 REVERT JUMPDEST PUSH0 PUSH2 0x1E24 DUP3 PUSH2 0x1606 JUMP JUMPDEST SWAP2 POP PUSH32 0xFFFFFFFFFFFFFFFFFFFFFFFFFFFFFFFFFFFFFFFFFFFFFFFFFFFFFFFFFFFFFFFF DUP3 SUB PUSH2 0x1E56 JUMPI PUSH2 0x1E55 PUSH2 0x1DED JUMP JUMPDEST JUMPDEST PUSH1 0x1 DUP3 ADD SWAP1 POP SWAP2 SWAP1 POP JUMP JUMPDEST PUSH0 DUP2 SWAP1 POP DUP2 PUSH0 MSTORE PUSH1 0x20 PUSH0 KECCAK256 SWAP1 POP SWAP2 SWAP1 POP JUMP JUMPDEST PUSH0 PUSH1 0x20 PUSH1 0x1F DUP4 ADD DIV SWAP1 POP SWAP2 SWAP1 POP JUMP JUMPDEST PUSH0 DUP3 DUP3 SHL SWAP1 POP SWAP3 SWAP2 POP POP JUMP JUMPDEST PUSH0 PUSH1 0x8 DUP4 MUL PUSH2 0x1EBD PUSH32 0xFFFFFFFFFFFFFFFFFFFFFFFFFFFFFFFFFFFFFFFFFFFFFFFFFFFFFFFFFFFFFFFF DUP3 PUSH2 0x1E82 JUMP JUMPDEST PUSH2 0x1EC7 DUP7 DUP4 PUSH2 0x1E82 JUMP JUMPDEST SWAP6 POP DUP1 NOT DUP5 AND SWAP4 POP DUP1 DUP7 AND DUP5 OR SWAP3 POP POP POP SWAP4 SWAP3 POP POP POP JUMP JUMPDEST PUSH0 DUP2 SWAP1 POP SWAP2 SWAP1 POP JUMP JUMPDEST PUSH0 PUSH2 0x1F02 PUSH2 0x1EFD PUSH2 0x1EF8 DUP5 PUSH2 0x1606 JUMP JUMPDEST PUSH2 0x1EDF JUMP JUMPDEST PUSH2 0x1606 JUMP JUMPDEST SWAP1 POP SWAP2 SWAP1 POP JUMP JUMPDEST PUSH0 DUP2 SWAP1 POP SWAP2 SWAP1 POP JUMP JUMPDEST PUSH2 0x1F1B DUP4 PUSH2 0x1EE8 JUMP JUMPDEST PUSH2 0x1F2F PUSH2 0x1F27 DUP3 PUSH2 0x1F09 JUMP JUMPDEST DUP5 DUP5 SLOAD PUSH2 0x1E8E JUMP JUMPDEST DUP3 SSTORE POP POP POP POP JUMP JUMPDEST PUSH0 PUSH0 SWAP1 POP SWAP1 JUMP JUMPDEST PUSH2 0x1F46 PUSH2 0x1F37 JUMP JUMPDEST PUSH2 0x1F51 DUP2 DUP5 DUP5 PUSH2 0x1F12 JUMP JUMPDEST POP POP POP JUMP JUMPDEST JUMPDEST DUP2 DUP2 LT ISZERO PUSH2 0x1F74 JUMPI PUSH2 0x1F69 PUSH0 DUP3 PUSH2 0x1F3E JUMP JUMPDEST PUSH1 0x1 DUP2 ADD SWAP1 POP PUSH2 0x1F57 JUMP JUMPDEST POP POP JUMP JUMPDEST PUSH1 0x1F DUP3 GT ISZERO PUSH2 0x1FB9 JUMPI PUSH2 0x1F8A DUP2 PUSH2 0x1E61 JUMP JUMPDEST PUSH2 0x1F93 DUP5 PUSH2 0x1E73 JUMP JUMPDEST DUP2 ADD PUSH1 0x20 DUP6 LT ISZERO PUSH2 0x1FA2 JUMPI DUP2 SWAP1 POP JUMPDEST PUSH2 0x1FB6 PUSH2 0x1FAE DUP6 PUSH2 0x1E73 JUMP JUMPDEST DUP4 ADD DUP3 PUSH2 0x1F56 JUMP JUMPDEST POP POP JUMPDEST POP POP POP JUMP JUMPDEST PUSH0 DUP3 DUP3 SHR SWAP1 POP SWAP3 SWAP2 POP POP JUMP JUMPDEST PUSH0 PUSH2 0x1FD9 PUSH0 NOT DUP5 PUSH1 0x8 MUL PUSH2 0x1FBE JUMP JUMPDEST NOT DUP1 DUP4 AND SWAP2 POP POP SWAP3 SWAP2 POP POP JUMP JUMPDEST PUSH0 PUSH2 0x1FF1 DUP4 DUP4 PUSH2 0x1FCA JUMP JUMPDEST SWAP2 POP DUP3 PUSH1 0x2 MUL DUP3 OR SWAP1 POP SWAP3 SWAP2 POP POP JUMP JUMPDEST PUSH2 0x200A DUP3 PUSH2 0x168D JUMP JUMPDEST PUSH8 0xFFFFFFFFFFFFFFFF DUP2 GT ISZERO PUSH2 0x2023 JUMPI PUSH2 0x2022 PUSH2 0x17B7 JUMP JUMPDEST JUMPDEST PUSH2 0x202D DUP3 SLOAD PUSH2 0x1CC7 JUMP JUMPDEST PUSH2 0x2038 DUP3 DUP3 DUP6 PUSH2 0x1F78 JUMP JUMPDEST PUSH0 PUSH1 0x20 SWAP1 POP PUSH1 0x1F DUP4 GT PUSH1 0x1 DUP2 EQ PUSH2 0x2069 JUMPI PUSH0 DUP5 ISZERO PUSH2 0x2057 JUMPI DUP3 DUP8 ADD MLOAD SWAP1 POP JUMPDEST PUSH2 0x2061 DUP6 DUP3 PUSH2 0x1FE6 JUMP JUMPDEST DUP7 SSTORE POP PUSH2 0x20C8 JUMP JUMPDEST PUSH1 0x1F NOT DUP5 AND PUSH2 0x2077 DUP7 PUSH2 0x1E61 JUMP JUMPDEST PUSH0 JUMPDEST DUP3 DUP2 LT ISZERO PUSH2 0x209E JUMPI DUP5 DUP10 ADD MLOAD DUP3 SSTORE PUSH1 0x1 DUP3 ADD SWAP2 POP PUSH1 0x20 DUP6 ADD SWAP5 POP PUSH1 0x20 DUP2 ADD SWAP1 POP PUSH2 0x2079 JUMP JUMPDEST DUP7 DUP4 LT ISZERO PUSH2 0x20BB JUMPI DUP5 DUP10 ADD MLOAD PUSH2 0x20B7 PUSH1 0x1F DUP10 AND DUP3 PUSH2 0x1FCA JUMP JUMPDEST DUP4 SSTORE POP JUMPDEST PUSH1 0x1 PUSH1 0x2 DUP9 MUL ADD DUP9 SSTORE POP POP POP JUMPDEST POP POP POP POP POP POP JUMP JUMPDEST PUSH0 DUP2 SWAP1 POP SWAP3 SWAP2 POP POP JUMP JUMPDEST PUSH32 0x50726F647563746F207075626C696361646F20706F72206167726963756C746F PUSH0 DUP3 ADD MSTORE PUSH32 0x7220000000000000000000000000000000000000000000000000000000000000 PUSH1 0x20 DUP3 ADD MSTORE POP JUMP JUMPDEST PUSH0 PUSH2 0x2134 PUSH1 0x22 DUP4 PUSH2 0x20D0 JUMP JUMPDEST SWAP2 POP PUSH2 0x213F DUP3 PUSH2 0x20DA JUMP JUMPDEST PUSH1 0x22 DUP3 ADD SWAP1 POP SWAP2 SWAP1 POP JUMP JUMPDEST PUSH0 DUP2 SLOAD PUSH2 0x2156 DUP2 PUSH2 0x1CC7 JUMP JUMPDEST PUSH2 0x2160 DUP2 DUP7 PUSH2 0x20D0 JUMP JUMPDEST SWAP5 POP PUSH1 0x1 DUP3 AND PUSH0 DUP2 EQ PUSH2 0x217A JUMPI PUSH1 0x1 DUP2 EQ PUSH2 0x218F JUMPI PUSH2 0x21C1 JUMP JUMPDEST PUSH1 0xFF NOT DUP4 AND DUP7 MSTORE DUP2 ISZERO ISZERO DUP3 MUL DUP7 ADD SWAP4 POP PUSH2 0x21C1 JUMP JUMPDEST PUSH2 0x2198 DUP6 PUSH2 0x1E61 JUMP JUMPDEST PUSH0 JUMPDEST DUP4 DUP2 LT ISZERO PUSH2 0x21B9 JUMPI DUP2 SLOAD DUP2 DUP10 ADD MSTORE PUSH1 0x1 DUP3 ADD SWAP2 POP PUSH1 0x20 DUP2 ADD SWAP1 POP PUSH2 0x219A JUMP JUMPDEST DUP4 DUP9 ADD SWAP6 POP POP POP JUMPDEST POP POP POP SWAP3 SWAP2 POP POP JUMP JUMPDEST PUSH0 PUSH2 0x21D4 DUP3 PUSH2 0x2128 JUMP JUMPDEST SWAP2 POP PUSH2 0x21E0 DUP3 DUP5 PUSH2 0x214A JUMP JUMPDEST SWAP2 POP DUP2 SWAP1 POP SWAP3 SWAP2 POP POP JUMP JUMPDEST PUSH0 PUSH1 0x40 DUP3 ADD SWAP1 POP DUP2 DUP2 SUB PUSH0 DUP4 ADD MSTORE PUSH2 0x2203 DUP2 DUP6 PUSH2 0x1A61 JUMP JUMPDEST SWAP1 POP PUSH2 0x2212 PUSH1 0x20 DUP4 ADD DUP5 PUSH2 0x1A29 JUMP JUMPDEST SWAP4 SWAP3 POP POP POP JUMP JUMPDEST PUSH32 0x4E6F206175746F72697A61646F2070617261207472616E736665726972000000 PUSH0 DUP3 ADD MSTORE POP JUMP JUMPDEST PUSH0 PUSH2 0x224D PUSH1 0x1D DUP4 PUSH2 0x1A51 JUMP JUMPDEST SWAP2 POP PUSH2 0x2258 DUP3 PUSH2 0x2219 JUMP JUMPDEST PUSH1 0x20 DUP3 ADD SWAP1 POP SWAP2 SWAP1 POP JUMP JUMPDEST PUSH0 PUSH1 0x20 DUP3 ADD SWAP1 POP DUP2 DUP2 SUB PUSH0 DUP4 ADD MSTORE PUSH2 0x227A DUP2 PUSH2 0x2241 JUMP JUMPDEST SWAP1 POP SWAP2 SWAP1 POP JUMP JUMPDEST PUSH32 0x446972656363696F6E20696E76616C6964610000000000000000000000000000 PUSH0 DUP3 ADD MSTORE POP JUMP JUMPDEST PUSH0 PUSH2 0x22B5 PUSH1 0x12 DUP4 PUSH2 0x1A51 JUMP JUMPDEST SWAP2 POP PUSH2 0x22C0 DUP3 PUSH2 0x2281 JUMP JUMPDEST PUSH1 0x20 DUP3 ADD SWAP1 POP SWAP2 SWAP1 POP JUMP JUMPDEST PUSH0 PUSH1 0x20 DUP3 ADD SWAP1 POP DUP2 DUP2 SUB PUSH0 DUP4 ADD MSTORE PUSH2 0x22E2 DUP2 PUSH2 0x22A9 JUMP JUMPDEST SWAP1 POP SWAP2 SWAP1 POP JUMP JUMPDEST PUSH0 PUSH1 0x20 DUP3 ADD SWAP1 POP DUP2 DUP2 SUB PUSH0 DUP4 ADD MSTORE PUSH2 0x2301 DUP2 DUP5 PUSH2 0x1A61 JUMP JUMPDEST SWAP1 POP SWAP3 SWAP2 POP POP JUMP JUMPDEST PUSH32 0x4167726963756C746F72207961207265676973747261646F0000000000000000 PUSH0 DUP3 ADD MSTORE POP JUMP JUMPDEST PUSH0 PUSH2 0x233D PUSH1 0x18 DUP4 PUSH2 0x1A51 JUMP JUMPDEST SWAP2 POP PUSH2 0x2348 DUP3 PUSH2 0x2309 JUMP JUMPDEST PUSH1 0x20 DUP3 ADD SWAP1 POP SWAP2 SWAP1 POP JUMP JUMPDEST PUSH0 PUSH1 0x20 DUP3 ADD SWAP1 POP DUP2 DUP2 SUB PUSH0 DUP4 ADD MSTORE PUSH2 0x236A DUP2 PUSH2 0x2331 JUMP JUMPDEST SWAP1 POP SWAP2 SWAP1 POP JUMP JUMPDEST PUSH0 PUSH1 0x40 DUP3 ADD SWAP1 POP DUP2 DUP2 SUB PUSH0 DUP4 ADD MSTORE PUSH2 0x2389 DUP2 DUP6 PUSH2 0x1A61 JUMP JUMPDEST SWAP1 POP DUP2 DUP2 SUB PUSH1 0x20 DUP4 ADD MSTORE PUSH2 0x239D DUP2 DUP5 PUSH2 0x1A61 JUMP JUMPDEST SWAP1 POP SWAP4 SWAP3 POP POP POP JUMP JUMPDEST PUSH32 0x536F6C6F20656C206167726963756C746F72207075656465206D617263617220 PUSH0 DUP3 ADD MSTORE PUSH32 0x636F6D6F20656E766961646F0000000000000000000000000000000000000000 PUSH1 0x20 DUP3 ADD MSTORE POP JUMP JUMPDEST PUSH0 PUSH2 0x2400 PUSH1 0x2C DUP4 PUSH2 0x1A51 JUMP JUMPDEST SWAP2 POP PUSH2 0x240B DUP3 PUSH2 0x23A6 JUMP JUMPDEST PUSH1 0x40 DUP3 ADD SWAP1 POP SWAP2 SWAP1 POP JUMP JUMPDEST PUSH0 PUSH1 0x20 DUP3 ADD SWAP1 POP DUP2 DUP2 SUB PUSH0 DUP4 ADD MSTORE PUSH2 0x242D DUP2 PUSH2 0x23F4 JUMP JUMPDEST SWAP1 POP SWAP2 SWAP1 POP JUMP JUMPDEST PUSH32 0x456C2070726F647563746F20646562652065737461722066696E616E63696164 PUSH0 DUP3 ADD MSTORE PUSH32 0x6F00000000000000000000000000000000000000000000000000000000000000 PUSH1 0x20 DUP3 ADD MSTORE POP JUMP JUMPDEST PUSH0 PUSH2 0x248E PUSH1 0x21 DUP4 PUSH2 0x1A51 JUMP JUMPDEST SWAP2 POP PUSH2 0x2499 DUP3 PUSH2 0x2434 JUMP JUMPDEST PUSH1 0x40 DUP3 ADD SWAP1 POP SWAP2 SWAP1 POP JUMP JUMPDEST PUSH0 PUSH1 0x20 DUP3 ADD SWAP1 POP DUP2 DUP2 SUB PUSH0 DUP4 ADD MSTORE PUSH2 0x24BB DUP2 PUSH2 0x2482 JUMP JUMPDEST SWAP1 POP SWAP2 SWAP1 POP JUMP JUMPDEST PUSH32 0x536F6C6F20656C20636F6D707261646F7220707565646520636F6E6669726D61 PUSH0 DUP3 ADD MSTORE PUSH32 0x72206C6120656E74726567610000000000000000000000000000000000000000 PUSH1 0x20 DUP3 ADD MSTORE POP JUMP JUMPDEST PUSH0 PUSH2 0x251C PUSH1 0x2C DUP4 PUSH2 0x1A51 JUMP JUMPDEST SWAP2 POP PUSH2 0x2527 DUP3 PUSH2 0x24C2 JUMP JUMPDEST PUSH1 0x40 DUP3 ADD SWAP1 POP SWAP2 SWAP1 POP JUMP JUMPDEST PUSH0 PUSH1 0x20 DUP3 ADD SWAP1 POP DUP2 DUP2 SUB PUSH0 DUP4 ADD MSTORE PUSH2 0x2549 DUP2 PUSH2 0x2510 JUMP JUMPDEST SWAP1 POP SWAP2 SWAP1 POP JUMP JUMPDEST PUSH32 0x45737461646F20696E76616C69646F0000000000000000000000000000000000 PUSH0 DUP3 ADD MSTORE POP JUMP JUMPDEST PUSH0 PUSH2 0x2584 PUSH1 0xF DUP4 PUSH2 0x1A51 JUMP JUMPDEST SWAP2 POP PUSH2 0x258F DUP3 PUSH2 0x2550 JUMP JUMPDEST PUSH1 0x20 DUP3 ADD SWAP1 POP SWAP2 SWAP1 POP JUMP JUMPDEST PUSH0 PUSH1 0x20 DUP3 ADD SWAP1 POP DUP2 DUP2 SUB PUSH0 DUP4 ADD MSTORE PUSH2 0x25B1 DUP2 PUSH2 0x2578 JUMP JUMPDEST SWAP1 POP SWAP2 SWAP1 POP JUMP JUMPDEST PUSH32 0x456C2070726F647563746F206E6F206573746120646973706F6E69626C652070 PUSH0 DUP3 ADD MSTORE PUSH32 0x6172612066696E616E6369616D69656E746F0000000000000000000000000000 PUSH1 0x20 DUP3 ADD MSTORE POP JUMP JUMPDEST PUSH0 PUSH2 0x2612 PUSH1 0x32 DUP4 PUSH2 0x1A51 JUMP JUMPDEST SWAP2 POP PUSH2 0x261D DUP3 PUSH2 0x25B8 JUMP JUMPDEST PUSH1 0x40 DUP3 ADD SWAP1 POP SWAP2 SWAP1 POP JUMP JUMPDEST PUSH0 PUSH1 0x20 DUP3 ADD SWAP1 POP DUP2 DUP2 SUB PUSH0 DUP4 ADD MSTORE PUSH2 0x263F DUP2 PUSH2 0x2606 JUMP JUMPDEST SWAP1 POP SWAP2 SWAP1 POP JUMP JUMPDEST PUSH32 0x456C2076616C6F7220656E766961646F206E6F20636F696E6369646520636F6E PUSH0 DUP3 ADD MSTORE PUSH32 0x20656C2070726563696F00000000000000000000000000000000000000000000 PUSH1 0x20 DUP3 ADD MSTORE POP JUMP JUMPDEST PUSH0 PUSH2 0x26A0 PUSH1 0x2A DUP4 PUSH2 0x1A51 JUMP JUMPDEST SWAP2 POP PUSH2 0x26AB DUP3 PUSH2 0x2646 JUMP JUMPDEST PUSH1 0x40 DUP3 ADD SWAP1 POP SWAP2 SWAP1 POP JUMP JUMPDEST PUSH0 PUSH1 0x20 DUP3 ADD SWAP1 POP DUP2 DUP2 SUB PUSH0 DUP4 ADD MSTORE PUSH2 0x26CD DUP2 PUSH2 0x2694 JUMP JUMPDEST SWAP1 POP SWAP2 SWAP1 POP JUMP JUMPDEST PUSH32 0x50726F647563746F2066696E616E636961646F20706F7220636F6D707261646F PUSH0 DUP3 ADD MSTORE PUSH32 0x7220000000000000000000000000000000000000000000000000000000000000 PUSH1 0x20 DUP3 ADD MSTORE POP JUMP JUMPDEST PUSH0 PUSH2 0x272E PUSH1 0x22 DUP4 PUSH2 0x20D0 JUMP JUMPDEST SWAP2 POP PUSH2 0x2739 DUP3 PUSH2 0x26D4 JUMP JUMPDEST PUSH1 0x22 DUP3 ADD SWAP1 POP SWAP2 SWAP1 POP JUMP JUMPDEST PUSH0 PUSH2 0x274E DUP3 PUSH2 0x168D JUMP JUMPDEST PUSH2 0x2758 DUP2 DUP6 PUSH2 0x20D0 JUMP JUMPDEST SWAP4 POP PUSH2 0x2768 DUP2 DUP6 PUSH1 0x20 DUP7 ADD PUSH2 0x16A7 JUMP JUMPDEST DUP1 DUP5 ADD SWAP2 POP POP SWAP3 SWAP2 POP POP JUMP JUMPDEST PUSH0 PUSH2 0x277E DUP3 PUSH2 0x2722 JUMP JUMPDEST SWAP2 POP PUSH2 0x278A DUP3 DUP5 PUSH2 0x2744 JUMP JUMPDEST SWAP2 POP DUP2 SWAP1 POP SWAP3 SWAP2 POP POP JUMP JUMPDEST PUSH32 0x4E487B7100000000000000000000000000000000000000000000000000000000 PUSH0 MSTORE PUSH1 0x32 PUSH1 0x4 MSTORE PUSH1 0x24 PUSH0 REVERT JUMPDEST PUSH0 PUSH2 0x27CC DUP3 PUSH2 0x1606 JUMP JUMPDEST SWAP2 POP PUSH2 0x27D7 DUP4 PUSH2 0x1606 JUMP JUMPDEST SWAP3 POP DUP3 DUP3 SUB SWAP1 POP DUP2 DUP2 GT ISZERO PUSH2 0x27EF JUMPI PUSH2 0x27EE PUSH2 0x1DED JUMP JUMPDEST JUMPDEST SWAP3 SWAP2 POP POP JUMP JUMPDEST PUSH0 PUSH2 0x27FF DUP3 PUSH2 0x1606 JUMP JUMPDEST SWAP2 POP PUSH2 0x280A DUP4 PUSH2 0x1606 JUMP JUMPDEST SWAP3 POP DUP3 DUP3 MUL PUSH2 0x2818 DUP2 PUSH2 0x1606 JUMP JUMPDEST SWAP2 POP DUP3 DUP3 DIV DUP5 EQ DUP4 ISZERO OR PUSH2 0x282F JUMPI PUSH2 0x282E PUSH2 0x1DED JUMP JUMPDEST JUMPDEST POP SWAP3 SWAP2 POP POP JUMP JUMPDEST PUSH0 DUP2 PUSH1 0x1 SHR SWAP1 POP SWAP2 SWAP1 POP JUMP JUMPDEST PUSH0 PUSH0 DUP3 SWAP2 POP DUP4 SWAP1 POP JUMPDEST PUSH1 0x1 DUP6 GT ISZERO PUSH2 0x288B JUMPI DUP1 DUP7 DIV DUP2 GT ISZERO PUSH2 0x2867 JUMPI PUSH2 0x2866 PUSH2 0x1DED JUMP JUMPDEST JUMPDEST PUSH1 0x1 DUP6 AND ISZERO PUSH2 0x2876 JUMPI DUP1 DUP3 MUL SWAP2 POP JUMPDEST DUP1 DUP2 MUL SWAP1 POP PUSH2 0x2884 DUP6 PUSH2 0x2836 JUMP JUMPDEST SWAP5 POP PUSH2 0x284B JUMP JUMPDEST SWAP5 POP SWAP5 SWAP3 POP POP POP JUMP JUMPDEST PUSH0 DUP3 PUSH2 0x28A3 JUMPI PUSH1 0x1 SWAP1 POP PUSH2 0x295E JUMP JUMPDEST DUP2 PUSH2 0x28B0 JUMPI PUSH0 SWAP1 POP PUSH2 0x295E JUMP JUMPDEST DUP2 PUSH1 0x1 DUP2 EQ PUSH2 0x28C6 JUMPI PUSH1 0x2 DUP2 EQ PUSH2 0x28D0 JUMPI PUSH2 0x28FF JUMP JUMPDEST PUSH1 0x1 SWAP2 POP POP PUSH2 0x295E JUMP JUMPDEST PUSH1 0xFF DUP5 GT ISZERO PUSH2 0x28E2 JUMPI PUSH2 0x28E1 PUSH2 0x1DED JUMP JUMPDEST JUMPDEST DUP4 PUSH1 0x2 EXP SWAP2 POP DUP5 DUP3 GT ISZERO PUSH2 0x28F9 JUMPI PUSH2 0x28F8 PUSH2 0x1DED JUMP JUMPDEST JUMPDEST POP PUSH2 0x295E JUMP JUMPDEST POP PUSH1 0x20 DUP4 LT PUSH2 0x133 DUP4 LT AND PUSH1 0x4E DUP5 LT PUSH1 0xB DUP5 LT AND OR ISZERO PUSH2 0x2934 JUMPI DUP3 DUP3 EXP SWAP1 POP DUP4 DUP2 GT ISZERO PUSH2 0x292F JUMPI PUSH2 0x292E PUSH2 0x1DED JUMP JUMPDEST JUMPDEST PUSH2 0x295E JUMP JUMPDEST PUSH2 0x2941 DUP5 DUP5 DUP5 PUSH1 0x1 PUSH2 0x2842 JUMP JUMPDEST SWAP3 POP SWAP1 POP DUP2 DUP5 DIV DUP2 GT ISZERO PUSH2 0x2958 JUMPI PUSH2 0x2957 PUSH2 0x1DED JUMP JUMPDEST JUMPDEST DUP2 DUP2 MUL SWAP1 POP JUMPDEST SWAP4 SWAP3 POP POP POP JUMP JUMPDEST PUSH0 PUSH2 0x296F DUP3 PUSH2 0x1606 JUMP JUMPDEST SWAP2 POP PUSH2 0x297A DUP4 PUSH2 0x1606 JUMP JUMPDEST SWAP3 POP PUSH2 0x29A7 PUSH32 0xFFFFFFFFFFFFFFFFFFFFFFFFFFFFFFFFFFFFFFFFFFFFFFFFFFFFFFFFFFFFFFFF DUP5 DUP5 PUSH2 0x2894 JUMP JUMPDEST SWAP1 POP SWAP3 SWAP2 POP POP JUMP JUMPDEST PUSH32 0x4E487B7100000000000000000000000000000000000000000000000000000000 PUSH0 MSTORE PUSH1 0x12 PUSH1 0x4 MSTORE PUSH1 0x24 PUSH0 REVERT JUMPDEST PUSH0 PUSH2 0x29E6 DUP3 PUSH2 0x1606 JUMP JUMPDEST SWAP2 POP PUSH2 0x29F1 DUP4 PUSH2 0x1606 JUMP JUMPDEST SWAP3 POP DUP3 PUSH2 0x2A01 JUMPI PUSH2 0x2A00 PUSH2 0x29AF JUMP JUMPDEST JUMPDEST DUP3 DUP3 DIV SWAP1 POP SWAP3 SWAP2 POP POP JUMP JUMPDEST PUSH0 PUSH1 0xFF DUP3 AND SWAP1 POP SWAP2 SWAP1 POP JUMP JUMPDEST PUSH0 PUSH2 0x2A22 DUP3 PUSH2 0x2A0C JUMP JUMPDEST SWAP2 POP PUSH2 0x2A2D DUP4 PUSH2 0x2A0C JUMP JUMPDEST SWAP3 POP DUP3 PUSH2 0x2A3D JUMPI PUSH2 0x2A3C PUSH2 0x29AF JUMP JUMPDEST JUMPDEST DUP3 DUP3 DIV SWAP1 POP SWAP3 SWAP2 POP POP JUMP JUMPDEST PUSH0 PUSH2 0x2A52 DUP3 PUSH2 0x2A0C JUMP JUMPDEST SWAP2 POP PUSH2 0x2A5D DUP4 PUSH2 0x2A0C JUMP JUMPDEST SWAP3 POP DUP3 DUP3 MUL PUSH2 0x2A6B DUP2 PUSH2 0x2A0C JUMP JUMPDEST SWAP2 POP DUP1 DUP3 EQ PUSH2 0x2A7D JUMPI PUSH2 0x2A7C PUSH2 0x1DED JUMP JUMPDEST JUMPDEST POP SWAP3 SWAP2 POP POP JUMP JUMPDEST PUSH0 PUSH2 0x2A8E DUP3 PUSH2 0x2A0C JUMP JUMPDEST SWAP2 POP PUSH2 0x2A99 DUP4 PUSH2 0x2A0C JUMP JUMPDEST SWAP3 POP DUP3 DUP3 SUB SWAP1 POP PUSH1 0xFF DUP2 GT ISZERO PUSH2 0x2AB2 JUMPI PUSH2 0x2AB1 PUSH2 0x1DED JUMP JUMPDEST JUMPDEST SWAP3 SWAP2 POP POP JUMP JUMPDEST PUSH0 PUSH2 0x2AC2 DUP3 PUSH2 0x1606 JUMP JUMPDEST SWAP2 POP PUSH2 0x2ACD DUP4 PUSH2 0x1606 JUMP JUMPDEST SWAP3 POP DUP3 DUP3 ADD SWAP1 POP DUP1 DUP3 GT ISZERO PUSH2 0x2AE5 JUMPI PUSH2 0x2AE4 PUSH2 0x1DED JUMP JUMPDEST JUMPDEST SWAP3 SWAP2 POP POP JUMP JUMPDEST PUSH0 PUSH2 0x2AF5 DUP3 PUSH2 0x2A0C JUMP JUMPDEST SWAP2 POP PUSH2 0x2B00 DUP4 PUSH2 0x2A0C JUMP JUMPDEST SWAP3 POP DUP3 DUP3 ADD SWAP1 POP PUSH1 0xFF DUP2 GT ISZERO PUSH2 0x2B19 JUMPI PUSH2 0x2B18 PUSH2 0x1DED JUMP JUMPDEST JUMPDEST SWAP3 SWAP2 POP POP JUMP INVALID GASLIMIT PUSH15 0x747265676120636F6E6669726D6164 PUSH2 0x2C20 PUSH17 0x61676F206C6962657261646FA264697066 PUSH20 0x58221220A56EF40F210E6887F0ECF89B8C0C075F 0x2E GASPRICE TSTORE OR 0x26 RETURNCONTRACT 0x47 PUSH7 0x2AC3053349DDD9 0xD PUSH5 0x736F6C6343 STOP ADDMOD 0x1E STOP CALLER "
				},
				"gasEstimates": {
					"creation": {
						"codeDepositCost": "2225200",
						"executionCost": "2373",
						"totalCost": "2227573"
					},
					"external": {
						"agricultores(address)": "infinite",
						"confirmarEntrega(uint256)": "infinite",
						"contadorProductos()": "2492",
						"financiarCompra(uint256)": "infinite",
						"marcarEnviado(uint256)": "infinite",
						"obtenerHistorial(uint256)": "infinite",
						"productos(uint256)": "infinite",
						"publicarProducto(string,uint256,string)": "infinite",
						"registrarAgricultor(string,string)": "infinite",
						"transferirProducto(uint256,address,string)": "infinite"
					},
					"internal": {
						"char(bytes1)": "infinite",
						"toAsciiString(address)": "infinite"
					}
				},
				"methodIdentifiers": {
					"agricultores(address)": "a7d1cb55",
					"confirmarEntrega(uint256)": "eea7f824",
					"contadorProductos()": "97283acb",
					"financiarCompra(uint256)": "fecc7c93",
					"marcarEnviado(uint256)": "b820c38f",
					"obtenerHistorial(uint256)": "1a6cb1c8",
					"productos(uint256)": "99553636",
					"publicarProducto(string,uint256,string)": "24e63166",
					"registrarAgricultor(string,string)": "affe518a",
					"transferirProducto(uint256,address,string)": "583d9b98"
				}
			},
			"storageLayout": {
				"storage": [
					{
						"astId": 37,
						"contract": "contracts/agroCadenaArbit.sol:AgroChain",
						"label": "agricultores",
						"offset": 0,
						"slot": "0",
						"type": "t_mapping(t_address,t_struct(Agricultor)8_storage)"
					},
					{
						"astId": 42,
						"contract": "contracts/agroCadenaArbit.sol:AgroChain",
						"label": "productos",
						"offset": 0,
						"slot": "1",
						"type": "t_mapping(t_uint256,t_struct(Producto)32_storage)"
					},
					{
						"astId": 44,
						"contract": "contracts/agroCadenaArbit.sol:AgroChain",
						"label": "contadorProductos",
						"offset": 0,
						"slot": "2",
						"type": "t_uint256"
					}
				],
				"types": {
					"t_address": {
						"encoding": "inplace",
						"label": "address",
						"numberOfBytes": "20"
					},
					"t_address_payable": {
						"encoding": "inplace",
						"label": "address payable",
						"numberOfBytes": "20"
					},
					"t_array(t_string_storage)dyn_storage": {
						"base": "t_string_storage",
						"encoding": "dynamic_array",
						"label": "string[]",
						"numberOfBytes": "32"
					},
					"t_enum(Estado)13": {
						"encoding": "inplace",
						"label": "enum AgroChain.Estado",
						"numberOfBytes": "1"
					},
					"t_mapping(t_address,t_struct(Agricultor)8_storage)": {
						"encoding": "mapping",
						"key": "t_address",
						"label": "mapping(address => struct AgroChain.Agricultor)",
						"numberOfBytes": "32",
						"value": "t_struct(Agricultor)8_storage"
					},
					"t_mapping(t_uint256,t_struct(Producto)32_storage)": {
						"encoding": "mapping",
						"key": "t_uint256",
						"label": "mapping(uint256 => struct AgroChain.Producto)",
						"numberOfBytes": "32",
						"value": "t_struct(Producto)32_storage"
					},
					"t_string_storage": {
						"encoding": "bytes",
						"label": "string",
						"numberOfBytes": "32"
					},
					"t_struct(Agricultor)8_storage": {
						"encoding": "inplace",
						"label": "struct AgroChain.Agricultor",
						"members": [
							{
								"astId": 3,
								"contract": "contracts/agroCadenaArbit.sol:AgroChain",
								"label": "id",
								"offset": 0,
								"slot": "0",
								"type": "t_address"
							},
							{
								"astId": 5,
								"contract": "contracts/agroCadenaArbit.sol:AgroChain",
								"label": "nombre",
								"offset": 0,
								"slot": "1",
								"type": "t_string_storage"
							},
							{
								"astId": 7,
								"contract": "contracts/agroCadenaArbit.sol:AgroChain",
								"label": "ubicacion",
								"offset": 0,
								"slot": "2",
								"type": "t_string_storage"
							}
						],
						"numberOfBytes": "96"
					},
					"t_struct(Producto)32_storage": {
						"encoding": "inplace",
						"label": "struct AgroChain.Producto",
						"members": [
							{
								"astId": 15,
								"contract": "contracts/agroCadenaArbit.sol:AgroChain",
								"label": "id",
								"offset": 0,
								"slot": "0",
								"type": "t_uint256"
							},
							{
								"astId": 17,
								"contract": "contracts/agroCadenaArbit.sol:AgroChain",
								"label": "nombreProducto",
								"offset": 0,
								"slot": "1",
								"type": "t_string_storage"
							},
							{
								"astId": 19,
								"contract": "contracts/agroCadenaArbit.sol:AgroChain",
								"label": "precio",
								"offset": 0,
								"slot": "2",
								"type": "t_uint256"
							},
							{
								"astId": 21,
								"contract": "contracts/agroCadenaArbit.sol:AgroChain",
								"label": "agricultor",
								"offset": 0,
								"slot": "3",
								"type": "t_address_payable"
							},
							{
								"astId": 23,
								"contract": "contracts/agroCadenaArbit.sol:AgroChain",
								"label": "comprador",
								"offset": 0,
								"slot": "4",
								"type": "t_address"
							},
							{
								"astId": 26,
								"contract": "contracts/agroCadenaArbit.sol:AgroChain",
								"label": "estado",
								"offset": 20,
								"slot": "4",
								"type": "t_enum(Estado)13"
							},
							{
								"astId": 28,
								"contract": "contracts/agroCadenaArbit.sol:AgroChain",
								"label": "urlImagen",
								"offset": 0,
								"slot": "5",
								"type": "t_string_storage"
							},
							{
								"astId": 31,
								"contract": "contracts/agroCadenaArbit.sol:AgroChain",
								"label": "historialTransacciones",
								"offset": 0,
								"slot": "6",
								"type": "t_array(t_string_storage)dyn_storage"
							}
						],
						"numberOfBytes": "224"
					},
					"t_uint256": {
						"encoding": "inplace",
						"label": "uint256",
						"numberOfBytes": "32"
					}
				}
			},
			"userdoc": {
				"kind": "user",
				"methods": {},
				"version": 1
			}
		}
	}
}