{
	"data": {
		"bytecode": {
			"linkReferences": {},
			"object": "6080604052348015600e575f5ffd5b506119998061001c5f395ff3fe608060405234801561000f575f5ffd5b506004361061007b575f3560e01c8063995536361161005957806399553636146100d5578063a7d1cb5514610109578063affe518a1461013b578063e132a076146101575761007b565b8063583d9b981461007f57806391810ae01461009b57806397283acb146100b7575b5f5ffd5b61009960048036038101906100949190610f05565b61018c565b005b6100b560048036038101906100b09190610f71565b6103d4565b005b6100bf61062c565b6040516100cc9190610ff6565b60405180910390f35b6100ef60048036038101906100ea919061100f565b610632565b6040516101009594939291906110a9565b60405180910390f35b610123600480360381019061011e9190611108565b6107ae565b60405161013293929190611133565b60405180910390f35b61015560048036038101906101509190610f71565b6108fe565b005b610171600480360381019061016c919061100f565b610abf565b60405161018396959493929190611279565b60405180910390f35b3373ffffffffffffffffffffffffffffffffffffffff1660015f8581526020019081526020015f206001015f9054906101000a900473ffffffffffffffffffffffffffffffffffffffff1673ffffffffffffffffffffffffffffffffffffffff161461022d576040517f08c379a00000000000000000000000000000000000000000000000000000000081526004016102249061135d565b60405180910390fd5b5f73ffffffffffffffffffffffffffffffffffffffff168273ffffffffffffffffffffffffffffffffffffffff160361029b576040517f08c379a0000000000000000000000000000000000000000000000000000000008152600401610292906113c5565b60405180910390fd5b5f60015f8581526020019081526020015f206001015f9054906101000a900473ffffffffffffffffffffffffffffffffffffffff1690508260015f8681526020019081526020015f206001015f6101000a81548173ffffffffffffffffffffffffffffffffffffffff021916908373ffffffffffffffffffffffffffffffffffffffff16021790555060015f8581526020019081526020015f2060050182908060018154018082558091505060019003905f5260205f20015f90919091909150908161036791906115e0565b508273ffffffffffffffffffffffffffffffffffffffff168173ffffffffffffffffffffffffffffffffffffffff16857f0e205f902379306c28bbc2e72f85c82c168e8c19942e10b7fa2500e2e6b3865d856040516103c691906116af565b60405180910390a450505050565b5f5f5f3373ffffffffffffffffffffffffffffffffffffffff1673ffffffffffffffffffffffffffffffffffffffff1681526020019081526020015f20600101805461041f90611410565b905011610461576040517f08c379a00000000000000000000000000000000000000000000000000000000081526004016104589061173f565b60405180910390fd5b60025f8154809291906104739061178a565b91905055505f60015f60025481526020019081526020015f209050600254815f018190555033816001015f6101000a81548173ffffffffffffffffffffffffffffffffffffffff021916908373ffffffffffffffffffffffffffffffffffffffff16021790555033816002015f6101000a81548173ffffffffffffffffffffffffffffffffffffffff021916908373ffffffffffffffffffffffffffffffffffffffff1602179055508281600301908161052d91906115e0565b508181600401908161053f91906115e0565b505f5f5f3373ffffffffffffffffffffffffffffffffffffffff1673ffffffffffffffffffffffffffffffffffffffff1681526020019081526020015f2060010160405160200161059091906118a5565b60405160208183030381529060405290508160050181908060018154018082558091505060019003905f5260205f20015f9091909190915090816105d491906115e0565b503373ffffffffffffffffffffffffffffffffffffffff166002547f29d885879bf852c519fb620e5fbe8a3a9c821cc612a8b4ac6e55d821ac20f7ad8660405161061e91906116af565b60405180910390a350505050565b60025481565b6001602052805f5260405f205f91509050805f015490806001015f9054906101000a900473ffffffffffffffffffffffffffffffffffffffff1690806002015f9054906101000a900473ffffffffffffffffffffffffffffffffffffffff16908060030180546106a190611410565b80601f01602080910402602001604051908101604052809291908181526020018280546106cd90611410565b80156107185780601f106106ef57610100808354040283529160200191610718565b820191905f5260205f20905b8154815290600101906020018083116106fb57829003601f168201915b50505050509080600401805461072d90611410565b80601f016020809104026020016040519081016040528092919081815260200182805461075990611410565b80156107a45780601f1061077b576101008083540402835291602001916107a4565b820191905f5260205f20905b81548152906001019060200180831161078757829003601f168201915b5050505050905085565b5f602052805f5260405f205f91509050805f015f9054906101000a900473ffffffffffffffffffffffffffffffffffffffff16908060010180546107f190611410565b80601f016020809104026020016040519081016040528092919081815260200182805461081d90611410565b80156108685780601f1061083f57610100808354040283529160200191610868565b820191905f5260205f20905b81548152906001019060200180831161084b57829003601f168201915b50505050509080600201805461087d90611410565b80601f01602080910402602001604051908101604052809291908181526020018280546108a990611410565b80156108f45780601f106108cb576101008083540402835291602001916108f4565b820191905f5260205f20905b8154815290600101906020018083116108d757829003601f168201915b5050505050905083565b5f5f5f3373ffffffffffffffffffffffffffffffffffffffff1673ffffffffffffffffffffffffffffffffffffffff1681526020019081526020015f20600101805461094990611410565b90501461098b576040517f08c379a000000000000000000000000000000000000000000000000000000000815260040161098290611910565b60405180910390fd5b60405180606001604052803373ffffffffffffffffffffffffffffffffffffffff168152602001838152602001828152505f5f3373ffffffffffffffffffffffffffffffffffffffff1673ffffffffffffffffffffffffffffffffffffffff1681526020019081526020015f205f820151815f015f6101000a81548173ffffffffffffffffffffffffffffffffffffffff021916908373ffffffffffffffffffffffffffffffffffffffff1602179055506020820151816001019081610a5191906115e0565b506040820151816002019081610a6791906115e0565b509050503373ffffffffffffffffffffffffffffffffffffffff167fe81c369424fcae53aa0a7106fc3807a6619a60c791a5de3c76c3268b68b7176d8383604051610ab392919061192e565b60405180910390a25050565b5f5f5f60608060605f60015f8981526020019081526020015f209050805f0154816001015f9054906101000a900473ffffffffffffffffffffffffffffffffffffffff16826002015f9054906101000a900473ffffffffffffffffffffffffffffffffffffffff16836003018460040185600501828054610b3f90611410565b80601f0160208091040260200160405190810160405280929190818152602001828054610b6b90611410565b8015610bb65780601f10610b8d57610100808354040283529160200191610bb6565b820191905f5260205f20905b815481529060010190602001808311610b9957829003601f168201915b50505050509250818054610bc990611410565b80601f0160208091040260200160405190810160405280929190818152602001828054610bf590611410565b8015610c405780601f10610c1757610100808354040283529160200191610c40565b820191905f5260205f20905b815481529060010190602001808311610c2357829003601f168201915b5050505050915080805480602002602001604051908101604052809291908181526020015f905b82821015610d0f578382905f5260205f20018054610c8490611410565b80601f0160208091040260200160405190810160405280929190818152602001828054610cb090611410565b8015610cfb5780601f10610cd257610100808354040283529160200191610cfb565b820191905f5260205f20905b815481529060010190602001808311610cde57829003601f168201915b505050505081526020019060010190610c67565b5050505090509650965096509650965096505091939550919395565b5f604051905090565b5f5ffd5b5f5ffd5b5f819050919050565b610d4e81610d3c565b8114610d58575f5ffd5b50565b5f81359050610d6981610d45565b92915050565b5f73ffffffffffffffffffffffffffffffffffffffff82169050919050565b5f610d9882610d6f565b9050919050565b610da881610d8e565b8114610db2575f5ffd5b50565b5f81359050610dc381610d9f565b92915050565b5f5ffd5b5f5ffd5b5f601f19601f8301169050919050565b7f4e487b71000000000000000000000000000000000000000000000000000000005f52604160045260245ffd5b610e1782610dd1565b810181811067ffffffffffffffff82111715610e3657610e35610de1565b5b80604052505050565b5f610e48610d2b565b9050610e548282610e0e565b919050565b5f67ffffffffffffffff821115610e7357610e72610de1565b5b610e7c82610dd1565b9050602081019050919050565b828183375f83830152505050565b5f610ea9610ea484610e59565b610e3f565b905082815260208101848484011115610ec557610ec4610dcd565b5b610ed0848285610e89565b509392505050565b5f82601f830112610eec57610eeb610dc9565b5b8135610efc848260208601610e97565b91505092915050565b5f5f5f60608486031215610f1c57610f1b610d34565b5b5f610f2986828701610d5b565b9350506020610f3a86828701610db5565b925050604084013567ffffffffffffffff811115610f5b57610f5a610d38565b5b610f6786828701610ed8565b9150509250925092565b5f5f60408385031215610f8757610f86610d34565b5b5f83013567ffffffffffffffff811115610fa457610fa3610d38565b5b610fb085828601610ed8565b925050602083013567ffffffffffffffff811115610fd157610fd0610d38565b5b610fdd85828601610ed8565b9150509250929050565b610ff081610d3c565b82525050565b5f6020820190506110095f830184610fe7565b92915050565b5f6020828403121561102457611023610d34565b5b5f61103184828501610d5b565b91505092915050565b61104381610d8e565b82525050565b5f81519050919050565b5f82825260208201905092915050565b8281835e5f83830152505050565b5f61107b82611049565b6110858185611053565b9350611095818560208601611063565b61109e81610dd1565b840191505092915050565b5f60a0820190506110bc5f830188610fe7565b6110c9602083018761103a565b6110d6604083018661103a565b81810360608301526110e88185611071565b905081810360808301526110fc8184611071565b90509695505050505050565b5f6020828403121561111d5761111c610d34565b5b5f61112a84828501610db5565b91505092915050565b5f6060820190506111465f83018661103a565b81810360208301526111588185611071565b9050818103604083015261116c8184611071565b9050949350505050565b5f81519050919050565b5f82825260208201905092915050565b5f819050602082019050919050565b5f82825260208201905092915050565b5f6111b982611049565b6111c3818561119f565b93506111d3818560208601611063565b6111dc81610dd1565b840191505092915050565b5f6111f283836111af565b905092915050565b5f602082019050919050565b5f61121082611176565b61121a8185611180565b93508360208202850161122c85611190565b805f5b85811015611267578484038952815161124885826111e7565b9450611253836111fa565b925060208a0199505060018101905061122f565b50829750879550505050505092915050565b5f60c08201905061128c5f830189610fe7565b611299602083018861103a565b6112a6604083018761103a565b81810360608301526112b88186611071565b905081810360808301526112cc8185611071565b905081810360a08301526112e08184611206565b9050979650505050505050565b7f4e6f206572657320656c2070726f706965746172696f2061637475616c2064655f8201527f6c2070726f647563746f2e000000000000000000000000000000000000000000602082015250565b5f611347602b83611053565b9150611352826112ed565b604082019050919050565b5f6020820190508181035f8301526113748161133b565b9050919050565b7f446972656363696f6e20696e76616c6964612e000000000000000000000000005f82015250565b5f6113af601383611053565b91506113ba8261137b565b602082019050919050565b5f6020820190508181035f8301526113dc816113a3565b9050919050565b7f4e487b71000000000000000000000000000000000000000000000000000000005f52602260045260245ffd5b5f600282049050600182168061142757607f821691505b60208210810361143a576114396113e3565b5b50919050565b5f819050815f5260205f209050919050565b5f6020601f8301049050919050565b5f82821b905092915050565b5f6008830261149c7fffffffffffffffffffffffffffffffffffffffffffffffffffffffffffffffff82611461565b6114a68683611461565b95508019841693508086168417925050509392505050565b5f819050919050565b5f6114e16114dc6114d784610d3c565b6114be565b610d3c565b9050919050565b5f819050919050565b6114fa836114c7565b61150e611506826114e8565b84845461146d565b825550505050565b5f5f905090565b611525611516565b6115308184846114f1565b505050565b5b81811015611553576115485f8261151d565b600181019050611536565b5050565b601f8211156115985761156981611440565b61157284611452565b81016020851015611581578190505b61159561158d85611452565b830182611535565b50505b505050565b5f82821c905092915050565b5f6115b85f198460080261159d565b1980831691505092915050565b5f6115d083836115a9565b9150826002028217905092915050565b6115e982611049565b67ffffffffffffffff81111561160257611601610de1565b5b61160c8254611410565b611617828285611557565b5f60209050601f831160018114611648575f8415611636578287015190505b61164085826115c5565b8655506116a7565b601f19841661165686611440565b5f5b8281101561167d57848901518255600182019150602085019450602081019050611658565b8683101561169a5784890151611696601f8916826115a9565b8355505b6001600288020188555050505b505050505050565b5f6020820190508181035f8301526116c78184611071565b905092915050565b7f536f6c6f206167726963756c746f726573207265676973747261646f732070755f8201527f6564656e207265676973747261722070726f647563746f732e00000000000000602082015250565b5f611729603983611053565b9150611734826116cf565b604082019050919050565b5f6020820190508181035f8301526117568161171d565b9050919050565b7f4e487b71000000000000000000000000000000000000000000000000000000005f52601160045260245ffd5b5f61179482610d3c565b91507fffffffffffffffffffffffffffffffffffffffffffffffffffffffffffffffff82036117c6576117c561175d565b5b600182019050919050565b5f81905092915050565b7f436f7365636861646f20706f72200000000000000000000000000000000000005f82015250565b5f61180f600e836117d1565b915061181a826117db565b600e82019050919050565b5f815461183181611410565b61183b81866117d1565b9450600182165f8114611855576001811461186a5761189c565b60ff198316865281151582028601935061189c565b61187385611440565b5f5b8381101561189457815481890152600182019150602081019050611875565b838801955050505b50505092915050565b5f6118af82611803565b91506118bb8284611825565b915081905092915050565b7f4167726963756c746f72207961207265676973747261646f2e000000000000005f82015250565b5f6118fa601983611053565b9150611905826118c6565b602082019050919050565b5f6020820190508181035f830152611927816118ee565b9050919050565b5f6040820190508181035f8301526119468185611071565b9050818103602083015261195a8184611071565b9050939250505056fea26469706673582212203d91da95a709748f3f30d954f49ec95ec43566f028d52b57d07a26771a388f6064736f6c634300081e0033",
			"opcodes": "PUSH1 0x80 PUSH1 0x40 MSTORE CALLVALUE DUP1 ISZERO PUSH1 0xE JUMPI PUSH0 PUSH0 REVERT JUMPDEST POP PUSH2 0x1999 DUP1 PUSH2 0x1C PUSH0 CODECOPY PUSH0 RETURN INVALID PUSH1 0x80 PUSH1 0x40 MSTORE CALLVALUE DUP1 ISZERO PUSH2 0xF JUMPI PUSH0 PUSH0 REVERT JUMPDEST POP PUSH1 0x4 CALLDATASIZE LT PUSH2 0x7B JUMPI PUSH0 CALLDATALOAD PUSH1 0xE0 SHR DUP1 PUSH4 0x99553636 GT PUSH2 0x59 JUMPI DUP1 PUSH4 0x99553636 EQ PUSH2 0xD5 JUMPI DUP1 PUSH4 0xA7D1CB55 EQ PUSH2 0x109 JUMPI DUP1 PUSH4 0xAFFE518A EQ PUSH2 0x13B JUMPI DUP1 PUSH4 0xE132A076 EQ PUSH2 0x157 JUMPI PUSH2 0x7B JUMP JUMPDEST DUP1 PUSH4 0x583D9B98 EQ PUSH2 0x7F JUMPI DUP1 PUSH4 0x91810AE0 EQ PUSH2 0x9B JUMPI DUP1 PUSH4 0x97283ACB EQ PUSH2 0xB7 JUMPI JUMPDEST PUSH0 PUSH0 REVERT JUMPDEST PUSH2 0x99 PUSH1 0x4 DUP1 CALLDATASIZE SUB DUP2 ADD SWAP1 PUSH2 0x94 SWAP2 SWAP1 PUSH2 0xF05 JUMP JUMPDEST PUSH2 0x18C JUMP JUMPDEST STOP JUMPDEST PUSH2 0xB5 PUSH1 0x4 DUP1 CALLDATASIZE SUB DUP2 ADD SWAP1 PUSH2 0xB0 SWAP2 SWAP1 PUSH2 0xF71 JUMP JUMPDEST PUSH2 0x3D4 JUMP JUMPDEST STOP JUMPDEST PUSH2 0xBF PUSH2 0x62C JUMP JUMPDEST PUSH1 0x40 MLOAD PUSH2 0xCC SWAP2 SWAP1 PUSH2 0xFF6 JUMP JUMPDEST PUSH1 0x40 MLOAD DUP1 SWAP2 SUB SWAP1 RETURN JUMPDEST PUSH2 0xEF PUSH1 0x4 DUP1 CALLDATASIZE SUB DUP2 ADD SWAP1 PUSH2 0xEA SWAP2 SWAP1 PUSH2 0x100F JUMP JUMPDEST PUSH2 0x632 JUMP JUMPDEST PUSH1 0x40 MLOAD PUSH2 0x100 SWAP6 SWAP5 SWAP4 SWAP3 SWAP2 SWAP1 PUSH2 0x10A9 JUMP JUMPDEST PUSH1 0x40 MLOAD DUP1 SWAP2 SUB SWAP1 RETURN JUMPDEST PUSH2 0x123 PUSH1 0x4 DUP1 CALLDATASIZE SUB DUP2 ADD SWAP1 PUSH2 0x11E SWAP2 SWAP1 PUSH2 0x1108 JUMP JUMPDEST PUSH2 0x7AE JUMP JUMPDEST PUSH1 0x40 MLOAD PUSH2 0x132 SWAP4 SWAP3 SWAP2 SWAP1 PUSH2 0x1133 JUMP JUMPDEST PUSH1 0x40 MLOAD DUP1 SWAP2 SUB SWAP1 RETURN JUMPDEST PUSH2 0x155 PUSH1 0x4 DUP1 CALLDATASIZE SUB DUP2 ADD SWAP1 PUSH2 0x150 SWAP2 SWAP1 PUSH2 0xF71 JUMP JUMPDEST PUSH2 0x8FE JUMP JUMPDEST STOP JUMPDEST PUSH2 0x171 PUSH1 0x4 DUP1 CALLDATASIZE SUB DUP2 ADD SWAP1 PUSH2 0x16C SWAP2 SWAP1 PUSH2 0x100F JUMP JUMPDEST PUSH2 0xABF JUMP JUMPDEST PUSH1 0x40 MLOAD PUSH2 0x183 SWAP7 SWAP6 SWAP5 SWAP4 SWAP3 SWAP2 SWAP1 PUSH2 0x1279 JUMP JUMPDEST PUSH1 0x40 MLOAD DUP1 SWAP2 SUB SWAP1 RETURN JUMPDEST CALLER PUSH20 0xFFFFFFFFFFFFFFFFFFFFFFFFFFFFFFFFFFFFFFFF AND PUSH1 0x1 PUSH0 DUP6 DUP2 MSTORE PUSH1 0x20 ADD SWAP1 DUP2 MSTORE PUSH1 0x20 ADD PUSH0 KECCAK256 PUSH1 0x1 ADD PUSH0 SWAP1 SLOAD SWAP1 PUSH2 0x100 EXP SWAP1 DIV PUSH20 0xFFFFFFFFFFFFFFFFFFFFFFFFFFFFFFFFFFFFFFFF AND PUSH20 0xFFFFFFFFFFFFFFFFFFFFFFFFFFFFFFFFFFFFFFFF AND EQ PUSH2 0x22D JUMPI PUSH1 0x40 MLOAD PUSH32 0x8C379A000000000000000000000000000000000000000000000000000000000 DUP2 MSTORE PUSH1 0x4 ADD PUSH2 0x224 SWAP1 PUSH2 0x135D JUMP JUMPDEST PUSH1 0x40 MLOAD DUP1 SWAP2 SUB SWAP1 REVERT JUMPDEST PUSH0 PUSH20 0xFFFFFFFFFFFFFFFFFFFFFFFFFFFFFFFFFFFFFFFF AND DUP3 PUSH20 0xFFFFFFFFFFFFFFFFFFFFFFFFFFFFFFFFFFFFFFFF AND SUB PUSH2 0x29B JUMPI PUSH1 0x40 MLOAD PUSH32 0x8C379A000000000000000000000000000000000000000000000000000000000 DUP2 MSTORE PUSH1 0x4 ADD PUSH2 0x292 SWAP1 PUSH2 0x13C5 JUMP JUMPDEST PUSH1 0x40 MLOAD DUP1 SWAP2 SUB SWAP1 REVERT JUMPDEST PUSH0 PUSH1 0x1 PUSH0 DUP6 DUP2 MSTORE PUSH1 0x20 ADD SWAP1 DUP2 MSTORE PUSH1 0x20 ADD PUSH0 KECCAK256 PUSH1 0x1 ADD PUSH0 SWAP1 SLOAD SWAP1 PUSH2 0x100 EXP SWAP1 DIV PUSH20 0xFFFFFFFFFFFFFFFFFFFFFFFFFFFFFFFFFFFFFFFF AND SWAP1 POP DUP3 PUSH1 0x1 PUSH0 DUP7 DUP2 MSTORE PUSH1 0x20 ADD SWAP1 DUP2 MSTORE PUSH1 0x20 ADD PUSH0 KECCAK256 PUSH1 0x1 ADD PUSH0 PUSH2 0x100 EXP DUP2 SLOAD DUP2 PUSH20 0xFFFFFFFFFFFFFFFFFFFFFFFFFFFFFFFFFFFFFFFF MUL NOT AND SWAP1 DUP4 PUSH20 0xFFFFFFFFFFFFFFFFFFFFFFFFFFFFFFFFFFFFFFFF AND MUL OR SWAP1 SSTORE POP PUSH1 0x1 PUSH0 DUP6 DUP2 MSTORE PUSH1 0x20 ADD SWAP1 DUP2 MSTORE PUSH1 0x20 ADD PUSH0 KECCAK256 PUSH1 0x5 ADD DUP3 SWAP1 DUP1 PUSH1 0x1 DUP2 SLOAD ADD DUP1 DUP3 SSTORE DUP1 SWAP2 POP POP PUSH1 0x1 SWAP1 SUB SWAP1 PUSH0 MSTORE PUSH1 0x20 PUSH0 KECCAK256 ADD PUSH0 SWAP1 SWAP2 SWAP1 SWAP2 SWAP1 SWAP2 POP SWAP1 DUP2 PUSH2 0x367 SWAP2 SWAP1 PUSH2 0x15E0 JUMP JUMPDEST POP DUP3 PUSH20 0xFFFFFFFFFFFFFFFFFFFFFFFFFFFFFFFFFFFFFFFF AND DUP2 PUSH20 0xFFFFFFFFFFFFFFFFFFFFFFFFFFFFFFFFFFFFFFFF AND DUP6 PUSH32 0xE205F902379306C28BBC2E72F85C82C168E8C19942E10B7FA2500E2E6B3865D DUP6 PUSH1 0x40 MLOAD PUSH2 0x3C6 SWAP2 SWAP1 PUSH2 0x16AF JUMP JUMPDEST PUSH1 0x40 MLOAD DUP1 SWAP2 SUB SWAP1 LOG4 POP POP POP POP JUMP JUMPDEST PUSH0 PUSH0 PUSH0 CALLER PUSH20 0xFFFFFFFFFFFFFFFFFFFFFFFFFFFFFFFFFFFFFFFF AND PUSH20 0xFFFFFFFFFFFFFFFFFFFFFFFFFFFFFFFFFFFFFFFF AND DUP2 MSTORE PUSH1 0x20 ADD SWAP1 DUP2 MSTORE PUSH1 0x20 ADD PUSH0 KECCAK256 PUSH1 0x1 ADD DUP1 SLOAD PUSH2 0x41F SWAP1 PUSH2 0x1410 JUMP JUMPDEST SWAP1 POP GT PUSH2 0x461 JUMPI PUSH1 0x40 MLOAD PUSH32 0x8C379A000000000000000000000000000000000000000000000000000000000 DUP2 MSTORE PUSH1 0x4 ADD PUSH2 0x458 SWAP1 PUSH2 0x173F JUMP JUMPDEST PUSH1 0x40 MLOAD DUP1 SWAP2 SUB SWAP1 REVERT JUMPDEST PUSH1 0x2 PUSH0 DUP2 SLOAD DUP1 SWAP3 SWAP2 SWAP1 PUSH2 0x473 SWAP1 PUSH2 0x178A JUMP JUMPDEST SWAP2 SWAP1 POP SSTORE POP PUSH0 PUSH1 0x1 PUSH0 PUSH1 0x2 SLOAD DUP2 MSTORE PUSH1 0x20 ADD SWAP1 DUP2 MSTORE PUSH1 0x20 ADD PUSH0 KECCAK256 SWAP1 POP PUSH1 0x2 SLOAD DUP2 PUSH0 ADD DUP2 SWAP1 SSTORE POP CALLER DUP2 PUSH1 0x1 ADD PUSH0 PUSH2 0x100 EXP DUP2 SLOAD DUP2 PUSH20 0xFFFFFFFFFFFFFFFFFFFFFFFFFFFFFFFFFFFFFFFF MUL NOT AND SWAP1 DUP4 PUSH20 0xFFFFFFFFFFFFFFFFFFFFFFFFFFFFFFFFFFFFFFFF AND MUL OR SWAP1 SSTORE POP CALLER DUP2 PUSH1 0x2 ADD PUSH0 PUSH2 0x100 EXP DUP2 SLOAD DUP2 PUSH20 0xFFFFFFFFFFFFFFFFFFFFFFFFFFFFFFFFFFFFFFFF MUL NOT AND SWAP1 DUP4 PUSH20 0xFFFFFFFFFFFFFFFFFFFFFFFFFFFFFFFFFFFFFFFF AND MUL OR SWAP1 SSTORE POP DUP3 DUP2 PUSH1 0x3 ADD SWAP1 DUP2 PUSH2 0x52D SWAP2 SWAP1 PUSH2 0x15E0 JUMP JUMPDEST POP DUP2 DUP2 PUSH1 0x4 ADD SWAP1 DUP2 PUSH2 0x53F SWAP2 SWAP1 PUSH2 0x15E0 JUMP JUMPDEST POP PUSH0 PUSH0 PUSH0 CALLER PUSH20 0xFFFFFFFFFFFFFFFFFFFFFFFFFFFFFFFFFFFFFFFF AND PUSH20 0xFFFFFFFFFFFFFFFFFFFFFFFFFFFFFFFFFFFFFFFF AND DUP2 MSTORE PUSH1 0x20 ADD SWAP1 DUP2 MSTORE PUSH1 0x20 ADD PUSH0 KECCAK256 PUSH1 0x1 ADD PUSH1 0x40 MLOAD PUSH1 0x20 ADD PUSH2 0x590 SWAP2 SWAP1 PUSH2 0x18A5 JUMP JUMPDEST PUSH1 0x40 MLOAD PUSH1 0x20 DUP2 DUP4 SUB SUB DUP2 MSTORE SWAP1 PUSH1 0x40 MSTORE SWAP1 POP DUP2 PUSH1 0x5 ADD DUP2 SWAP1 DUP1 PUSH1 0x1 DUP2 SLOAD ADD DUP1 DUP3 SSTORE DUP1 SWAP2 POP POP PUSH1 0x1 SWAP1 SUB SWAP1 PUSH0 MSTORE PUSH1 0x20 PUSH0 KECCAK256 ADD PUSH0 SWAP1 SWAP2 SWAP1 SWAP2 SWAP1 SWAP2 POP SWAP1 DUP2 PUSH2 0x5D4 SWAP2 SWAP1 PUSH2 0x15E0 JUMP JUMPDEST POP CALLER PUSH20 0xFFFFFFFFFFFFFFFFFFFFFFFFFFFFFFFFFFFFFFFF AND PUSH1 0x2 SLOAD PUSH32 0x29D885879BF852C519FB620E5FBE8A3A9C821CC612A8B4AC6E55D821AC20F7AD DUP7 PUSH1 0x40 MLOAD PUSH2 0x61E SWAP2 SWAP1 PUSH2 0x16AF JUMP JUMPDEST PUSH1 0x40 MLOAD DUP1 SWAP2 SUB SWAP1 LOG3 POP POP POP POP JUMP JUMPDEST PUSH1 0x2 SLOAD DUP2 JUMP JUMPDEST PUSH1 0x1 PUSH1 0x20 MSTORE DUP1 PUSH0 MSTORE PUSH1 0x40 PUSH0 KECCAK256 PUSH0 SWAP2 POP SWAP1 POP DUP1 PUSH0 ADD SLOAD SWAP1 DUP1 PUSH1 0x1 ADD PUSH0 SWAP1 SLOAD SWAP1 PUSH2 0x100 EXP SWAP1 DIV PUSH20 0xFFFFFFFFFFFFFFFFFFFFFFFFFFFFFFFFFFFFFFFF AND SWAP1 DUP1 PUSH1 0x2 ADD PUSH0 SWAP1 SLOAD SWAP1 PUSH2 0x100 EXP SWAP1 DIV PUSH20 0xFFFFFFFFFFFFFFFFFFFFFFFFFFFFFFFFFFFFFFFF AND SWAP1 DUP1 PUSH1 0x3 ADD DUP1 SLOAD PUSH2 0x6A1 SWAP1 PUSH2 0x1410 JUMP JUMPDEST DUP1 PUSH1 0x1F ADD PUSH1 0x20 DUP1 SWAP2 DIV MUL PUSH1 0x20 ADD PUSH1 0x40 MLOAD SWAP1 DUP2 ADD PUSH1 0x40 MSTORE DUP1 SWAP3 SWAP2 SWAP1 DUP2 DUP2 MSTORE PUSH1 0x20 ADD DUP3 DUP1 SLOAD PUSH2 0x6CD SWAP1 PUSH2 0x1410 JUMP JUMPDEST DUP1 ISZERO PUSH2 0x718 JUMPI DUP1 PUSH1 0x1F LT PUSH2 0x6EF JUMPI PUSH2 0x100 DUP1 DUP4 SLOAD DIV MUL DUP4 MSTORE SWAP2 PUSH1 0x20 ADD SWAP2 PUSH2 0x718 JUMP JUMPDEST DUP3 ADD SWAP2 SWAP1 PUSH0 MSTORE PUSH1 0x20 PUSH0 KECCAK256 SWAP1 JUMPDEST DUP2 SLOAD DUP2 MSTORE SWAP1 PUSH1 0x1 ADD SWAP1 PUSH1 0x20 ADD DUP1 DUP4 GT PUSH2 0x6FB JUMPI DUP3 SWAP1 SUB PUSH1 0x1F AND DUP3 ADD SWAP2 JUMPDEST POP POP POP POP POP SWAP1 DUP1 PUSH1 0x4 ADD DUP1 SLOAD PUSH2 0x72D SWAP1 PUSH2 0x1410 JUMP JUMPDEST DUP1 PUSH1 0x1F ADD PUSH1 0x20 DUP1 SWAP2 DIV MUL PUSH1 0x20 ADD PUSH1 0x40 MLOAD SWAP1 DUP2 ADD PUSH1 0x40 MSTORE DUP1 SWAP3 SWAP2 SWAP1 DUP2 DUP2 MSTORE PUSH1 0x20 ADD DUP3 DUP1 SLOAD PUSH2 0x759 SWAP1 PUSH2 0x1410 JUMP JUMPDEST DUP1 ISZERO PUSH2 0x7A4 JUMPI DUP1 PUSH1 0x1F LT PUSH2 0x77B JUMPI PUSH2 0x100 DUP1 DUP4 SLOAD DIV MUL DUP4 MSTORE SWAP2 PUSH1 0x20 ADD SWAP2 PUSH2 0x7A4 JUMP JUMPDEST DUP3 ADD SWAP2 SWAP1 PUSH0 MSTORE PUSH1 0x20 PUSH0 KECCAK256 SWAP1 JUMPDEST DUP2 SLOAD DUP2 MSTORE SWAP1 PUSH1 0x1 ADD SWAP1 PUSH1 0x20 ADD DUP1 DUP4 GT PUSH2 0x787 JUMPI DUP3 SWAP1 SUB PUSH1 0x1F AND DUP3 ADD SWAP2 JUMPDEST POP POP POP POP POP SWAP1 POP DUP6 JUMP JUMPDEST PUSH0 PUSH1 0x20 MSTORE DUP1 PUSH0 MSTORE PUSH1 0x40 PUSH0 KECCAK256 PUSH0 SWAP2 POP SWAP1 POP DUP1 PUSH0 ADD PUSH0 SWAP1 SLOAD SWAP1 PUSH2 0x100 EXP SWAP1 DIV PUSH20 0xFFFFFFFFFFFFFFFFFFFFFFFFFFFFFFFFFFFFFFFF AND SWAP1 DUP1 PUSH1 0x1 ADD DUP1 SLOAD PUSH2 0x7F1 SWAP1 PUSH2 0x1410 JUMP JUMPDEST DUP1 PUSH1 0x1F ADD PUSH1 0x20 DUP1 SWAP2 DIV MUL PUSH1 0x20 ADD PUSH1 0x40 MLOAD SWAP1 DUP2 ADD PUSH1 0x40 MSTORE DUP1 SWAP3 SWAP2 SWAP1 DUP2 DUP2 MSTORE PUSH1 0x20 ADD DUP3 DUP1 SLOAD PUSH2 0x81D SWAP1 PUSH2 0x1410 JUMP JUMPDEST DUP1 ISZERO PUSH2 0x868 JUMPI DUP1 PUSH1 0x1F LT PUSH2 0x83F JUMPI PUSH2 0x100 DUP1 DUP4 SLOAD DIV MUL DUP4 MSTORE SWAP2 PUSH1 0x20 ADD SWAP2 PUSH2 0x868 JUMP JUMPDEST DUP3 ADD SWAP2 SWAP1 PUSH0 MSTORE PUSH1 0x20 PUSH0 KECCAK256 SWAP1 JUMPDEST DUP2 SLOAD DUP2 MSTORE SWAP1 PUSH1 0x1 ADD SWAP1 PUSH1 0x20 ADD DUP1 DUP4 GT PUSH2 0x84B JUMPI DUP3 SWAP1 SUB PUSH1 0x1F AND DUP3 ADD SWAP2 JUMPDEST POP POP POP POP POP SWAP1 DUP1 PUSH1 0x2 ADD DUP1 SLOAD PUSH2 0x87D SWAP1 PUSH2 0x1410 JUMP JUMPDEST DUP1 PUSH1 0x1F ADD PUSH1 0x20 DUP1 SWAP2 DIV MUL PUSH1 0x20 ADD PUSH1 0x40 MLOAD SWAP1 DUP2 ADD PUSH1 0x40 MSTORE DUP1 SWAP3 SWAP2 SWAP1 DUP2 DUP2 MSTORE PUSH1 0x20 ADD DUP3 DUP1 SLOAD PUSH2 0x8A9 SWAP1 PUSH2 0x1410 JUMP JUMPDEST DUP1 ISZERO PUSH2 0x8F4 JUMPI DUP1 PUSH1 0x1F LT PUSH2 0x8CB JUMPI PUSH2 0x100 DUP1 DUP4 SLOAD DIV MUL DUP4 MSTORE SWAP2 PUSH1 0x20 ADD SWAP2 PUSH2 0x8F4 JUMP JUMPDEST DUP3 ADD SWAP2 SWAP1 PUSH0 MSTORE PUSH1 0x20 PUSH0 KECCAK256 SWAP1 JUMPDEST DUP2 SLOAD DUP2 MSTORE SWAP1 PUSH1 0x1 ADD SWAP1 PUSH1 0x20 ADD DUP1 DUP4 GT PUSH2 0x8D7 JUMPI DUP3 SWAP1 SUB PUSH1 0x1F AND DUP3 ADD SWAP2 JUMPDEST POP POP POP POP POP SWAP1 POP DUP4 JUMP JUMPDEST PUSH0 PUSH0 PUSH0 CALLER PUSH20 0xFFFFFFFFFFFFFFFFFFFFFFFFFFFFFFFFFFFFFFFF AND PUSH20 0xFFFFFFFFFFFFFFFFFFFFFFFFFFFFFFFFFFFFFFFF AND DUP2 MSTORE PUSH1 0x20 ADD SWAP1 DUP2 MSTORE PUSH1 0x20 ADD PUSH0 KECCAK256 PUSH1 0x1 ADD DUP1 SLOAD PUSH2 0x949 SWAP1 PUSH2 0x1410 JUMP JUMPDEST SWAP1 POP EQ PUSH2 0x98B JUMPI PUSH1 0x40 MLOAD PUSH32 0x8C379A000000000000000000000000000000000000000000000000000000000 DUP2 MSTORE PUSH1 0x4 ADD PUSH2 0x982 SWAP1 PUSH2 0x1910 JUMP JUMPDEST PUSH1 0x40 MLOAD DUP1 SWAP2 SUB SWAP1 REVERT JUMPDEST PUSH1 0x40 MLOAD DUP1 PUSH1 0x60 ADD PUSH1 0x40 MSTORE DUP1 CALLER PUSH20 0xFFFFFFFFFFFFFFFFFFFFFFFFFFFFFFFFFFFFFFFF AND DUP2 MSTORE PUSH1 0x20 ADD DUP4 DUP2 MSTORE PUSH1 0x20 ADD DUP3 DUP2 MSTORE POP PUSH0 PUSH0 CALLER PUSH20 0xFFFFFFFFFFFFFFFFFFFFFFFFFFFFFFFFFFFFFFFF AND PUSH20 0xFFFFFFFFFFFFFFFFFFFFFFFFFFFFFFFFFFFFFFFF AND DUP2 MSTORE PUSH1 0x20 ADD SWAP1 DUP2 MSTORE PUSH1 0x20 ADD PUSH0 KECCAK256 PUSH0 DUP3 ADD MLOAD DUP2 PUSH0 ADD PUSH0 PUSH2 0x100 EXP DUP2 SLOAD DUP2 PUSH20 0xFFFFFFFFFFFFFFFFFFFFFFFFFFFFFFFFFFFFFFFF MUL NOT AND SWAP1 DUP4 PUSH20 0xFFFFFFFFFFFFFFFFFFFFFFFFFFFFFFFFFFFFFFFF AND MUL OR SWAP1 SSTORE POP PUSH1 0x20 DUP3 ADD MLOAD DUP2 PUSH1 0x1 ADD SWAP1 DUP2 PUSH2 0xA51 SWAP2 SWAP1 PUSH2 0x15E0 JUMP JUMPDEST POP PUSH1 0x40 DUP3 ADD MLOAD DUP2 PUSH1 0x2 ADD SWAP1 DUP2 PUSH2 0xA67 SWAP2 SWAP1 PUSH2 0x15E0 JUMP JUMPDEST POP SWAP1 POP POP CALLER PUSH20 0xFFFFFFFFFFFFFFFFFFFFFFFFFFFFFFFFFFFFFFFF AND PUSH32 0xE81C369424FCAE53AA0A7106FC3807A6619A60C791A5DE3C76C3268B68B7176D DUP4 DUP4 PUSH1 0x40 MLOAD PUSH2 0xAB3 SWAP3 SWAP2 SWAP1 PUSH2 0x192E JUMP JUMPDEST PUSH1 0x40 MLOAD DUP1 SWAP2 SUB SWAP1 LOG2 POP POP JUMP JUMPDEST PUSH0 PUSH0 PUSH0 PUSH1 0x60 DUP1 PUSH1 0x60 PUSH0 PUSH1 0x1 PUSH0 DUP10 DUP2 MSTORE PUSH1 0x20 ADD SWAP1 DUP2 MSTORE PUSH1 0x20 ADD PUSH0 KECCAK256 SWAP1 POP DUP1 PUSH0 ADD SLOAD DUP2 PUSH1 0x1 ADD PUSH0 SWAP1 SLOAD SWAP1 PUSH2 0x100 EXP SWAP1 DIV PUSH20 0xFFFFFFFFFFFFFFFFFFFFFFFFFFFFFFFFFFFFFFFF AND DUP3 PUSH1 0x2 ADD PUSH0 SWAP1 SLOAD SWAP1 PUSH2 0x100 EXP SWAP1 DIV PUSH20 0xFFFFFFFFFFFFFFFFFFFFFFFFFFFFFFFFFFFFFFFF AND DUP4 PUSH1 0x3 ADD DUP5 PUSH1 0x4 ADD DUP6 PUSH1 0x5 ADD DUP3 DUP1 SLOAD PUSH2 0xB3F SWAP1 PUSH2 0x1410 JUMP JUMPDEST DUP1 PUSH1 0x1F ADD PUSH1 0x20 DUP1 SWAP2 DIV MUL PUSH1 0x20 ADD PUSH1 0x40 MLOAD SWAP1 DUP2 ADD PUSH1 0x40 MSTORE DUP1 SWAP3 SWAP2 SWAP1 DUP2 DUP2 MSTORE PUSH1 0x20 ADD DUP3 DUP1 SLOAD PUSH2 0xB6B SWAP1 PUSH2 0x1410 JUMP JUMPDEST DUP1 ISZERO PUSH2 0xBB6 JUMPI DUP1 PUSH1 0x1F LT PUSH2 0xB8D JUMPI PUSH2 0x100 DUP1 DUP4 SLOAD DIV MUL DUP4 MSTORE SWAP2 PUSH1 0x20 ADD SWAP2 PUSH2 0xBB6 JUMP JUMPDEST DUP3 ADD SWAP2 SWAP1 PUSH0 MSTORE PUSH1 0x20 PUSH0 KECCAK256 SWAP1 JUMPDEST DUP2 SLOAD DUP2 MSTORE SWAP1 PUSH1 0x1 ADD SWAP1 PUSH1 0x20 ADD DUP1 DUP4 GT PUSH2 0xB99 JUMPI DUP3 SWAP1 SUB PUSH1 0x1F AND DUP3 ADD SWAP2 JUMPDEST POP POP POP POP POP SWAP3 POP DUP2 DUP1 SLOAD PUSH2 0xBC9 SWAP1 PUSH2 0x1410 JUMP JUMPDEST DUP1 PUSH1 0x1F ADD PUSH1 0x20 DUP1 SWAP2 DIV MUL PUSH1 0x20 ADD PUSH1 0x40 MLOAD SWAP1 DUP2 ADD PUSH1 0x40 MSTORE DUP1 SWAP3 SWAP2 SWAP1 DUP2 DUP2 MSTORE PUSH1 0x20 ADD DUP3 DUP1 SLOAD PUSH2 0xBF5 SWAP1 PUSH2 0x1410 JUMP JUMPDEST DUP1 ISZERO PUSH2 0xC40 JUMPI DUP1 PUSH1 0x1F LT PUSH2 0xC17 JUMPI PUSH2 0x100 DUP1 DUP4 SLOAD DIV MUL DUP4 MSTORE SWAP2 PUSH1 0x20 ADD SWAP2 PUSH2 0xC40 JUMP JUMPDEST DUP3 ADD SWAP2 SWAP1 PUSH0 MSTORE PUSH1 0x20 PUSH0 KECCAK256 SWAP1 JUMPDEST DUP2 SLOAD DUP2 MSTORE SWAP1 PUSH1 0x1 ADD SWAP1 PUSH1 0x20 ADD DUP1 DUP4 GT PUSH2 0xC23 JUMPI DUP3 SWAP1 SUB PUSH1 0x1F AND DUP3 ADD SWAP2 JUMPDEST POP POP POP POP POP SWAP2 POP DUP1 DUP1 SLOAD DUP1 PUSH1 0x20 MUL PUSH1 0x20 ADD PUSH1 0x40 MLOAD SWAP1 DUP2 ADD PUSH1 0x40 MSTORE DUP1 SWAP3 SWAP2 SWAP1 DUP2 DUP2 MSTORE PUSH1 0x20 ADD PUSH0 SWAP1 JUMPDEST DUP3 DUP3 LT ISZERO PUSH2 0xD0F JUMPI DUP4 DUP3 SWAP1 PUSH0 MSTORE PUSH1 0x20 PUSH0 KECCAK256 ADD DUP1 SLOAD PUSH2 0xC84 SWAP1 PUSH2 0x1410 JUMP JUMPDEST DUP1 PUSH1 0x1F ADD PUSH1 0x20 DUP1 SWAP2 DIV MUL PUSH1 0x20 ADD PUSH1 0x40 MLOAD SWAP1 DUP2 ADD PUSH1 0x40 MSTORE DUP1 SWAP3 SWAP2 SWAP1 DUP2 DUP2 MSTORE PUSH1 0x20 ADD DUP3 DUP1 SLOAD PUSH2 0xCB0 SWAP1 PUSH2 0x1410 JUMP JUMPDEST DUP1 ISZERO PUSH2 0xCFB JUMPI DUP1 PUSH1 0x1F LT PUSH2 0xCD2 JUMPI PUSH2 0x100 DUP1 DUP4 SLOAD DIV MUL DUP4 MSTORE SWAP2 PUSH1 0x20 ADD SWAP2 PUSH2 0xCFB JUMP JUMPDEST DUP3 ADD SWAP2 SWAP1 PUSH0 MSTORE PUSH1 0x20 PUSH0 KECCAK256 SWAP1 JUMPDEST DUP2 SLOAD DUP2 MSTORE SWAP1 PUSH1 0x1 ADD SWAP1 PUSH1 0x20 ADD DUP1 DUP4 GT PUSH2 0xCDE JUMPI DUP3 SWAP1 SUB PUSH1 0x1F AND DUP3 ADD SWAP2 JUMPDEST POP POP POP POP POP DUP2 MSTORE PUSH1 0x20 ADD SWAP1 PUSH1 0x1 ADD SWAP1 PUSH2 0xC67 JUMP JUMPDEST POP POP POP POP SWAP1 POP SWAP7 POP SWAP7 POP SWAP7 POP SWAP7 POP SWAP7 POP SWAP7 POP POP SWAP2 SWAP4 SWAP6 POP SWAP2 SWAP4 SWAP6 JUMP JUMPDEST PUSH0 PUSH1 0x40 MLOAD SWAP1 POP SWAP1 JUMP JUMPDEST PUSH0 PUSH0 REVERT JUMPDEST PUSH0 PUSH0 REVERT JUMPDEST PUSH0 DUP2 SWAP1 POP SWAP2 SWAP1 POP JUMP JUMPDEST PUSH2 0xD4E DUP2 PUSH2 0xD3C JUMP JUMPDEST DUP2 EQ PUSH2 0xD58 JUMPI PUSH0 PUSH0 REVERT JUMPDEST POP JUMP JUMPDEST PUSH0 DUP2 CALLDATALOAD SWAP1 POP PUSH2 0xD69 DUP2 PUSH2 0xD45 JUMP JUMPDEST SWAP3 SWAP2 POP POP JUMP JUMPDEST PUSH0 PUSH20 0xFFFFFFFFFFFFFFFFFFFFFFFFFFFFFFFFFFFFFFFF DUP3 AND SWAP1 POP SWAP2 SWAP1 POP JUMP JUMPDEST PUSH0 PUSH2 0xD98 DUP3 PUSH2 0xD6F JUMP JUMPDEST SWAP1 POP SWAP2 SWAP1 POP JUMP JUMPDEST PUSH2 0xDA8 DUP2 PUSH2 0xD8E JUMP JUMPDEST DUP2 EQ PUSH2 0xDB2 JUMPI PUSH0 PUSH0 REVERT JUMPDEST POP JUMP JUMPDEST PUSH0 DUP2 CALLDATALOAD SWAP1 POP PUSH2 0xDC3 DUP2 PUSH2 0xD9F JUMP JUMPDEST SWAP3 SWAP2 POP POP JUMP JUMPDEST PUSH0 PUSH0 REVERT JUMPDEST PUSH0 PUSH0 REVERT JUMPDEST PUSH0 PUSH1 0x1F NOT PUSH1 0x1F DUP4 ADD AND SWAP1 POP SWAP2 SWAP1 POP JUMP JUMPDEST PUSH32 0x4E487B7100000000000000000000000000000000000000000000000000000000 PUSH0 MSTORE PUSH1 0x41 PUSH1 0x4 MSTORE PUSH1 0x24 PUSH0 REVERT JUMPDEST PUSH2 0xE17 DUP3 PUSH2 0xDD1 JUMP JUMPDEST DUP2 ADD DUP2 DUP2 LT PUSH8 0xFFFFFFFFFFFFFFFF DUP3 GT OR ISZERO PUSH2 0xE36 JUMPI PUSH2 0xE35 PUSH2 0xDE1 JUMP JUMPDEST JUMPDEST DUP1 PUSH1 0x40 MSTORE POP POP POP JUMP JUMPDEST PUSH0 PUSH2 0xE48 PUSH2 0xD2B JUMP JUMPDEST SWAP1 POP PUSH2 0xE54 DUP3 DUP3 PUSH2 0xE0E JUMP JUMPDEST SWAP2 SWAP1 POP JUMP JUMPDEST PUSH0 PUSH8 0xFFFFFFFFFFFFFFFF DUP3 GT ISZERO PUSH2 0xE73 JUMPI PUSH2 0xE72 PUSH2 0xDE1 JUMP JUMPDEST JUMPDEST PUSH2 0xE7C DUP3 PUSH2 0xDD1 JUMP JUMPDEST SWAP1 POP PUSH1 0x20 DUP2 ADD SWAP1 POP SWAP2 SWAP1 POP JUMP JUMPDEST DUP3 DUP2 DUP4 CALLDATACOPY PUSH0 DUP4 DUP4 ADD MSTORE POP POP POP JUMP JUMPDEST PUSH0 PUSH2 0xEA9 PUSH2 0xEA4 DUP5 PUSH2 0xE59 JUMP JUMPDEST PUSH2 0xE3F JUMP JUMPDEST SWAP1 POP DUP3 DUP2 MSTORE PUSH1 0x20 DUP2 ADD DUP5 DUP5 DUP5 ADD GT ISZERO PUSH2 0xEC5 JUMPI PUSH2 0xEC4 PUSH2 0xDCD JUMP JUMPDEST JUMPDEST PUSH2 0xED0 DUP5 DUP3 DUP6 PUSH2 0xE89 JUMP JUMPDEST POP SWAP4 SWAP3 POP POP POP JUMP JUMPDEST PUSH0 DUP3 PUSH1 0x1F DUP4 ADD SLT PUSH2 0xEEC JUMPI PUSH2 0xEEB PUSH2 0xDC9 JUMP JUMPDEST JUMPDEST DUP2 CALLDATALOAD PUSH2 0xEFC DUP5 DUP3 PUSH1 0x20 DUP7 ADD PUSH2 0xE97 JUMP JUMPDEST SWAP2 POP POP SWAP3 SWAP2 POP POP JUMP JUMPDEST PUSH0 PUSH0 PUSH0 PUSH1 0x60 DUP5 DUP7 SUB SLT ISZERO PUSH2 0xF1C JUMPI PUSH2 0xF1B PUSH2 0xD34 JUMP JUMPDEST JUMPDEST PUSH0 PUSH2 0xF29 DUP7 DUP3 DUP8 ADD PUSH2 0xD5B JUMP JUMPDEST SWAP4 POP POP PUSH1 0x20 PUSH2 0xF3A DUP7 DUP3 DUP8 ADD PUSH2 0xDB5 JUMP JUMPDEST SWAP3 POP POP PUSH1 0x40 DUP5 ADD CALLDATALOAD PUSH8 0xFFFFFFFFFFFFFFFF DUP2 GT ISZERO PUSH2 0xF5B JUMPI PUSH2 0xF5A PUSH2 0xD38 JUMP JUMPDEST JUMPDEST PUSH2 0xF67 DUP7 DUP3 DUP8 ADD PUSH2 0xED8 JUMP JUMPDEST SWAP2 POP POP SWAP3 POP SWAP3 POP SWAP3 JUMP JUMPDEST PUSH0 PUSH0 PUSH1 0x40 DUP4 DUP6 SUB SLT ISZERO PUSH2 0xF87 JUMPI PUSH2 0xF86 PUSH2 0xD34 JUMP JUMPDEST JUMPDEST PUSH0 DUP4 ADD CALLDATALOAD PUSH8 0xFFFFFFFFFFFFFFFF DUP2 GT ISZERO PUSH2 0xFA4 JUMPI PUSH2 0xFA3 PUSH2 0xD38 JUMP JUMPDEST JUMPDEST PUSH2 0xFB0 DUP6 DUP3 DUP7 ADD PUSH2 0xED8 JUMP JUMPDEST SWAP3 POP POP PUSH1 0x20 DUP4 ADD CALLDATALOAD PUSH8 0xFFFFFFFFFFFFFFFF DUP2 GT ISZERO PUSH2 0xFD1 JUMPI PUSH2 0xFD0 PUSH2 0xD38 JUMP JUMPDEST JUMPDEST PUSH2 0xFDD DUP6 DUP3 DUP7 ADD PUSH2 0xED8 JUMP JUMPDEST SWAP2 POP POP SWAP3 POP SWAP3 SWAP1 POP JUMP JUMPDEST PUSH2 0xFF0 DUP2 PUSH2 0xD3C JUMP JUMPDEST DUP3 MSTORE POP POP JUMP JUMPDEST PUSH0 PUSH1 0x20 DUP3 ADD SWAP1 POP PUSH2 0x1009 PUSH0 DUP4 ADD DUP5 PUSH2 0xFE7 JUMP JUMPDEST SWAP3 SWAP2 POP POP JUMP JUMPDEST PUSH0 PUSH1 0x20 DUP3 DUP5 SUB SLT ISZERO PUSH2 0x1024 JUMPI PUSH2 0x1023 PUSH2 0xD34 JUMP JUMPDEST JUMPDEST PUSH0 PUSH2 0x1031 DUP5 DUP3 DUP6 ADD PUSH2 0xD5B JUMP JUMPDEST SWAP2 POP POP SWAP3 SWAP2 POP POP JUMP JUMPDEST PUSH2 0x1043 DUP2 PUSH2 0xD8E JUMP JUMPDEST DUP3 MSTORE POP POP JUMP JUMPDEST PUSH0 DUP2 MLOAD SWAP1 POP SWAP2 SWAP1 POP JUMP JUMPDEST PUSH0 DUP3 DUP3 MSTORE PUSH1 0x20 DUP3 ADD SWAP1 POP SWAP3 SWAP2 POP POP JUMP JUMPDEST DUP3 DUP2 DUP4 MCOPY PUSH0 DUP4 DUP4 ADD MSTORE POP POP POP JUMP JUMPDEST PUSH0 PUSH2 0x107B DUP3 PUSH2 0x1049 JUMP JUMPDEST PUSH2 0x1085 DUP2 DUP6 PUSH2 0x1053 JUMP JUMPDEST SWAP4 POP PUSH2 0x1095 DUP2 DUP6 PUSH1 0x20 DUP7 ADD PUSH2 0x1063 JUMP JUMPDEST PUSH2 0x109E DUP2 PUSH2 0xDD1 JUMP JUMPDEST DUP5 ADD SWAP2 POP POP SWAP3 SWAP2 POP POP JUMP JUMPDEST PUSH0 PUSH1 0xA0 DUP3 ADD SWAP1 POP PUSH2 0x10BC PUSH0 DUP4 ADD DUP9 PUSH2 0xFE7 JUMP JUMPDEST PUSH2 0x10C9 PUSH1 0x20 DUP4 ADD DUP8 PUSH2 0x103A JUMP JUMPDEST PUSH2 0x10D6 PUSH1 0x40 DUP4 ADD DUP7 PUSH2 0x103A JUMP JUMPDEST DUP2 DUP2 SUB PUSH1 0x60 DUP4 ADD MSTORE PUSH2 0x10E8 DUP2 DUP6 PUSH2 0x1071 JUMP JUMPDEST SWAP1 POP DUP2 DUP2 SUB PUSH1 0x80 DUP4 ADD MSTORE PUSH2 0x10FC DUP2 DUP5 PUSH2 0x1071 JUMP JUMPDEST SWAP1 POP SWAP7 SWAP6 POP POP POP POP POP POP JUMP JUMPDEST PUSH0 PUSH1 0x20 DUP3 DUP5 SUB SLT ISZERO PUSH2 0x111D JUMPI PUSH2 0x111C PUSH2 0xD34 JUMP JUMPDEST JUMPDEST PUSH0 PUSH2 0x112A DUP5 DUP3 DUP6 ADD PUSH2 0xDB5 JUMP JUMPDEST SWAP2 POP POP SWAP3 SWAP2 POP POP JUMP JUMPDEST PUSH0 PUSH1 0x60 DUP3 ADD SWAP1 POP PUSH2 0x1146 PUSH0 DUP4 ADD DUP7 PUSH2 0x103A JUMP JUMPDEST DUP2 DUP2 SUB PUSH1 0x20 DUP4 ADD MSTORE PUSH2 0x1158 DUP2 DUP6 PUSH2 0x1071 JUMP JUMPDEST SWAP1 POP DUP2 DUP2 SUB PUSH1 0x40 DUP4 ADD MSTORE PUSH2 0x116C DUP2 DUP5 PUSH2 0x1071 JUMP JUMPDEST SWAP1 POP SWAP5 SWAP4 POP POP POP POP JUMP JUMPDEST PUSH0 DUP2 MLOAD SWAP1 POP SWAP2 SWAP1 POP JUMP JUMPDEST PUSH0 DUP3 DUP3 MSTORE PUSH1 0x20 DUP3 ADD SWAP1 POP SWAP3 SWAP2 POP POP JUMP JUMPDEST PUSH0 DUP2 SWAP1 POP PUSH1 0x20 DUP3 ADD SWAP1 POP SWAP2 SWAP1 POP JUMP JUMPDEST PUSH0 DUP3 DUP3 MSTORE PUSH1 0x20 DUP3 ADD SWAP1 POP SWAP3 SWAP2 POP POP JUMP JUMPDEST PUSH0 PUSH2 0x11B9 DUP3 PUSH2 0x1049 JUMP JUMPDEST PUSH2 0x11C3 DUP2 DUP6 PUSH2 0x119F JUMP JUMPDEST SWAP4 POP PUSH2 0x11D3 DUP2 DUP6 PUSH1 0x20 DUP7 ADD PUSH2 0x1063 JUMP JUMPDEST PUSH2 0x11DC DUP2 PUSH2 0xDD1 JUMP JUMPDEST DUP5 ADD SWAP2 POP POP SWAP3 SWAP2 POP POP JUMP JUMPDEST PUSH0 PUSH2 0x11F2 DUP4 DUP4 PUSH2 0x11AF JUMP JUMPDEST SWAP1 POP SWAP3 SWAP2 POP POP JUMP JUMPDEST PUSH0 PUSH1 0x20 DUP3 ADD SWAP1 POP SWAP2 SWAP1 POP JUMP JUMPDEST PUSH0 PUSH2 0x1210 DUP3 PUSH2 0x1176 JUMP JUMPDEST PUSH2 0x121A DUP2 DUP6 PUSH2 0x1180 JUMP JUMPDEST SWAP4 POP DUP4 PUSH1 0x20 DUP3 MUL DUP6 ADD PUSH2 0x122C DUP6 PUSH2 0x1190 JUMP JUMPDEST DUP1 PUSH0 JUMPDEST DUP6 DUP2 LT ISZERO PUSH2 0x1267 JUMPI DUP5 DUP5 SUB DUP10 MSTORE DUP2 MLOAD PUSH2 0x1248 DUP6 DUP3 PUSH2 0x11E7 JUMP JUMPDEST SWAP5 POP PUSH2 0x1253 DUP4 PUSH2 0x11FA JUMP JUMPDEST SWAP3 POP PUSH1 0x20 DUP11 ADD SWAP10 POP POP PUSH1 0x1 DUP2 ADD SWAP1 POP PUSH2 0x122F JUMP JUMPDEST POP DUP3 SWAP8 POP DUP8 SWAP6 POP POP POP POP POP POP SWAP3 SWAP2 POP POP JUMP JUMPDEST PUSH0 PUSH1 0xC0 DUP3 ADD SWAP1 POP PUSH2 0x128C PUSH0 DUP4 ADD DUP10 PUSH2 0xFE7 JUMP JUMPDEST PUSH2 0x1299 PUSH1 0x20 DUP4 ADD DUP9 PUSH2 0x103A JUMP JUMPDEST PUSH2 0x12A6 PUSH1 0x40 DUP4 ADD DUP8 PUSH2 0x103A JUMP JUMPDEST DUP2 DUP2 SUB PUSH1 0x60 DUP4 ADD MSTORE PUSH2 0x12B8 DUP2 DUP7 PUSH2 0x1071 JUMP JUMPDEST SWAP1 POP DUP2 DUP2 SUB PUSH1 0x80 DUP4 ADD MSTORE PUSH2 0x12CC DUP2 DUP6 PUSH2 0x1071 JUMP JUMPDEST SWAP1 POP DUP2 DUP2 SUB PUSH1 0xA0 DUP4 ADD MSTORE PUSH2 0x12E0 DUP2 DUP5 PUSH2 0x1206 JUMP JUMPDEST SWAP1 POP SWAP8 SWAP7 POP POP POP POP POP POP POP JUMP JUMPDEST PUSH32 0x4E6F206572657320656C2070726F706965746172696F2061637475616C206465 PUSH0 DUP3 ADD MSTORE PUSH32 0x6C2070726F647563746F2E000000000000000000000000000000000000000000 PUSH1 0x20 DUP3 ADD MSTORE POP JUMP JUMPDEST PUSH0 PUSH2 0x1347 PUSH1 0x2B DUP4 PUSH2 0x1053 JUMP JUMPDEST SWAP2 POP PUSH2 0x1352 DUP3 PUSH2 0x12ED JUMP JUMPDEST PUSH1 0x40 DUP3 ADD SWAP1 POP SWAP2 SWAP1 POP JUMP JUMPDEST PUSH0 PUSH1 0x20 DUP3 ADD SWAP1 POP DUP2 DUP2 SUB PUSH0 DUP4 ADD MSTORE PUSH2 0x1374 DUP2 PUSH2 0x133B JUMP JUMPDEST SWAP1 POP SWAP2 SWAP1 POP JUMP JUMPDEST PUSH32 0x446972656363696F6E20696E76616C6964612E00000000000000000000000000 PUSH0 DUP3 ADD MSTORE POP JUMP JUMPDEST PUSH0 PUSH2 0x13AF PUSH1 0x13 DUP4 PUSH2 0x1053 JUMP JUMPDEST SWAP2 POP PUSH2 0x13BA DUP3 PUSH2 0x137B JUMP JUMPDEST PUSH1 0x20 DUP3 ADD SWAP1 POP SWAP2 SWAP1 POP JUMP JUMPDEST PUSH0 PUSH1 0x20 DUP3 ADD SWAP1 POP DUP2 DUP2 SUB PUSH0 DUP4 ADD MSTORE PUSH2 0x13DC DUP2 PUSH2 0x13A3 JUMP JUMPDEST SWAP1 POP SWAP2 SWAP1 POP JUMP JUMPDEST PUSH32 0x4E487B7100000000000000000000000000000000000000000000000000000000 PUSH0 MSTORE PUSH1 0x22 PUSH1 0x4 MSTORE PUSH1 0x24 PUSH0 REVERT JUMPDEST PUSH0 PUSH1 0x2 DUP3 DIV SWAP1 POP PUSH1 0x1 DUP3 AND DUP1 PUSH2 0x1427 JUMPI PUSH1 0x7F DUP3 AND SWAP2 POP JUMPDEST PUSH1 0x20 DUP3 LT DUP2 SUB PUSH2 0x143A JUMPI PUSH2 0x1439 PUSH2 0x13E3 JUMP JUMPDEST JUMPDEST POP SWAP2 SWAP1 POP JUMP JUMPDEST PUSH0 DUP2 SWAP1 POP DUP2 PUSH0 MSTORE PUSH1 0x20 PUSH0 KECCAK256 SWAP1 POP SWAP2 SWAP1 POP JUMP JUMPDEST PUSH0 PUSH1 0x20 PUSH1 0x1F DUP4 ADD DIV SWAP1 POP SWAP2 SWAP1 POP JUMP JUMPDEST PUSH0 DUP3 DUP3 SHL SWAP1 POP SWAP3 SWAP2 POP POP JUMP JUMPDEST PUSH0 PUSH1 0x8 DUP4 MUL PUSH2 0x149C PUSH32 0xFFFFFFFFFFFFFFFFFFFFFFFFFFFFFFFFFFFFFFFFFFFFFFFFFFFFFFFFFFFFFFFF DUP3 PUSH2 0x1461 JUMP JUMPDEST PUSH2 0x14A6 DUP7 DUP4 PUSH2 0x1461 JUMP JUMPDEST SWAP6 POP DUP1 NOT DUP5 AND SWAP4 POP DUP1 DUP7 AND DUP5 OR SWAP3 POP POP POP SWAP4 SWAP3 POP POP POP JUMP JUMPDEST PUSH0 DUP2 SWAP1 POP SWAP2 SWAP1 POP JUMP JUMPDEST PUSH0 PUSH2 0x14E1 PUSH2 0x14DC PUSH2 0x14D7 DUP5 PUSH2 0xD3C JUMP JUMPDEST PUSH2 0x14BE JUMP JUMPDEST PUSH2 0xD3C JUMP JUMPDEST SWAP1 POP SWAP2 SWAP1 POP JUMP JUMPDEST PUSH0 DUP2 SWAP1 POP SWAP2 SWAP1 POP JUMP JUMPDEST PUSH2 0x14FA DUP4 PUSH2 0x14C7 JUMP JUMPDEST PUSH2 0x150E PUSH2 0x1506 DUP3 PUSH2 0x14E8 JUMP JUMPDEST DUP5 DUP5 SLOAD PUSH2 0x146D JUMP JUMPDEST DUP3 SSTORE POP POP POP POP JUMP JUMPDEST PUSH0 PUSH0 SWAP1 POP SWAP1 JUMP JUMPDEST PUSH2 0x1525 PUSH2 0x1516 JUMP JUMPDEST PUSH2 0x1530 DUP2 DUP5 DUP5 PUSH2 0x14F1 JUMP JUMPDEST POP POP POP JUMP JUMPDEST JUMPDEST DUP2 DUP2 LT ISZERO PUSH2 0x1553 JUMPI PUSH2 0x1548 PUSH0 DUP3 PUSH2 0x151D JUMP JUMPDEST PUSH1 0x1 DUP2 ADD SWAP1 POP PUSH2 0x1536 JUMP JUMPDEST POP POP JUMP JUMPDEST PUSH1 0x1F DUP3 GT ISZERO PUSH2 0x1598 JUMPI PUSH2 0x1569 DUP2 PUSH2 0x1440 JUMP JUMPDEST PUSH2 0x1572 DUP5 PUSH2 0x1452 JUMP JUMPDEST DUP2 ADD PUSH1 0x20 DUP6 LT ISZERO PUSH2 0x1581 JUMPI DUP2 SWAP1 POP JUMPDEST PUSH2 0x1595 PUSH2 0x158D DUP6 PUSH2 0x1452 JUMP JUMPDEST DUP4 ADD DUP3 PUSH2 0x1535 JUMP JUMPDEST POP POP JUMPDEST POP POP POP JUMP JUMPDEST PUSH0 DUP3 DUP3 SHR SWAP1 POP SWAP3 SWAP2 POP POP JUMP JUMPDEST PUSH0 PUSH2 0x15B8 PUSH0 NOT DUP5 PUSH1 0x8 MUL PUSH2 0x159D JUMP JUMPDEST NOT DUP1 DUP4 AND SWAP2 POP POP SWAP3 SWAP2 POP POP JUMP JUMPDEST PUSH0 PUSH2 0x15D0 DUP4 DUP4 PUSH2 0x15A9 JUMP JUMPDEST SWAP2 POP DUP3 PUSH1 0x2 MUL DUP3 OR SWAP1 POP SWAP3 SWAP2 POP POP JUMP JUMPDEST PUSH2 0x15E9 DUP3 PUSH2 0x1049 JUMP JUMPDEST PUSH8 0xFFFFFFFFFFFFFFFF DUP2 GT ISZERO PUSH2 0x1602 JUMPI PUSH2 0x1601 PUSH2 0xDE1 JUMP JUMPDEST JUMPDEST PUSH2 0x160C DUP3 SLOAD PUSH2 0x1410 JUMP JUMPDEST PUSH2 0x1617 DUP3 DUP3 DUP6 PUSH2 0x1557 JUMP JUMPDEST PUSH0 PUSH1 0x20 SWAP1 POP PUSH1 0x1F DUP4 GT PUSH1 0x1 DUP2 EQ PUSH2 0x1648 JUMPI PUSH0 DUP5 ISZERO PUSH2 0x1636 JUMPI DUP3 DUP8 ADD MLOAD SWAP1 POP JUMPDEST PUSH2 0x1640 DUP6 DUP3 PUSH2 0x15C5 JUMP JUMPDEST DUP7 SSTORE POP PUSH2 0x16A7 JUMP JUMPDEST PUSH1 0x1F NOT DUP5 AND PUSH2 0x1656 DUP7 PUSH2 0x1440 JUMP JUMPDEST PUSH0 JUMPDEST DUP3 DUP2 LT ISZERO PUSH2 0x167D JUMPI DUP5 DUP10 ADD MLOAD DUP3 SSTORE PUSH1 0x1 DUP3 ADD SWAP2 POP PUSH1 0x20 DUP6 ADD SWAP5 POP PUSH1 0x20 DUP2 ADD SWAP1 POP PUSH2 0x1658 JUMP JUMPDEST DUP7 DUP4 LT ISZERO PUSH2 0x169A JUMPI DUP5 DUP10 ADD MLOAD PUSH2 0x1696 PUSH1 0x1F DUP10 AND DUP3 PUSH2 0x15A9 JUMP JUMPDEST DUP4 SSTORE POP JUMPDEST PUSH1 0x1 PUSH1 0x2 DUP9 MUL ADD DUP9 SSTORE POP POP POP JUMPDEST POP POP POP POP POP POP JUMP JUMPDEST PUSH0 PUSH1 0x20 DUP3 ADD SWAP1 POP DUP2 DUP2 SUB PUSH0 DUP4 ADD MSTORE PUSH2 0x16C7 DUP2 DUP5 PUSH2 0x1071 JUMP JUMPDEST SWAP1 POP SWAP3 SWAP2 POP POP JUMP JUMPDEST PUSH32 0x536F6C6F206167726963756C746F726573207265676973747261646F73207075 PUSH0 DUP3 ADD MSTORE PUSH32 0x6564656E207265676973747261722070726F647563746F732E00000000000000 PUSH1 0x20 DUP3 ADD MSTORE POP JUMP JUMPDEST PUSH0 PUSH2 0x1729 PUSH1 0x39 DUP4 PUSH2 0x1053 JUMP JUMPDEST SWAP2 POP PUSH2 0x1734 DUP3 PUSH2 0x16CF JUMP JUMPDEST PUSH1 0x40 DUP3 ADD SWAP1 POP SWAP2 SWAP1 POP JUMP JUMPDEST PUSH0 PUSH1 0x20 DUP3 ADD SWAP1 POP DUP2 DUP2 SUB PUSH0 DUP4 ADD MSTORE PUSH2 0x1756 DUP2 PUSH2 0x171D JUMP JUMPDEST SWAP1 POP SWAP2 SWAP1 POP JUMP JUMPDEST PUSH32 0x4E487B7100000000000000000000000000000000000000000000000000000000 PUSH0 MSTORE PUSH1 0x11 PUSH1 0x4 MSTORE PUSH1 0x24 PUSH0 REVERT JUMPDEST PUSH0 PUSH2 0x1794 DUP3 PUSH2 0xD3C JUMP JUMPDEST SWAP2 POP PUSH32 0xFFFFFFFFFFFFFFFFFFFFFFFFFFFFFFFFFFFFFFFFFFFFFFFFFFFFFFFFFFFFFFFF DUP3 SUB PUSH2 0x17C6 JUMPI PUSH2 0x17C5 PUSH2 0x175D JUMP JUMPDEST JUMPDEST PUSH1 0x1 DUP3 ADD SWAP1 POP SWAP2 SWAP1 POP JUMP JUMPDEST PUSH0 DUP2 SWAP1 POP SWAP3 SWAP2 POP POP JUMP JUMPDEST PUSH32 0x436F7365636861646F20706F7220000000000000000000000000000000000000 PUSH0 DUP3 ADD MSTORE POP JUMP JUMPDEST PUSH0 PUSH2 0x180F PUSH1 0xE DUP4 PUSH2 0x17D1 JUMP JUMPDEST SWAP2 POP PUSH2 0x181A DUP3 PUSH2 0x17DB JUMP JUMPDEST PUSH1 0xE DUP3 ADD SWAP1 POP SWAP2 SWAP1 POP JUMP JUMPDEST PUSH0 DUP2 SLOAD PUSH2 0x1831 DUP2 PUSH2 0x1410 JUMP JUMPDEST PUSH2 0x183B DUP2 DUP7 PUSH2 0x17D1 JUMP JUMPDEST SWAP5 POP PUSH1 0x1 DUP3 AND PUSH0 DUP2 EQ PUSH2 0x1855 JUMPI PUSH1 0x1 DUP2 EQ PUSH2 0x186A JUMPI PUSH2 0x189C JUMP JUMPDEST PUSH1 0xFF NOT DUP4 AND DUP7 MSTORE DUP2 ISZERO ISZERO DUP3 MUL DUP7 ADD SWAP4 POP PUSH2 0x189C JUMP JUMPDEST PUSH2 0x1873 DUP6 PUSH2 0x1440 JUMP JUMPDEST PUSH0 JUMPDEST DUP4 DUP2 LT ISZERO PUSH2 0x1894 JUMPI DUP2 SLOAD DUP2 DUP10 ADD MSTORE PUSH1 0x1 DUP3 ADD SWAP2 POP PUSH1 0x20 DUP2 ADD SWAP1 POP PUSH2 0x1875 JUMP JUMPDEST DUP4 DUP9 ADD SWAP6 POP POP POP JUMPDEST POP POP POP SWAP3 SWAP2 POP POP JUMP JUMPDEST PUSH0 PUSH2 0x18AF DUP3 PUSH2 0x1803 JUMP JUMPDEST SWAP2 POP PUSH2 0x18BB DUP3 DUP5 PUSH2 0x1825 JUMP JUMPDEST SWAP2 POP DUP2 SWAP1 POP SWAP3 SWAP2 POP POP JUMP JUMPDEST PUSH32 0x4167726963756C746F72207961207265676973747261646F2E00000000000000 PUSH0 DUP3 ADD MSTORE POP JUMP JUMPDEST PUSH0 PUSH2 0x18FA PUSH1 0x19 DUP4 PUSH2 0x1053 JUMP JUMPDEST SWAP2 POP PUSH2 0x1905 DUP3 PUSH2 0x18C6 JUMP JUMPDEST PUSH1 0x20 DUP3 ADD SWAP1 POP SWAP2 SWAP1 POP JUMP JUMPDEST PUSH0 PUSH1 0x20 DUP3 ADD SWAP1 POP DUP2 DUP2 SUB PUSH0 DUP4 ADD MSTORE PUSH2 0x1927 DUP2 PUSH2 0x18EE JUMP JUMPDEST SWAP1 POP SWAP2 SWAP1 POP JUMP JUMPDEST PUSH0 PUSH1 0x40 DUP3 ADD SWAP1 POP DUP2 DUP2 SUB PUSH0 DUP4 ADD MSTORE PUSH2 0x1946 DUP2 DUP6 PUSH2 0x1071 JUMP JUMPDEST SWAP1 POP DUP2 DUP2 SUB PUSH1 0x20 DUP4 ADD MSTORE PUSH2 0x195A DUP2 DUP5 PUSH2 0x1071 JUMP JUMPDEST SWAP1 POP SWAP4 SWAP3 POP POP POP JUMP INVALID LOG2 PUSH5 0x6970667358 0x22 SLT KECCAK256 RETURNDATASIZE SWAP2 0xDA SWAP6 0xA7 MULMOD PUSH21 0x8F3F30D954F49EC95EC43566F028D52B57D07A2677 BYTE CODESIZE DUP16 PUSH1 0x64 PUSH20 0x6F6C634300081E00330000000000000000000000 "
		},
		"gasEstimates": {
			"creation": {
				"codeDepositCost": "1310600",
				"executionCost": "1361",
				"totalCost": "1311961"
			},
			"external": {
				"agricultores(address)": "infinite",
				"contadorProductos()": "2470",
				"obtenerProducto(uint256)": "infinite",
				"productos(uint256)": "infinite",
				"registrarAgricultor(string,string)": "infinite",
				"registrarProducto(string,string)": "infinite",
				"transferirProducto(uint256,address,string)": "infinite"
			}
		},
		"methodIdentifiers": {
			"agricultores(address)": "a7d1cb55",
			"contadorProductos()": "97283acb",
			"obtenerProducto(uint256)": "e132a076",
			"productos(uint256)": "99553636",
			"registrarAgricultor(string,string)": "affe518a",
			"registrarProducto(string,string)": "91810ae0",
			"transferirProducto(uint256,address,string)": "583d9b98"
		}
	},
	"abi": [
		{
			"anonymous": false,
			"inputs": [
				{
					"indexed": true,
					"internalType": "address",
					"name": "id",
					"type": "address"
				},
				{
					"indexed": false,
					"internalType": "string",
					"name": "nombre",
					"type": "string"
				},
				{
					"indexed": false,
					"internalType": "string",
					"name": "ubicacion",
					"type": "string"
				}
			],
			"name": "AgricultorRegistrado",
			"type": "event"
		},
		{
			"anonymous": false,
			"inputs": [
				{
					"indexed": true,
					"internalType": "uint256",
					"name": "id",
					"type": "uint256"
				},
				{
					"indexed": true,
					"internalType": "address",
					"name": "agricultor",
					"type": "address"
				},
				{
					"indexed": false,
					"internalType": "string",
					"name": "nombreProducto",
					"type": "string"
				}
			],
			"name": "ProductoRegistrado",
			"type": "event"
		},
		{
			"anonymous": false,
			"inputs": [
				{
					"indexed": true,
					"internalType": "uint256",
					"name": "id",
					"type": "uint256"
				},
				{
					"indexed": true,
					"internalType": "address",
					"name": "de",
					"type": "address"
				},
				{
					"indexed": true,
					"internalType": "address",
					"name": "hacia",
					"type": "address"
				},
				{
					"indexed": false,
					"internalType": "string",
					"name": "descripcion",
					"type": "string"
				}
			],
			"name": "ProductoTransferido",
			"type": "event"
		},
		{
			"inputs": [
				{
					"internalType": "address",
					"name": "",
					"type": "address"
				}
			],
			"name": "agricultores",
			"outputs": [
				{
					"internalType": "address",
					"name": "id",
					"type": "address"
				},
				{
					"internalType": "string",
					"name": "nombre",
					"type": "string"
				},
				{
					"internalType": "string",
					"name": "ubicacion",
					"type": "string"
				}
			],
			"stateMutability": "view",
			"type": "function"
		},
		{
			"inputs": [],
			"name": "contadorProductos",
			"outputs": [
				{
					"internalType": "uint256",
					"name": "",
					"type": "uint256"
				}
			],
			"stateMutability": "view",
			"type": "function"
		},
		{
			"inputs": [
				{
					"internalType": "uint256",
					"name": "_idProducto",
					"type": "uint256"
				}
			],
			"name": "obtenerProducto",
			"outputs": [
				{
					"internalType": "uint256",
					"name": "id",
					"type": "uint256"
				},
				{
					"internalType": "address",
					"name": "propietarioActual",
					"type": "address"
				},
				{
					"internalType": "address",
					"name": "agricultorOriginal",
					"type": "address"
				},
				{
					"internalType": "string",
					"name": "nombreProducto",
					"type": "string"
				},
				{
					"internalType": "string",
					"name": "urlImagen",
					"type": "string"
				},
				{
					"internalType": "string[]",
					"name": "historialTransacciones",
					"type": "string[]"
				}
			],
			"stateMutability": "view",
			"type": "function"
		},
		{
			"inputs": [
				{
					"internalType": "uint256",
					"name": "",
					"type": "uint256"
				}
			],
			"name": "productos",
			"outputs": [
				{
					"internalType": "uint256",
					"name": "id",
					"type": "uint256"
				},
				{
					"internalType": "address",
					"name": "propietarioActual",
					"type": "address"
				},
				{
					"internalType": "address",
					"name": "agricultorOriginal",
					"type": "address"
				},
				{
					"internalType": "string",
					"name": "nombreProducto",
					"type": "string"
				},
				{
					"internalType": "string",
					"name": "urlImagen",
					"type": "string"
				}
			],
			"stateMutability": "view",
			"type": "function"
		},
		{
			"inputs": [
				{
					"internalType": "string",
					"name": "_nombre",
					"type": "string"
				},
				{
					"internalType": "string",
					"name": "_ubicacion",
					"type": "string"
				}
			],
			"name": "registrarAgricultor",
			"outputs": [],
			"stateMutability": "nonpayable",
			"type": "function"
		},
		{
			"inputs": [
				{
					"internalType": "string",
					"name": "_nombreProducto",
					"type": "string"
				},
				{
					"internalType": "string",
					"name": "_urlImagen",
					"type": "string"
				}
			],
			"name": "registrarProducto",
			"outputs": [],
			"stateMutability": "nonpayable",
			"type": "function"
		},
		{
			"inputs": [
				{
					"internalType": "uint256",
					"name": "_idProducto",
					"type": "uint256"
				},
				{
					"internalType": "address",
					"name": "_nuevoPropietario",
					"type": "address"
				},
				{
					"internalType": "string",
					"name": "_descripcion",
					"type": "string"
				}
			],
			"name": "transferirProducto",
			"outputs": [],
			"stateMutability": "nonpayable",
			"type": "function"
		}
	]
}